{
  "contractName": "EMBExchange",
  "abi": [
    {
      "inputs": [
        {
          "internalType": "address",
          "name": "_emb",
          "type": "address"
        },
        {
          "internalType": "address",
          "name": "_lemb",
          "type": "address"
        },
        {
          "internalType": "address payable",
          "name": "_feeReciever",
          "type": "address"
        }
      ],
      "stateMutability": "nonpayable",
      "type": "constructor"
    },
    {
      "anonymous": false,
      "inputs": [
        {
          "indexed": false,
          "internalType": "uint256",
          "name": "id",
          "type": "uint256"
        },
        {
          "indexed": false,
          "internalType": "address",
          "name": "maker",
          "type": "address"
        },
        {
          "indexed": false,
          "internalType": "uint256",
          "name": "amount",
          "type": "uint256"
        },
        {
          "indexed": false,
          "internalType": "uint256",
          "name": "price",
          "type": "uint256"
        },
        {
          "indexed": false,
          "internalType": "bool",
          "name": "demand",
          "type": "bool"
        },
        {
          "indexed": false,
          "internalType": "uint256",
          "name": "createdAt",
          "type": "uint256"
        }
      ],
      "name": "OrderCancelled",
      "type": "event"
    },
    {
      "anonymous": false,
      "inputs": [
        {
          "indexed": false,
          "internalType": "uint256",
          "name": "id",
          "type": "uint256"
        },
        {
          "indexed": false,
          "internalType": "address",
          "name": "maker",
          "type": "address"
        },
        {
          "indexed": false,
          "internalType": "address",
          "name": "taker",
          "type": "address"
        },
        {
          "indexed": false,
          "internalType": "uint256",
          "name": "originalAmount",
          "type": "uint256"
        },
        {
          "indexed": false,
          "internalType": "uint256",
          "name": "amountFilled",
          "type": "uint256"
        },
        {
          "indexed": false,
          "internalType": "uint256",
          "name": "price",
          "type": "uint256"
        },
        {
          "indexed": false,
          "internalType": "bool",
          "name": "demand",
          "type": "bool"
        },
        {
          "indexed": false,
          "internalType": "uint256",
          "name": "fulfilledAt",
          "type": "uint256"
        }
      ],
      "name": "OrderFilled",
      "type": "event"
    },
    {
      "anonymous": false,
      "inputs": [
        {
          "indexed": false,
          "internalType": "uint256",
          "name": "id",
          "type": "uint256"
        },
        {
          "indexed": false,
          "internalType": "address",
          "name": "maker",
          "type": "address"
        },
        {
          "indexed": false,
          "internalType": "uint256",
          "name": "amount",
          "type": "uint256"
        },
        {
          "indexed": false,
          "internalType": "uint256",
          "name": "price",
          "type": "uint256"
        },
        {
          "indexed": false,
          "internalType": "bool",
          "name": "demand",
          "type": "bool"
        }
      ],
      "name": "OrderPlaced",
      "type": "event"
    },
    {
      "anonymous": false,
      "inputs": [
        {
          "indexed": true,
          "internalType": "address",
          "name": "previousOwner",
          "type": "address"
        },
        {
          "indexed": true,
          "internalType": "address",
          "name": "newOwner",
          "type": "address"
        }
      ],
      "name": "OwnershipTransferred",
      "type": "event"
    },
    {
      "inputs": [
        {
          "internalType": "uint256",
          "name": "",
          "type": "uint256"
        }
      ],
      "name": "orders",
      "outputs": [
        {
          "internalType": "uint256",
          "name": "id",
          "type": "uint256"
        },
        {
          "internalType": "address payable",
          "name": "maker",
          "type": "address"
        },
        {
          "internalType": "bytes12",
          "name": "makerVanity",
          "type": "bytes12"
        },
        {
          "internalType": "uint256",
          "name": "amount",
          "type": "uint256"
        },
        {
          "internalType": "uint256",
          "name": "price",
          "type": "uint256"
        },
        {
          "internalType": "bool",
          "name": "demand",
          "type": "bool"
        },
        {
          "internalType": "uint256",
          "name": "createdAt",
          "type": "uint256"
        }
      ],
      "stateMutability": "view",
      "type": "function"
    },
    {
      "inputs": [],
      "name": "owner",
      "outputs": [
        {
          "internalType": "address",
          "name": "",
          "type": "address"
        }
      ],
      "stateMutability": "view",
      "type": "function"
    },
    {
      "inputs": [],
      "name": "renounceOwnership",
      "outputs": [],
      "stateMutability": "nonpayable",
      "type": "function"
    },
    {
      "inputs": [
        {
          "internalType": "address",
          "name": "newOwner",
          "type": "address"
        }
      ],
      "name": "transferOwnership",
      "outputs": [],
      "stateMutability": "nonpayable",
      "type": "function"
    },
    {
      "inputs": [
        {
          "internalType": "uint256",
          "name": "_makerFee",
          "type": "uint256"
        },
        {
          "internalType": "uint256",
          "name": "_takerFee",
          "type": "uint256"
        },
        {
          "internalType": "uint256",
          "name": "_denomination",
          "type": "uint256"
        }
      ],
      "name": "setFees",
      "outputs": [],
      "stateMutability": "nonpayable",
      "type": "function"
    },
    {
      "inputs": [
        {
          "internalType": "address",
          "name": "owner",
          "type": "address"
        },
        {
          "internalType": "bytes12",
          "name": "vanity",
          "type": "bytes12"
        },
        {
          "internalType": "bool",
          "name": "isMaker",
          "type": "bool"
        }
      ],
      "name": "getFee",
      "outputs": [
        {
          "internalType": "uint256",
          "name": "",
          "type": "uint256"
        }
      ],
      "stateMutability": "view",
      "type": "function"
    },
    {
      "inputs": [
        {
          "internalType": "uint256",
          "name": "id",
          "type": "uint256"
        }
      ],
      "name": "exists",
      "outputs": [
        {
          "internalType": "bool",
          "name": "",
          "type": "bool"
        }
      ],
      "stateMutability": "view",
      "type": "function"
    },
    {
      "inputs": [],
      "name": "getNewId",
      "outputs": [
        {
          "internalType": "uint256",
          "name": "",
          "type": "uint256"
        }
      ],
      "stateMutability": "view",
      "type": "function"
    },
    {
      "inputs": [],
      "name": "retrieveEMBInOrder",
      "outputs": [
        {
          "internalType": "uint256",
          "name": "",
          "type": "uint256"
        }
      ],
      "stateMutability": "view",
      "type": "function"
    },
    {
      "inputs": [],
      "name": "retrieveMyOrders",
      "outputs": [
        {
          "internalType": "uint256[]",
          "name": "",
          "type": "uint256[]"
        }
      ],
      "stateMutability": "view",
      "type": "function"
    },
    {
      "inputs": [],
      "name": "retrieveOrders",
      "outputs": [
        {
          "internalType": "uint256[]",
          "name": "",
          "type": "uint256[]"
        }
      ],
      "stateMutability": "view",
      "type": "function"
    },
    {
      "inputs": [
        {
          "internalType": "uint256",
          "name": "id",
          "type": "uint256"
        }
      ],
      "name": "getOrderData",
      "outputs": [
        {
          "internalType": "uint256",
          "name": "",
          "type": "uint256"
        },
        {
          "internalType": "address",
          "name": "",
          "type": "address"
        },
        {
          "internalType": "uint256",
          "name": "",
          "type": "uint256"
        },
        {
          "internalType": "uint256",
          "name": "",
          "type": "uint256"
        },
        {
          "internalType": "bool",
          "name": "",
          "type": "bool"
        }
      ],
      "stateMutability": "view",
      "type": "function"
    },
    {
      "inputs": [
        {
          "internalType": "uint256",
          "name": "price",
          "type": "uint256"
        },
        {
          "internalType": "uint256",
          "name": "amount",
          "type": "uint256"
        },
        {
          "internalType": "bool",
          "name": "demand",
          "type": "bool"
        },
        {
          "internalType": "bytes12",
          "name": "vanity",
          "type": "bytes12"
        }
      ],
      "name": "placeOrder",
      "outputs": [
        {
          "internalType": "bool",
          "name": "",
          "type": "bool"
        }
      ],
      "stateMutability": "payable",
      "type": "function"
    },
    {
      "inputs": [
        {
          "internalType": "uint256",
          "name": "id",
          "type": "uint256"
        },
        {
          "internalType": "uint256",
          "name": "amount",
          "type": "uint256"
        },
        {
          "internalType": "bytes12",
          "name": "vanity",
          "type": "bytes12"
        }
      ],
      "name": "takeOrder",
      "outputs": [
        {
          "internalType": "bool",
          "name": "",
          "type": "bool"
        }
      ],
      "stateMutability": "payable",
      "type": "function"
    },
    {
      "inputs": [
        {
          "internalType": "uint256[]",
          "name": "ids",
          "type": "uint256[]"
        },
        {
          "internalType": "uint256[]",
          "name": "amounts",
          "type": "uint256[]"
        },
        {
          "internalType": "uint256",
          "name": "price",
          "type": "uint256"
        },
        {
          "internalType": "uint256",
          "name": "amount",
          "type": "uint256"
        },
        {
          "internalType": "bool",
          "name": "demand",
          "type": "bool"
        },
        {
          "internalType": "bytes12",
          "name": "vanity",
          "type": "bytes12"
        }
      ],
      "name": "takeOrders",
      "outputs": [
        {
          "internalType": "bool",
          "name": "",
          "type": "bool"
        }
      ],
      "stateMutability": "payable",
      "type": "function"
    },
    {
      "inputs": [
        {
          "internalType": "uint256",
          "name": "id",
          "type": "uint256"
        }
      ],
      "name": "cancelOrder",
      "outputs": [
        {
          "internalType": "bool",
          "name": "",
          "type": "bool"
        }
      ],
      "stateMutability": "nonpayable",
      "type": "function"
    }
  ],
  "bytecode": "0x6080604052600060075560016008556305f5e1006009556001600a556001600b556103e8600c553480156200003357600080fd5b50604051620039af380380620039af833981810160405260608110156200005957600080fd5b8101908080519060200190929190805190602001909291908051906020019092919050505060016000819055506000620000986200020360201b60201c565b905080600160006101000a81548173ffffffffffffffffffffffffffffffffffffffff021916908373ffffffffffffffffffffffffffffffffffffffff1602179055508073ffffffffffffffffffffffffffffffffffffffff16600073ffffffffffffffffffffffffffffffffffffffff167f8be0079c531659141344cd1fd0a4f28419497f9722a3daafe3b4186f6b6457e060405160405180910390a35082600d60006101000a81548173ffffffffffffffffffffffffffffffffffffffff021916908373ffffffffffffffffffffffffffffffffffffffff16021790555081600e60006101000a81548173ffffffffffffffffffffffffffffffffffffffff021916908373ffffffffffffffffffffffffffffffffffffffff16021790555080600f60006101000a81548173ffffffffffffffffffffffffffffffffffffffff021916908373ffffffffffffffffffffffffffffffffffffffff1602179055505050506200020b565b600033905090565b613794806200021b6000396000f3fe6080604052600436106100f35760003560e01c80639ebec7ab1161008a578063bd39833911610059578063bd3983391461066c578063cec10c11146106d8578063cef88df414610727578063f2fde38b146107b9576100f3565b80639ebec7ab146104b2578063a161f9d21461051e578063a85c38ef14610549578063b5fd6635146105f1576100f3565b8063715018a6116100c6578063715018a6146102345780637b2d551e1461024b5780638da5cb5b146103ee57806395178c681461042f576100f3565b80631ffcfebd146100f85780634f558e7914610167578063514fcac7146101b85780637017d4f114610209575b600080fd5b61014f6004803603606081101561010e57600080fd5b810190808035906020019092919080359060200190929190803573ffffffffffffffffffffffffffffffffffffffff1916906020019092919050505061080a565b60405180821515815260200191505060405180910390f35b34801561017357600080fd5b506101a06004803603602081101561018a57600080fd5b8101908080359060200190929190505050610936565b60405180821515815260200191505060405180910390f35b3480156101c457600080fd5b506101f1600480360360208110156101db57600080fd5b8101908080359060200190929190505050610958565b60405180821515815260200191505060405180910390f35b34801561021557600080fd5b5061021e610b8f565b6040518082815260200191505060405180910390f35b34801561024057600080fd5b50610249610b99565b005b6103d6600480360360c081101561026157600080fd5b810190808035906020019064010000000081111561027e57600080fd5b82018360208201111561029057600080fd5b803590602001918460208302840111640100000000831117156102b257600080fd5b919080806020026020016040519081016040528093929190818152602001838360200280828437600081840152601f19601f8201169050808301925050505050505091929192908035906020019064010000000081111561031257600080fd5b82018360208201111561032457600080fd5b8035906020019184602083028401116401000000008311171561034657600080fd5b919080806020026020016040519081016040528093929190818152602001838360200280828437600081840152601f19601f8201169050808301925050505050505091929192908035906020019092919080359060200190929190803515159060200190929190803573ffffffffffffffffffffffffffffffffffffffff19169060200190929190505050610d24565b60405180821515815260200191505060405180910390f35b3480156103fa57600080fd5b50610403610f0d565b604051808273ffffffffffffffffffffffffffffffffffffffff16815260200191505060405180910390f35b34801561043b57600080fd5b506104686004803603602081101561045257600080fd5b8101908080359060200190929190505050610f37565b604051808681526020018573ffffffffffffffffffffffffffffffffffffffff16815260200184815260200183815260200182151581526020019550505050505060405180910390f35b3480156104be57600080fd5b506104c7611014565b6040518080602001828103825283818151815260200191508051906020019060200280838360005b8381101561050a5780820151818401526020810190506104ef565b505050509050019250505060405180910390f35b34801561052a57600080fd5b5061053361106c565b6040518082815260200191505060405180910390f35b34801561055557600080fd5b506105826004803603602081101561056c57600080fd5b8101908080359060200190929190505050611112565b604051808881526020018773ffffffffffffffffffffffffffffffffffffffff1681526020018673ffffffffffffffffffffffffffffffffffffffff19168152602001858152602001848152602001831515815260200182815260200197505050505050505060405180910390f35b6106546004803603608081101561060757600080fd5b810190808035906020019092919080359060200190929190803515159060200190929190803573ffffffffffffffffffffffffffffffffffffffff1916906020019092919050505061118e565b60405180821515815260200191505060405180910390f35b34801561067857600080fd5b5061068161129a565b6040518080602001828103825283818151815260200191508051906020019060200280838360005b838110156106c45780820151818401526020810190506106a9565b505050509050019250505060405180910390f35b3480156106e457600080fd5b50610725600480360360608110156106fb57600080fd5b8101908080359060200190929190803590602001909291908035906020019092919050505061132f565b005b34801561073357600080fd5b506107a36004803603606081101561074a57600080fd5b81019080803573ffffffffffffffffffffffffffffffffffffffff169060200190929190803573ffffffffffffffffffffffffffffffffffffffff1916906020019092919080351515906020019092919050505061142a565b6040518082815260200191505060405180910390f35b3480156107c557600080fd5b50610808600480360360208110156107dc57600080fd5b81019080803573ffffffffffffffffffffffffffffffffffffffff1690602001909291905050506116da565b005b6000346007819055506002600054141561088c576040517f08c379a000000000000000000000000000000000000000000000000000000000815260040180806020018281038252601f8152602001807f5265656e7472616e637947756172643a207265656e7472616e742063616c6c0081525060200191505060405180910390fd5b6002600081905550836002600086815260200190815260200160002060000154146108b657600080fd5b60006108c4338686866118ea565b90506000600754111561091b573373ffffffffffffffffffffffffffffffffffffffff166108fc6007549081150290604051600060405180830381858888f19350505050158015610919573d6000803e3d6000fd5b505b80915050600160008190555060006007819055509392505050565b6000816002600084815260200190815260200160002060000154149050919050565b6000600260005414156109d3576040517f08c379a000000000000000000000000000000000000000000000000000000000815260040180806020018281038252601f8152602001807f5265656e7472616e637947756172643a207265656e7472616e742063616c6c0081525060200191505060405180910390fd5b6002600081905550600082118015610a005750816002600084815260200190815260200160002060000154145b8015610a6d57503373ffffffffffffffffffffffffffffffffffffffff166002600084815260200190815260200160002060010160009054906101000a900473ffffffffffffffffffffffffffffffffffffffff1673ffffffffffffffffffffffffffffffffffffffff16145b610a7657600080fd5b60006002600084815260200190815260200160002060020154905060006002600085815260200190815260200160002060030154905060006002600086815260200190815260200160002060040160009054906101000a900460ff1690506000600260008781526020019081526020016000206005015490506000610afa876125ab565b90508015610b7a577f652d21910f25cd7e18fb2283e86898e16cfbd2c87d15c2794b0f41e22e05833c873387878787604051808781526020018673ffffffffffffffffffffffffffffffffffffffff1681526020018581526020018481526020018315158152602001828152602001965050505050505060405180910390a15b80955050505050506001600081905550919050565b6000600854905090565b610ba16129b9565b73ffffffffffffffffffffffffffffffffffffffff16600160009054906101000a900473ffffffffffffffffffffffffffffffffffffffff1673ffffffffffffffffffffffffffffffffffffffff1614610c63576040517f08c379a00000000000000000000000000000000000000000000000000000000081526004018080602001828103825260208152602001807f4f776e61626c653a2063616c6c6572206973206e6f7420746865206f776e657281525060200191505060405180910390fd5b600073ffffffffffffffffffffffffffffffffffffffff16600160009054906101000a900473ffffffffffffffffffffffffffffffffffffffff1673ffffffffffffffffffffffffffffffffffffffff167f8be0079c531659141344cd1fd0a4f28419497f9722a3daafe3b4186f6b6457e060405160405180910390a36000600160006101000a81548173ffffffffffffffffffffffffffffffffffffffff021916908373ffffffffffffffffffffffffffffffffffffffff160217905550565b60003460078190555060026000541415610da6576040517f08c379a000000000000000000000000000000000000000000000000000000000815260040180806020018281038252601f8152602001807f5265656e7472616e637947756172643a207265656e7472616e742063616c6c0081525060200191505060405180910390fd5b60026000819055508551875114610dbc57600080fd5b6000600190506000805b8951811015610e6c57898181518110610ddb57fe5b6020026020010151600260008c8481518110610df357fe5b602002602001015181526020019081526020016000206000015414610e1757600080fd5b610e49338b8381518110610e2757fe5b60200260200101518b8481518110610e3b57fe5b6020026020010151886118ea565b9150828015610e56575081155b15610e5f578192505b8080600101915050610dc6565b5060008614610e9957610e8233888888886129c1565b9050818015610e8f575080155b15610e98578091505b5b60006007541115610eee573373ffffffffffffffffffffffffffffffffffffffff166108fc6007549081150290604051600060405180830381858888f19350505050158015610eec573d6000803e3d6000fd5b505b8192505050600160008190555060006007819055509695505050505050565b6000600160009054906101000a900473ffffffffffffffffffffffffffffffffffffffff16905090565b600080600080600085600260008881526020019081526020016000206000015414610f6157600080fd5b60026000878152602001908152602001600020600001546002600088815260200190815260200160002060010160009054906101000a900473ffffffffffffffffffffffffffffffffffffffff166002600089815260200190815260200160002060020154600260008a815260200190815260200160002060030154600260008b815260200190815260200160002060040160009054906101000a900460ff169450945094509450945091939590929450565b6060600380548060200260200160405190810160405280929190818152602001828054801561106257602002820191906000526020600020905b81548152602001906001019080831161104e575b5050505050905090565b6000806000905060005b60038054905081101561110a5760001515600260006003848154811061109857fe5b9060005260206000200154815260200190815260200160002060040160009054906101000a900460ff16151514156110fd5760026000600383815481106110db57fe5b9060005260206000200154815260200190815260200160002060020154820191505b8080600101915050611076565b508091505090565b60026020528060005260406000206000915090508060000154908060010160009054906101000a900473ffffffffffffffffffffffffffffffffffffffff16908060010160149054906101000a900460a01b908060020154908060030154908060040160009054906101000a900460ff16908060050154905087565b60003460078190555060026000541415611210576040517f08c379a000000000000000000000000000000000000000000000000000000000815260040180806020018281038252601f8152602001807f5265656e7472616e637947756172643a207265656e7472616e742063616c6c0081525060200191505060405180910390fd5b6002600081905550600061122733878787876129c1565b90506000600754111561127e573373ffffffffffffffffffffffffffffffffffffffff166108fc6007549081150290604051600060405180830381858888f1935050505015801561127c573d6000803e3d6000fd5b505b8091505060016000819055506000600781905550949350505050565b6060600560003373ffffffffffffffffffffffffffffffffffffffff1673ffffffffffffffffffffffffffffffffffffffff16815260200190815260200160002080548060200260200160405190810160405280929190818152602001828054801561132557602002820191906000526020600020905b815481526020019060010190808311611311575b5050505050905090565b6113376129b9565b73ffffffffffffffffffffffffffffffffffffffff16600160009054906101000a900473ffffffffffffffffffffffffffffffffffffffff1673ffffffffffffffffffffffffffffffffffffffff16146113f9576040517f08c379a00000000000000000000000000000000000000000000000000000000081526004018080602001828103825260208152602001807f4f776e61626c653a2063616c6c6572206973206e6f7420746865206f776e657281525060200191505060405180910390fd5b808310801561140757508082105b61141057600080fd5b82600a8190555081600b8190555080600c81905550505050565b60008373ffffffffffffffffffffffffffffffffffffffff16600d60009054906101000a900473ffffffffffffffffffffffffffffffffffffffff1673ffffffffffffffffffffffffffffffffffffffff16630c5cc0a2856040518263ffffffff1660e01b8152600401808273ffffffffffffffffffffffffffffffffffffffff1916815260200191505060206040518083038186803b1580156114cd57600080fd5b505afa1580156114e1573d6000803e3d6000fd5b505050506040513d60208110156114f757600080fd5b810190808051906020019092919050505073ffffffffffffffffffffffffffffffffffffffff161480156115ec5750600d60009054906101000a900473ffffffffffffffffffffffffffffffffffffffff1673ffffffffffffffffffffffffffffffffffffffff1663b7fe896a846040518263ffffffff1660e01b8152600401808273ffffffffffffffffffffffffffffffffffffffff1916815260200191505060206040518083038186803b1580156115b057600080fd5b505afa1580156115c4573d6000803e3d6000fd5b505050506040513d60208110156115da57600080fd5b81019080805190602001909291905050505b156116bd57600d60009054906101000a900473ffffffffffffffffffffffffffffffffffffffff1673ffffffffffffffffffffffffffffffffffffffff166316166f89846040518263ffffffff1660e01b8152600401808273ffffffffffffffffffffffffffffffffffffffff1916815260200191505060206040518083038186803b15801561167b57600080fd5b505afa15801561168f573d6000803e3d6000fd5b505050506040513d60208110156116a557600080fd5b810190808051906020019092919050505090506116d3565b81156116cd57600a5490506116d3565b600b5490505b9392505050565b6116e26129b9565b73ffffffffffffffffffffffffffffffffffffffff16600160009054906101000a900473ffffffffffffffffffffffffffffffffffffffff1673ffffffffffffffffffffffffffffffffffffffff16146117a4576040517f08c379a00000000000000000000000000000000000000000000000000000000081526004018080602001828103825260208152602001807f4f776e61626c653a2063616c6c6572206973206e6f7420746865206f776e657281525060200191505060405180910390fd5b600073ffffffffffffffffffffffffffffffffffffffff168173ffffffffffffffffffffffffffffffffffffffff16141561182a576040517f08c379a00000000000000000000000000000000000000000000000000000000081526004018080602001828103825260268152602001806137186026913960400191505060405180910390fd5b8073ffffffffffffffffffffffffffffffffffffffff16600160009054906101000a900473ffffffffffffffffffffffffffffffffffffffff1673ffffffffffffffffffffffffffffffffffffffff167f8be0079c531659141344cd1fd0a4f28419497f9722a3daafe3b4186f6b6457e060405160405180910390a380600160006101000a81548173ffffffffffffffffffffffffffffffffffffffff021916908373ffffffffffffffffffffffffffffffffffffffff16021790555050565b60008084116118fc57600090506125a3565b6000600260008681526020019081526020016000209050848160000154141580611927575060008411155b156119365760009150506125a3565b806002015484111561194a57806002015493505b8060040160009054906101000a900460ff161561207b5783600e60009054906101000a900473ffffffffffffffffffffffffffffffffffffffff1673ffffffffffffffffffffffffffffffffffffffff166304426db4886040518263ffffffff1660e01b8152600401808273ffffffffffffffffffffffffffffffffffffffff16815260200191505060206040518083038186803b1580156119eb57600080fd5b505afa1580156119ff573d6000803e3d6000fd5b505050506040513d6020811015611a1557600080fd5b8101908080519060200190929190505050600d60009054906101000a900473ffffffffffffffffffffffffffffffffffffffff1673ffffffffffffffffffffffffffffffffffffffff166370a08231896040518263ffffffff1660e01b8152600401808273ffffffffffffffffffffffffffffffffffffffff16815260200191505060206040518083038186803b158015611aaf57600080fd5b505afa158015611ac3573d6000803e3d6000fd5b505050506040513d6020811015611ad957600080fd5b8101908080519060200190929190505050031080611c9c575083600e60009054906101000a900473ffffffffffffffffffffffffffffffffffffffff1673ffffffffffffffffffffffffffffffffffffffff166304426db4886040518263ffffffff1660e01b8152600401808273ffffffffffffffffffffffffffffffffffffffff16815260200191505060206040518083038186803b158015611b7c57600080fd5b505afa158015611b90573d6000803e3d6000fd5b505050506040513d6020811015611ba657600080fd5b8101908080519060200190929190505050600d60009054906101000a900473ffffffffffffffffffffffffffffffffffffffff1673ffffffffffffffffffffffffffffffffffffffff1663dd62ed3e89306040518363ffffffff1660e01b8152600401808373ffffffffffffffffffffffffffffffffffffffff1681526020018273ffffffffffffffffffffffffffffffffffffffff1681526020019250505060206040518083038186803b158015611c5e57600080fd5b505afa158015611c72573d6000803e3d6000fd5b505050506040513d6020811015611c8857600080fd5b810190808051906020019092919050505003105b15611cab5760009150506125a3565b6000611d14600c54611d06611cf78560010160009054906101000a900473ffffffffffffffffffffffffffffffffffffffff168660010160149054906101000a900460a01b600161142a565b8861310190919063ffffffff16565b61318790919063ffffffff16565b9050600d60009054906101000a900473ffffffffffffffffffffffffffffffffffffffff1673ffffffffffffffffffffffffffffffffffffffff166323b872dd88600f60009054906101000a900473ffffffffffffffffffffffffffffffffffffffff16846040518463ffffffff1660e01b8152600401808473ffffffffffffffffffffffffffffffffffffffff1681526020018373ffffffffffffffffffffffffffffffffffffffff1681526020018281526020019350505050602060405180830381600087803b158015611de957600080fd5b505af1158015611dfd573d6000803e3d6000fd5b505050506040513d6020811015611e1357600080fd5b810190808051906020019092919050505050600d60009054906101000a900473ffffffffffffffffffffffffffffffffffffffff1673ffffffffffffffffffffffffffffffffffffffff166323b872dd888460010160009054906101000a900473ffffffffffffffffffffffffffffffffffffffff168489036040518463ffffffff1660e01b8152600401808473ffffffffffffffffffffffffffffffffffffffff1681526020018373ffffffffffffffffffffffffffffffffffffffff1681526020018281526020019350505050602060405180830381600087803b158015611efc57600080fd5b505af1158015611f10573d6000803e3d6000fd5b505050506040513d6020811015611f2657600080fd5b8101908080519060200190929190505050506000611f96600c54611f88611f4f8b89600061142a565b611f7a600954611f6c89600301548d61310190919063ffffffff16565b61318790919063ffffffff16565b61310190919063ffffffff16565b61318790919063ffffffff16565b9050600f60009054906101000a900473ffffffffffffffffffffffffffffffffffffffff1673ffffffffffffffffffffffffffffffffffffffff166108fc829081150290604051600060405180830381858888f19350505050158015612000573d6000803e3d6000fd5b508773ffffffffffffffffffffffffffffffffffffffff166108fc8261204760095461203988600301548c61310190919063ffffffff16565b61318790919063ffffffff16565b039081150290604051600060405180830381858888f19350505050158015612073573d6000803e3d6000fd5b50505061249c565b60006007541115806120b857506120b36009546120a583600301548761310190919063ffffffff16565b61318790919063ffffffff16565b600754105b156120c75760009150506125a3565b6121066120f56009546120e784600301548861310190919063ffffffff16565b61318790919063ffffffff16565b6007546131d190919063ffffffff16565b600781905550600061219f600c546121916121588560010160009054906101000a900473ffffffffffffffffffffffffffffffffffffffff168660010160149054906101000a900460a01b600161142a565b61218360095461217588600301548c61310190919063ffffffff16565b61318790919063ffffffff16565b61310190919063ffffffff16565b61318790919063ffffffff16565b9050600f60009054906101000a900473ffffffffffffffffffffffffffffffffffffffff1673ffffffffffffffffffffffffffffffffffffffff166108fc829081150290604051600060405180830381858888f19350505050158015612209573d6000803e3d6000fd5b508160010160009054906101000a900473ffffffffffffffffffffffffffffffffffffffff1673ffffffffffffffffffffffffffffffffffffffff166108fc8261227460095461226687600301548b61310190919063ffffffff16565b61318790919063ffffffff16565b039081150290604051600060405180830381858888f193505050501580156122a0573d6000803e3d6000fd5b5060006122d5600c546122c76122b88b89600061142a565b8961310190919063ffffffff16565b61318790919063ffffffff16565b9050600d60009054906101000a900473ffffffffffffffffffffffffffffffffffffffff1673ffffffffffffffffffffffffffffffffffffffff1663a9059cbb600f60009054906101000a900473ffffffffffffffffffffffffffffffffffffffff16836040518363ffffffff1660e01b8152600401808373ffffffffffffffffffffffffffffffffffffffff16815260200182815260200192505050602060405180830381600087803b15801561238c57600080fd5b505af11580156123a0573d6000803e3d6000fd5b505050506040513d60208110156123b657600080fd5b810190808051906020019092919050505050600d60009054906101000a900473ffffffffffffffffffffffffffffffffffffffff1673ffffffffffffffffffffffffffffffffffffffff1663a9059cbb898389036040518363ffffffff1660e01b8152600401808373ffffffffffffffffffffffffffffffffffffffff16815260200182815260200192505050602060405180830381600087803b15801561245d57600080fd5b505af1158015612471573d6000803e3d6000fd5b505050506040513d602081101561248757600080fd5b81019080805190602001909291905050505050505b7f9afb8142f01c405054f7498832a3dbdc939d619309d8a642e8ea5d84c2a7fc03858260010160009054906101000a900473ffffffffffffffffffffffffffffffffffffffff168884600201548886600301548760040160009054906101000a900460ff1642604051808981526020018873ffffffffffffffffffffffffffffffffffffffff1681526020018773ffffffffffffffffffffffffffffffffffffffff16815260200186815260200185815260200184815260200183151581526020018281526020019850505050505050505060405180910390a183816002015403816002018190555060008160020154141561259d5761259b856125ab565b505b60019150505b949350505050565b600080821115806125d2575081600260008481526020019081526020016000206000015414155b156125e057600090506129b4565b600060046000848152602001908152602001600020549050600061261360016003805490506131d190919063ffffffff16565b905060006003828154811061262457fe5b90600052602060002001549050806003848154811061263f57fe5b90600052602060002001819055506004600086815260200190815260200160002060009055826004600083815260200190815260200160002081905550600380548061268757fe5b6001900381819060005260206000200160009055905560006002600087815260200190815260200160002060020154146128dc57600015156002600087815260200190815260200160002060040160009054906101000a900460ff161515141561280b57600d60009054906101000a900473ffffffffffffffffffffffffffffffffffffffff1673ffffffffffffffffffffffffffffffffffffffff1663a9059cbb6002600088815260200190815260200160002060010160009054906101000a900473ffffffffffffffffffffffffffffffffffffffff1660026000898152602001908152602001600020600201546040518363ffffffff1660e01b8152600401808373ffffffffffffffffffffffffffffffffffffffff16815260200182815260200192505050602060405180830381600087803b1580156127ca57600080fd5b505af11580156127de573d6000803e3d6000fd5b505050506040513d60208110156127f457600080fd5b8101908080519060200190929190505050506128db565b6002600086815260200190815260200160002060010160009054906101000a900473ffffffffffffffffffffffffffffffffffffffff1673ffffffffffffffffffffffffffffffffffffffff166108fc6128ae6009546128a0600260008b815260200190815260200160002060030154600260008c81526020019081526020016000206002015461310190919063ffffffff16565b61318790919063ffffffff16565b9081150290604051600060405180830381858888f193505050501580156128d9573d6000803e3d6000fd5b505b5b61291c6002600087815260200190815260200160002060010160009054906101000a900473ffffffffffffffffffffffffffffffffffffffff168661321b565b600260008681526020019081526020016000206000808201600090556001820160006101000a81549073ffffffffffffffffffffffffffffffffffffffff02191690556001820160146101000a8154906bffffffffffffffffffffffff0219169055600282016000905560038201600090556004820160006101000a81549060ff021916905560058201600090555050600193505050505b919050565b600033905090565b600080841115806129d3575060008511155b806129f157506009546129ef868661310190919063ffffffff16565b105b156129ff57600090506130f8565b8215612a51576000600754111580612a3e5750612a39600954612a2b878761310190919063ffffffff16565b61318790919063ffffffff16565b600754105b15612a4c57600090506130f8565b612d9b565b83600e60009054906101000a900473ffffffffffffffffffffffffffffffffffffffff1673ffffffffffffffffffffffffffffffffffffffff166304426db4886040518263ffffffff1660e01b8152600401808273ffffffffffffffffffffffffffffffffffffffff16815260200191505060206040518083038186803b158015612adb57600080fd5b505afa158015612aef573d6000803e3d6000fd5b505050506040513d6020811015612b0557600080fd5b8101908080519060200190929190505050600d60009054906101000a900473ffffffffffffffffffffffffffffffffffffffff1673ffffffffffffffffffffffffffffffffffffffff166370a08231896040518263ffffffff1660e01b8152600401808273ffffffffffffffffffffffffffffffffffffffff16815260200191505060206040518083038186803b158015612b9f57600080fd5b505afa158015612bb3573d6000803e3d6000fd5b505050506040513d6020811015612bc957600080fd5b8101908080519060200190929190505050031080612d8c575083600e60009054906101000a900473ffffffffffffffffffffffffffffffffffffffff1673ffffffffffffffffffffffffffffffffffffffff166304426db4886040518263ffffffff1660e01b8152600401808273ffffffffffffffffffffffffffffffffffffffff16815260200191505060206040518083038186803b158015612c6c57600080fd5b505afa158015612c80573d6000803e3d6000fd5b505050506040513d6020811015612c9657600080fd5b8101908080519060200190929190505050600d60009054906101000a900473ffffffffffffffffffffffffffffffffffffffff1673ffffffffffffffffffffffffffffffffffffffff1663dd62ed3e89306040518363ffffffff1660e01b8152600401808373ffffffffffffffffffffffffffffffffffffffff1681526020018273ffffffffffffffffffffffffffffffffffffffff1681526020019250505060206040518083038186803b158015612d4e57600080fd5b505afa158015612d62573d6000803e3d6000fd5b505050506040513d6020811015612d7857600080fd5b810190808051906020019092919050505003105b15612d9a57600090506130f8565b5b6000612da5610b8f565b90506040518060e001604052808281526020018873ffffffffffffffffffffffffffffffffffffffff1681526020018473ffffffffffffffffffffffffffffffffffffffff19168152602001868152602001878152602001851515815260200142815250600260008381526020019081526020016000206000820151816000015560208201518160010160006101000a81548173ffffffffffffffffffffffffffffffffffffffff021916908373ffffffffffffffffffffffffffffffffffffffff16021790555060408201518160010160146101000a8154816bffffffffffffffffffffffff021916908360a01c0217905550606082015181600201556080820151816003015560a08201518160040160006101000a81548160ff02191690831515021790555060c082015181600501559050506003819080600181540180825580915050600190039060005260206000200160009091909190915055612f1c60016003805490506131d190919063ffffffff16565b60046000838152602001908152602001600020819055508315612f7f57612f74612f63600954612f55898961310190919063ffffffff16565b61318790919063ffffffff16565b6007546131d190919063ffffffff16565b60078190555061306d565b600d60009054906101000a900473ffffffffffffffffffffffffffffffffffffffff1673ffffffffffffffffffffffffffffffffffffffff166323b872dd8830886040518463ffffffff1660e01b8152600401808473ffffffffffffffffffffffffffffffffffffffff1681526020018373ffffffffffffffffffffffffffffffffffffffff1681526020018281526020019350505050602060405180830381600087803b15801561303057600080fd5b505af1158015613044573d6000803e3d6000fd5b505050506040513d602081101561305a57600080fd5b8101908080519060200190929190505050505b613077878261348a565b7f1ad1a5ae4ffda7ac4728a3f999d312ee8c3bf93f8f9bec6ea55609ec2980c0d78188878988604051808681526020018573ffffffffffffffffffffffffffffffffffffffff16815260200184815260200183815260200182151581526020019550505050505060405180910390a160016008540160088190555060019150505b95945050505050565b6000808314156131145760009050613181565b600082840290508284828161312557fe5b041461317c576040517f08c379a000000000000000000000000000000000000000000000000000000000815260040180806020018281038252602181526020018061373e6021913960400191505060405180910390fd5b809150505b92915050565b60006131c983836040518060400160405280601a81526020017f536166654d6174683a206469766973696f6e206279207a65726f000000000000815250613591565b905092915050565b600061321383836040518060400160405280601e81526020017f536166654d6174683a207375627472616374696f6e206f766572666c6f770000815250613657565b905092915050565b6000600660008473ffffffffffffffffffffffffffffffffffffffff1673ffffffffffffffffffffffffffffffffffffffff168152602001908152602001600020600083815260200190815260200160002054905060006132c86001600560008773ffffffffffffffffffffffffffffffffffffffff1673ffffffffffffffffffffffffffffffffffffffff168152602001908152602001600020805490506131d190919063ffffffff16565b90506000600560008673ffffffffffffffffffffffffffffffffffffffff1673ffffffffffffffffffffffffffffffffffffffff168152602001908152602001600020828154811061331657fe5b9060005260206000200154905080600560008773ffffffffffffffffffffffffffffffffffffffff1673ffffffffffffffffffffffffffffffffffffffff168152602001908152602001600020848154811061336e57fe5b9060005260206000200181905550600560008673ffffffffffffffffffffffffffffffffffffffff1673ffffffffffffffffffffffffffffffffffffffff1681526020019081526020016000208054806133c457fe5b60019003818190600052602060002001600090559055600660008673ffffffffffffffffffffffffffffffffffffffff1673ffffffffffffffffffffffffffffffffffffffff16815260200190815260200160002060008581526020019081526020016000206000905582600660008773ffffffffffffffffffffffffffffffffffffffff1673ffffffffffffffffffffffffffffffffffffffff1681526020019081526020016000206000838152602001908152602001600020819055505050505050565b6000600560008473ffffffffffffffffffffffffffffffffffffffff1673ffffffffffffffffffffffffffffffffffffffff168152602001908152602001600020805490509050600560008473ffffffffffffffffffffffffffffffffffffffff1673ffffffffffffffffffffffffffffffffffffffff16815260200190815260200160002082908060018154018082558091505060019003906000526020600020016000909190919091505580600660008573ffffffffffffffffffffffffffffffffffffffff1673ffffffffffffffffffffffffffffffffffffffff168152602001908152602001600020600084815260200190815260200160002081905550505050565b6000808311829061363d576040517f08c379a00000000000000000000000000000000000000000000000000000000081526004018080602001828103825283818151815260200191508051906020019080838360005b838110156136025780820151818401526020810190506135e7565b50505050905090810190601f16801561362f5780820380516001836020036101000a031916815260200191505b509250505060405180910390fd5b50600083858161364957fe5b049050809150509392505050565b6000838311158290613704576040517f08c379a00000000000000000000000000000000000000000000000000000000081526004018080602001828103825283818151815260200191508051906020019080838360005b838110156136c95780820151818401526020810190506136ae565b50505050905090810190601f1680156136f65780820380516001836020036101000a031916815260200191505b509250505060405180910390fd5b506000838503905080915050939250505056fe4f776e61626c653a206e6577206f776e657220697320746865207a65726f2061646472657373536166654d6174683a206d756c7469706c69636174696f6e206f766572666c6f77a2646970667358221220ea119fb67fdf41a51546bfeb13c7da46e847033079a2123cc633d0ba1aaed9aa64736f6c63430007060033",
  "immutableReferences": {},
  "source": "// SPDX-License-Identifier: MIT\n\npragma solidity 0.7.6;\n\nimport \"@openzeppelin/contracts/math/SafeMath.sol\";\nimport \"@openzeppelin/contracts/utils/ReentrancyGuard.sol\";\nimport \"@openzeppelin/contracts/access/Ownable.sol\";\nimport \"./LeasedEmblem.sol\";\nimport \"./Emblem.sol\";\n\ncontract EMBExchange is ReentrancyGuard, Ownable {\n  using SafeMath for uint256;\n\n  struct Order {\n    uint256 id;\n    address payable maker;\n    bytes12 makerVanity;\n    uint256 amount;\n    uint256 price;\n    bool demand;\n    uint256 createdAt;\n  }\n\n  // order id -> order\n  mapping(uint256 => Order) public orders;\n\n  // Array with all order ids, used for enumeration\n  uint256[]  allOrders;\n\n  // Mapping from order id to position in the allOrders array\n  mapping(uint256 => uint256)  allOrdersIndex;\n\n  // Mapping from owner to list of owned order IDs\n  mapping(address => uint256[])  ownedOrders;\n\n  // Mapping from owner to map of order ID to index of the owner orders list\n  mapping(address => mapping (uint256 => uint256))  ownedOrdersIndex;\n\n  // weiSend of current tx\n  uint256 private weiSend = 0;\n  uint256 private highestId = 1;\n  uint256 private EMBPrecision = (10**8);\n\n  uint256 makerFee = 1;\n  uint256 takerFee = 1;\n  uint256 feeDenomination = 1000;\n\n  Emblem EMB;\n  LeasedEmblem LEMB;\n  address payable feeReciever;\n\n  // makes sure weiSend of current tx is reset\n  modifier weiSendGuard() {\n    weiSend = msg.value;\n    _;\n    weiSend = 0;\n  }\n\n  // logs\n  event OrderPlaced(uint256 id, address maker, uint256 amount, uint256 price, bool demand);\n\n  event OrderFilled(uint256 id, address maker, address taker, uint256 originalAmount, uint256 amountFilled, uint256 price, bool demand, uint256 fulfilledAt);\n\n  event OrderCancelled(uint256 id, address maker, uint256 amount, uint256 price, bool demand, uint256 createdAt);\n\n  constructor(address _emb, address _lemb, address payable _feeReciever) public {\n    EMB = Emblem(_emb);\n    LEMB = LeasedEmblem(_lemb);\n    feeReciever = _feeReciever;\n  }\n\n  function setFees(uint256 _makerFee, uint256 _takerFee, uint256 _denomination) public onlyOwner {\n    require(_makerFee < _denomination && _takerFee < _denomination);\n    makerFee = _makerFee;\n    takerFee = _takerFee;\n    feeDenomination = _denomination;\n  }\n\n  function getFee(address owner, bytes12 vanity, bool isMaker) public view returns (uint256){\n    if(EMB.getVanityOwner(vanity) == owner && EMB.enabledVanityFee(vanity)) return EMB.getFee(vanity);\n    else {\n      if(isMaker) return makerFee;\n      else return takerFee;\n    }\n  }\n\n  function exists(uint256 id) public view returns (bool) {\n    return (orders[id].id == id);\n  }\n\n  function getNewId() public view returns(uint256) {\n    return highestId;\n  }\n\n  function _placeOrder(address payable maker, uint256 price, uint256 amount, bool demand,bytes12 vanity) internal returns (bool){\n\n    // validate input\n    if (amount <= 0 ||\n      price <= 0 ||\n      amount.mul(price) < (EMBPrecision)\n    ) return (false);\n\n    if(demand) {\n      if(weiSend <= 0 || weiSend < amount.mul(price).div(EMBPrecision)) return (false);\n    }\n    else {\n      if ( EMB.balanceOf(maker) - LEMB.getAmountForUserMining(maker) < amount || (EMB.allowance(maker, address(this)) - LEMB.getAmountForUserMining(maker) < amount)) return (false);\n    }\n\n    uint256 id = getNewId();\n\n    orders[id] = Order(id, maker,vanity, amount, price, demand,block.timestamp);\n    allOrders.push(id);\n    allOrdersIndex[id] = allOrders.length.sub(1);\n\n    if(demand) weiSend = weiSend.sub(amount.mul(price).div(EMBPrecision));\n    else EMB.transferFrom(maker, address(this), amount);\n\n    _addOrderToUser(maker, id);\n\n    emit OrderPlaced(id, maker, amount, price,demand);\n\n    highestId = highestId + 1;\n\n    return (true);\n  }\n\n  //returns the amount to send to the user\n  function getTransferAmount(uint256 amount, uint256 price,uint256 fee,bool isTaker, bool isEMB) internal view returns (uint256){\n    if(isTaker) {\n      if(isEMB) return amount.mul(fee).div(feeDenomination);\n      else return amount.mul(price).div(EMBPrecision).mul(fee).div(feeDenomination);\n    }\n    else {\n      if(isEMB) return amount.mul((uint256(1)).sub(fee.div(feeDenomination)));\n      else return amount.mul(price).div(EMBPrecision).mul((uint256(1)).sub(fee.div(feeDenomination)));\n    }\n  }\n\n  function _takeOrder(address payable taker, uint256 id, uint256 amount, bytes12 vanity) internal returns (bool) {\n    // validate inputs\n    if (id <= 0) return (false);\n\n    // get order\n    Order storage order = orders[id];\n\n    // validate order\n    if (\n      order.id != id ||\n      amount <= 0\n    ) return (false);\n\n    //if above, set amount to that of the order's amount\n    if(amount > order.amount) amount = order.amount;\n\n    if(order.demand){\n\n      //ensure that you cannot game the allowance of EMB\n      if ( EMB.balanceOf(taker) - LEMB.getAmountForUserMining(taker) < amount || (EMB.allowance(taker, address(this)) - LEMB.getAmountForUserMining(taker) < amount)) return (false);\n\n      uint256 fee_maker = amount.mul(getFee(order.maker, order.makerVanity, true)).div(feeDenomination);\n\n      //transfer EMB to feeReciever from maker\n      EMB.transferFrom(taker, feeReciever, fee_maker);\n\n      //transfer EMB from taker to maker\n      EMB.transferFrom(taker, order.maker, amount - fee_maker);\n\n      uint256 fee_taker = amount.mul(order.price).div(EMBPrecision).mul(getFee(taker, vanity, false)).div(feeDenomination);\n\n      //transfer ETH to feeReciever from taker\n      feeReciever.transfer(fee_taker);\n\n      //pay taker\n      taker.transfer(amount.mul(order.price).div(EMBPrecision) - fee_taker);\n    }\n\n    else {\n\n      //ensure that you have sent the right amount of eth\n      if (weiSend <= 0 || weiSend < amount.mul(order.price).div(EMBPrecision)) return (false);\n\n      //pay maker\n      weiSend = weiSend.sub(amount.mul(order.price).div(EMBPrecision));\n\n      uint256 fee_maker = amount.mul(order.price).div(EMBPrecision).mul(getFee(order.maker, order.makerVanity, true)).div(feeDenomination);\n\n      //transfer ETH to feeReciever from maker\n      feeReciever.transfer(fee_maker);\n\n      //transfer ETH from taker to maker\n      order.maker.transfer(amount.mul(order.price).div(EMBPrecision) - fee_maker);\n\n      uint256 fee_taker = amount.mul(getFee(taker, vanity, false)).div(feeDenomination);\n\n      //transfer EMB to feeReciever from taker\n      EMB.transfer(feeReciever, fee_taker);\n\n      //pay taker\n      EMB.transfer(taker, amount - fee_taker);\n    }\n\n    emit OrderFilled(id, order.maker, taker, order.amount, amount, order.price, order.demand, block.timestamp);\n\n    order.amount = order.amount - amount;\n\n    if(order.amount == 0){\n      _deleteOrder(id);\n    }\n\n    return (true);\n  }\n\n  function _deleteOrder(uint256 id) internal returns (bool) {\n\n    if (\n      id <= 0 ||\n      orders[id].id != id\n    ) return (false);\n\n    // // Reorg all orders\n    uint256 orderIndex = allOrdersIndex[id];\n    uint256 lastOrderIndex = allOrders.length.sub(1);\n    uint256 lastOrder = allOrders[lastOrderIndex];\n    allOrders[orderIndex] = lastOrder;\n    delete allOrdersIndex[id];\n    allOrdersIndex[lastOrder] = orderIndex;\n    allOrders.pop();\n\n    //pay back on cancellation\n    if(orders[id].amount != 0){\n      if(orders[id].demand == false){\n        EMB.transfer(orders[id].maker,orders[id].amount);\n      }\n      else {\n        orders[id].maker.transfer(orders[id].amount.mul(orders[id].price).div(EMBPrecision));\n      }\n    }\n\n    //remove order from user\n    _removeOrderFromUser(orders[id].maker, id);\n\n    delete orders[id];\n\n    return (true);\n  }\n\n  function retrieveEMBInOrder() public view returns(uint256){\n    uint256 amount = 0;\n    for(uint256 i = 0; i < allOrders.length; i++){\n      if(orders[allOrders[i]].demand == false) {\n        amount += orders[allOrders[i]].amount;\n      }\n    }\n    return amount;\n  }\n\n  function retrieveMyOrders() public view returns(uint256[] memory) {\n    return ownedOrders[msg.sender];\n  }\n\n  function retrieveOrders() public view returns(uint256[] memory) {\n    return allOrders;\n  }\n\n  function getOrderData(uint256 id) public view returns (uint256, address, uint256, uint256, bool) {\n    require(orders[id].id == id);\n    return (orders[id].id, orders[id].maker, orders[id].amount, orders[id].price, orders[id].demand);\n  }\n\n  function _addOrderToUser(address _to, uint256 _orderId) internal {\n    uint256 length = ownedOrders[_to].length;\n    ownedOrders[_to].push(_orderId);\n    ownedOrdersIndex[_to][_orderId] = length;\n  }\n\n  function _removeOrderFromUser(address _from, uint256 _orderId) internal  {\n    uint256 orderIndex = ownedOrdersIndex[_from][_orderId];\n    uint256 lastOrderIndex = ownedOrders[_from].length.sub(1);\n    uint256 lastOrderId = ownedOrders[_from][lastOrderIndex];\n\n    ownedOrders[_from][orderIndex] = lastOrderId;\n    ownedOrders[_from].pop();\n    delete ownedOrdersIndex[_from][_orderId];\n    ownedOrdersIndex[_from][lastOrderId] = orderIndex;\n  }\n\n  function placeOrder(uint256 price, uint256 amount, bool demand,bytes12 vanity)  external payable weiSendGuard nonReentrant returns (bool)  {\n    bool success = _placeOrder(msg.sender, price, amount, demand, vanity);\n\n    //send back excess ETH\n    if (weiSend > 0) msg.sender.transfer(weiSend);\n\n    return success;\n  }\n\n  function takeOrder(uint256 id, uint256 amount,bytes12 vanity)  external payable weiSendGuard nonReentrant returns (bool) {\n    require(orders[id].id == id);\n\n    bool success = _takeOrder(msg.sender, id, amount, vanity);\n\n    //send back excess ETH\n    if (weiSend > 0) msg.sender.transfer(weiSend);\n\n    return success;\n  }\n\n  //take a few orders and place Order if order to place\n  function takeOrders(uint256[] memory ids, uint256[] memory amounts, uint256 price, uint256 amount, bool demand,bytes12 vanity) external payable weiSendGuard nonReentrant returns (bool) {\n    require(ids.length == amounts.length);\n\n    bool allSuccess = true;\n    bool success = false;\n\n    for (uint256 i = 0; i < ids.length; i++){\n      require(orders[ids[i]].id == ids[i]);\n      success = _takeOrder(msg.sender, ids[i], amounts[i],vanity);\n      if (allSuccess && !success) allSuccess = success;\n    }\n\n    if(amount != 0){\n      success = _placeOrder(msg.sender, price, amount, demand,vanity);\n      if (allSuccess && !success) allSuccess = success;\n    }\n\n    if (weiSend > 0) msg.sender.transfer(weiSend);\n\n    return allSuccess;\n  }\n\n  function cancelOrder(uint256 id) external nonReentrant returns (bool) {\n    require(\n      id > 0 &&\n      orders[id].id == id &&\n      orders[id].maker == msg.sender\n    );\n\n    uint256 amount = orders[id].amount;\n    uint256 price = orders[id].price;\n    bool demand = orders[id].demand;\n    uint256 createdAt = orders[id].createdAt;\n\n    bool success = _deleteOrder(id);\n    if(success) emit OrderCancelled(id, msg.sender, amount, price, demand, createdAt);\n\n    return success;\n  }\n\n}\n",
  "sourcePath": "/Users/arjunjain/Emblem_Ethereum_Anchor/contracts/EMBExchange.sol",
  "compiler": {
    "name": "solc",
    "version": "0.7.6+commit.7338295f.Emscripten.clang"
  },
  "schemaVersion": "3.3.3",
  "updatedAt": "2021-02-08T20:25:37.283Z",
  "devdoc": {
    "kind": "dev",
    "methods": {
      "owner()": {
        "details": "Returns the address of the current owner."
      },
      "renounceOwnership()": {
        "details": "Leaves the contract without owner. It will not be possible to call `onlyOwner` functions anymore. Can only be called by the current owner. NOTE: Renouncing ownership will leave the contract without an owner, thereby removing any functionality that is only available to the owner."
      },
      "transferOwnership(address)": {
        "details": "Transfers ownership of the contract to a new account (`newOwner`). Can only be called by the current owner."
      }
    },
    "version": 1
  },
  "userdoc": {
    "kind": "user",
    "methods": {},
    "version": 1
  }
}