{
  "contractName": "EMBExchange",
  "abi": [
    {
      "constant": false,
      "inputs": [],
      "name": "renounceOwnership",
      "outputs": [],
      "payable": false,
      "stateMutability": "nonpayable",
      "type": "function"
    },
    {
      "constant": true,
      "inputs": [],
      "name": "owner",
      "outputs": [
        {
          "name": "",
          "type": "address"
        }
      ],
      "payable": false,
      "stateMutability": "view",
      "type": "function"
    },
    {
      "constant": true,
      "inputs": [
        {
          "name": "",
          "type": "uint256"
        }
      ],
      "name": "orders",
      "outputs": [
        {
          "name": "id",
          "type": "uint256"
        },
        {
          "name": "maker",
          "type": "address"
        },
        {
          "name": "makerVanity",
          "type": "bytes12"
        },
        {
          "name": "amount",
          "type": "uint256"
        },
        {
          "name": "price",
          "type": "uint256"
        },
        {
          "name": "demand",
          "type": "bool"
        },
        {
          "name": "createdAt",
          "type": "uint256"
        }
      ],
      "payable": false,
      "stateMutability": "view",
      "type": "function"
    },
    {
      "constant": false,
      "inputs": [
        {
          "name": "_newOwner",
          "type": "address"
        }
      ],
      "name": "transferOwnership",
      "outputs": [],
      "payable": false,
      "stateMutability": "nonpayable",
      "type": "function"
    },
    {
      "inputs": [
        {
          "name": "_emb",
          "type": "address"
        },
        {
          "name": "_lemb",
          "type": "address"
        },
        {
          "name": "_feeReciever",
          "type": "address"
        }
      ],
      "payable": false,
      "stateMutability": "nonpayable",
      "type": "constructor"
    },
    {
      "anonymous": false,
      "inputs": [
        {
          "indexed": false,
          "name": "id",
          "type": "uint256"
        },
        {
          "indexed": false,
          "name": "maker",
          "type": "address"
        },
        {
          "indexed": false,
          "name": "amount",
          "type": "uint256"
        },
        {
          "indexed": false,
          "name": "price",
          "type": "uint256"
        },
        {
          "indexed": false,
          "name": "demand",
          "type": "bool"
        }
      ],
      "name": "OrderPlaced",
      "type": "event"
    },
    {
      "anonymous": false,
      "inputs": [
        {
          "indexed": false,
          "name": "id",
          "type": "uint256"
        },
        {
          "indexed": false,
          "name": "maker",
          "type": "address"
        },
        {
          "indexed": false,
          "name": "taker",
          "type": "address"
        },
        {
          "indexed": false,
          "name": "originalAmount",
          "type": "uint256"
        },
        {
          "indexed": false,
          "name": "amountFilled",
          "type": "uint256"
        },
        {
          "indexed": false,
          "name": "price",
          "type": "uint256"
        },
        {
          "indexed": false,
          "name": "demand",
          "type": "bool"
        },
        {
          "indexed": false,
          "name": "fulfilledAt",
          "type": "uint256"
        }
      ],
      "name": "OrderFilled",
      "type": "event"
    },
    {
      "anonymous": false,
      "inputs": [
        {
          "indexed": false,
          "name": "id",
          "type": "uint256"
        },
        {
          "indexed": false,
          "name": "maker",
          "type": "address"
        },
        {
          "indexed": false,
          "name": "amount",
          "type": "uint256"
        },
        {
          "indexed": false,
          "name": "price",
          "type": "uint256"
        },
        {
          "indexed": false,
          "name": "demand",
          "type": "bool"
        },
        {
          "indexed": false,
          "name": "createdAt",
          "type": "uint256"
        }
      ],
      "name": "OrderCancelled",
      "type": "event"
    },
    {
      "anonymous": false,
      "inputs": [
        {
          "indexed": true,
          "name": "previousOwner",
          "type": "address"
        }
      ],
      "name": "OwnershipRenounced",
      "type": "event"
    },
    {
      "anonymous": false,
      "inputs": [
        {
          "indexed": true,
          "name": "previousOwner",
          "type": "address"
        },
        {
          "indexed": true,
          "name": "newOwner",
          "type": "address"
        }
      ],
      "name": "OwnershipTransferred",
      "type": "event"
    },
    {
      "constant": false,
      "inputs": [
        {
          "name": "_makerFee",
          "type": "uint256"
        },
        {
          "name": "_takerFee",
          "type": "uint256"
        },
        {
          "name": "_denomination",
          "type": "uint256"
        }
      ],
      "name": "setFees",
      "outputs": [],
      "payable": false,
      "stateMutability": "nonpayable",
      "type": "function"
    },
    {
      "constant": true,
      "inputs": [
        {
          "name": "owner",
          "type": "address"
        },
        {
          "name": "vanity",
          "type": "bytes12"
        },
        {
          "name": "isMaker",
          "type": "bool"
        }
      ],
      "name": "getFee",
      "outputs": [
        {
          "name": "",
          "type": "uint256"
        }
      ],
      "payable": false,
      "stateMutability": "view",
      "type": "function"
    },
    {
      "constant": true,
      "inputs": [
        {
          "name": "id",
          "type": "uint256"
        }
      ],
      "name": "exists",
      "outputs": [
        {
          "name": "",
          "type": "bool"
        }
      ],
      "payable": false,
      "stateMutability": "view",
      "type": "function"
    },
    {
      "constant": true,
      "inputs": [],
      "name": "getNewId",
      "outputs": [
        {
          "name": "",
          "type": "uint256"
        }
      ],
      "payable": false,
      "stateMutability": "view",
      "type": "function"
    },
    {
      "constant": true,
      "inputs": [],
      "name": "retrieveEMBInOrder",
      "outputs": [
        {
          "name": "",
          "type": "uint256"
        }
      ],
      "payable": false,
      "stateMutability": "view",
      "type": "function"
    },
    {
      "constant": true,
      "inputs": [],
      "name": "retrieveMyOrders",
      "outputs": [
        {
          "name": "",
          "type": "uint256[]"
        }
      ],
      "payable": false,
      "stateMutability": "view",
      "type": "function"
    },
    {
      "constant": true,
      "inputs": [],
      "name": "retrieveOrders",
      "outputs": [
        {
          "name": "",
          "type": "uint256[]"
        }
      ],
      "payable": false,
      "stateMutability": "view",
      "type": "function"
    },
    {
      "constant": true,
      "inputs": [
        {
          "name": "id",
          "type": "uint256"
        }
      ],
      "name": "getOrderData",
      "outputs": [
        {
          "name": "",
          "type": "uint256"
        },
        {
          "name": "",
          "type": "address"
        },
        {
          "name": "",
          "type": "uint256"
        },
        {
          "name": "",
          "type": "uint256"
        },
        {
          "name": "",
          "type": "bool"
        }
      ],
      "payable": false,
      "stateMutability": "view",
      "type": "function"
    },
    {
      "constant": false,
      "inputs": [
        {
          "name": "price",
          "type": "uint256"
        },
        {
          "name": "amount",
          "type": "uint256"
        },
        {
          "name": "demand",
          "type": "bool"
        },
        {
          "name": "vanity",
          "type": "bytes12"
        }
      ],
      "name": "placeOrder",
      "outputs": [
        {
          "name": "",
          "type": "bool"
        }
      ],
      "payable": true,
      "stateMutability": "payable",
      "type": "function"
    },
    {
      "constant": false,
      "inputs": [
        {
          "name": "id",
          "type": "uint256"
        },
        {
          "name": "amount",
          "type": "uint256"
        },
        {
          "name": "vanity",
          "type": "bytes12"
        }
      ],
      "name": "takeOrder",
      "outputs": [
        {
          "name": "",
          "type": "bool"
        }
      ],
      "payable": true,
      "stateMutability": "payable",
      "type": "function"
    },
    {
      "constant": false,
      "inputs": [
        {
          "name": "ids",
          "type": "uint256[]"
        },
        {
          "name": "amounts",
          "type": "uint256[]"
        },
        {
          "name": "price",
          "type": "uint256"
        },
        {
          "name": "amount",
          "type": "uint256"
        },
        {
          "name": "demand",
          "type": "bool"
        },
        {
          "name": "vanity",
          "type": "bytes12"
        }
      ],
      "name": "takeOrders",
      "outputs": [
        {
          "name": "",
          "type": "bool"
        }
      ],
      "payable": true,
      "stateMutability": "payable",
      "type": "function"
    },
    {
      "constant": false,
      "inputs": [
        {
          "name": "id",
          "type": "uint256"
        }
      ],
      "name": "cancelOrder",
      "outputs": [
        {
          "name": "",
          "type": "bool"
        }
      ],
      "payable": false,
      "stateMutability": "nonpayable",
      "type": "function"
    }
  ],
  "bytecode": "0x608060405260008060006101000a81548160ff021916908315150217905550600060065560016007556305f5e10060085560016009556001600a556103e8600b5534801561004c57600080fd5b5060405160608061385083398101806040528101908080519060200190929190805190602001909291908051906020019092919050505033600060016101000a81548173ffffffffffffffffffffffffffffffffffffffff021916908373ffffffffffffffffffffffffffffffffffffffff16021790555082600c60006101000a81548173ffffffffffffffffffffffffffffffffffffffff021916908373ffffffffffffffffffffffffffffffffffffffff16021790555081600d60006101000a81548173ffffffffffffffffffffffffffffffffffffffff021916908373ffffffffffffffffffffffffffffffffffffffff16021790555080600e60006101000a81548173ffffffffffffffffffffffffffffffffffffffff021916908373ffffffffffffffffffffffffffffffffffffffff1602179055505050506136b7806101996000396000f3006080604052600436106100e6576000357c0100000000000000000000000000000000000000000000000000000000900463ffffffff1680631ffcfebd146100eb5780634f558e791461014e578063514fcac7146101935780637017d4f1146101d8578063715018a6146102035780637b2d551e1461021a5780638da5cb5b146102b957806395178c68146103105780639ebec7ab1461039d578063a161f9d214610409578063a85c38ef14610434578063b5fd6635146104fd578063bd3983391461056c578063cec10c11146105d8578063cef88df414610619578063f2fde38b1461069d575b600080fd5b6101346004803603810190808035906020019092919080359060200190929190803573ffffffffffffffffffffffffffffffffffffffff191690602001909291905050506106e0565b604051808215151515815260200191505060405180910390f35b34801561015a57600080fd5b50610179600480360381019080803590602001909291905050506107d3565b604051808215151515815260200191505060405180910390f35b34801561019f57600080fd5b506101be600480360381019080803590602001909291905050506107f5565b604051808215151515815260200191505060405180910390f35b3480156101e457600080fd5b506101ed610a09565b6040518082815260200191505060405180910390f35b34801561020f57600080fd5b50610218610a13565b005b61029f6004803603810190808035906020019082018035906020019190919293919293908035906020019082018035906020019190919293919293908035906020019092919080359060200190929190803515159060200190929190803573ffffffffffffffffffffffffffffffffffffffff19169060200190929190505050610b17565b604051808215151515815260200191505060405180910390f35b3480156102c557600080fd5b506102ce610cdf565b604051808273ffffffffffffffffffffffffffffffffffffffff1673ffffffffffffffffffffffffffffffffffffffff16815260200191505060405180910390f35b34801561031c57600080fd5b5061033b60048036038101908080359060200190929190505050610d05565b604051808681526020018573ffffffffffffffffffffffffffffffffffffffff1673ffffffffffffffffffffffffffffffffffffffff168152602001848152602001838152602001821515151581526020019550505050505060405180910390f35b3480156103a957600080fd5b506103b2610de4565b6040518080602001828103825283818151815260200191508051906020019060200280838360005b838110156103f55780820151818401526020810190506103da565b505050509050019250505060405180910390f35b34801561041557600080fd5b5061041e610e3c565b6040518082815260200191505060405180910390f35b34801561044057600080fd5b5061045f60048036038101908080359060200190929190505050610ee9565b604051808881526020018773ffffffffffffffffffffffffffffffffffffffff1673ffffffffffffffffffffffffffffffffffffffff1681526020018673ffffffffffffffffffffffffffffffffffffffff191673ffffffffffffffffffffffffffffffffffffffff191681526020018581526020018481526020018315151515815260200182815260200197505050505050505060405180910390f35b6105526004803603810190808035906020019092919080359060200190929190803515159060200190929190803573ffffffffffffffffffffffffffffffffffffffff19169060200190929190505050610f79565b604051808215151515815260200191505060405180910390f35b34801561057857600080fd5b5061058161104a565b6040518080602001828103825283818151815260200191508051906020019060200280838360005b838110156105c45780820151818401526020810190506105a9565b505050509050019250505060405180910390f35b3480156105e457600080fd5b506106176004803603810190808035906020019092919080359060200190929190803590602001909291905050506110df565b005b34801561062557600080fd5b50610687600480360381019080803573ffffffffffffffffffffffffffffffffffffffff169060200190929190803573ffffffffffffffffffffffffffffffffffffffff1916906020019092919080351515906020019092919050505061116e565b6040518082815260200191505060405180910390f35b3480156106a957600080fd5b506106de600480360381019080803573ffffffffffffffffffffffffffffffffffffffff1690602001909291905050506114bd565b005b600080346006819055506000809054906101000a900460ff1615151561070557600080fd5b60016000806101000a81548160ff02191690831515021790555084600160008781526020019081526020016000206000015414151561074357600080fd5b61074f33868686611525565b9050600060065411156107a6573373ffffffffffffffffffffffffffffffffffffffff166108fc6006549081150290604051600060405180830381858888f193505050501580156107a4573d6000803e3d6000fd5b505b80915060008060006101000a81548160ff0219169083151502179055506000600681905550509392505050565b6000816001600084815260200190815260200160002060000154149050919050565b6000806000806000806000809054906101000a900460ff1615151561081957600080fd5b60016000806101000a81548160ff0219169083151502179055506000871180156108585750866001600089815260200190815260200160002060000154145b80156108c557503373ffffffffffffffffffffffffffffffffffffffff166001600089815260200190815260200160002060010160009054906101000a900473ffffffffffffffffffffffffffffffffffffffff1673ffffffffffffffffffffffffffffffffffffffff16145b15156108d057600080fd5b60016000888152602001908152602001600020600201549450600160008881526020019081526020016000206003015493506001600088815260200190815260200160002060040160009054906101000a900460ff1692506001600088815260200190815260200160002060050154915061094a8761240e565b905080156109e2577f652d21910f25cd7e18fb2283e86898e16cfbd2c87d15c2794b0f41e22e05833c873387878787604051808781526020018673ffffffffffffffffffffffffffffffffffffffff1673ffffffffffffffffffffffffffffffffffffffff16815260200185815260200184815260200183151515158152602001828152602001965050505050505060405180910390a15b80955060008060006101000a81548160ff0219169083151502179055505050505050919050565b6000600754905090565b600060019054906101000a900473ffffffffffffffffffffffffffffffffffffffff1673ffffffffffffffffffffffffffffffffffffffff163373ffffffffffffffffffffffffffffffffffffffff16141515610a6f57600080fd5b600060019054906101000a900473ffffffffffffffffffffffffffffffffffffffff1673ffffffffffffffffffffffffffffffffffffffff167ff8df31144d9c2f0f6b59d69b8b98abd5459d07f2742c4df920b25aae33c6482060405160405180910390a260008060016101000a81548173ffffffffffffffffffffffffffffffffffffffff021916908373ffffffffffffffffffffffffffffffffffffffff160217905550565b600080600080346006819055506000809054906101000a900460ff16151515610b3f57600080fd5b60016000806101000a81548160ff021916908315150217905550898990508c8c9050141515610b6d57600080fd5b6001925060009150600090505b8b8b9050811015610c28578b8b828181101515610b9357fe5b90506020020135600160008e8e858181101515610bac57fe5b90506020020135815260200190815260200160002060000154141515610bd157600080fd5b610c05338d8d848181101515610be357fe5b905060200201358c8c858181101515610bf857fe5b9050602002013588611525565b9150828015610c12575081155b15610c1b578192505b8080600101915050610b7a565b600087141515610c5657610c3f3389898989612869565b9150828015610c4c575081155b15610c55578192505b5b60006006541115610cab573373ffffffffffffffffffffffffffffffffffffffff166108fc6006549081150290604051600060405180830381858888f19350505050158015610ca9573d6000803e3d6000fd5b505b82935060008060006101000a81548160ff021916908315150217905550600060068190555050505098975050505050505050565b600060019054906101000a900473ffffffffffffffffffffffffffffffffffffffff1681565b6000806000806000856001600088815260200190815260200160002060000154141515610d3157600080fd5b60016000878152602001908152602001600020600001546001600088815260200190815260200160002060010160009054906101000a900473ffffffffffffffffffffffffffffffffffffffff166001600089815260200190815260200160002060020154600160008a815260200190815260200160002060030154600160008b815260200190815260200160002060040160009054906101000a900460ff169450945094509450945091939590929450565b60606002805480602002602001604051908101604052809291908181526020018280548015610e3257602002820191906000526020600020905b815481526020019060010190808311610e1e575b5050505050905090565b6000806000809150600090505b600280549050811015610ee1576000151560016000600284815481101515610e6d57fe5b9060005260206000200154815260200190815260200160002060040160009054906101000a900460ff1615151415610ed45760016000600283815481101515610eb257fe5b9060005260206000200154815260200190815260200160002060020154820191505b8080600101915050610e49565b819250505090565b60016020528060005260406000206000915090508060000154908060010160009054906101000a900473ffffffffffffffffffffffffffffffffffffffff16908060010160149054906101000a90047401000000000000000000000000000000000000000002908060020154908060030154908060040160009054906101000a900460ff16908060050154905087565b600080346006819055506000809054906101000a900460ff16151515610f9e57600080fd5b60016000806101000a81548160ff021916908315150217905550610fc53387878787612869565b90506000600654111561101c573373ffffffffffffffffffffffffffffffffffffffff166108fc6006549081150290604051600060405180830381858888f1935050505015801561101a573d6000803e3d6000fd5b505b80915060008060006101000a81548160ff021916908315150217905550600060068190555050949350505050565b6060600460003373ffffffffffffffffffffffffffffffffffffffff1673ffffffffffffffffffffffffffffffffffffffff1681526020019081526020016000208054806020026020016040519081016040528092919081815260200182805480156110d557602002820191906000526020600020905b8154815260200190600101908083116110c1575b5050505050905090565b600060019054906101000a900473ffffffffffffffffffffffffffffffffffffffff1673ffffffffffffffffffffffffffffffffffffffff163373ffffffffffffffffffffffffffffffffffffffff1614151561113b57600080fd5b808310801561114957508082105b151561115457600080fd5b8260098190555081600a8190555080600b81905550505050565b60008373ffffffffffffffffffffffffffffffffffffffff16600c60009054906101000a900473ffffffffffffffffffffffffffffffffffffffff1673ffffffffffffffffffffffffffffffffffffffff16630c5cc0a2856040518263ffffffff167c0100000000000000000000000000000000000000000000000000000000028152600401808273ffffffffffffffffffffffffffffffffffffffff191673ffffffffffffffffffffffffffffffffffffffff19168152602001915050602060405180830381600087803b15801561124657600080fd5b505af115801561125a573d6000803e3d6000fd5b505050506040513d602081101561127057600080fd5b810190808051906020019092919050505073ffffffffffffffffffffffffffffffffffffffff1614801561139a5750600c60009054906101000a900473ffffffffffffffffffffffffffffffffffffffff1673ffffffffffffffffffffffffffffffffffffffff1663b7fe896a846040518263ffffffff167c0100000000000000000000000000000000000000000000000000000000028152600401808273ffffffffffffffffffffffffffffffffffffffff191673ffffffffffffffffffffffffffffffffffffffff19168152602001915050602060405180830381600087803b15801561135e57600080fd5b505af1158015611372573d6000803e3d6000fd5b505050506040513d602081101561138857600080fd5b81019080805190602001909291905050505b156114a057600c60009054906101000a900473ffffffffffffffffffffffffffffffffffffffff1673ffffffffffffffffffffffffffffffffffffffff166316166f89846040518263ffffffff167c0100000000000000000000000000000000000000000000000000000000028152600401808273ffffffffffffffffffffffffffffffffffffffff191673ffffffffffffffffffffffffffffffffffffffff19168152602001915050602060405180830381600087803b15801561145e57600080fd5b505af1158015611472573d6000803e3d6000fd5b505050506040513d602081101561148857600080fd5b810190808051906020019092919050505090506114b6565b81156114b05760095490506114b6565b600a5490505b9392505050565b600060019054906101000a900473ffffffffffffffffffffffffffffffffffffffff1673ffffffffffffffffffffffffffffffffffffffff163373ffffffffffffffffffffffffffffffffffffffff1614151561151957600080fd5b61152281613108565b50565b60008060008060008711151561153e5760009350612403565b600160008881526020019081526020016000209250868360000154141580611567575060008611155b156115755760009350612403565b826002015486111561158957826002015495505b8260040160009054906101000a900460ff1615611e3d5785600d60009054906101000a900473ffffffffffffffffffffffffffffffffffffffff1673ffffffffffffffffffffffffffffffffffffffff166304426db48a6040518263ffffffff167c0100000000000000000000000000000000000000000000000000000000028152600401808273ffffffffffffffffffffffffffffffffffffffff1673ffffffffffffffffffffffffffffffffffffffff168152602001915050602060405180830381600087803b15801561165e57600080fd5b505af1158015611672573d6000803e3d6000fd5b505050506040513d602081101561168857600080fd5b8101908080519060200190929190505050600c60009054906101000a900473ffffffffffffffffffffffffffffffffffffffff1673ffffffffffffffffffffffffffffffffffffffff166370a082318b6040518263ffffffff167c0100000000000000000000000000000000000000000000000000000000028152600401808273ffffffffffffffffffffffffffffffffffffffff1673ffffffffffffffffffffffffffffffffffffffff168152602001915050602060405180830381600087803b15801561175657600080fd5b505af115801561176a573d6000803e3d6000fd5b505050506040513d602081101561178057600080fd5b81019080805190602001909291905050500310806119c1575085600d60009054906101000a900473ffffffffffffffffffffffffffffffffffffffff1673ffffffffffffffffffffffffffffffffffffffff166304426db48a6040518263ffffffff167c0100000000000000000000000000000000000000000000000000000000028152600401808273ffffffffffffffffffffffffffffffffffffffff1673ffffffffffffffffffffffffffffffffffffffff168152602001915050602060405180830381600087803b15801561185757600080fd5b505af115801561186b573d6000803e3d6000fd5b505050506040513d602081101561188157600080fd5b8101908080519060200190929190505050600c60009054906101000a900473ffffffffffffffffffffffffffffffffffffffff1673ffffffffffffffffffffffffffffffffffffffff1663dd62ed3e8b306040518363ffffffff167c0100000000000000000000000000000000000000000000000000000000028152600401808373ffffffffffffffffffffffffffffffffffffffff1673ffffffffffffffffffffffffffffffffffffffff1681526020018273ffffffffffffffffffffffffffffffffffffffff1673ffffffffffffffffffffffffffffffffffffffff16815260200192505050602060405180830381600087803b15801561198357600080fd5b505af1158015611997573d6000803e3d6000fd5b505050506040513d60208110156119ad57600080fd5b810190808051906020019092919050505003105b156119cf5760009350612403565b611a4a600b54611a3c611a2d8660010160009054906101000a900473ffffffffffffffffffffffffffffffffffffffff168760010160149054906101000a90047401000000000000000000000000000000000000000002600161116e565b8961320490919063ffffffff16565b61323c90919063ffffffff16565b9150600c60009054906101000a900473ffffffffffffffffffffffffffffffffffffffff1673ffffffffffffffffffffffffffffffffffffffff166323b872dd89600e60009054906101000a900473ffffffffffffffffffffffffffffffffffffffff16856040518463ffffffff167c0100000000000000000000000000000000000000000000000000000000028152600401808473ffffffffffffffffffffffffffffffffffffffff1673ffffffffffffffffffffffffffffffffffffffff1681526020018373ffffffffffffffffffffffffffffffffffffffff1673ffffffffffffffffffffffffffffffffffffffff1681526020018281526020019350505050602060405180830381600087803b158015611b6757600080fd5b505af1158015611b7b573d6000803e3d6000fd5b505050506040513d6020811015611b9157600080fd5b810190808051906020019092919050505050600c60009054906101000a900473ffffffffffffffffffffffffffffffffffffffff1673ffffffffffffffffffffffffffffffffffffffff166323b872dd898560010160009054906101000a900473ffffffffffffffffffffffffffffffffffffffff16858a036040518463ffffffff167c0100000000000000000000000000000000000000000000000000000000028152600401808473ffffffffffffffffffffffffffffffffffffffff1673ffffffffffffffffffffffffffffffffffffffff1681526020018373ffffffffffffffffffffffffffffffffffffffff1673ffffffffffffffffffffffffffffffffffffffff1681526020018281526020019350505050602060405180830381600087803b158015611cc257600080fd5b505af1158015611cd6573d6000803e3d6000fd5b505050506040513d6020811015611cec57600080fd5b810190808051906020019092919050505050611d5a600b54611d4c611d138b89600061116e565b611d3e600854611d3089600301548d61320490919063ffffffff16565b61323c90919063ffffffff16565b61320490919063ffffffff16565b61323c90919063ffffffff16565b9050600e60009054906101000a900473ffffffffffffffffffffffffffffffffffffffff1673ffffffffffffffffffffffffffffffffffffffff166108fc829081150290604051600060405180830381858888f19350505050158015611dc4573d6000803e3d6000fd5b508773ffffffffffffffffffffffffffffffffffffffff166108fc82611e0b600854611dfd88600301548c61320490919063ffffffff16565b61323c90919063ffffffff16565b039081150290604051600060405180830381858888f19350505050158015611e37573d6000803e3d6000fd5b506122cf565b6000600654111580611e7a5750611e75600854611e6785600301548961320490919063ffffffff16565b61323c90919063ffffffff16565b600654105b15611e885760009350612403565b611ec7611eb6600854611ea886600301548a61320490919063ffffffff16565b61323c90919063ffffffff16565b60065461325290919063ffffffff16565b600681905550611f72600b54611f64611f2b8660010160009054906101000a900473ffffffffffffffffffffffffffffffffffffffff168760010160149054906101000a90047401000000000000000000000000000000000000000002600161116e565b611f56600854611f4889600301548d61320490919063ffffffff16565b61323c90919063ffffffff16565b61320490919063ffffffff16565b61323c90919063ffffffff16565b9150600e60009054906101000a900473ffffffffffffffffffffffffffffffffffffffff1673ffffffffffffffffffffffffffffffffffffffff166108fc839081150290604051600060405180830381858888f19350505050158015611fdc573d6000803e3d6000fd5b508260010160009054906101000a900473ffffffffffffffffffffffffffffffffffffffff1673ffffffffffffffffffffffffffffffffffffffff166108fc8361204760085461203988600301548c61320490919063ffffffff16565b61323c90919063ffffffff16565b039081150290604051600060405180830381858888f19350505050158015612073573d6000803e3d6000fd5b506120a6600b546120986120898b89600061116e565b8961320490919063ffffffff16565b61323c90919063ffffffff16565b9050600c60009054906101000a900473ffffffffffffffffffffffffffffffffffffffff1673ffffffffffffffffffffffffffffffffffffffff1663a9059cbb600e60009054906101000a900473ffffffffffffffffffffffffffffffffffffffff16836040518363ffffffff167c0100000000000000000000000000000000000000000000000000000000028152600401808373ffffffffffffffffffffffffffffffffffffffff1673ffffffffffffffffffffffffffffffffffffffff16815260200182815260200192505050602060405180830381600087803b15801561218f57600080fd5b505af11580156121a3573d6000803e3d6000fd5b505050506040513d60208110156121b957600080fd5b810190808051906020019092919050505050600c60009054906101000a900473ffffffffffffffffffffffffffffffffffffffff1673ffffffffffffffffffffffffffffffffffffffff1663a9059cbb898389036040518363ffffffff167c0100000000000000000000000000000000000000000000000000000000028152600401808373ffffffffffffffffffffffffffffffffffffffff1673ffffffffffffffffffffffffffffffffffffffff16815260200182815260200192505050602060405180830381600087803b15801561229257600080fd5b505af11580156122a6573d6000803e3d6000fd5b505050506040513d60208110156122bc57600080fd5b8101908080519060200190929190505050505b7f9afb8142f01c405054f7498832a3dbdc939d619309d8a642e8ea5d84c2a7fc03878460010160009054906101000a900473ffffffffffffffffffffffffffffffffffffffff168a86600201548a88600301548960040160009054906101000a900460ff1642604051808981526020018873ffffffffffffffffffffffffffffffffffffffff1673ffffffffffffffffffffffffffffffffffffffff1681526020018773ffffffffffffffffffffffffffffffffffffffff1673ffffffffffffffffffffffffffffffffffffffff168152602001868152602001858152602001848152602001831515151581526020018281526020019850505050505050505060405180910390a18583600201540383600201819055506000836002015414156123fe576123fc8761240e565b505b600193505b505050949350505050565b60008060008060008511158061243a575084600160008781526020019081526020016000206000015414155b156124485760009350612861565b60036000868152602001908152602001600020549250612477600160028054905061325290919063ffffffff16565b915060028281548110151561248857fe5b90600052602060002001549050806002848154811015156124a557fe5b906000526020600020018190555060006002838154811015156124c457fe5b9060005260206000200181905550600060036000878152602001908152602001600020819055508260036000838152602001908152602001600020819055506002805480919060019003612518919061363a565b506000600160008781526020019081526020016000206002015414151561278c57600015156001600087815260200190815260200160002060040160009054906101000a900460ff16151514156126bb57600c60009054906101000a900473ffffffffffffffffffffffffffffffffffffffff1673ffffffffffffffffffffffffffffffffffffffff1663a9059cbb6001600088815260200190815260200160002060010160009054906101000a900473ffffffffffffffffffffffffffffffffffffffff1660016000898152602001908152602001600020600201546040518363ffffffff167c0100000000000000000000000000000000000000000000000000000000028152600401808373ffffffffffffffffffffffffffffffffffffffff1673ffffffffffffffffffffffffffffffffffffffff16815260200182815260200192505050602060405180830381600087803b15801561267a57600080fd5b505af115801561268e573d6000803e3d6000fd5b505050506040513d60208110156126a457600080fd5b81019080805190602001909291905050505061278b565b6001600086815260200190815260200160002060010160009054906101000a900473ffffffffffffffffffffffffffffffffffffffff1673ffffffffffffffffffffffffffffffffffffffff166108fc61275e600854612750600160008b815260200190815260200160002060030154600160008c81526020019081526020016000206002015461320490919063ffffffff16565b61323c90919063ffffffff16565b9081150290604051600060405180830381858888f19350505050158015612789573d6000803e3d6000fd5b505b5b6127cc6001600087815260200190815260200160002060010160009054906101000a900473ffffffffffffffffffffffffffffffffffffffff168661326b565b600160008681526020019081526020016000206000808201600090556001820160006101000a81549073ffffffffffffffffffffffffffffffffffffffff02191690556001820160146101000a8154906bffffffffffffffffffffffff0219169055600282016000905560038201600090556004820160006101000a81549060ff021916905560058201600090555050600193505b505050919050565b60008060008511158061287d575060008611155b8061289b5750600854612899878761320490919063ffffffff16565b105b156128a957600091506130fe565b83156128fb5760006006541115806128e857506128e36008546128d5888861320490919063ffffffff16565b61323c90919063ffffffff16565b600654105b156128f657600091506130fe565b612d2b565b84600d60009054906101000a900473ffffffffffffffffffffffffffffffffffffffff1673ffffffffffffffffffffffffffffffffffffffff166304426db4896040518263ffffffff167c0100000000000000000000000000000000000000000000000000000000028152600401808273ffffffffffffffffffffffffffffffffffffffff1673ffffffffffffffffffffffffffffffffffffffff168152602001915050602060405180830381600087803b1580156129b957600080fd5b505af11580156129cd573d6000803e3d6000fd5b505050506040513d60208110156129e357600080fd5b8101908080519060200190929190505050600c60009054906101000a900473ffffffffffffffffffffffffffffffffffffffff1673ffffffffffffffffffffffffffffffffffffffff166370a082318a6040518263ffffffff167c0100000000000000000000000000000000000000000000000000000000028152600401808273ffffffffffffffffffffffffffffffffffffffff1673ffffffffffffffffffffffffffffffffffffffff168152602001915050602060405180830381600087803b158015612ab157600080fd5b505af1158015612ac5573d6000803e3d6000fd5b505050506040513d6020811015612adb57600080fd5b8101908080519060200190929190505050031080612d1c575084600d60009054906101000a900473ffffffffffffffffffffffffffffffffffffffff1673ffffffffffffffffffffffffffffffffffffffff166304426db4896040518263ffffffff167c0100000000000000000000000000000000000000000000000000000000028152600401808273ffffffffffffffffffffffffffffffffffffffff1673ffffffffffffffffffffffffffffffffffffffff168152602001915050602060405180830381600087803b158015612bb257600080fd5b505af1158015612bc6573d6000803e3d6000fd5b505050506040513d6020811015612bdc57600080fd5b8101908080519060200190929190505050600c60009054906101000a900473ffffffffffffffffffffffffffffffffffffffff1673ffffffffffffffffffffffffffffffffffffffff1663dd62ed3e8a306040518363ffffffff167c0100000000000000000000000000000000000000000000000000000000028152600401808373ffffffffffffffffffffffffffffffffffffffff1673ffffffffffffffffffffffffffffffffffffffff1681526020018273ffffffffffffffffffffffffffffffffffffffff1673ffffffffffffffffffffffffffffffffffffffff16815260200192505050602060405180830381600087803b158015612cde57600080fd5b505af1158015612cf2573d6000803e3d6000fd5b505050506040513d6020811015612d0857600080fd5b810190808051906020019092919050505003105b15612d2a57600091506130fe565b5b612d33610a09565b905060e0604051908101604052808281526020018873ffffffffffffffffffffffffffffffffffffffff1681526020018473ffffffffffffffffffffffffffffffffffffffff19168152602001868152602001878152602001851515815260200142815250600160008381526020019081526020016000206000820151816000015560208201518160010160006101000a81548173ffffffffffffffffffffffffffffffffffffffff021916908373ffffffffffffffffffffffffffffffffffffffff16021790555060408201518160010160146101000a8154816bffffffffffffffffffffffff02191690837401000000000000000000000000000000000000000090040217905550606082015181600201556080820151816003015560a08201518160040160006101000a81548160ff02191690831515021790555060c082015181600501559050506002819080600181540180825580915050906001820390600052602060002001600090919290919091505550612ec3600160028054905061325290919063ffffffff16565b60036000838152602001908152602001600020819055508315612f2657612f1b612f0a600854612efc898961320490919063ffffffff16565b61323c90919063ffffffff16565b60065461325290919063ffffffff16565b60068190555061305c565b600c60009054906101000a900473ffffffffffffffffffffffffffffffffffffffff1673ffffffffffffffffffffffffffffffffffffffff166323b872dd8830886040518463ffffffff167c0100000000000000000000000000000000000000000000000000000000028152600401808473ffffffffffffffffffffffffffffffffffffffff1673ffffffffffffffffffffffffffffffffffffffff1681526020018373ffffffffffffffffffffffffffffffffffffffff1673ffffffffffffffffffffffffffffffffffffffff1681526020018281526020019350505050602060405180830381600087803b15801561301f57600080fd5b505af1158015613033573d6000803e3d6000fd5b505050506040513d602081101561304957600080fd5b8101908080519060200190929190505050505b6130668782613530565b7f1ad1a5ae4ffda7ac4728a3f999d312ee8c3bf93f8f9bec6ea55609ec2980c0d78188878988604051808681526020018573ffffffffffffffffffffffffffffffffffffffff1673ffffffffffffffffffffffffffffffffffffffff168152602001848152602001838152602001821515151581526020019550505050505060405180910390a1600160075401600781905550600191505b5095945050505050565b600073ffffffffffffffffffffffffffffffffffffffff168173ffffffffffffffffffffffffffffffffffffffff161415151561314457600080fd5b8073ffffffffffffffffffffffffffffffffffffffff16600060019054906101000a900473ffffffffffffffffffffffffffffffffffffffff1673ffffffffffffffffffffffffffffffffffffffff167f8be0079c531659141344cd1fd0a4f28419497f9722a3daafe3b4186f6b6457e060405160405180910390a380600060016101000a81548173ffffffffffffffffffffffffffffffffffffffff021916908373ffffffffffffffffffffffffffffffffffffffff16021790555050565b6000808314156132175760009050613236565b818302905081838281151561322857fe5b0414151561323257fe5b8090505b92915050565b6000818381151561324957fe5b04905092915050565b600082821115151561326057fe5b818303905092915050565b6000806000600560008673ffffffffffffffffffffffffffffffffffffffff1673ffffffffffffffffffffffffffffffffffffffff16815260200190815260200160002060008581526020019081526020016000205492506133196001600460008873ffffffffffffffffffffffffffffffffffffffff1673ffffffffffffffffffffffffffffffffffffffff1681526020019081526020016000208054905061325290919063ffffffff16565b9150600460008673ffffffffffffffffffffffffffffffffffffffff1673ffffffffffffffffffffffffffffffffffffffff1681526020019081526020016000208281548110151561336757fe5b9060005260206000200154905080600460008773ffffffffffffffffffffffffffffffffffffffff1673ffffffffffffffffffffffffffffffffffffffff168152602001908152602001600020848154811015156133c157fe5b90600052602060002001819055506000600460008773ffffffffffffffffffffffffffffffffffffffff1673ffffffffffffffffffffffffffffffffffffffff1681526020019081526020016000208381548110151561341d57fe5b9060005260206000200181905550600460008673ffffffffffffffffffffffffffffffffffffffff1673ffffffffffffffffffffffffffffffffffffffff16815260200190815260200160002080548091906001900361347d919061363a565b506000600560008773ffffffffffffffffffffffffffffffffffffffff1673ffffffffffffffffffffffffffffffffffffffff16815260200190815260200160002060008681526020019081526020016000208190555082600560008773ffffffffffffffffffffffffffffffffffffffff1673ffffffffffffffffffffffffffffffffffffffff1681526020019081526020016000206000838152602001908152602001600020819055505050505050565b6000600460008473ffffffffffffffffffffffffffffffffffffffff1673ffffffffffffffffffffffffffffffffffffffff168152602001908152602001600020805490509050600460008473ffffffffffffffffffffffffffffffffffffffff1673ffffffffffffffffffffffffffffffffffffffff16815260200190815260200160002082908060018154018082558091505090600182039060005260206000200160009091929091909150555080600560008573ffffffffffffffffffffffffffffffffffffffff1673ffffffffffffffffffffffffffffffffffffffff168152602001908152602001600020600084815260200190815260200160002081905550505050565b815481835581811115613661578183600052602060002091820191016136609190613666565b5b505050565b61368891905b8082111561368457600081600090555060010161366c565b5090565b905600a165627a7a72305820f0a0e9ddc530a04cb9527887f109a73cbb2ad71aac5d2c2429f35182e0002e5f0029",
  "source": "pragma solidity ^0.4.24;\n\nimport \"openzeppelin-solidity/contracts/math/SafeMath.sol\";\nimport \"openzeppelin-solidity/contracts/ReentrancyGuard.sol\";\nimport \"openzeppelin-solidity/contracts/ownership/Ownable.sol\";\nimport \"./LeasedEmblem.sol\";\nimport \"./Emblem.sol\";\n\ncontract EMBExchange is ReentrancyGuard, Ownable {\n  using SafeMath for uint256;\n\n  struct Order {\n    uint256 id;\n    address maker;\n    bytes12 makerVanity;\n    uint256 amount;\n    uint256 price;\n    bool demand;\n    uint256 createdAt;\n  }\n\n  // order id -> order\n  mapping(uint256 => Order) public orders;\n\n  // Array with all order ids, used for enumeration\n  uint256[]  allOrders;\n\n  // Mapping from order id to position in the allOrders array\n  mapping(uint256 => uint256)  allOrdersIndex;\n\n  // Mapping from owner to list of owned order IDs\n  mapping(address => uint256[])  ownedOrders;\n\n  // Mapping from owner to map of order ID to index of the owner orders list\n  mapping(address => mapping (uint256 => uint256))  ownedOrdersIndex;\n\n  // weiSend of current tx\n  uint256 private weiSend = 0;\n  uint256 private highestId = 1;\n  uint256 private EMBPrecision = (10**8);\n\n  uint256 makerFee = 1;\n  uint256 takerFee = 1;\n  uint256 feeDenomination = 1000;\n\n  Emblem EMB;\n  LeasedEmblem LEMB;\n  address feeReciever;\n\n  // makes sure weiSend of current tx is reset\n  modifier weiSendGuard() {\n    weiSend = msg.value;\n    _;\n    weiSend = 0;\n  }\n\n  // logs\n  event OrderPlaced(uint256 id, address maker, uint256 amount, uint256 price, bool demand);\n\n  event OrderFilled(uint256 id, address maker, address taker, uint256 originalAmount, uint256 amountFilled, uint256 price, bool demand, uint256 fulfilledAt);\n\n  event OrderCancelled(uint256 id, address maker, uint256 amount, uint256 price, bool demand, uint256 createdAt);\n\n  constructor(address _emb, address _lemb, address _feeReciever) public {\n    EMB = Emblem(_emb);\n    LEMB = LeasedEmblem(_lemb);\n    feeReciever = _feeReciever;\n  }\n\n  function setFees(uint256 _makerFee, uint256 _takerFee, uint256 _denomination) public onlyOwner {\n    require(_makerFee < _denomination && _takerFee < _denomination);\n    makerFee = _makerFee;\n    takerFee = _takerFee;\n    feeDenomination = _denomination;\n  }\n\n  function getFee(address owner, bytes12 vanity, bool isMaker) public view returns (uint256){\n    if(EMB.getVanityOwner(vanity) == owner && EMB.enabledVanityFee(vanity)) return EMB.getFee(vanity);\n    else {\n      if(isMaker) return makerFee;\n      else return takerFee;\n    }\n  }\n\n  function exists(uint256 id) public view returns (bool) {\n    return (orders[id].id == id);\n  }\n\n  function getNewId() public view returns(uint256) {\n    return highestId;\n  }\n\n  function _placeOrder(address maker, uint256 price, uint256 amount, bool demand,bytes12 vanity) internal returns (bool){\n\n    // validate input\n    if (amount <= 0 ||\n      price <= 0 ||\n      amount.mul(price) < (EMBPrecision)\n    ) return (false);\n\n    if(demand) {\n      if(weiSend <= 0 || weiSend < amount.mul(price).div(EMBPrecision)) return (false);\n    }\n    else {\n      if ( EMB.balanceOf(maker) - LEMB.getAmountForUserMining(maker) < amount || (EMB.allowance(maker, this) - LEMB.getAmountForUserMining(maker) < amount)) return (false);\n    }\n\n    uint256 id = getNewId();\n\n    orders[id] = Order(id, maker,vanity, amount, price, demand,now);\n    allOrders.push(id);\n    allOrdersIndex[id] = allOrders.length.sub(1);\n\n    if(demand) weiSend = weiSend.sub(amount.mul(price).div(EMBPrecision));\n    else EMB.transferFrom(maker, this, amount);\n\n    _addOrderToUser(maker, id);\n\n    emit OrderPlaced(id, maker, amount, price,demand);\n\n    highestId = highestId + 1;\n\n    return (true);\n  }\n\n  //returns the amount to send to the user\n  function getTransferAmount(uint256 amount, uint256 price,uint256 fee,bool isTaker, bool isEMB) internal view returns (uint256){\n    if(isTaker) {\n      if(isEMB) return amount.mul(fee).div(feeDenomination);\n      else return amount.mul(price).div(EMBPrecision).mul(fee).div(feeDenomination);\n    }\n    else {\n      if(isEMB) return amount.mul((uint256(1)).sub(fee.div(feeDenomination)));\n      else return amount.mul(price).div(EMBPrecision).mul((uint256(1)).sub(fee.div(feeDenomination)));\n    }\n  }\n\n  function _takeOrder(address taker, uint256 id, uint256 amount, bytes12 vanity) internal returns (bool) {\n    // validate inputs\n    if (id <= 0) return (false);\n\n    // get order\n    Order storage order = orders[id];\n\n    // validate order\n    if (\n      order.id != id ||\n      amount <= 0\n    ) return (false);\n\n    //if above, set amount to that of the order's amount\n    if(amount > order.amount) amount = order.amount;\n\n    if(order.demand){\n\n      //ensure that you cannot game the allowance of EMB\n      if ( EMB.balanceOf(taker) - LEMB.getAmountForUserMining(taker) < amount || (EMB.allowance(taker, this) - LEMB.getAmountForUserMining(taker) < amount)) return (false);\n\n      uint256 fee_maker = amount.mul(getFee(order.maker, order.makerVanity, true)).div(feeDenomination);\n\n      //transfer EMB to feeReciever from maker\n      EMB.transferFrom(taker, feeReciever, fee_maker);\n\n      //transfer EMB from taker to maker\n      EMB.transferFrom(taker, order.maker, amount - fee_maker);\n\n      uint256 fee_taker = amount.mul(order.price).div(EMBPrecision).mul(getFee(taker, vanity, false)).div(feeDenomination);\n\n      //transfer ETH to feeReciever from taker\n      feeReciever.transfer(fee_taker);\n\n      //pay taker\n      taker.transfer(amount.mul(order.price).div(EMBPrecision) - fee_taker);\n    }\n\n    else {\n\n      //ensure that you have sent the right amount of eth\n      if (weiSend <= 0 || weiSend < amount.mul(order.price).div(EMBPrecision)) return (false);\n\n      //pay maker\n      weiSend = weiSend.sub(amount.mul(order.price).div(EMBPrecision));\n\n      fee_maker = amount.mul(order.price).div(EMBPrecision).mul(getFee(order.maker, order.makerVanity, true)).div(feeDenomination);\n\n      //transfer ETH to feeReciever from maker\n      feeReciever.transfer(fee_maker);\n\n      //transfer ETH from taker to maker\n      order.maker.transfer(amount.mul(order.price).div(EMBPrecision) - fee_maker);\n\n      fee_taker = amount.mul(getFee(taker, vanity, false)).div(feeDenomination);\n\n      //transfer EMB to feeReciever from taker\n      EMB.transfer(feeReciever, fee_taker);\n\n      //pay taker\n      EMB.transfer(taker, amount - fee_taker);\n    }\n\n    emit OrderFilled(id, order.maker, taker, order.amount, amount, order.price, order.demand, now);\n\n    order.amount = order.amount - amount;\n\n    if(order.amount == 0){\n      _deleteOrder(id);\n    }\n\n    return (true);\n  }\n\n  function _deleteOrder(uint256 id) internal returns (bool) {\n\n    if (\n      id <= 0 ||\n      orders[id].id != id\n    ) return (false);\n\n    // // Reorg all orders\n    uint256 orderIndex = allOrdersIndex[id];\n    uint256 lastOrderIndex = allOrders.length.sub(1);\n    uint256 lastOrder = allOrders[lastOrderIndex];\n    allOrders[orderIndex] = lastOrder;\n    allOrders[lastOrderIndex] = 0;\n    allOrdersIndex[id] = 0;\n    allOrdersIndex[lastOrder] = orderIndex;\n    allOrders.length--;\n\n    //pay back on cancellation\n    if(orders[id].amount != 0){\n      if(orders[id].demand == false){\n        EMB.transfer(orders[id].maker,orders[id].amount);\n      }\n      else {\n        orders[id].maker.transfer(orders[id].amount.mul(orders[id].price).div(EMBPrecision));\n      }\n    }\n\n    //remove order from user\n    _removeOrderFromUser(orders[id].maker, id);\n\n    delete orders[id];\n\n    return (true);\n  }\n\n  function retrieveEMBInOrder() public view returns(uint256){\n    uint256 amount = 0;\n    for(uint256 i = 0; i < allOrders.length; i++){\n      if(orders[allOrders[i]].demand == false) {\n        amount += orders[allOrders[i]].amount;\n      }\n    }\n    return amount;\n  }\n\n  function retrieveMyOrders() public view returns(uint256[]) {\n    return ownedOrders[msg.sender];\n  }\n\n  function retrieveOrders() public view returns(uint256[]) {\n    return allOrders;\n  }\n\n  function getOrderData(uint256 id) public view returns (uint256, address, uint256, uint256, bool) {\n    require(orders[id].id == id);\n    return (orders[id].id, orders[id].maker, orders[id].amount, orders[id].price, orders[id].demand);\n  }\n\n  function _addOrderToUser(address _to, uint256 _orderId) internal {\n    uint256 length = ownedOrders[_to].length;\n    ownedOrders[_to].push(_orderId);\n    ownedOrdersIndex[_to][_orderId] = length;\n  }\n\n  function _removeOrderFromUser(address _from, uint256 _orderId) internal  {\n    uint256 orderIndex = ownedOrdersIndex[_from][_orderId];\n    uint256 lastOrderIndex = ownedOrders[_from].length.sub(1);\n    uint256 lastOrderId = ownedOrders[_from][lastOrderIndex];\n\n    ownedOrders[_from][orderIndex] = lastOrderId;\n    ownedOrders[_from][lastOrderIndex] = 0;\n    ownedOrders[_from].length--;\n\n    ownedOrdersIndex[_from][_orderId] = 0;\n    ownedOrdersIndex[_from][lastOrderId] = orderIndex;\n  }\n\n  function placeOrder(uint256 price, uint256 amount, bool demand,bytes12 vanity)  external payable weiSendGuard nonReentrant returns (bool)  {\n    bool success = _placeOrder(msg.sender, price, amount, demand, vanity);\n\n    //send back excess ETH\n    if (weiSend > 0) msg.sender.transfer(weiSend);\n\n    return success;\n  }\n\n  function takeOrder(uint256 id, uint256 amount,bytes12 vanity)  external payable weiSendGuard nonReentrant returns (bool) {\n    require(orders[id].id == id);\n\n    bool success = _takeOrder(msg.sender, id, amount, vanity);\n\n    //send back excess ETH\n    if (weiSend > 0) msg.sender.transfer(weiSend);\n\n    return success;\n  }\n\n  //take a few orders and place Order if order to place\n  function takeOrders(uint256 []ids,uint256[]amounts, uint256 price, uint256 amount, bool demand,bytes12 vanity) external payable weiSendGuard nonReentrant returns (bool) {\n    require(ids.length == amounts.length);\n\n    bool allSuccess = true;\n    bool success = false;\n\n    for (uint256 i = 0; i < ids.length; i++){\n      require(orders[ids[i]].id == ids[i]);\n      success = _takeOrder(msg.sender, ids[i], amounts[i],vanity);\n      if (allSuccess && !success) allSuccess = success;\n    }\n\n    if(amount != 0){\n      success = _placeOrder(msg.sender, price, amount, demand,vanity);\n      if (allSuccess && !success) allSuccess = success;\n    }\n\n    if (weiSend > 0) msg.sender.transfer(weiSend);\n\n    return allSuccess;\n  }\n\n  function cancelOrder(uint256 id) external nonReentrant returns (bool) {\n    require(\n      id > 0 &&\n      orders[id].id == id &&\n      orders[id].maker == msg.sender\n    );\n\n    uint256 amount = orders[id].amount;\n    uint256 price = orders[id].price;\n    bool demand = orders[id].demand;\n    uint256 createdAt = orders[id].createdAt;\n\n    bool success = _deleteOrder(id);\n    if(success) emit OrderCancelled(id, msg.sender, amount, price, demand, createdAt);\n\n    return success;\n  }\n\n}\n",
  "sourcePath": "/Users/arjunjain/Emblem_Ethereum_Anchor/contracts/EMBExchange.sol",
  "compiler": {
    "name": "solc",
    "version": "0.4.24+commit.e67f0147.Emscripten.clang"
  },
  "schemaVersion": "2.0.1",
  "updatedAt": "2021-01-05T02:48:56.099Z"
}