{
  "contractName": "Emblem",
  "abi": [
    {
      "constant": true,
      "inputs": [],
      "name": "name",
      "outputs": [
        {
          "name": "",
          "type": "string"
        }
      ],
      "payable": false,
      "stateMutability": "view",
      "type": "function"
    },
    {
      "constant": true,
      "inputs": [],
      "name": "totalSupply",
      "outputs": [
        {
          "name": "",
          "type": "uint256"
        }
      ],
      "payable": false,
      "stateMutability": "view",
      "type": "function"
    },
    {
      "constant": true,
      "inputs": [
        {
          "name": "",
          "type": "address"
        },
        {
          "name": "",
          "type": "uint256"
        }
      ],
      "name": "ownedVanities",
      "outputs": [
        {
          "name": "",
          "type": "bytes12"
        }
      ],
      "payable": false,
      "stateMutability": "view",
      "type": "function"
    },
    {
      "constant": true,
      "inputs": [],
      "name": "decimals",
      "outputs": [
        {
          "name": "",
          "type": "uint8"
        }
      ],
      "payable": false,
      "stateMutability": "view",
      "type": "function"
    },
    {
      "constant": true,
      "inputs": [
        {
          "name": "",
          "type": "bytes12"
        }
      ],
      "name": "vanityAddresses",
      "outputs": [
        {
          "name": "",
          "type": "address"
        }
      ],
      "payable": false,
      "stateMutability": "view",
      "type": "function"
    },
    {
      "constant": true,
      "inputs": [
        {
          "name": "_owner",
          "type": "address"
        }
      ],
      "name": "balanceOf",
      "outputs": [
        {
          "name": "",
          "type": "uint256"
        }
      ],
      "payable": false,
      "stateMutability": "view",
      "type": "function"
    },
    {
      "constant": false,
      "inputs": [],
      "name": "renounceOwnership",
      "outputs": [],
      "payable": false,
      "stateMutability": "nonpayable",
      "type": "function"
    },
    {
      "constant": true,
      "inputs": [
        {
          "name": "",
          "type": "address"
        },
        {
          "name": "",
          "type": "bytes12"
        }
      ],
      "name": "ownedVanitiesIndex",
      "outputs": [
        {
          "name": "",
          "type": "uint256"
        }
      ],
      "payable": false,
      "stateMutability": "view",
      "type": "function"
    },
    {
      "constant": true,
      "inputs": [
        {
          "name": "",
          "type": "address"
        }
      ],
      "name": "frozenAccounts",
      "outputs": [
        {
          "name": "",
          "type": "bool"
        }
      ],
      "payable": false,
      "stateMutability": "view",
      "type": "function"
    },
    {
      "constant": true,
      "inputs": [],
      "name": "owner",
      "outputs": [
        {
          "name": "",
          "type": "address"
        }
      ],
      "payable": false,
      "stateMutability": "view",
      "type": "function"
    },
    {
      "constant": true,
      "inputs": [],
      "name": "symbol",
      "outputs": [
        {
          "name": "",
          "type": "string"
        }
      ],
      "payable": false,
      "stateMutability": "view",
      "type": "function"
    },
    {
      "constant": true,
      "inputs": [],
      "name": "completeFreeze",
      "outputs": [
        {
          "name": "",
          "type": "bool"
        }
      ],
      "payable": false,
      "stateMutability": "view",
      "type": "function"
    },
    {
      "constant": false,
      "inputs": [
        {
          "name": "_spender",
          "type": "address"
        },
        {
          "name": "_addedValue",
          "type": "uint256"
        }
      ],
      "name": "increaseApproval",
      "outputs": [
        {
          "name": "",
          "type": "bool"
        }
      ],
      "payable": false,
      "stateMutability": "nonpayable",
      "type": "function"
    },
    {
      "constant": true,
      "inputs": [
        {
          "name": "_owner",
          "type": "address"
        },
        {
          "name": "_spender",
          "type": "address"
        }
      ],
      "name": "allowance",
      "outputs": [
        {
          "name": "",
          "type": "uint256"
        }
      ],
      "payable": false,
      "stateMutability": "view",
      "type": "function"
    },
    {
      "constant": true,
      "inputs": [
        {
          "name": "",
          "type": "uint256"
        }
      ],
      "name": "allVanities",
      "outputs": [
        {
          "name": "",
          "type": "bytes12"
        }
      ],
      "payable": false,
      "stateMutability": "view",
      "type": "function"
    },
    {
      "constant": false,
      "inputs": [
        {
          "name": "_newOwner",
          "type": "address"
        }
      ],
      "name": "transferOwnership",
      "outputs": [],
      "payable": false,
      "stateMutability": "nonpayable",
      "type": "function"
    },
    {
      "inputs": [
        {
          "name": "_name",
          "type": "string"
        },
        {
          "name": "_ticker",
          "type": "string"
        },
        {
          "name": "_decimal",
          "type": "uint8"
        },
        {
          "name": "_supply",
          "type": "uint256"
        },
        {
          "name": "_wallet",
          "type": "address"
        },
        {
          "name": "_lemb",
          "type": "address"
        }
      ],
      "payable": false,
      "stateMutability": "nonpayable",
      "type": "constructor"
    },
    {
      "anonymous": false,
      "inputs": [
        {
          "indexed": false,
          "name": "from",
          "type": "address"
        },
        {
          "indexed": false,
          "name": "to",
          "type": "address"
        },
        {
          "indexed": false,
          "name": "vanity",
          "type": "bytes12"
        }
      ],
      "name": "TransferVanity",
      "type": "event"
    },
    {
      "anonymous": false,
      "inputs": [
        {
          "indexed": false,
          "name": "from",
          "type": "address"
        },
        {
          "indexed": false,
          "name": "to",
          "type": "address"
        },
        {
          "indexed": false,
          "name": "vanity",
          "type": "bytes12"
        }
      ],
      "name": "ApprovedVanity",
      "type": "event"
    },
    {
      "anonymous": false,
      "inputs": [
        {
          "indexed": false,
          "name": "from",
          "type": "address"
        },
        {
          "indexed": false,
          "name": "vanity",
          "type": "bytes12"
        }
      ],
      "name": "VanityPurchased",
      "type": "event"
    },
    {
      "anonymous": false,
      "inputs": [
        {
          "indexed": true,
          "name": "previousOwner",
          "type": "address"
        }
      ],
      "name": "OwnershipRenounced",
      "type": "event"
    },
    {
      "anonymous": false,
      "inputs": [
        {
          "indexed": true,
          "name": "previousOwner",
          "type": "address"
        },
        {
          "indexed": true,
          "name": "newOwner",
          "type": "address"
        }
      ],
      "name": "OwnershipTransferred",
      "type": "event"
    },
    {
      "anonymous": false,
      "inputs": [
        {
          "indexed": true,
          "name": "owner",
          "type": "address"
        },
        {
          "indexed": true,
          "name": "spender",
          "type": "address"
        },
        {
          "indexed": false,
          "name": "value",
          "type": "uint256"
        }
      ],
      "name": "Approval",
      "type": "event"
    },
    {
      "anonymous": false,
      "inputs": [
        {
          "indexed": true,
          "name": "from",
          "type": "address"
        },
        {
          "indexed": true,
          "name": "to",
          "type": "address"
        },
        {
          "indexed": false,
          "name": "value",
          "type": "uint256"
        }
      ],
      "name": "Transfer",
      "type": "event"
    },
    {
      "constant": false,
      "inputs": [
        {
          "name": "_leaseExchange",
          "type": "address"
        }
      ],
      "name": "setLeaseExchange",
      "outputs": [],
      "payable": false,
      "stateMutability": "nonpayable",
      "type": "function"
    },
    {
      "constant": false,
      "inputs": [
        {
          "name": "cost",
          "type": "uint256"
        }
      ],
      "name": "setVanityPurchaseCost",
      "outputs": [],
      "payable": false,
      "stateMutability": "nonpayable",
      "type": "function"
    },
    {
      "constant": false,
      "inputs": [
        {
          "name": "enabled",
          "type": "bool"
        }
      ],
      "name": "enableFees",
      "outputs": [],
      "payable": false,
      "stateMutability": "nonpayable",
      "type": "function"
    },
    {
      "constant": false,
      "inputs": [
        {
          "name": "_lemb",
          "type": "address"
        }
      ],
      "name": "setLEMB",
      "outputs": [],
      "payable": false,
      "stateMutability": "nonpayable",
      "type": "function"
    },
    {
      "constant": false,
      "inputs": [
        {
          "name": "vanity",
          "type": "bytes12"
        },
        {
          "name": "fee",
          "type": "uint256"
        }
      ],
      "name": "setVanityFee",
      "outputs": [],
      "payable": false,
      "stateMutability": "nonpayable",
      "type": "function"
    },
    {
      "constant": true,
      "inputs": [
        {
          "name": "vanity",
          "type": "bytes12"
        }
      ],
      "name": "getFee",
      "outputs": [
        {
          "name": "",
          "type": "uint256"
        }
      ],
      "payable": false,
      "stateMutability": "view",
      "type": "function"
    },
    {
      "constant": true,
      "inputs": [
        {
          "name": "vanity",
          "type": "bytes12"
        }
      ],
      "name": "enabledVanityFee",
      "outputs": [
        {
          "name": "",
          "type": "bool"
        }
      ],
      "payable": false,
      "stateMutability": "view",
      "type": "function"
    },
    {
      "constant": false,
      "inputs": [
        {
          "name": "_ticker",
          "type": "string"
        }
      ],
      "name": "setTicker",
      "outputs": [],
      "payable": false,
      "stateMutability": "nonpayable",
      "type": "function"
    },
    {
      "constant": false,
      "inputs": [
        {
          "name": "_value",
          "type": "uint256"
        }
      ],
      "name": "approveOwner",
      "outputs": [
        {
          "name": "",
          "type": "bool"
        }
      ],
      "payable": false,
      "stateMutability": "nonpayable",
      "type": "function"
    },
    {
      "constant": true,
      "inputs": [
        {
          "name": "_owner",
          "type": "address"
        },
        {
          "name": "_vanity",
          "type": "bytes12"
        },
        {
          "name": "_spender",
          "type": "address"
        }
      ],
      "name": "vanityAllowance",
      "outputs": [
        {
          "name": "",
          "type": "bool"
        }
      ],
      "payable": false,
      "stateMutability": "view",
      "type": "function"
    },
    {
      "constant": true,
      "inputs": [
        {
          "name": "_vanity",
          "type": "bytes12"
        }
      ],
      "name": "getVanityOwner",
      "outputs": [
        {
          "name": "",
          "type": "address"
        }
      ],
      "payable": false,
      "stateMutability": "view",
      "type": "function"
    },
    {
      "constant": true,
      "inputs": [],
      "name": "getAllVanities",
      "outputs": [
        {
          "name": "",
          "type": "bytes12[]"
        }
      ],
      "payable": false,
      "stateMutability": "view",
      "type": "function"
    },
    {
      "constant": true,
      "inputs": [],
      "name": "getMyVanities",
      "outputs": [
        {
          "name": "",
          "type": "bytes12[]"
        }
      ],
      "payable": false,
      "stateMutability": "view",
      "type": "function"
    },
    {
      "constant": false,
      "inputs": [
        {
          "name": "_spender",
          "type": "address"
        },
        {
          "name": "_vanity",
          "type": "bytes12"
        }
      ],
      "name": "approveVanity",
      "outputs": [
        {
          "name": "",
          "type": "bool"
        }
      ],
      "payable": false,
      "stateMutability": "nonpayable",
      "type": "function"
    },
    {
      "constant": false,
      "inputs": [
        {
          "name": "_vanity",
          "type": "bytes12"
        }
      ],
      "name": "clearVanityApproval",
      "outputs": [
        {
          "name": "",
          "type": "bool"
        }
      ],
      "payable": false,
      "stateMutability": "nonpayable",
      "type": "function"
    },
    {
      "constant": false,
      "inputs": [
        {
          "name": "van",
          "type": "bytes12"
        },
        {
          "name": "newOwner",
          "type": "address"
        }
      ],
      "name": "transferVanity",
      "outputs": [
        {
          "name": "",
          "type": "bool"
        }
      ],
      "payable": false,
      "stateMutability": "nonpayable",
      "type": "function"
    },
    {
      "constant": false,
      "inputs": [
        {
          "name": "_from",
          "type": "address"
        },
        {
          "name": "_to",
          "type": "address"
        },
        {
          "name": "_vanity",
          "type": "bytes12"
        }
      ],
      "name": "transferVanityFrom",
      "outputs": [
        {
          "name": "",
          "type": "bool"
        }
      ],
      "payable": false,
      "stateMutability": "nonpayable",
      "type": "function"
    },
    {
      "constant": false,
      "inputs": [
        {
          "name": "van",
          "type": "bytes12"
        }
      ],
      "name": "purchaseVanity",
      "outputs": [
        {
          "name": "",
          "type": "bool"
        }
      ],
      "payable": false,
      "stateMutability": "nonpayable",
      "type": "function"
    },
    {
      "constant": false,
      "inputs": [
        {
          "name": "_freeze",
          "type": "bool"
        }
      ],
      "name": "freezeTransfers",
      "outputs": [],
      "payable": false,
      "stateMutability": "nonpayable",
      "type": "function"
    },
    {
      "constant": false,
      "inputs": [
        {
          "name": "_target",
          "type": "address"
        },
        {
          "name": "_freeze",
          "type": "bool"
        }
      ],
      "name": "freezeAccount",
      "outputs": [],
      "payable": false,
      "stateMutability": "nonpayable",
      "type": "function"
    },
    {
      "constant": false,
      "inputs": [
        {
          "name": "_to",
          "type": "address"
        },
        {
          "name": "_value",
          "type": "uint256"
        }
      ],
      "name": "transfer",
      "outputs": [
        {
          "name": "",
          "type": "bool"
        }
      ],
      "payable": false,
      "stateMutability": "nonpayable",
      "type": "function"
    },
    {
      "constant": false,
      "inputs": [
        {
          "name": "_addressesAndAmounts",
          "type": "bytes32[]"
        }
      ],
      "name": "multiTransfer",
      "outputs": [],
      "payable": false,
      "stateMutability": "nonpayable",
      "type": "function"
    },
    {
      "constant": false,
      "inputs": [
        {
          "name": "freeze",
          "type": "bool"
        }
      ],
      "name": "freezeMe",
      "outputs": [],
      "payable": false,
      "stateMutability": "nonpayable",
      "type": "function"
    },
    {
      "constant": true,
      "inputs": [
        {
          "name": "_target",
          "type": "address"
        }
      ],
      "name": "canFreeze",
      "outputs": [
        {
          "name": "",
          "type": "bool"
        }
      ],
      "payable": false,
      "stateMutability": "view",
      "type": "function"
    },
    {
      "constant": true,
      "inputs": [
        {
          "name": "_target",
          "type": "address"
        }
      ],
      "name": "isFrozen",
      "outputs": [
        {
          "name": "",
          "type": "bool"
        }
      ],
      "payable": false,
      "stateMutability": "view",
      "type": "function"
    },
    {
      "constant": false,
      "inputs": [
        {
          "name": "_target",
          "type": "address"
        },
        {
          "name": "_freeze",
          "type": "bool"
        }
      ],
      "name": "externalFreezeAccount",
      "outputs": [],
      "payable": false,
      "stateMutability": "nonpayable",
      "type": "function"
    },
    {
      "constant": false,
      "inputs": [
        {
          "name": "_target",
          "type": "address"
        },
        {
          "name": "_canFreeze",
          "type": "bool"
        }
      ],
      "name": "setExternalFreezer",
      "outputs": [],
      "payable": false,
      "stateMutability": "nonpayable",
      "type": "function"
    },
    {
      "constant": false,
      "inputs": [
        {
          "name": "_from",
          "type": "address"
        },
        {
          "name": "_to",
          "type": "address"
        },
        {
          "name": "_value",
          "type": "uint256"
        }
      ],
      "name": "transferFrom",
      "outputs": [
        {
          "name": "",
          "type": "bool"
        }
      ],
      "payable": false,
      "stateMutability": "nonpayable",
      "type": "function"
    },
    {
      "constant": false,
      "inputs": [
        {
          "name": "_spender",
          "type": "address"
        },
        {
          "name": "_subtractedValue",
          "type": "uint256"
        }
      ],
      "name": "decreaseApproval",
      "outputs": [
        {
          "name": "",
          "type": "bool"
        }
      ],
      "payable": false,
      "stateMutability": "nonpayable",
      "type": "function"
    },
    {
      "constant": false,
      "inputs": [
        {
          "name": "_spender",
          "type": "address"
        },
        {
          "name": "_value",
          "type": "uint256"
        }
      ],
      "name": "approve",
      "outputs": [
        {
          "name": "",
          "type": "bool"
        }
      ],
      "payable": false,
      "stateMutability": "nonpayable",
      "type": "function"
    }
  ],
  "bytecode": "0x60806040526001600f60006101000a81548160ff0219169083151502179055506402540be4006010556000601260006101000a81548160ff0219169083151502179055503480156200005057600080fd5b5060405162005606380380620056068339810180604052810190808051820192919060200180518201929190602001805190602001909291908051906020019092919080519060200190929190805190602001909291905050508585858260009080519060200190620000c5929190620001d6565b508160019080519060200190620000de929190620001d6565b5080600260006101000a81548160ff021916908360ff16021790555050505033600660006101000a81548173ffffffffffffffffffffffffffffffffffffffff021916908373ffffffffffffffffffffffffffffffffffffffff1602179055508260048190555082600360008473ffffffffffffffffffffffffffffffffffffffff1673ffffffffffffffffffffffffffffffffffffffff1681526020019081526020016000208190555080601660006101000a81548173ffffffffffffffffffffffffffffffffffffffff021916908373ffffffffffffffffffffffffffffffffffffffff16021790555050505050505062000285565b828054600181600116156101000203166002900490600052602060002090601f016020900481019282601f106200021957805160ff19168380011785556200024a565b828001600101855582156200024a579182015b82811115620002495782518255916020019190600101906200022c565b5b5090506200025991906200025d565b5090565b6200028291905b808211156200027e57600081600090555060010162000264565b5090565b90565b61537180620002956000396000f300608060405260043610610230576000357c0100000000000000000000000000000000000000000000000000000000900463ffffffff16806306fdde0314610235578063095ea7b3146102c55780630c5cc0a21461032a578063157f49e0146103ae57806316166f89146103fd57806318160ddd1461045557806323b872dd1461048057806324304f8b14610505578063259e488d1461056e578063261ea7a4146105b1578063267d9074146105ff578063269d152f1461064457806329bf81e4146106735780632bf5eabb146107025780632c83e86f14610731578063313ce567146107745780633618bdab146107a55780633bd86d2d1461081157806350b04085146108ad57806360f39d18146108da578063661884631461095e5780636895a5b7146109c35780636a04c38114610a125780636bc388b214610a8e57806370a0823114610ae9578063715018a614610b405780637beea4bf14610b575780637f6f3d7914610bc3578063860838a514610c3b5780638da5cb5b14610c965780638eacf71314610ced57806395d89b4114610d695780639c10d11514610df9578063a9059cbb14610e5f578063b51ec3bb14610ec4578063b7fe896a14610ef3578063ba5011fa14610f4f578063cdc0613c14610fab578063ce086ec114610fda578063d73dd62314611076578063dd62ed3e146110db578063e2af4cad14611152578063e5014b8c146111ae578063e58398361461121d578063e724529c14611278578063f2fde38b146112c7575b600080fd5b34801561024157600080fd5b5061024a61130a565b6040518080602001828103825283818151815260200191508051906020019080838360005b8381101561028a57808201518184015260208101905061026f565b50505050905090810190601f1680156102b75780820380516001836020036101000a031916815260200191505b509250505060405180910390f35b3480156102d157600080fd5b50610310600480360381019080803573ffffffffffffffffffffffffffffffffffffffff169060200190929190803590602001909291905050506113a8565b604051808215151515815260200191505060405180910390f35b34801561033657600080fd5b5061036c600480360381019080803573ffffffffffffffffffffffffffffffffffffffff191690602001909291905050506115f7565b604051808273ffffffffffffffffffffffffffffffffffffffff1673ffffffffffffffffffffffffffffffffffffffff16815260200191505060405180910390f35b3480156103ba57600080fd5b506103fb600480360381019080803573ffffffffffffffffffffffffffffffffffffffff169060200190929190803515159060200190929190505050611662565b005b34801561040957600080fd5b5061043f600480360381019080803573ffffffffffffffffffffffffffffffffffffffff19169060200190929190505050611719565b6040518082815260200191505060405180910390f35b34801561046157600080fd5b5061046a611764565b6040518082815260200191505060405180910390f35b34801561048c57600080fd5b506104eb600480360381019080803573ffffffffffffffffffffffffffffffffffffffff169060200190929190803573ffffffffffffffffffffffffffffffffffffffff1690602001909291908035906020019092919050505061176e565b604051808215151515815260200191505060405180910390f35b34801561051157600080fd5b5061056c600480360381019080803590602001908201803590602001908080601f016020809104026020016040519081016040528093929190818152602001838380828437820191505050505050919291929050505061180c565b005b34801561057a57600080fd5b506105af600480360381019080803573ffffffffffffffffffffffffffffffffffffffff169060200190929190505050611882565b005b3480156105bd57600080fd5b506105fd600480360381019080803573ffffffffffffffffffffffffffffffffffffffff1916906020019092919080359060200190929190505050611922565b005b34801561060b57600080fd5b5061062a600480360381019080803590602001909291905050506119d8565b604051808215151515815260200191505060405180910390f35b34801561065057600080fd5b50610671600480360381019080803515159060200190929190505050611ac0565b005b34801561067f57600080fd5b506106be600480360381019080803573ffffffffffffffffffffffffffffffffffffffff16906020019092919080359060200190929190505050611b73565b604051808273ffffffffffffffffffffffffffffffffffffffff191673ffffffffffffffffffffffffffffffffffffffff1916815260200191505060405180910390f35b34801561070e57600080fd5b5061072f600480360381019080803515159060200190929190505050611bcc565b005b34801561073d57600080fd5b50610772600480360381019080803573ffffffffffffffffffffffffffffffffffffffff169060200190929190505050611c45565b005b34801561078057600080fd5b50610789611ce5565b604051808260ff1660ff16815260200191505060405180910390f35b3480156107b157600080fd5b506107ba611cf8565b6040518080602001828103825283818151815260200191508051906020019060200280838360005b838110156107fd5780820151818401526020810190506107e2565b505050509050019250505060405180910390f35b34801561081d57600080fd5b50610893600480360381019080803573ffffffffffffffffffffffffffffffffffffffff169060200190929190803573ffffffffffffffffffffffffffffffffffffffff19169060200190929190803573ffffffffffffffffffffffffffffffffffffffff169060200190929190505050611d9e565b604051808215151515815260200191505060405180910390f35b3480156108b957600080fd5b506108d860048036038101908080359060200190929190505050611e76565b005b3480156108e657600080fd5b5061091c600480360381019080803573ffffffffffffffffffffffffffffffffffffffff19169060200190929190505050611edc565b604051808273ffffffffffffffffffffffffffffffffffffffff1673ffffffffffffffffffffffffffffffffffffffff16815260200191505060405180910390f35b34801561096a57600080fd5b506109a9600480360381019080803573ffffffffffffffffffffffffffffffffffffffff16906020019092919080359060200190929190505050611f0f565b604051808215151515815260200191505060405180910390f35b3480156109cf57600080fd5b50610a10600480360381019080803573ffffffffffffffffffffffffffffffffffffffff16906020019092919080351515906020019092919050505061210d565b005b348015610a1e57600080fd5b50610a74600480360381019080803573ffffffffffffffffffffffffffffffffffffffff169060200190929190803573ffffffffffffffffffffffffffffffffffffffff19169060200190929190505050612218565b604051808215151515815260200191505060405180910390f35b348015610a9a57600080fd5b50610acf600480360381019080803573ffffffffffffffffffffffffffffffffffffffff169060200190929190505050612449565b604051808215151515815260200191505060405180910390f35b348015610af557600080fd5b50610b2a600480360381019080803573ffffffffffffffffffffffffffffffffffffffff16906020019092919050505061249f565b6040518082815260200191505060405180910390f35b348015610b4c57600080fd5b50610b556124e8565b005b348015610b6357600080fd5b50610b6c6125ed565b6040518080602001828103825283818151815260200191508051906020019060200280838360005b83811015610baf578082015181840152602081019050610b94565b505050509050019250505060405180910390f35b348015610bcf57600080fd5b50610c25600480360381019080803573ffffffffffffffffffffffffffffffffffffffff169060200190929190803573ffffffffffffffffffffffffffffffffffffffff191690602001909291905050506126d0565b6040518082815260200191505060405180910390f35b348015610c4757600080fd5b50610c7c600480360381019080803573ffffffffffffffffffffffffffffffffffffffff1690602001909291905050506126f5565b604051808215151515815260200191505060405180910390f35b348015610ca257600080fd5b50610cab612715565b604051808273ffffffffffffffffffffffffffffffffffffffff1673ffffffffffffffffffffffffffffffffffffffff16815260200191505060405180910390f35b348015610cf957600080fd5b50610d4f600480360381019080803573ffffffffffffffffffffffffffffffffffffffff19169060200190929190803573ffffffffffffffffffffffffffffffffffffffff16906020019092919050505061273b565b604051808215151515815260200191505060405180910390f35b348015610d7557600080fd5b50610d7e612ec9565b6040518080602001828103825283818151815260200191508051906020019080838360005b83811015610dbe578082015181840152602081019050610da3565b50505050905090810190601f168015610deb5780820380516001836020036101000a031916815260200191505b509250505060405180910390f35b348015610e0557600080fd5b50610e5d60048036038101908080359060200190820180359060200190808060200260200160405190810160405280939291908181526020018383602002808284378201915050505050509192919290505050612f67565b005b348015610e6b57600080fd5b50610eaa600480360381019080803573ffffffffffffffffffffffffffffffffffffffff16906020019092919080359060200190929190505050612fe8565b604051808215151515815260200191505060405180910390f35b348015610ed057600080fd5b50610ed9613010565b604051808215151515815260200191505060405180910390f35b348015610eff57600080fd5b50610f35600480360381019080803573ffffffffffffffffffffffffffffffffffffffff19169060200190929190505050613023565b604051808215151515815260200191505060405180910390f35b348015610f5b57600080fd5b50610f91600480360381019080803573ffffffffffffffffffffffffffffffffffffffff19169060200190929190505050613093565b604051808215151515815260200191505060405180910390f35b348015610fb757600080fd5b50610fd8600480360381019080803515159060200190929190505050613876565b005b348015610fe657600080fd5b5061105c600480360381019080803573ffffffffffffffffffffffffffffffffffffffff169060200190929190803573ffffffffffffffffffffffffffffffffffffffff169060200190929190803573ffffffffffffffffffffffffffffffffffffffff191690602001909291905050506138ef565b604051808215151515815260200191505060405180910390f35b34801561108257600080fd5b506110c1600480360381019080803573ffffffffffffffffffffffffffffffffffffffff1690602001909291908035906020019092919050505061416c565b604051808215151515815260200191505060405180910390f35b3480156110e757600080fd5b5061113c600480360381019080803573ffffffffffffffffffffffffffffffffffffffff169060200190929190803573ffffffffffffffffffffffffffffffffffffffff169060200190929190505050614368565b6040518082815260200191505060405180910390f35b34801561115e57600080fd5b50611194600480360381019080803573ffffffffffffffffffffffffffffffffffffffff191690602001909291905050506143ef565b604051808215151515815260200191505060405180910390f35b3480156111ba57600080fd5b506111d960048036038101908080359060200190929190505050614536565b604051808273ffffffffffffffffffffffffffffffffffffffff191673ffffffffffffffffffffffffffffffffffffffff1916815260200191505060405180910390f35b34801561122957600080fd5b5061125e600480360381019080803573ffffffffffffffffffffffffffffffffffffffff169060200190929190505050614580565b604051808215151515815260200191505060405180910390f35b34801561128457600080fd5b506112c5600480360381019080803573ffffffffffffffffffffffffffffffffffffffff1690602001909291908035151590602001909291905050506145ed565b005b3480156112d357600080fd5b50611308600480360381019080803573ffffffffffffffffffffffffffffffffffffffff1690602001909291905050506146a4565b005b60008054600181600116156101000203166002900480601f0160208091040260200160405190810160405280929190818152602001828054600181600116156101000203166002900480156113a05780601f10611375576101008083540402835291602001916113a0565b820191906000526020600020905b81548152906001019060200180831161138357829003601f168201915b505050505081565b6000601560009054906101000a900473ffffffffffffffffffffffffffffffffffffffff1673ffffffffffffffffffffffffffffffffffffffff168373ffffffffffffffffffffffffffffffffffffffff16141561150757601660009054906101000a900473ffffffffffffffffffffffffffffffffffffffff1673ffffffffffffffffffffffffffffffffffffffff166304426db4336040518263ffffffff167c0100000000000000000000000000000000000000000000000000000000028152600401808273ffffffffffffffffffffffffffffffffffffffff1673ffffffffffffffffffffffffffffffffffffffff168152602001915050602060405180830381600087803b1580156114bd57600080fd5b505af11580156114d1573d6000803e3d6000fd5b505050506040513d60208110156114e757600080fd5b8101908080519060200190929190505050821015151561150657600080fd5b5b81600560003373ffffffffffffffffffffffffffffffffffffffff1673ffffffffffffffffffffffffffffffffffffffff16815260200190815260200160002060008573ffffffffffffffffffffffffffffffffffffffff1673ffffffffffffffffffffffffffffffffffffffff168152602001908152602001600020819055508273ffffffffffffffffffffffffffffffffffffffff163373ffffffffffffffffffffffffffffffffffffffff167f8c5be1e5ebec7d5bd14f71427d1e84f3dd0314c0f7b2291e5b200ac8c7c3b925846040518082815260200191505060405180910390a36001905092915050565b6000600760008373ffffffffffffffffffffffffffffffffffffffff191673ffffffffffffffffffffffffffffffffffffffff1916815260200190815260200160002060009054906101000a900473ffffffffffffffffffffffffffffffffffffffff169050919050565b600660009054906101000a900473ffffffffffffffffffffffffffffffffffffffff1673ffffffffffffffffffffffffffffffffffffffff163373ffffffffffffffffffffffffffffffffffffffff161415156116be57600080fd5b80601460008473ffffffffffffffffffffffffffffffffffffffff1673ffffffffffffffffffffffffffffffffffffffff16815260200190815260200160002060006101000a81548160ff0219169083151502179055505050565b6000600d60008373ffffffffffffffffffffffffffffffffffffffff191673ffffffffffffffffffffffffffffffffffffffff19168152602001908152602001600020549050919050565b6000600454905090565b6000601260009054906101000a900460ff1615151561178c57600080fd5b601560009054906101000a900473ffffffffffffffffffffffffffffffffffffffff1673ffffffffffffffffffffffffffffffffffffffff163373ffffffffffffffffffffffffffffffffffffffff161415156117f9576117ed848361470c565b15156117f857600080fd5b5b6118048484846148c1565b509392505050565b600660009054906101000a900473ffffffffffffffffffffffffffffffffffffffff1673ffffffffffffffffffffffffffffffffffffffff163373ffffffffffffffffffffffffffffffffffffffff1614151561186857600080fd5b806001908051906020019061187e929190615266565b5050565b600660009054906101000a900473ffffffffffffffffffffffffffffffffffffffff1673ffffffffffffffffffffffffffffffffffffffff163373ffffffffffffffffffffffffffffffffffffffff161415156118de57600080fd5b80601660006101000a81548173ffffffffffffffffffffffffffffffffffffffff021916908373ffffffffffffffffffffffffffffffffffffffff16021790555050565b600660009054906101000a900473ffffffffffffffffffffffffffffffffffffffff1673ffffffffffffffffffffffffffffffffffffffff163373ffffffffffffffffffffffffffffffffffffffff1614151561197e57600080fd5b6000811015151561198e57600080fd5b80600d60008473ffffffffffffffffffffffffffffffffffffffff191673ffffffffffffffffffffffffffffffffffffffff19168152602001908152602001600020819055505050565b6000600660009054906101000a900473ffffffffffffffffffffffffffffffffffffffff1673ffffffffffffffffffffffffffffffffffffffff163373ffffffffffffffffffffffffffffffffffffffff16141515611a3657600080fd5b81600560003373ffffffffffffffffffffffffffffffffffffffff1673ffffffffffffffffffffffffffffffffffffffff16815260200190815260200160002060003073ffffffffffffffffffffffffffffffffffffffff1673ffffffffffffffffffffffffffffffffffffffff1681526020019081526020016000208190555060019050919050565b601160003373ffffffffffffffffffffffffffffffffffffffff1673ffffffffffffffffffffffffffffffffffffffff16815260200190815260200160002060009054906101000a900460ff16151515611b1957600080fd5b80601360003373ffffffffffffffffffffffffffffffffffffffff1673ffffffffffffffffffffffffffffffffffffffff16815260200190815260200160002060006101000a81548160ff02191690831515021790555050565b600860205281600052604060002081815481101515611b8e57fe5b9060005260206000209060029182820401919006600c02915091509054906101000a9004740100000000000000000000000000000000000000000281565b600660009054906101000a900473ffffffffffffffffffffffffffffffffffffffff1673ffffffffffffffffffffffffffffffffffffffff163373ffffffffffffffffffffffffffffffffffffffff16141515611c2857600080fd5b80600f60006101000a81548160ff02191690831515021790555050565b600660009054906101000a900473ffffffffffffffffffffffffffffffffffffffff1673ffffffffffffffffffffffffffffffffffffffff163373ffffffffffffffffffffffffffffffffffffffff16141515611ca157600080fd5b80601560006101000a81548173ffffffffffffffffffffffffffffffffffffffff021916908373ffffffffffffffffffffffffffffffffffffffff16021790555050565b600260009054906101000a900460ff1681565b6060600b805480602002602001604051908101604052809291908181526020018280548015611d9457602002820191906000526020600020906000905b82829054906101000a9004740100000000000000000000000000000000000000000273ffffffffffffffffffffffffffffffffffffffff1916815260200190600c0190602082600b01049283019260010382029150808411611d355790505b5050505050905090565b60008173ffffffffffffffffffffffffffffffffffffffff16600c60008673ffffffffffffffffffffffffffffffffffffffff1673ffffffffffffffffffffffffffffffffffffffff16815260200190815260200160002060008573ffffffffffffffffffffffffffffffffffffffff191673ffffffffffffffffffffffffffffffffffffffff1916815260200190815260200160002060009054906101000a900473ffffffffffffffffffffffffffffffffffffffff1673ffffffffffffffffffffffffffffffffffffffff161490509392505050565b600660009054906101000a900473ffffffffffffffffffffffffffffffffffffffff1673ffffffffffffffffffffffffffffffffffffffff163373ffffffffffffffffffffffffffffffffffffffff16141515611ed257600080fd5b8060108190555050565b60076020528060005260406000206000915054906101000a900473ffffffffffffffffffffffffffffffffffffffff1681565b6000601560009054906101000a900473ffffffffffffffffffffffffffffffffffffffff1673ffffffffffffffffffffffffffffffffffffffff168373ffffffffffffffffffffffffffffffffffffffff1614156120fc57601660009054906101000a900473ffffffffffffffffffffffffffffffffffffffff1673ffffffffffffffffffffffffffffffffffffffff166304426db4336040518263ffffffff167c0100000000000000000000000000000000000000000000000000000000028152600401808273ffffffffffffffffffffffffffffffffffffffff1673ffffffffffffffffffffffffffffffffffffffff168152602001915050602060405180830381600087803b15801561202457600080fd5b505af1158015612038573d6000803e3d6000fd5b505050506040513d602081101561204e57600080fd5b81019080805190602001909291905050506120ee83600560003373ffffffffffffffffffffffffffffffffffffffff1673ffffffffffffffffffffffffffffffffffffffff16815260200190815260200160002060008773ffffffffffffffffffffffffffffffffffffffff1673ffffffffffffffffffffffffffffffffffffffff16815260200190815260200160002054614c8090919063ffffffff16565b101515156120fb57600080fd5b5b6121068383614c99565b5092915050565b601360008373ffffffffffffffffffffffffffffffffffffffff1673ffffffffffffffffffffffffffffffffffffffff16815260200190815260200160002060009054906101000a900460ff16151561216557600080fd5b601460003373ffffffffffffffffffffffffffffffffffffffff1673ffffffffffffffffffffffffffffffffffffffff16815260200190815260200160002060009054906101000a900460ff1615156121bd57600080fd5b80601160008473ffffffffffffffffffffffffffffffffffffffff1673ffffffffffffffffffffffffffffffffffffffff16815260200190815260200160002060006101000a81548160ff0219169083151502179055505050565b60003373ffffffffffffffffffffffffffffffffffffffff16600760008473ffffffffffffffffffffffffffffffffffffffff191673ffffffffffffffffffffffffffffffffffffffff1916815260200190815260200160002060009054906101000a900473ffffffffffffffffffffffffffffffffffffffff1673ffffffffffffffffffffffffffffffffffffffff161415156122b557600080fd5b82600c60003373ffffffffffffffffffffffffffffffffffffffff1673ffffffffffffffffffffffffffffffffffffffff16815260200190815260200160002060008473ffffffffffffffffffffffffffffffffffffffff191673ffffffffffffffffffffffffffffffffffffffff1916815260200190815260200160002060006101000a81548173ffffffffffffffffffffffffffffffffffffffff021916908373ffffffffffffffffffffffffffffffffffffffff1602179055507f9882ce26ee4b9d7f9cc08c2c2101323228f2412036c7a3a050c200eede86276c338484604051808473ffffffffffffffffffffffffffffffffffffffff1673ffffffffffffffffffffffffffffffffffffffff1681526020018373ffffffffffffffffffffffffffffffffffffffff1673ffffffffffffffffffffffffffffffffffffffff1681526020018273ffffffffffffffffffffffffffffffffffffffff191673ffffffffffffffffffffffffffffffffffffffff19168152602001935050505060405180910390a16001905092915050565b6000601360008373ffffffffffffffffffffffffffffffffffffffff1673ffffffffffffffffffffffffffffffffffffffff16815260200190815260200160002060009054906101000a900460ff169050919050565b6000600360008373ffffffffffffffffffffffffffffffffffffffff1673ffffffffffffffffffffffffffffffffffffffff168152602001908152602001600020549050919050565b600660009054906101000a900473ffffffffffffffffffffffffffffffffffffffff1673ffffffffffffffffffffffffffffffffffffffff163373ffffffffffffffffffffffffffffffffffffffff1614151561254457600080fd5b600660009054906101000a900473ffffffffffffffffffffffffffffffffffffffff1673ffffffffffffffffffffffffffffffffffffffff167ff8df31144d9c2f0f6b59d69b8b98abd5459d07f2742c4df920b25aae33c6482060405160405180910390a26000600660006101000a81548173ffffffffffffffffffffffffffffffffffffffff021916908373ffffffffffffffffffffffffffffffffffffffff160217905550565b6060600860003373ffffffffffffffffffffffffffffffffffffffff1673ffffffffffffffffffffffffffffffffffffffff1681526020019081526020016000208054806020026020016040519081016040528092919081815260200182805480156126c657602002820191906000526020600020906000905b82829054906101000a9004740100000000000000000000000000000000000000000273ffffffffffffffffffffffffffffffffffffffff1916815260200190600c0190602082600b010492830192600103820291508084116126675790505b5050505050905090565b6009602052816000526040600020602052806000526040600020600091509150505481565b60116020528060005260406000206000915054906101000a900460ff1681565b600660009054906101000a900473ffffffffffffffffffffffffffffffffffffffff1681565b60008060008060008573ffffffffffffffffffffffffffffffffffffffff161415151561276757600080fd5b3373ffffffffffffffffffffffffffffffffffffffff16600760008873ffffffffffffffffffffffffffffffffffffffff191673ffffffffffffffffffffffffffffffffffffffff1916815260200190815260200160002060009054906101000a900473ffffffffffffffffffffffffffffffffffffffff1673ffffffffffffffffffffffffffffffffffffffff1614151561280257600080fd5b84600760008873ffffffffffffffffffffffffffffffffffffffff191673ffffffffffffffffffffffffffffffffffffffff1916815260200190815260200160002060006101000a81548173ffffffffffffffffffffffffffffffffffffffff021916908373ffffffffffffffffffffffffffffffffffffffff160217905550600860008673ffffffffffffffffffffffffffffffffffffffff1673ffffffffffffffffffffffffffffffffffffffff16815260200190815260200160002086908060018154018082558091505090600182039060005260206000209060029182820401919006600c02909192909190916101000a8154816bffffffffffffffffffffffff02191690837401000000000000000000000000000000000000000090040217905550506129806001600860008873ffffffffffffffffffffffffffffffffffffffff1673ffffffffffffffffffffffffffffffffffffffff16815260200190815260200160002080549050614c8090919063ffffffff16565b600960008773ffffffffffffffffffffffffffffffffffffffff1673ffffffffffffffffffffffffffffffffffffffff16815260200190815260200160002060008873ffffffffffffffffffffffffffffffffffffffff191673ffffffffffffffffffffffffffffffffffffffff1916815260200190815260200160002081905550600960003373ffffffffffffffffffffffffffffffffffffffff1673ffffffffffffffffffffffffffffffffffffffff16815260200190815260200160002060008773ffffffffffffffffffffffffffffffffffffffff191673ffffffffffffffffffffffffffffffffffffffff19168152602001908152602001600020549250612ad96001600860003373ffffffffffffffffffffffffffffffffffffffff1673ffffffffffffffffffffffffffffffffffffffff16815260200190815260200160002080549050614c8090919063ffffffff16565b9150600860003373ffffffffffffffffffffffffffffffffffffffff1673ffffffffffffffffffffffffffffffffffffffff16815260200190815260200160002082815481101515612b2757fe5b9060005260206000209060029182820401919006600c029054906101000a90047401000000000000000000000000000000000000000002905080600860003373ffffffffffffffffffffffffffffffffffffffff1673ffffffffffffffffffffffffffffffffffffffff16815260200190815260200160002084815481101515612bad57fe5b9060005260206000209060029182820401919006600c026101000a8154816bffffffffffffffffffffffff021916908374010000000000000000000000000000000000000000900402179055506000600860003373ffffffffffffffffffffffffffffffffffffffff1673ffffffffffffffffffffffffffffffffffffffff16815260200190815260200160002083815481101515612c4857fe5b9060005260206000209060029182820401919006600c026101000a8154816bffffffffffffffffffffffff02191690837401000000000000000000000000000000000000000090040217905550600860003373ffffffffffffffffffffffffffffffffffffffff1673ffffffffffffffffffffffffffffffffffffffff168152602001908152602001600020805480919060019003612ce791906152e6565b506000600960003373ffffffffffffffffffffffffffffffffffffffff1673ffffffffffffffffffffffffffffffffffffffff16815260200190815260200160002060008873ffffffffffffffffffffffffffffffffffffffff191673ffffffffffffffffffffffffffffffffffffffff191681526020019081526020016000208190555082600960003373ffffffffffffffffffffffffffffffffffffffff1673ffffffffffffffffffffffffffffffffffffffff16815260200190815260200160002060008373ffffffffffffffffffffffffffffffffffffffff191673ffffffffffffffffffffffffffffffffffffffff19168152602001908152602001600020819055507feaeb5d0421f302fc4986a95aad8ad429bc6fed08dfda4ca1e8ed110fb7f129d8338688604051808473ffffffffffffffffffffffffffffffffffffffff1673ffffffffffffffffffffffffffffffffffffffff1681526020018373ffffffffffffffffffffffffffffffffffffffff1673ffffffffffffffffffffffffffffffffffffffff1681526020018273ffffffffffffffffffffffffffffffffffffffff191673ffffffffffffffffffffffffffffffffffffffff19168152602001935050505060405180910390a16001935050505092915050565b60018054600181600116156101000203166002900480601f016020809104026020016040519081016040528092919081815260200182805460018160011615610100020316600290048015612f5f5780601f10612f3457610100808354040283529160200191612f5f565b820191906000526020600020905b815481529060010190602001808311612f4257829003601f168201915b505050505081565b60008060008092505b8351831015612fe25760608484815181101515612f8957fe5b90602001906020020151600019169060020a90046001900491508383815181101515612fb157fe5b906020019060200201516001900466ffffffffffffff169050612fd48282612fe8565b508280600101935050612f70565b50505050565b6000612ff4338361470c565b1515612fff57600080fd5b6130098383614f2a565b5092915050565b601260009054906101000a900460ff1681565b6000600e60008373ffffffffffffffffffffffffffffffffffffffff191673ffffffffffffffffffffffffffffffffffffffff1916815260200190815260200160002060009054906101000a900460ff16801561308c5750600f60009054906101000a900460ff165b9050919050565b600080600073ffffffffffffffffffffffffffffffffffffffff16600760008573ffffffffffffffffffffffffffffffffffffffff191673ffffffffffffffffffffffffffffffffffffffff1916815260200190815260200160002060009054906101000a900473ffffffffffffffffffffffffffffffffffffffff1673ffffffffffffffffffffffffffffffffffffffff1614151561313257600080fd5b600090505b600c8160ff1610156133625760307f010000000000000000000000000000000000000000000000000000000000000002838260ff16600c8110151561317857fe5b1a7f0100000000000000000000000000000000000000000000000000000000000000027effffffffffffffffffffffffffffffffffffffffffffffffffffffffffffff191610158015613243575060397f010000000000000000000000000000000000000000000000000000000000000002838260ff16600c811015156131fb57fe5b1a7f0100000000000000000000000000000000000000000000000000000000000000027effffffffffffffffffffffffffffffffffffffffffffffffffffffffffffff191611155b8061334a575060417f010000000000000000000000000000000000000000000000000000000000000002838260ff16600c8110151561327e57fe5b1a7f0100000000000000000000000000000000000000000000000000000000000000027effffffffffffffffffffffffffffffffffffffffffffffffffffffffffffff1916101580156133495750605a7f010000000000000000000000000000000000000000000000000000000000000002838260ff16600c8110151561330157fe5b1a7f0100000000000000000000000000000000000000000000000000000000000000027effffffffffffffffffffffffffffffffffffffffffffffffffffffffffffff191611155b5b151561335557600080fd5b8080600101915050613137565b61336e3360105461470c565b151561337957600080fd5b6133cd601054600360003373ffffffffffffffffffffffffffffffffffffffff1673ffffffffffffffffffffffffffffffffffffffff16815260200190815260200160002054614c8090919063ffffffff16565b600360003373ffffffffffffffffffffffffffffffffffffffff1673ffffffffffffffffffffffffffffffffffffffff16815260200190815260200160002081905550613464601054600360003073ffffffffffffffffffffffffffffffffffffffff1673ffffffffffffffffffffffffffffffffffffffff1681526020019081526020016000205461514e90919063ffffffff16565b600360003073ffffffffffffffffffffffffffffffffffffffff1673ffffffffffffffffffffffffffffffffffffffff168152602001908152602001600020819055503073ffffffffffffffffffffffffffffffffffffffff163373ffffffffffffffffffffffffffffffffffffffff167fddf252ad1be2c89b69c2b068fc378daa952ba7f163c4a11628f55a4df523b3ef6010546040518082815260200191505060405180910390a333600760008573ffffffffffffffffffffffffffffffffffffffff191673ffffffffffffffffffffffffffffffffffffffff1916815260200190815260200160002060006101000a81548173ffffffffffffffffffffffffffffffffffffffff021916908373ffffffffffffffffffffffffffffffffffffffff160217905550600860003373ffffffffffffffffffffffffffffffffffffffff1673ffffffffffffffffffffffffffffffffffffffff16815260200190815260200160002083908060018154018082558091505090600182039060005260206000209060029182820401919006600c02909192909190916101000a8154816bffffffffffffffffffffffff021916908374010000000000000000000000000000000000000000900402179055505061368c6001600860003373ffffffffffffffffffffffffffffffffffffffff1673ffffffffffffffffffffffffffffffffffffffff16815260200190815260200160002080549050614c8090919063ffffffff16565b600960003373ffffffffffffffffffffffffffffffffffffffff1673ffffffffffffffffffffffffffffffffffffffff16815260200190815260200160002060008573ffffffffffffffffffffffffffffffffffffffff191673ffffffffffffffffffffffffffffffffffffffff1916815260200190815260200160002081905550600b83908060018154018082558091505090600182039060005260206000209060029182820401919006600c02909192909190916101000a8154816bffffffffffffffffffffffff02191690837401000000000000000000000000000000000000000090040217905550506137926001600b80549050614c8090919063ffffffff16565b600a60008573ffffffffffffffffffffffffffffffffffffffff191673ffffffffffffffffffffffffffffffffffffffff19168152602001908152602001600020819055507f6828c0068cad8973e4a3a23e513d4f8842302b74ed927230e9523febaf4a22bc3384604051808373ffffffffffffffffffffffffffffffffffffffff1673ffffffffffffffffffffffffffffffffffffffff1681526020018273ffffffffffffffffffffffffffffffffffffffff191673ffffffffffffffffffffffffffffffffffffffff191681526020019250505060405180910390a150919050565b600660009054906101000a900473ffffffffffffffffffffffffffffffffffffffff1673ffffffffffffffffffffffffffffffffffffffff163373ffffffffffffffffffffffffffffffffffffffff161415156138d257600080fd5b80601260006101000a81548160ff02191690831515021790555050565b600080600080600073ffffffffffffffffffffffffffffffffffffffff168673ffffffffffffffffffffffffffffffffffffffff161415151561393157600080fd5b600760008673ffffffffffffffffffffffffffffffffffffffff191673ffffffffffffffffffffffffffffffffffffffff1916815260200190815260200160002060009054906101000a900473ffffffffffffffffffffffffffffffffffffffff1673ffffffffffffffffffffffffffffffffffffffff168773ffffffffffffffffffffffffffffffffffffffff161415156139cc57600080fd5b600c60008873ffffffffffffffffffffffffffffffffffffffff1673ffffffffffffffffffffffffffffffffffffffff16815260200190815260200160002060008673ffffffffffffffffffffffffffffffffffffffff191673ffffffffffffffffffffffffffffffffffffffff1916815260200190815260200160002060009054906101000a900473ffffffffffffffffffffffffffffffffffffffff1673ffffffffffffffffffffffffffffffffffffffff163373ffffffffffffffffffffffffffffffffffffffff16141515613aa457600080fd5b85600760008773ffffffffffffffffffffffffffffffffffffffff191673ffffffffffffffffffffffffffffffffffffffff1916815260200190815260200160002060006101000a81548173ffffffffffffffffffffffffffffffffffffffff021916908373ffffffffffffffffffffffffffffffffffffffff160217905550600860008773ffffffffffffffffffffffffffffffffffffffff1673ffffffffffffffffffffffffffffffffffffffff16815260200190815260200160002085908060018154018082558091505090600182039060005260206000209060029182820401919006600c02909192909190916101000a8154816bffffffffffffffffffffffff0219169083740100000000000000000000000000000000000000009004021790555050613c226001600860008973ffffffffffffffffffffffffffffffffffffffff1673ffffffffffffffffffffffffffffffffffffffff16815260200190815260200160002080549050614c8090919063ffffffff16565b600960008873ffffffffffffffffffffffffffffffffffffffff1673ffffffffffffffffffffffffffffffffffffffff16815260200190815260200160002060008773ffffffffffffffffffffffffffffffffffffffff191673ffffffffffffffffffffffffffffffffffffffff1916815260200190815260200160002081905550600960008873ffffffffffffffffffffffffffffffffffffffff1673ffffffffffffffffffffffffffffffffffffffff16815260200190815260200160002060008673ffffffffffffffffffffffffffffffffffffffff191673ffffffffffffffffffffffffffffffffffffffff19168152602001908152602001600020549250613d7b6001600860008a73ffffffffffffffffffffffffffffffffffffffff1673ffffffffffffffffffffffffffffffffffffffff16815260200190815260200160002080549050614c8090919063ffffffff16565b9150600860008873ffffffffffffffffffffffffffffffffffffffff1673ffffffffffffffffffffffffffffffffffffffff16815260200190815260200160002082815481101515613dc957fe5b9060005260206000209060029182820401919006600c029054906101000a90047401000000000000000000000000000000000000000002905080600860008973ffffffffffffffffffffffffffffffffffffffff1673ffffffffffffffffffffffffffffffffffffffff16815260200190815260200160002084815481101515613e4f57fe5b9060005260206000209060029182820401919006600c026101000a8154816bffffffffffffffffffffffff021916908374010000000000000000000000000000000000000000900402179055506000600860008973ffffffffffffffffffffffffffffffffffffffff1673ffffffffffffffffffffffffffffffffffffffff16815260200190815260200160002083815481101515613eea57fe5b9060005260206000209060029182820401919006600c026101000a8154816bffffffffffffffffffffffff02191690837401000000000000000000000000000000000000000090040217905550600860008873ffffffffffffffffffffffffffffffffffffffff1673ffffffffffffffffffffffffffffffffffffffff168152602001908152602001600020805480919060019003613f8991906152e6565b506000600960008973ffffffffffffffffffffffffffffffffffffffff1673ffffffffffffffffffffffffffffffffffffffff16815260200190815260200160002060008773ffffffffffffffffffffffffffffffffffffffff191673ffffffffffffffffffffffffffffffffffffffff191681526020019081526020016000208190555082600960008973ffffffffffffffffffffffffffffffffffffffff1673ffffffffffffffffffffffffffffffffffffffff16815260200190815260200160002060008373ffffffffffffffffffffffffffffffffffffffff191673ffffffffffffffffffffffffffffffffffffffff19168152602001908152602001600020819055507feaeb5d0421f302fc4986a95aad8ad429bc6fed08dfda4ca1e8ed110fb7f129d8338787604051808473ffffffffffffffffffffffffffffffffffffffff1673ffffffffffffffffffffffffffffffffffffffff1681526020018373ffffffffffffffffffffffffffffffffffffffff1673ffffffffffffffffffffffffffffffffffffffff1681526020018273ffffffffffffffffffffffffffffffffffffffff191673ffffffffffffffffffffffffffffffffffffffff19168152602001935050505060405180910390a1600193505050509392505050565b60006141fd82600560003373ffffffffffffffffffffffffffffffffffffffff1673ffffffffffffffffffffffffffffffffffffffff16815260200190815260200160002060008673ffffffffffffffffffffffffffffffffffffffff1673ffffffffffffffffffffffffffffffffffffffff1681526020019081526020016000205461514e90919063ffffffff16565b600560003373ffffffffffffffffffffffffffffffffffffffff1673ffffffffffffffffffffffffffffffffffffffff16815260200190815260200160002060008573ffffffffffffffffffffffffffffffffffffffff1673ffffffffffffffffffffffffffffffffffffffff168152602001908152602001600020819055508273ffffffffffffffffffffffffffffffffffffffff163373ffffffffffffffffffffffffffffffffffffffff167f8c5be1e5ebec7d5bd14f71427d1e84f3dd0314c0f7b2291e5b200ac8c7c3b925600560003373ffffffffffffffffffffffffffffffffffffffff1673ffffffffffffffffffffffffffffffffffffffff16815260200190815260200160002060008773ffffffffffffffffffffffffffffffffffffffff1673ffffffffffffffffffffffffffffffffffffffff168152602001908152602001600020546040518082815260200191505060405180910390a36001905092915050565b6000600560008473ffffffffffffffffffffffffffffffffffffffff1673ffffffffffffffffffffffffffffffffffffffff16815260200190815260200160002060008373ffffffffffffffffffffffffffffffffffffffff1673ffffffffffffffffffffffffffffffffffffffff16815260200190815260200160002054905092915050565b60003373ffffffffffffffffffffffffffffffffffffffff16600760008473ffffffffffffffffffffffffffffffffffffffff191673ffffffffffffffffffffffffffffffffffffffff1916815260200190815260200160002060009054906101000a900473ffffffffffffffffffffffffffffffffffffffff1673ffffffffffffffffffffffffffffffffffffffff1614151561448c57600080fd5b600c60003373ffffffffffffffffffffffffffffffffffffffff1673ffffffffffffffffffffffffffffffffffffffff16815260200190815260200160002060008373ffffffffffffffffffffffffffffffffffffffff191673ffffffffffffffffffffffffffffffffffffffff1916815260200190815260200160002060006101000a81549073ffffffffffffffffffffffffffffffffffffffff021916905560019050919050565b600b8181548110151561454557fe5b9060005260206000209060029182820401919006600c02915054906101000a9004740100000000000000000000000000000000000000000281565b6000601260009054906101000a900460ff16806145e65750601160008373ffffffffffffffffffffffffffffffffffffffff1673ffffffffffffffffffffffffffffffffffffffff16815260200190815260200160002060009054906101000a900460ff165b9050919050565b600660009054906101000a900473ffffffffffffffffffffffffffffffffffffffff1673ffffffffffffffffffffffffffffffffffffffff163373ffffffffffffffffffffffffffffffffffffffff1614151561464957600080fd5b80601160008473ffffffffffffffffffffffffffffffffffffffff1673ffffffffffffffffffffffffffffffffffffffff16815260200190815260200160002060006101000a81548160ff0219169083151502179055505050565b600660009054906101000a900473ffffffffffffffffffffffffffffffffffffffff1673ffffffffffffffffffffffffffffffffffffffff163373ffffffffffffffffffffffffffffffffffffffff1614151561470057600080fd5b6147098161516a565b50565b6000601160008473ffffffffffffffffffffffffffffffffffffffff1673ffffffffffffffffffffffffffffffffffffffff16815260200190815260200160002060009054906101000a900460ff161580156147755750601260009054906101000a900460ff16155b80156148b95750600360008473ffffffffffffffffffffffffffffffffffffffff1673ffffffffffffffffffffffffffffffffffffffff16815260200190815260200160002054601660009054906101000a900473ffffffffffffffffffffffffffffffffffffffff1673ffffffffffffffffffffffffffffffffffffffff166304426db4856040518263ffffffff167c0100000000000000000000000000000000000000000000000000000000028152600401808273ffffffffffffffffffffffffffffffffffffffff1673ffffffffffffffffffffffffffffffffffffffff168152602001915050602060405180830381600087803b15801561487957600080fd5b505af115801561488d573d6000803e3d6000fd5b505050506040513d60208110156148a357600080fd5b8101908080519060200190929190505050830111155b905092915050565b60008073ffffffffffffffffffffffffffffffffffffffff168373ffffffffffffffffffffffffffffffffffffffff16141515156148fe57600080fd5b600360008573ffffffffffffffffffffffffffffffffffffffff1673ffffffffffffffffffffffffffffffffffffffff16815260200190815260200160002054821115151561494c57600080fd5b600560008573ffffffffffffffffffffffffffffffffffffffff1673ffffffffffffffffffffffffffffffffffffffff16815260200190815260200160002060003373ffffffffffffffffffffffffffffffffffffffff1673ffffffffffffffffffffffffffffffffffffffff1681526020019081526020016000205482111515156149d757600080fd5b614a2982600360008773ffffffffffffffffffffffffffffffffffffffff1673ffffffffffffffffffffffffffffffffffffffff16815260200190815260200160002054614c8090919063ffffffff16565b600360008673ffffffffffffffffffffffffffffffffffffffff1673ffffffffffffffffffffffffffffffffffffffff16815260200190815260200160002081905550614abe82600360008673ffffffffffffffffffffffffffffffffffffffff1673ffffffffffffffffffffffffffffffffffffffff1681526020019081526020016000205461514e90919063ffffffff16565b600360008573ffffffffffffffffffffffffffffffffffffffff1673ffffffffffffffffffffffffffffffffffffffff16815260200190815260200160002081905550614b9082600560008773ffffffffffffffffffffffffffffffffffffffff1673ffffffffffffffffffffffffffffffffffffffff16815260200190815260200160002060003373ffffffffffffffffffffffffffffffffffffffff1673ffffffffffffffffffffffffffffffffffffffff16815260200190815260200160002054614c8090919063ffffffff16565b600560008673ffffffffffffffffffffffffffffffffffffffff1673ffffffffffffffffffffffffffffffffffffffff16815260200190815260200160002060003373ffffffffffffffffffffffffffffffffffffffff1673ffffffffffffffffffffffffffffffffffffffff168152602001908152602001600020819055508273ffffffffffffffffffffffffffffffffffffffff168473ffffffffffffffffffffffffffffffffffffffff167fddf252ad1be2c89b69c2b068fc378daa952ba7f163c4a11628f55a4df523b3ef846040518082815260200191505060405180910390a3600190509392505050565b6000828211151515614c8e57fe5b818303905092915050565b600080600560003373ffffffffffffffffffffffffffffffffffffffff1673ffffffffffffffffffffffffffffffffffffffff16815260200190815260200160002060008573ffffffffffffffffffffffffffffffffffffffff1673ffffffffffffffffffffffffffffffffffffffff16815260200190815260200160002054905080831115614daa576000600560003373ffffffffffffffffffffffffffffffffffffffff1673ffffffffffffffffffffffffffffffffffffffff16815260200190815260200160002060008673ffffffffffffffffffffffffffffffffffffffff1673ffffffffffffffffffffffffffffffffffffffff16815260200190815260200160002081905550614e3e565b614dbd8382614c8090919063ffffffff16565b600560003373ffffffffffffffffffffffffffffffffffffffff1673ffffffffffffffffffffffffffffffffffffffff16815260200190815260200160002060008673ffffffffffffffffffffffffffffffffffffffff1673ffffffffffffffffffffffffffffffffffffffff168152602001908152602001600020819055505b8373ffffffffffffffffffffffffffffffffffffffff163373ffffffffffffffffffffffffffffffffffffffff167f8c5be1e5ebec7d5bd14f71427d1e84f3dd0314c0f7b2291e5b200ac8c7c3b925600560003373ffffffffffffffffffffffffffffffffffffffff1673ffffffffffffffffffffffffffffffffffffffff16815260200190815260200160002060008873ffffffffffffffffffffffffffffffffffffffff1673ffffffffffffffffffffffffffffffffffffffff168152602001908152602001600020546040518082815260200191505060405180910390a3600191505092915050565b60008073ffffffffffffffffffffffffffffffffffffffff168373ffffffffffffffffffffffffffffffffffffffff1614151515614f6757600080fd5b600360003373ffffffffffffffffffffffffffffffffffffffff1673ffffffffffffffffffffffffffffffffffffffff168152602001908152602001600020548211151515614fb557600080fd5b61500782600360003373ffffffffffffffffffffffffffffffffffffffff1673ffffffffffffffffffffffffffffffffffffffff16815260200190815260200160002054614c8090919063ffffffff16565b600360003373ffffffffffffffffffffffffffffffffffffffff1673ffffffffffffffffffffffffffffffffffffffff1681526020019081526020016000208190555061509c82600360008673ffffffffffffffffffffffffffffffffffffffff1673ffffffffffffffffffffffffffffffffffffffff1681526020019081526020016000205461514e90919063ffffffff16565b600360008573ffffffffffffffffffffffffffffffffffffffff1673ffffffffffffffffffffffffffffffffffffffff168152602001908152602001600020819055508273ffffffffffffffffffffffffffffffffffffffff163373ffffffffffffffffffffffffffffffffffffffff167fddf252ad1be2c89b69c2b068fc378daa952ba7f163c4a11628f55a4df523b3ef846040518082815260200191505060405180910390a36001905092915050565b6000818301905082811015151561516157fe5b80905092915050565b600073ffffffffffffffffffffffffffffffffffffffff168173ffffffffffffffffffffffffffffffffffffffff16141515156151a657600080fd5b8073ffffffffffffffffffffffffffffffffffffffff16600660009054906101000a900473ffffffffffffffffffffffffffffffffffffffff1673ffffffffffffffffffffffffffffffffffffffff167f8be0079c531659141344cd1fd0a4f28419497f9722a3daafe3b4186f6b6457e060405160405180910390a380600660006101000a81548173ffffffffffffffffffffffffffffffffffffffff021916908373ffffffffffffffffffffffffffffffffffffffff16021790555050565b828054600181600116156101000203166002900490600052602060002090601f016020900481019282601f106152a757805160ff19168380011785556152d5565b828001600101855582156152d5579182015b828111156152d45782518255916020019190600101906152b9565b5b5090506152e29190615320565b5090565b81548183558181111561531b57600101600290048160010160029004836000526020600020918201910161531a9190615320565b5b505050565b61534291905b8082111561533e576000816000905550600101615326565b5090565b905600a165627a7a723058208a2a6603dad565b13e98662ec570546f962dbf06ecac22f24620f3b62705af260029",
  "source": "pragma solidity ^0.4.24;\n\nimport \"openzeppelin-solidity/contracts/token/ERC20/StandardToken.sol\";\nimport \"openzeppelin-solidity/contracts/token/ERC20/DetailedERC20.sol\";\nimport \"openzeppelin-solidity/contracts/math/SafeMath.sol\";\nimport \"openzeppelin-solidity/contracts/ownership/Ownable.sol\";\nimport \"./LeasedEmblem.sol\";\n\ncontract Emblem is DetailedERC20, StandardToken, Ownable {\n  using SafeMath for uint256;\n\n   mapping (bytes12 => address) public vanityAddresses;\n   mapping (address => bytes12[]) public ownedVanities;\n   mapping (address => mapping(bytes12 => uint256)) public ownedVanitiesIndex;\n   mapping (bytes12 => uint256) allVanitiesIndex;\n   bytes12[] public allVanities;\n   mapping (address => mapping (bytes12 => address)) internal allowedVanities;\n\n   mapping (bytes12 => uint256) vanityFees;\n   mapping (bytes12 => bool) vanityFeeEnabled;\n\n   bool internal useVanityFees = true;\n   uint256 internal vanityPurchaseCost = 100 * (10 ** 8);\n\n   mapping (address => bool) public frozenAccounts;\n   bool public completeFreeze = false;\n\n   mapping (address => bool) internal freezable;\n   mapping (address => bool) internal externalFreezers;\n\n   address leaseExchange;\n   LeasedEmblem LEMB;\n\n   event TransferVanity(address from, address to, bytes12 vanity);\n   event ApprovedVanity(address from, address to, bytes12 vanity);\n   event VanityPurchased(address from, bytes12 vanity);\n\n   constructor(string _name, string _ticker, uint8 _decimal, uint256 _supply, address _wallet, address _lemb) DetailedERC20(_name, _ticker, _decimal) public {\n     totalSupply_ = _supply;\n     balances[_wallet] = _supply;\n     LEMB = LeasedEmblem(_lemb);\n   }\n\n   function setLeaseExchange(address _leaseExchange) public onlyOwner {\n     leaseExchange = _leaseExchange;\n   }\n\n   function setVanityPurchaseCost(uint256 cost) public onlyOwner {\n     vanityPurchaseCost = cost;\n   }\n\n   function enableFees(bool enabled) public onlyOwner {\n     useVanityFees = enabled;\n   }\n\n   function setLEMB(address _lemb) public onlyOwner {\n     LEMB = LeasedEmblem(_lemb);\n   }\n\n   function setVanityFee(bytes12 vanity, uint256 fee) public onlyOwner {\n     require(fee >= 0);\n     vanityFees[vanity] = fee;\n   }\n\n   function getFee(bytes12 vanity) public view returns(uint256) {\n     return vanityFees[vanity];\n   }\n\n   function enabledVanityFee(bytes12 vanity) public view returns(bool) {\n     return vanityFeeEnabled[vanity] && useVanityFees;\n   }\n\n   function setTicker(string _ticker) public onlyOwner {\n     symbol = _ticker;\n   }\n\n   function approveOwner(uint256 _value) public onlyOwner returns (bool) {\n     allowed[msg.sender][address(this)] = _value;\n     return true;\n   }\n\n   function vanityAllowance(address _owner, bytes12 _vanity, address _spender) public view returns (bool) {\n     return allowedVanities[_owner][_vanity] == _spender;\n   }\n\n   function getVanityOwner(bytes12 _vanity) public view returns (address) {\n     return vanityAddresses[_vanity];\n   }\n\n   function getAllVanities() public view returns (bytes12[]){\n     return allVanities;\n   }\n\n   function getMyVanities() public view returns (bytes12[]){\n     return ownedVanities[msg.sender];\n   }\n\n   function approveVanity(address _spender, bytes12 _vanity) public returns (bool) {\n     require(vanityAddresses[_vanity] == msg.sender);\n     allowedVanities[msg.sender][_vanity] = _spender;\n\n     emit ApprovedVanity(msg.sender, _spender, _vanity);\n     return true;\n   }\n\n   function clearVanityApproval(bytes12 _vanity) public returns (bool){\n     require(vanityAddresses[_vanity] == msg.sender);\n     delete allowedVanities[msg.sender][_vanity];\n     return true;\n   }\n\n   function transferVanity(bytes12 van, address newOwner) public returns (bool) {\n     require(newOwner != 0x0);\n     require(vanityAddresses[van] == msg.sender);\n\n     vanityAddresses[van] = newOwner;\n     ownedVanities[newOwner].push(van);\n     ownedVanitiesIndex[newOwner][van] = ownedVanities[newOwner].length.sub(1);\n\n     uint256 vanityIndex = ownedVanitiesIndex[msg.sender][van];\n     uint256 lastVanityIndex = ownedVanities[msg.sender].length.sub(1);\n     bytes12 lastVanity = ownedVanities[msg.sender][lastVanityIndex];\n\n     ownedVanities[msg.sender][vanityIndex] = lastVanity;\n     ownedVanities[msg.sender][lastVanityIndex] = \"\";\n     ownedVanities[msg.sender].length--;\n\n     ownedVanitiesIndex[msg.sender][van] = 0;\n     ownedVanitiesIndex[msg.sender][lastVanity] = vanityIndex;\n\n     emit TransferVanity(msg.sender, newOwner,van);\n\n     return true;\n   }\n\n   function transferVanityFrom(\n     address _from,\n     address _to,\n     bytes12 _vanity\n   )\n     public\n     returns (bool)\n   {\n     require(_to != address(0));\n     require(_from == vanityAddresses[_vanity]);\n     require(msg.sender == allowedVanities[_from][_vanity]);\n\n     vanityAddresses[_vanity] = _to;\n     ownedVanities[_to].push(_vanity);\n     ownedVanitiesIndex[_to][_vanity] = ownedVanities[_to].length.sub(1);\n\n     uint256 vanityIndex = ownedVanitiesIndex[_from][_vanity];\n     uint256 lastVanityIndex = ownedVanities[_from].length.sub(1);\n     bytes12 lastVanity = ownedVanities[_from][lastVanityIndex];\n\n     ownedVanities[_from][vanityIndex] = lastVanity;\n     ownedVanities[_from][lastVanityIndex] = \"\";\n     ownedVanities[_from].length--;\n\n     ownedVanitiesIndex[_from][_vanity] = 0;\n     ownedVanitiesIndex[_from][lastVanity] = vanityIndex;\n\n     emit TransferVanity(msg.sender, _to,_vanity);\n\n     return true;\n   }\n\n   function purchaseVanity(bytes12 van) public returns (bool) {\n     require(vanityAddresses[van] == address(0));\n\n     for(uint8 i = 0; i < 12; i++){\n       require((van[i] >= 48 && van[i] <= 57) || (van[i] >= 65 && van[i] <= 90));\n     }\n\n     require(canTransfer(msg.sender,vanityPurchaseCost));\n\n     balances[msg.sender] = balances[msg.sender].sub(vanityPurchaseCost);\n     balances[address(this)] = balances[address(this)].add(vanityPurchaseCost);\n     emit Transfer(msg.sender, address(this), vanityPurchaseCost);\n\n     vanityAddresses[van] = msg.sender;\n     ownedVanities[msg.sender].push(van);\n     ownedVanitiesIndex[msg.sender][van] = ownedVanities[msg.sender].length.sub(1);\n     allVanities.push(van);\n     allVanitiesIndex[van] = allVanities.length.sub(1);\n\n     emit VanityPurchased(msg.sender, van);\n   }\n\n   function freezeTransfers(bool _freeze) public onlyOwner {\n     completeFreeze = _freeze;\n   }\n\n   function freezeAccount(address _target, bool _freeze) public onlyOwner {\n     frozenAccounts[_target] = _freeze;\n   }\n\n   function canTransfer(address _account,uint256 _value) internal view returns (bool) {\n      return (!frozenAccounts[_account] && !completeFreeze && (_value + LEMB.getAmountForUserMining(_account) <= balances[_account]));\n   }\n\n   function transfer(address _to, uint256 _value) public returns (bool){\n      require(canTransfer(msg.sender,_value));\n      super.transfer(_to,_value);\n   }\n\n   function multiTransfer(bytes32[] _addressesAndAmounts) public {\n      for (uint i = 0; i < _addressesAndAmounts.length; i++) {\n          address to = address(_addressesAndAmounts[i] >> 96);\n          uint amount = uint(uint56(_addressesAndAmounts[i]));\n          transfer(to, amount);\n      }\n   }\n\n   function freezeMe(bool freeze) public {\n     require(!frozenAccounts[msg.sender]);\n     freezable[msg.sender] = freeze;\n   }\n\n   function canFreeze(address _target) public view returns(bool){\n     return freezable[_target];\n   }\n\n   function isFrozen(address _target) public view returns(bool) {\n     return completeFreeze || frozenAccounts[_target];\n   }\n\n   function externalFreezeAccount(address _target, bool _freeze) public {\n     require(freezable[_target]);\n     require(externalFreezers[msg.sender]);\n     frozenAccounts[_target] = _freeze;\n   }\n\n   function setExternalFreezer(address _target, bool _canFreeze) public onlyOwner {\n     externalFreezers[_target] = _canFreeze;\n   }\n\n\n   function transferFrom(address _from, address _to, uint256 _value) public returns (bool){\n      require(!completeFreeze);\n      if(msg.sender != leaseExchange) require(canTransfer(_from,_value));\n      super.transferFrom(_from,_to,_value);\n   }\n\n   function decreaseApproval(address _spender,uint256 _subtractedValue) public returns (bool) {\n\n\n     if(_spender == leaseExchange) {\n       require(allowed[msg.sender][_spender].sub(_subtractedValue) >= LEMB.getAmountForUserMining(msg.sender));\n     }\n     super.decreaseApproval(_spender,_subtractedValue);\n   }\n\n   function approve(address _spender, uint256 _value) public returns (bool) {\n\n\n     if(_spender == leaseExchange){\n       require(_value >= LEMB.getAmountForUserMining(msg.sender));\n     }\n\n     allowed[msg.sender][_spender] = _value;\n     emit Approval(msg.sender, _spender, _value);\n     return true;\n   }\n\n}\n",
  "sourcePath": "/Users/arjunjain/Emblem_Ethereum_Anchor/contracts/Emblem.sol",
  "compiler": {
    "name": "solc",
    "version": "0.4.24+commit.e67f0147.Emscripten.clang"
  },
  "schemaVersion": "2.0.1",
  "updatedAt": "2021-01-05T02:48:56.104Z"
}