{
  "contractName": "Emblem",
  "abi": [
    {
      "inputs": [
        {
          "internalType": "string",
          "name": "_name",
          "type": "string"
        },
        {
          "internalType": "string",
          "name": "_ticker",
          "type": "string"
        },
        {
          "internalType": "uint8",
          "name": "_decimal",
          "type": "uint8"
        },
        {
          "internalType": "uint256",
          "name": "_supply",
          "type": "uint256"
        },
        {
          "internalType": "address",
          "name": "_wallet",
          "type": "address"
        }
      ],
      "stateMutability": "nonpayable",
      "type": "constructor"
    },
    {
      "anonymous": false,
      "inputs": [
        {
          "indexed": true,
          "internalType": "address",
          "name": "owner",
          "type": "address"
        },
        {
          "indexed": true,
          "internalType": "address",
          "name": "spender",
          "type": "address"
        },
        {
          "indexed": false,
          "internalType": "uint256",
          "name": "value",
          "type": "uint256"
        }
      ],
      "name": "Approval",
      "type": "event"
    },
    {
      "anonymous": false,
      "inputs": [
        {
          "indexed": true,
          "internalType": "address",
          "name": "from",
          "type": "address"
        },
        {
          "indexed": true,
          "internalType": "address",
          "name": "to",
          "type": "address"
        },
        {
          "indexed": false,
          "internalType": "bytes12",
          "name": "vanity",
          "type": "bytes12"
        }
      ],
      "name": "ApprovedVanity",
      "type": "event"
    },
    {
      "anonymous": false,
      "inputs": [
        {
          "indexed": true,
          "internalType": "address",
          "name": "previousOwner",
          "type": "address"
        },
        {
          "indexed": true,
          "internalType": "address",
          "name": "newOwner",
          "type": "address"
        }
      ],
      "name": "OwnershipTransferred",
      "type": "event"
    },
    {
      "anonymous": false,
      "inputs": [
        {
          "indexed": false,
          "internalType": "address",
          "name": "vanity",
          "type": "address"
        }
      ],
      "name": "Test",
      "type": "event"
    },
    {
      "anonymous": false,
      "inputs": [
        {
          "indexed": true,
          "internalType": "address",
          "name": "from",
          "type": "address"
        },
        {
          "indexed": true,
          "internalType": "address",
          "name": "to",
          "type": "address"
        },
        {
          "indexed": false,
          "internalType": "uint256",
          "name": "value",
          "type": "uint256"
        }
      ],
      "name": "Transfer",
      "type": "event"
    },
    {
      "anonymous": false,
      "inputs": [
        {
          "indexed": true,
          "internalType": "address",
          "name": "from",
          "type": "address"
        },
        {
          "indexed": true,
          "internalType": "address",
          "name": "to",
          "type": "address"
        },
        {
          "indexed": false,
          "internalType": "bytes12",
          "name": "vanity",
          "type": "bytes12"
        }
      ],
      "name": "TransferVanity",
      "type": "event"
    },
    {
      "anonymous": false,
      "inputs": [
        {
          "indexed": false,
          "internalType": "uint256",
          "name": "cost",
          "type": "uint256"
        }
      ],
      "name": "VanityPurchaseCost",
      "type": "event"
    },
    {
      "anonymous": false,
      "inputs": [
        {
          "indexed": true,
          "internalType": "address",
          "name": "from",
          "type": "address"
        },
        {
          "indexed": false,
          "internalType": "bytes12",
          "name": "vanity",
          "type": "bytes12"
        }
      ],
      "name": "VanityPurchased",
      "type": "event"
    },
    {
      "inputs": [
        {
          "internalType": "address",
          "name": "owner",
          "type": "address"
        },
        {
          "internalType": "address",
          "name": "spender",
          "type": "address"
        }
      ],
      "name": "allowance",
      "outputs": [
        {
          "internalType": "uint256",
          "name": "",
          "type": "uint256"
        }
      ],
      "stateMutability": "view",
      "type": "function"
    },
    {
      "inputs": [
        {
          "internalType": "address",
          "name": "account",
          "type": "address"
        }
      ],
      "name": "balanceOf",
      "outputs": [
        {
          "internalType": "uint256",
          "name": "",
          "type": "uint256"
        }
      ],
      "stateMutability": "view",
      "type": "function"
    },
    {
      "inputs": [],
      "name": "cap",
      "outputs": [
        {
          "internalType": "uint256",
          "name": "",
          "type": "uint256"
        }
      ],
      "stateMutability": "view",
      "type": "function"
    },
    {
      "inputs": [],
      "name": "completeFreeze",
      "outputs": [
        {
          "internalType": "bool",
          "name": "",
          "type": "bool"
        }
      ],
      "stateMutability": "view",
      "type": "function"
    },
    {
      "inputs": [],
      "name": "decimals",
      "outputs": [
        {
          "internalType": "uint8",
          "name": "",
          "type": "uint8"
        }
      ],
      "stateMutability": "view",
      "type": "function"
    },
    {
      "inputs": [
        {
          "internalType": "address",
          "name": "",
          "type": "address"
        }
      ],
      "name": "frozenAccounts",
      "outputs": [
        {
          "internalType": "bool",
          "name": "",
          "type": "bool"
        }
      ],
      "stateMutability": "view",
      "type": "function"
    },
    {
      "inputs": [
        {
          "internalType": "address",
          "name": "spender",
          "type": "address"
        },
        {
          "internalType": "uint256",
          "name": "addedValue",
          "type": "uint256"
        }
      ],
      "name": "increaseAllowance",
      "outputs": [
        {
          "internalType": "bool",
          "name": "",
          "type": "bool"
        }
      ],
      "stateMutability": "nonpayable",
      "type": "function"
    },
    {
      "inputs": [],
      "name": "name",
      "outputs": [
        {
          "internalType": "string",
          "name": "",
          "type": "string"
        }
      ],
      "stateMutability": "view",
      "type": "function"
    },
    {
      "inputs": [
        {
          "internalType": "address",
          "name": "",
          "type": "address"
        },
        {
          "internalType": "uint256",
          "name": "",
          "type": "uint256"
        }
      ],
      "name": "ownedVanities",
      "outputs": [
        {
          "internalType": "bytes12",
          "name": "",
          "type": "bytes12"
        }
      ],
      "stateMutability": "view",
      "type": "function"
    },
    {
      "inputs": [
        {
          "internalType": "address",
          "name": "",
          "type": "address"
        },
        {
          "internalType": "bytes12",
          "name": "",
          "type": "bytes12"
        }
      ],
      "name": "ownedVanitiesIndex",
      "outputs": [
        {
          "internalType": "uint256",
          "name": "",
          "type": "uint256"
        }
      ],
      "stateMutability": "view",
      "type": "function"
    },
    {
      "inputs": [],
      "name": "owner",
      "outputs": [
        {
          "internalType": "address",
          "name": "",
          "type": "address"
        }
      ],
      "stateMutability": "view",
      "type": "function"
    },
    {
      "inputs": [],
      "name": "renounceOwnership",
      "outputs": [],
      "stateMutability": "nonpayable",
      "type": "function"
    },
    {
      "inputs": [],
      "name": "symbol",
      "outputs": [
        {
          "internalType": "string",
          "name": "",
          "type": "string"
        }
      ],
      "stateMutability": "view",
      "type": "function"
    },
    {
      "inputs": [],
      "name": "totalSupply",
      "outputs": [
        {
          "internalType": "uint256",
          "name": "",
          "type": "uint256"
        }
      ],
      "stateMutability": "view",
      "type": "function"
    },
    {
      "inputs": [
        {
          "internalType": "address",
          "name": "newOwner",
          "type": "address"
        }
      ],
      "name": "transferOwnership",
      "outputs": [],
      "stateMutability": "nonpayable",
      "type": "function"
    },
    {
      "inputs": [
        {
          "internalType": "bytes12",
          "name": "",
          "type": "bytes12"
        }
      ],
      "name": "vanityAddresses",
      "outputs": [
        {
          "internalType": "address",
          "name": "",
          "type": "address"
        }
      ],
      "stateMutability": "view",
      "type": "function"
    },
    {
      "inputs": [
        {
          "internalType": "address",
          "name": "_leaseExchange",
          "type": "address"
        }
      ],
      "name": "setLeaseExchange",
      "outputs": [],
      "stateMutability": "nonpayable",
      "type": "function"
    },
    {
      "inputs": [
        {
          "internalType": "uint256",
          "name": "cost",
          "type": "uint256"
        }
      ],
      "name": "setVanityPurchaseCost",
      "outputs": [],
      "stateMutability": "nonpayable",
      "type": "function"
    },
    {
      "inputs": [
        {
          "internalType": "bool",
          "name": "enabled",
          "type": "bool"
        }
      ],
      "name": "enableFees",
      "outputs": [],
      "stateMutability": "nonpayable",
      "type": "function"
    },
    {
      "inputs": [
        {
          "internalType": "address",
          "name": "_lemb",
          "type": "address"
        }
      ],
      "name": "setLEMB",
      "outputs": [],
      "stateMutability": "nonpayable",
      "type": "function"
    },
    {
      "inputs": [
        {
          "internalType": "bytes12",
          "name": "vanity",
          "type": "bytes12"
        },
        {
          "internalType": "uint256",
          "name": "fee",
          "type": "uint256"
        }
      ],
      "name": "setVanityFee",
      "outputs": [],
      "stateMutability": "nonpayable",
      "type": "function"
    },
    {
      "inputs": [
        {
          "internalType": "bytes12",
          "name": "vanity",
          "type": "bytes12"
        }
      ],
      "name": "getFee",
      "outputs": [
        {
          "internalType": "uint256",
          "name": "",
          "type": "uint256"
        }
      ],
      "stateMutability": "view",
      "type": "function"
    },
    {
      "inputs": [],
      "name": "enabledVanityFee",
      "outputs": [
        {
          "internalType": "bool",
          "name": "",
          "type": "bool"
        }
      ],
      "stateMutability": "view",
      "type": "function"
    },
    {
      "inputs": [
        {
          "internalType": "address",
          "name": "_owner",
          "type": "address"
        },
        {
          "internalType": "bytes12",
          "name": "_vanity",
          "type": "bytes12"
        },
        {
          "internalType": "address",
          "name": "_spender",
          "type": "address"
        }
      ],
      "name": "vanityAllowance",
      "outputs": [
        {
          "internalType": "bool",
          "name": "",
          "type": "bool"
        }
      ],
      "stateMutability": "view",
      "type": "function"
    },
    {
      "inputs": [
        {
          "internalType": "bytes12",
          "name": "_vanity",
          "type": "bytes12"
        }
      ],
      "name": "getVanityOwner",
      "outputs": [
        {
          "internalType": "address",
          "name": "",
          "type": "address"
        }
      ],
      "stateMutability": "view",
      "type": "function"
    },
    {
      "inputs": [],
      "name": "getAllVanities",
      "outputs": [
        {
          "internalType": "bytes12[]",
          "name": "",
          "type": "bytes12[]"
        }
      ],
      "stateMutability": "view",
      "type": "function"
    },
    {
      "inputs": [],
      "name": "getMyVanities",
      "outputs": [
        {
          "internalType": "bytes12[]",
          "name": "",
          "type": "bytes12[]"
        }
      ],
      "stateMutability": "view",
      "type": "function"
    },
    {
      "inputs": [
        {
          "internalType": "address",
          "name": "_spender",
          "type": "address"
        },
        {
          "internalType": "bytes12",
          "name": "_vanity",
          "type": "bytes12"
        }
      ],
      "name": "approveVanity",
      "outputs": [
        {
          "internalType": "bool",
          "name": "",
          "type": "bool"
        }
      ],
      "stateMutability": "nonpayable",
      "type": "function"
    },
    {
      "inputs": [
        {
          "internalType": "bytes12",
          "name": "_vanity",
          "type": "bytes12"
        }
      ],
      "name": "clearVanityApproval",
      "outputs": [
        {
          "internalType": "bool",
          "name": "",
          "type": "bool"
        }
      ],
      "stateMutability": "nonpayable",
      "type": "function"
    },
    {
      "inputs": [
        {
          "internalType": "bytes12",
          "name": "van",
          "type": "bytes12"
        },
        {
          "internalType": "address",
          "name": "newOwner",
          "type": "address"
        }
      ],
      "name": "transferVanity",
      "outputs": [
        {
          "internalType": "bool",
          "name": "",
          "type": "bool"
        }
      ],
      "stateMutability": "nonpayable",
      "type": "function"
    },
    {
      "inputs": [
        {
          "internalType": "address",
          "name": "_from",
          "type": "address"
        },
        {
          "internalType": "address",
          "name": "_to",
          "type": "address"
        },
        {
          "internalType": "bytes12",
          "name": "_vanity",
          "type": "bytes12"
        }
      ],
      "name": "transferVanityFrom",
      "outputs": [
        {
          "internalType": "bool",
          "name": "",
          "type": "bool"
        }
      ],
      "stateMutability": "nonpayable",
      "type": "function"
    },
    {
      "inputs": [
        {
          "internalType": "bytes12",
          "name": "van",
          "type": "bytes12"
        }
      ],
      "name": "purchaseVanity",
      "outputs": [
        {
          "internalType": "bool",
          "name": "",
          "type": "bool"
        }
      ],
      "stateMutability": "nonpayable",
      "type": "function"
    },
    {
      "inputs": [
        {
          "internalType": "bool",
          "name": "_freeze",
          "type": "bool"
        }
      ],
      "name": "freezeTransfers",
      "outputs": [],
      "stateMutability": "nonpayable",
      "type": "function"
    },
    {
      "inputs": [
        {
          "internalType": "address",
          "name": "_target",
          "type": "address"
        },
        {
          "internalType": "bool",
          "name": "_freeze",
          "type": "bool"
        }
      ],
      "name": "freezeAccount",
      "outputs": [],
      "stateMutability": "nonpayable",
      "type": "function"
    },
    {
      "inputs": [
        {
          "internalType": "address",
          "name": "_to",
          "type": "address"
        },
        {
          "internalType": "uint256",
          "name": "_value",
          "type": "uint256"
        }
      ],
      "name": "transfer",
      "outputs": [
        {
          "internalType": "bool",
          "name": "",
          "type": "bool"
        }
      ],
      "stateMutability": "nonpayable",
      "type": "function"
    },
    {
      "inputs": [
        {
          "internalType": "bytes27[]",
          "name": "_addressesAndAmounts",
          "type": "bytes27[]"
        }
      ],
      "name": "multiTransfer",
      "outputs": [
        {
          "internalType": "address",
          "name": "",
          "type": "address"
        }
      ],
      "stateMutability": "nonpayable",
      "type": "function"
    },
    {
      "inputs": [
        {
          "internalType": "address",
          "name": "_target",
          "type": "address"
        }
      ],
      "name": "isFrozen",
      "outputs": [
        {
          "internalType": "bool",
          "name": "",
          "type": "bool"
        }
      ],
      "stateMutability": "view",
      "type": "function"
    },
    {
      "inputs": [
        {
          "internalType": "address",
          "name": "_from",
          "type": "address"
        },
        {
          "internalType": "address",
          "name": "_to",
          "type": "address"
        },
        {
          "internalType": "uint256",
          "name": "_value",
          "type": "uint256"
        }
      ],
      "name": "releaseEMB",
      "outputs": [
        {
          "internalType": "bool",
          "name": "",
          "type": "bool"
        }
      ],
      "stateMutability": "nonpayable",
      "type": "function"
    },
    {
      "inputs": [
        {
          "internalType": "address",
          "name": "_from",
          "type": "address"
        },
        {
          "internalType": "address",
          "name": "_to",
          "type": "address"
        },
        {
          "internalType": "uint256",
          "name": "_value",
          "type": "uint256"
        }
      ],
      "name": "transferFrom",
      "outputs": [
        {
          "internalType": "bool",
          "name": "",
          "type": "bool"
        }
      ],
      "stateMutability": "nonpayable",
      "type": "function"
    },
    {
      "inputs": [
        {
          "internalType": "address",
          "name": "_spender",
          "type": "address"
        },
        {
          "internalType": "uint256",
          "name": "_subtractedValue",
          "type": "uint256"
        }
      ],
      "name": "decreaseAllowance",
      "outputs": [
        {
          "internalType": "bool",
          "name": "",
          "type": "bool"
        }
      ],
      "stateMutability": "nonpayable",
      "type": "function"
    },
    {
      "inputs": [
        {
          "internalType": "address",
          "name": "_spender",
          "type": "address"
        },
        {
          "internalType": "uint256",
          "name": "_value",
          "type": "uint256"
        }
      ],
      "name": "approve",
      "outputs": [
        {
          "internalType": "bool",
          "name": "",
          "type": "bool"
        }
      ],
      "stateMutability": "nonpayable",
      "type": "function"
    }
  ],
  "bytecode": "0x60806040526305f5e1006009553480156200001957600080fd5b5060405162005af338038062005af3833981810160405260a08110156200003f57600080fd5b81019080805160405193929190846401000000008211156200006057600080fd5b838201915060208201858111156200007757600080fd5b82518660018202830111640100000000821117156200009557600080fd5b8083526020830192505050908051906020019080838360005b83811015620000cb578082015181840152602081019050620000ae565b50505050905090810190601f168015620000f95780820380516001836020036101000a031916815260200191505b50604052602001805160405193929190846401000000008211156200011d57600080fd5b838201915060208201858111156200013457600080fd5b82518660018202830111640100000000821117156200015257600080fd5b8083526020830192505050908051906020019080838360005b83811015620001885780820151818401526020810190506200016b565b50505050905090810190601f168015620001b65780820380516001836020036101000a031916815260200191505b506040526020018051906020019092919080519060200190929190805190602001909291905050508185858160039080519060200190620001f99291906200082c565b508060049080519060200190620002129291906200082c565b506012600560006101000a81548160ff021916908360ff160217905550505060008111620002a8576040517f08c379a00000000000000000000000000000000000000000000000000000000081526004018080602001828103825260158152602001807f45524332304361707065643a206361702069732030000000000000000000000081525060200191505060405180910390fd5b80600681905550506000620002c26200038f60201b60201c565b905080600760006101000a81548173ffffffffffffffffffffffffffffffffffffffff021916908373ffffffffffffffffffffffffffffffffffffffff1602179055508073ffffffffffffffffffffffffffffffffffffffff16600073ffffffffffffffffffffffffffffffffffffffff167f8be0079c531659141344cd1fd0a4f28419497f9722a3daafe3b4186f6b6457e060405160405180910390a3506200037381836200039760201b60201c565b62000384836200057560201b60201c565b5050505050620008e2565b600033905090565b600073ffffffffffffffffffffffffffffffffffffffff168273ffffffffffffffffffffffffffffffffffffffff1614156200043b576040517f08c379a000000000000000000000000000000000000000000000000000000000815260040180806020018281038252601f8152602001807f45524332303a206d696e7420746f20746865207a65726f20616464726573730081525060200191505060405180910390fd5b6200044f600083836200059360201b60201c565b6200046b816002546200069560201b620043201790919060201c565b600281905550620004c9816000808573ffffffffffffffffffffffffffffffffffffffff1673ffffffffffffffffffffffffffffffffffffffff168152602001908152602001600020546200069560201b620043201790919060201c565b6000808473ffffffffffffffffffffffffffffffffffffffff1673ffffffffffffffffffffffffffffffffffffffff168152602001908152602001600020819055508173ffffffffffffffffffffffffffffffffffffffff16600073ffffffffffffffffffffffffffffffffffffffff167fddf252ad1be2c89b69c2b068fc378daa952ba7f163c4a11628f55a4df523b3ef836040518082815260200191505060405180910390a35050565b80600560006101000a81548160ff021916908360ff16021790555050565b620005ab8383836200071e60201b620043a81760201c565b600073ffffffffffffffffffffffffffffffffffffffff168373ffffffffffffffffffffffffffffffffffffffff1614156200069057620005f16200081360201b60201c565b6200061a82620006066200081d60201b60201c565b6200069560201b620043201790919060201c565b11156200068f576040517f08c379a00000000000000000000000000000000000000000000000000000000081526004018080602001828103825260198152602001807f45524332304361707065643a206361702065786365656465640000000000000081525060200191505060405180910390fd5b5b505050565b60008082840190508381101562000714576040517f08c379a000000000000000000000000000000000000000000000000000000000815260040180806020018281038252601b8152602001807f536166654d6174683a206164646974696f6e206f766572666c6f77000000000081525060200191505060405180910390fd5b8091505092915050565b620007368383836200082760201b6200447f1760201c565b600073ffffffffffffffffffffffffffffffffffffffff168373ffffffffffffffffffffffffffffffffffffffff1614156200080e576006546200079882620007846200081d60201b60201c565b6200069560201b620043201790919060201c565b11156200080d576040517f08c379a00000000000000000000000000000000000000000000000000000000081526004018080602001828103825260198152602001807f45524332304361707065643a206361702065786365656465640000000000000081525060200191505060405180910390fd5b5b505050565b6000600654905090565b6000600254905090565b505050565b828054600181600116156101000203166002900490600052602060002090601f016020900481019282620008645760008555620008b0565b82601f106200087f57805160ff1916838001178555620008b0565b82800160010185558215620008b0579182015b82811115620008af57825182559160200191906001019062000892565b5b509050620008bf9190620008c3565b5090565b5b80821115620008de576000816000905550600101620008c4565b5090565b61520180620008f26000396000f3fe608060405234801561001057600080fd5b50600436106102535760003560e01c806370a0823111610146578063a9059cbb116100c3578063dd62ed3e11610087578063dd62ed3e14610e75578063e2af4cad14610eed578063e583983614610f48578063e724529c14610fa2578063f2fde38b14610ff2578063f66d8aa31461103657610253565b8063a9059cbb14610ccb578063b51ec3bb14610d2f578063ba5011fa14610d4f578063cdc0613c14610daa578063ce086ec114610dda57610253565b80638da5cb5b1161010a5780638da5cb5b14610a925780638eacf71314610ac657806395d89b4114610b41578063a3b59c8614610bc4578063a457c2d714610c6757610253565b806370a08231146108fe578063715018a6146109565780637beea4bf146109605780637f6f3d79146109bf578063860838a514610a3857610253565b80632c83e86f116101d4578063395093511161019857806339509351146106e75780633bd86d2d1461074b57806350b04085146107e657806360f39d18146108145780636a04c3811461088357610253565b80632c83e86f146105e5578063313ce56714610629578063315ff7821461064a578063355274ea1461066a5780633618bdab1461068857610253565b806323b872dd1161021b57806323b872dd14610425578063259e488d146104a9578063261ea7a4146104ed57806329bf81e41461053c5780632bf5eabb146105b557610253565b806306fdde0314610258578063095ea7b3146102db5780630c5cc0a21461033f57806316166f89146103ae57806318160ddd14610407575b600080fd5b6102606110ba565b6040518080602001828103825283818151815260200191508051906020019080838360005b838110156102a0578082015181840152602081019050610285565b50505050905090810190601f1680156102cd5780820380516001836020036101000a031916815260200191505b509250505060405180910390f35b610327600480360360408110156102f157600080fd5b81019080803573ffffffffffffffffffffffffffffffffffffffff1690602001909291908035906020019092919050505061115c565b60405180821515815260200191505060405180910390f35b6103826004803603602081101561035557600080fd5b81019080803573ffffffffffffffffffffffffffffffffffffffff1916906020019092919050505061129a565b604051808273ffffffffffffffffffffffffffffffffffffffff16815260200191505060405180910390f35b6103f1600480360360208110156103c457600080fd5b81019080803573ffffffffffffffffffffffffffffffffffffffff19169060200190929190505050611305565b6040518082815260200191505060405180910390f35b61040f611350565b6040518082815260200191505060405180910390f35b6104916004803603606081101561043b57600080fd5b81019080803573ffffffffffffffffffffffffffffffffffffffff169060200190929190803573ffffffffffffffffffffffffffffffffffffffff1690602001909291908035906020019092919050505061135a565b60405180821515815260200191505060405180910390f35b6104eb600480360360208110156104bf57600080fd5b81019080803573ffffffffffffffffffffffffffffffffffffffff1690602001909291905050506113d2565b005b61053a6004803603604081101561050357600080fd5b81019080803573ffffffffffffffffffffffffffffffffffffffff1916906020019092919080359060200190929190505050611566565b005b6105886004803603604081101561055257600080fd5b81019080803573ffffffffffffffffffffffffffffffffffffffff1690602001909291908035906020019092919050505061167a565b604051808273ffffffffffffffffffffffffffffffffffffffff1916815260200191505060405180910390f35b6105e3600480360360208110156105cb57600080fd5b810190808035151590602001909291905050506116c0565b005b610627600480360360208110156105fb57600080fd5b81019080803573ffffffffffffffffffffffffffffffffffffffff1690602001909291905050506117a7565b005b61063161193b565b604051808260ff16815260200191505060405180910390f35b610652611952565b60405180821515815260200191505060405180910390f35b610672611969565b6040518082815260200191505060405180910390f35b610690611973565b6040518080602001828103825283818151815260200191508051906020019060200280838360005b838110156106d35780820151818401526020810190506106b8565b505050509050019250505060405180910390f35b610733600480360360408110156106fd57600080fd5b81019080803573ffffffffffffffffffffffffffffffffffffffff16906020019092919080359060200190929190505050611a05565b60405180821515815260200191505060405180910390f35b6107ce6004803603606081101561076157600080fd5b81019080803573ffffffffffffffffffffffffffffffffffffffff169060200190929190803573ffffffffffffffffffffffffffffffffffffffff19169060200190929190803573ffffffffffffffffffffffffffffffffffffffff169060200190929190505050611ab8565b60405180821515815260200191505060405180910390f35b610812600480360360208110156107fc57600080fd5b8101908080359060200190929190505050611b90565b005b6108576004803603602081101561082a57600080fd5b81019080803573ffffffffffffffffffffffffffffffffffffffff19169060200190929190505050611d11565b604051808273ffffffffffffffffffffffffffffffffffffffff16815260200191505060405180910390f35b6108e66004803603604081101561089957600080fd5b81019080803573ffffffffffffffffffffffffffffffffffffffff169060200190929190803573ffffffffffffffffffffffffffffffffffffffff19169060200190929190505050611d44565b60405180821515815260200191505060405180910390f35b6109406004803603602081101561091457600080fd5b81019080803573ffffffffffffffffffffffffffffffffffffffff169060200190929190505050611ff3565b6040518082815260200191505060405180910390f35b61095e61203b565b005b6109686121c6565b6040518080602001828103825283818151815260200191508051906020019060200280838360005b838110156109ab578082015181840152602081019050610990565b505050509050019250505060405180910390f35b610a22600480360360408110156109d557600080fd5b81019080803573ffffffffffffffffffffffffffffffffffffffff169060200190929190803573ffffffffffffffffffffffffffffffffffffffff19169060200190929190505050612295565b6040518082815260200191505060405180910390f35b610a7a60048036036020811015610a4e57600080fd5b81019080803573ffffffffffffffffffffffffffffffffffffffff1690602001909291905050506122ba565b60405180821515815260200191505060405180910390f35b610a9a6122da565b604051808273ffffffffffffffffffffffffffffffffffffffff16815260200191505060405180910390f35b610b2960048036036040811015610adc57600080fd5b81019080803573ffffffffffffffffffffffffffffffffffffffff19169060200190929190803573ffffffffffffffffffffffffffffffffffffffff169060200190929190505050612304565b60405180821515815260200191505060405180910390f35b610b49612a37565b6040518080602001828103825283818151815260200191508051906020019080838360005b83811015610b89578082015181840152602081019050610b6e565b50505050905090810190601f168015610bb65780820380516001836020036101000a031916815260200191505b509250505060405180910390f35b610c3b60048036036020811015610bda57600080fd5b8101908080359060200190640100000000811115610bf757600080fd5b820183602082011115610c0957600080fd5b80359060200191846020830284011164010000000083111715610c2b57600080fd5b9091929391929390505050612ad9565b604051808273ffffffffffffffffffffffffffffffffffffffff16815260200191505060405180910390f35b610cb360048036036040811015610c7d57600080fd5b81019080803573ffffffffffffffffffffffffffffffffffffffff16906020019092919080359060200190929190505050612c00565b60405180821515815260200191505060405180910390f35b610d1760048036036040811015610ce157600080fd5b81019080803573ffffffffffffffffffffffffffffffffffffffff16906020019092919080359060200190929190505050612da5565b60405180821515815260200191505060405180910390f35b610d37612e1b565b60405180821515815260200191505060405180910390f35b610d9260048036036020811015610d6557600080fd5b81019080803573ffffffffffffffffffffffffffffffffffffffff19169060200190929190505050612e2e565b60405180821515815260200191505060405180910390f35b610dd860048036036020811015610dc057600080fd5b810190808035151590602001909291905050506132e7565b005b610e5d60048036036060811015610df057600080fd5b81019080803573ffffffffffffffffffffffffffffffffffffffff169060200190929190803573ffffffffffffffffffffffffffffffffffffffff169060200190929190803573ffffffffffffffffffffffffffffffffffffffff191690602001909291905050506133ce565b60405180821515815260200191505060405180910390f35b610ed760048036036040811015610e8b57600080fd5b81019080803573ffffffffffffffffffffffffffffffffffffffff169060200190929190803573ffffffffffffffffffffffffffffffffffffffff169060200190929190505050613c24565b6040518082815260200191505060405180910390f35b610f3060048036036020811015610f0357600080fd5b81019080803573ffffffffffffffffffffffffffffffffffffffff19169060200190929190505050613cab565b60405180821515815260200191505060405180910390f35b610f8a60048036036020811015610f5e57600080fd5b81019080803573ffffffffffffffffffffffffffffffffffffffff169060200190929190505050613e3c565b60405180821515815260200191505060405180910390f35b610ff060048036036040811015610fb857600080fd5b81019080803573ffffffffffffffffffffffffffffffffffffffff169060200190929190803515159060200190929190505050613ea9565b005b6110346004803603602081101561100857600080fd5b81019080803573ffffffffffffffffffffffffffffffffffffffff169060200190929190505050613fce565b005b6110a26004803603606081101561104c57600080fd5b81019080803573ffffffffffffffffffffffffffffffffffffffff169060200190929190803573ffffffffffffffffffffffffffffffffffffffff169060200190929190803590602001909291905050506141de565b60405180821515815260200191505060405180910390f35b606060038054600181600116156101000203166002900480601f0160208091040260200160405190810160405280929190818152602001828054600181600116156101000203166002900480156111525780601f1061112757610100808354040283529160200191611152565b820191906000526020600020905b81548152906001019060200180831161113557829003601f168201915b5050505050905090565b6000600860009054906101000a900473ffffffffffffffffffffffffffffffffffffffff1673ffffffffffffffffffffffffffffffffffffffff168373ffffffffffffffffffffffffffffffffffffffff16141561128557600b60009054906101000a900473ffffffffffffffffffffffffffffffffffffffff1673ffffffffffffffffffffffffffffffffffffffff166304426db4336040518263ffffffff1660e01b8152600401808273ffffffffffffffffffffffffffffffffffffffff16815260200191505060206040518083038186803b15801561123d57600080fd5b505afa158015611251573d6000803e3d6000fd5b505050506040513d602081101561126757600080fd5b810190808051906020019092919050505082101561128457600080fd5b5b611290338484614484565b6001905092915050565b6000600c60008373ffffffffffffffffffffffffffffffffffffffff191673ffffffffffffffffffffffffffffffffffffffff1916815260200190815260200160002060009054906101000a900473ffffffffffffffffffffffffffffffffffffffff169050919050565b6000601160008373ffffffffffffffffffffffffffffffffffffffff191673ffffffffffffffffffffffffffffffffffffffff19168152602001908152602001600020549050919050565b6000600254905090565b6000611366848361467b565b6113bb576040517f08c379a000000000000000000000000000000000000000000000000000000000815260040180806020018281038252602b815260200180615025602b913960400191505060405180910390fd5b6113c68484846147d5565b50600190509392505050565b6113da6148ae565b73ffffffffffffffffffffffffffffffffffffffff16600760009054906101000a900473ffffffffffffffffffffffffffffffffffffffff1673ffffffffffffffffffffffffffffffffffffffff161461149c576040517f08c379a00000000000000000000000000000000000000000000000000000000081526004018080602001828103825260208152602001807f4f776e61626c653a2063616c6c6572206973206e6f7420746865206f776e657281525060200191505060405180910390fd5b600073ffffffffffffffffffffffffffffffffffffffff168173ffffffffffffffffffffffffffffffffffffffff161415611522576040517f08c379a00000000000000000000000000000000000000000000000000000000081526004018080602001828103825260288152602001806151706028913960400191505060405180910390fd5b80600b60006101000a81548173ffffffffffffffffffffffffffffffffffffffff021916908373ffffffffffffffffffffffffffffffffffffffff16021790555050565b61156e6148ae565b73ffffffffffffffffffffffffffffffffffffffff16600760009054906101000a900473ffffffffffffffffffffffffffffffffffffffff1673ffffffffffffffffffffffffffffffffffffffff1614611630576040517f08c379a00000000000000000000000000000000000000000000000000000000081526004018080602001828103825260208152602001807f4f776e61626c653a2063616c6c6572206973206e6f7420746865206f776e657281525060200191505060405180910390fd5b80601160008473ffffffffffffffffffffffffffffffffffffffff191673ffffffffffffffffffffffffffffffffffffffff19168152602001908152602001600020819055505050565b600d602052816000526040600020818154811061169657600080fd5b9060005260206000209060029182820401919006600c02915091509054906101000a900460a01b81565b6116c86148ae565b73ffffffffffffffffffffffffffffffffffffffff16600760009054906101000a900473ffffffffffffffffffffffffffffffffffffffff1673ffffffffffffffffffffffffffffffffffffffff161461178a576040517f08c379a00000000000000000000000000000000000000000000000000000000081526004018080602001828103825260208152602001807f4f776e61626c653a2063616c6c6572206973206e6f7420746865206f776e657281525060200191505060405180910390fd5b80600760156101000a81548160ff02191690831515021790555050565b6117af6148ae565b73ffffffffffffffffffffffffffffffffffffffff16600760009054906101000a900473ffffffffffffffffffffffffffffffffffffffff1673ffffffffffffffffffffffffffffffffffffffff1614611871576040517f08c379a00000000000000000000000000000000000000000000000000000000081526004018080602001828103825260208152602001807f4f776e61626c653a2063616c6c6572206973206e6f7420746865206f776e657281525060200191505060405180910390fd5b600073ffffffffffffffffffffffffffffffffffffffff168173ffffffffffffffffffffffffffffffffffffffff1614156118f7576040517f08c379a00000000000000000000000000000000000000000000000000000000081526004018080602001828103825260298152602001806150a06029913960400191505060405180910390fd5b80600860006101000a81548173ffffffffffffffffffffffffffffffffffffffff021916908373ffffffffffffffffffffffffffffffffffffffff16021790555050565b6000600560009054906101000a900460ff16905090565b6000600760159054906101000a900460ff16905090565b6000600654905090565b6060600a8054806020026020016040519081016040528092919081815260200182805480156119fb57602002820191906000526020600020906000905b82829054906101000a900460a01b73ffffffffffffffffffffffffffffffffffffffff1916815260200190600c0190602082600b010492830192600103820291508084116119b05790505b5050505050905090565b6000611aae611a126148ae565b84611aa98560016000611a236148ae565b73ffffffffffffffffffffffffffffffffffffffff1673ffffffffffffffffffffffffffffffffffffffff16815260200190815260200160002060008973ffffffffffffffffffffffffffffffffffffffff1673ffffffffffffffffffffffffffffffffffffffff1681526020019081526020016000205461432090919063ffffffff16565b614484565b6001905092915050565b60008173ffffffffffffffffffffffffffffffffffffffff16601060008673ffffffffffffffffffffffffffffffffffffffff1673ffffffffffffffffffffffffffffffffffffffff16815260200190815260200160002060008573ffffffffffffffffffffffffffffffffffffffff191673ffffffffffffffffffffffffffffffffffffffff1916815260200190815260200160002060009054906101000a900473ffffffffffffffffffffffffffffffffffffffff1673ffffffffffffffffffffffffffffffffffffffff161490509392505050565b611b986148ae565b73ffffffffffffffffffffffffffffffffffffffff16600760009054906101000a900473ffffffffffffffffffffffffffffffffffffffff1673ffffffffffffffffffffffffffffffffffffffff1614611c5a576040517f08c379a00000000000000000000000000000000000000000000000000000000081526004018080602001828103825260208152602001807f4f776e61626c653a2063616c6c6572206973206e6f7420746865206f776e657281525060200191505060405180910390fd5b60008111611cd0576040517f08c379a00000000000000000000000000000000000000000000000000000000081526004018080602001828103825260208152602001807f56616e69747920507572636861736520436f7374206d757374206265203e203081525060200191505060405180910390fd5b806009819055507fe7f7e30dc8854e6ebc92875bf60e7edee7a5bda14b92b8d852db83d37e428ec6816040518082815260200191505060405180910390a150565b600c6020528060005260406000206000915054906101000a900473ffffffffffffffffffffffffffffffffffffffff1681565b60008073ffffffffffffffffffffffffffffffffffffffff168373ffffffffffffffffffffffffffffffffffffffff161415611dcb576040517f08c379a00000000000000000000000000000000000000000000000000000000081526004018080602001828103825260288152602001806150506028913960400191505060405180910390fd5b3373ffffffffffffffffffffffffffffffffffffffff16600c60008473ffffffffffffffffffffffffffffffffffffffff191673ffffffffffffffffffffffffffffffffffffffff1916815260200190815260200160002060009054906101000a900473ffffffffffffffffffffffffffffffffffffffff1673ffffffffffffffffffffffffffffffffffffffff1614611eb0576040517f08c379a0000000000000000000000000000000000000000000000000000000008152600401808060200182810382526029815260200180614f436029913960400191505060405180910390fd5b82601060003373ffffffffffffffffffffffffffffffffffffffff1673ffffffffffffffffffffffffffffffffffffffff16815260200190815260200160002060008473ffffffffffffffffffffffffffffffffffffffff191673ffffffffffffffffffffffffffffffffffffffff1916815260200190815260200160002060006101000a81548173ffffffffffffffffffffffffffffffffffffffff021916908373ffffffffffffffffffffffffffffffffffffffff1602179055508273ffffffffffffffffffffffffffffffffffffffff163373ffffffffffffffffffffffffffffffffffffffff167f9882ce26ee4b9d7f9cc08c2c2101323228f2412036c7a3a050c200eede86276c84604051808273ffffffffffffffffffffffffffffffffffffffff1916815260200191505060405180910390a36001905092915050565b60008060008373ffffffffffffffffffffffffffffffffffffffff1673ffffffffffffffffffffffffffffffffffffffff168152602001908152602001600020549050919050565b6120436148ae565b73ffffffffffffffffffffffffffffffffffffffff16600760009054906101000a900473ffffffffffffffffffffffffffffffffffffffff1673ffffffffffffffffffffffffffffffffffffffff1614612105576040517f08c379a00000000000000000000000000000000000000000000000000000000081526004018080602001828103825260208152602001807f4f776e61626c653a2063616c6c6572206973206e6f7420746865206f776e657281525060200191505060405180910390fd5b600073ffffffffffffffffffffffffffffffffffffffff16600760009054906101000a900473ffffffffffffffffffffffffffffffffffffffff1673ffffffffffffffffffffffffffffffffffffffff167f8be0079c531659141344cd1fd0a4f28419497f9722a3daafe3b4186f6b6457e060405160405180910390a36000600760006101000a81548173ffffffffffffffffffffffffffffffffffffffff021916908373ffffffffffffffffffffffffffffffffffffffff160217905550565b6060600d60003373ffffffffffffffffffffffffffffffffffffffff1673ffffffffffffffffffffffffffffffffffffffff16815260200190815260200160002080548060200260200160405190810160405280929190818152602001828054801561228b57602002820191906000526020600020906000905b82829054906101000a900460a01b73ffffffffffffffffffffffffffffffffffffffff1916815260200190600c0190602082600b010492830192600103820291508084116122405790505b5050505050905090565b600e602052816000526040600020602052806000526040600020600091509150505481565b60126020528060005260406000206000915054906101000a900460ff1681565b6000600760009054906101000a900473ffffffffffffffffffffffffffffffffffffffff16905090565b60008073ffffffffffffffffffffffffffffffffffffffff168273ffffffffffffffffffffffffffffffffffffffff16141561238b576040517f08c379a000000000000000000000000000000000000000000000000000000000815260040180806020018281038252602a815260200180614fd8602a913960400191505060405180910390fd5b3373ffffffffffffffffffffffffffffffffffffffff16600c60008573ffffffffffffffffffffffffffffffffffffffff191673ffffffffffffffffffffffffffffffffffffffff1916815260200190815260200160002060009054906101000a900473ffffffffffffffffffffffffffffffffffffffff1673ffffffffffffffffffffffffffffffffffffffff1614612470576040517f08c379a0000000000000000000000000000000000000000000000000000000008152600401808060200182810382526029815260200180614f436029913960400191505060405180910390fd5b81600c60008573ffffffffffffffffffffffffffffffffffffffff191673ffffffffffffffffffffffffffffffffffffffff1916815260200190815260200160002060006101000a81548173ffffffffffffffffffffffffffffffffffffffff021916908373ffffffffffffffffffffffffffffffffffffffff160217905550600d60008373ffffffffffffffffffffffffffffffffffffffff1673ffffffffffffffffffffffffffffffffffffffff168152602001908152602001600020839080600181540180825580915050600190039060005260206000209060029182820401919006600c029091909190916101000a8154816bffffffffffffffffffffffff021916908360a01c02179055506125d66001600d60008573ffffffffffffffffffffffffffffffffffffffff1673ffffffffffffffffffffffffffffffffffffffff168152602001908152602001600020805490506148b690919063ffffffff16565b600e60008473ffffffffffffffffffffffffffffffffffffffff1673ffffffffffffffffffffffffffffffffffffffff16815260200190815260200160002060008573ffffffffffffffffffffffffffffffffffffffff191673ffffffffffffffffffffffffffffffffffffffff19168152602001908152602001600020819055506000600e60003373ffffffffffffffffffffffffffffffffffffffff1673ffffffffffffffffffffffffffffffffffffffff16815260200190815260200160002060008573ffffffffffffffffffffffffffffffffffffffff191673ffffffffffffffffffffffffffffffffffffffff1916815260200190815260200160002054905060006127336001600d60003373ffffffffffffffffffffffffffffffffffffffff1673ffffffffffffffffffffffffffffffffffffffff168152602001908152602001600020805490506148b690919063ffffffff16565b90506000600d60003373ffffffffffffffffffffffffffffffffffffffff1673ffffffffffffffffffffffffffffffffffffffff168152602001908152602001600020828154811061278157fe5b9060005260206000209060029182820401919006600c029054906101000a900460a01b905080600d60003373ffffffffffffffffffffffffffffffffffffffff1673ffffffffffffffffffffffffffffffffffffffff16815260200190815260200160002084815481106127f157fe5b9060005260206000209060029182820401919006600c026101000a8154816bffffffffffffffffffffffff021916908360a01c0217905550600d60003373ffffffffffffffffffffffffffffffffffffffff1673ffffffffffffffffffffffffffffffffffffffff16815260200190815260200160002080548061287157fe5b6001900381819060005260206000209060029182820401919006600c026101000a8154906bffffffffffffffffffffffff02191690559055600e60003373ffffffffffffffffffffffffffffffffffffffff1673ffffffffffffffffffffffffffffffffffffffff16815260200190815260200160002060008773ffffffffffffffffffffffffffffffffffffffff191673ffffffffffffffffffffffffffffffffffffffff191681526020019081526020016000206000905582600e60003373ffffffffffffffffffffffffffffffffffffffff1673ffffffffffffffffffffffffffffffffffffffff16815260200190815260200160002060008373ffffffffffffffffffffffffffffffffffffffff191673ffffffffffffffffffffffffffffffffffffffff19168152602001908152602001600020819055508473ffffffffffffffffffffffffffffffffffffffff163373ffffffffffffffffffffffffffffffffffffffff167feaeb5d0421f302fc4986a95aad8ad429bc6fed08dfda4ca1e8ed110fb7f129d888604051808273ffffffffffffffffffffffffffffffffffffffff1916815260200191505060405180910390a36001935050505092915050565b606060048054600181600116156101000203166002900480601f016020809104026020016040519081016040528092919081815260200182805460018160011615610100020316600290048015612acf5780601f10612aa457610100808354040283529160200191612acf565b820191906000526020600020905b815481529060010190602001808311612ab257829003601f168201915b5050505050905090565b600080600090505b83839050811015612bcc5760006038858584818110612afc57fe5b9050602002013564ffffffffff191664ffffffffff1916901c60281c90507faa9449f2bca09a7b28319d46fd3f3b58a1bb7d94039fc4b69b7bfe5d8535d52781604051808273ffffffffffffffffffffffffffffffffffffffff16815260200191505060405180910390a1600060a0868685818110612b7757fe5b9050602002013564ffffffffff191664ffffffffff1916901b60281c9050612bbc82827affffffffffffffffffffffffffffffffffffffffffffffffffffff16612da5565b5050508080600101915050612ae1565b50603883836000818110612bdc57fe5b9050602002013564ffffffffff191664ffffffffff1916901c60281c905092915050565b6000600860009054906101000a900473ffffffffffffffffffffffffffffffffffffffff1673ffffffffffffffffffffffffffffffffffffffff168373ffffffffffffffffffffffffffffffffffffffff161415612d9057600b60009054906101000a900473ffffffffffffffffffffffffffffffffffffffff1673ffffffffffffffffffffffffffffffffffffffff166304426db4336040518263ffffffff1660e01b8152600401808273ffffffffffffffffffffffffffffffffffffffff16815260200191505060206040518083038186803b158015612ce157600080fd5b505afa158015612cf5573d6000803e3d6000fd5b505050506040513d6020811015612d0b57600080fd5b8101908080519060200190929190505050612d3883612d2a3387613c24565b6148b690919063ffffffff16565b1015612d8f576040517f08c379a000000000000000000000000000000000000000000000000000000000815260040180806020018281038252606c815260200180614f6c606c913960800191505060405180910390fd5b5b612d9a8383614900565b506001905092915050565b6000612db1338361467b565b612e06576040517f08c379a00000000000000000000000000000000000000000000000000000000081526004018080602001828103825260348152602001806151986034913960400191505060405180910390fd5b612e1083836149cd565b506001905092915050565b600760149054906101000a900460ff1681565b60008073ffffffffffffffffffffffffffffffffffffffff16600c60008473ffffffffffffffffffffffffffffffffffffffff191673ffffffffffffffffffffffffffffffffffffffff1916815260200190815260200160002060009054906101000a900473ffffffffffffffffffffffffffffffffffffffff1673ffffffffffffffffffffffffffffffffffffffff1614612f15576040517f08c379a00000000000000000000000000000000000000000000000000000000081526004018080602001828103825260238152602001806150026023913960400191505060405180910390fd5b60005b600c8160ff161015612fc5576030838260ff16600c8110612f3557fe5b1a60f81b60f81c60ff1610158015612f6657506039838260ff16600c8110612f5957fe5b1a60f81b60f81c60ff1611155b80612faf57506041838260ff16600c8110612f7d57fe5b1a60f81b60f81c60ff1610158015612fae5750605a838260ff16600c8110612fa157fe5b1a60f81b60f81c60ff1611155b5b612fb857600080fd5b8080600101915050612f18565b5060006009541115612fe057612fde333060095461135a565b505b33600c60008473ffffffffffffffffffffffffffffffffffffffff191673ffffffffffffffffffffffffffffffffffffffff1916815260200190815260200160002060006101000a81548173ffffffffffffffffffffffffffffffffffffffff021916908373ffffffffffffffffffffffffffffffffffffffff160217905550600d60003373ffffffffffffffffffffffffffffffffffffffff1673ffffffffffffffffffffffffffffffffffffffff168152602001908152602001600020829080600181540180825580915050600190039060005260206000209060029182820401919006600c029091909190916101000a8154816bffffffffffffffffffffffff021916908360a01c02179055506131466001600d60003373ffffffffffffffffffffffffffffffffffffffff1673ffffffffffffffffffffffffffffffffffffffff168152602001908152602001600020805490506148b690919063ffffffff16565b600e60003373ffffffffffffffffffffffffffffffffffffffff1673ffffffffffffffffffffffffffffffffffffffff16815260200190815260200160002060008473ffffffffffffffffffffffffffffffffffffffff191673ffffffffffffffffffffffffffffffffffffffff1916815260200190815260200160002081905550600a829080600181540180825580915050600190039060005260206000209060029182820401919006600c029091909190916101000a8154816bffffffffffffffffffffffff021916908360a01c02179055506132346001600a805490506148b690919063ffffffff16565b600f60008473ffffffffffffffffffffffffffffffffffffffff191673ffffffffffffffffffffffffffffffffffffffff19168152602001908152602001600020819055503373ffffffffffffffffffffffffffffffffffffffff167f6828c0068cad8973e4a3a23e513d4f8842302b74ed927230e9523febaf4a22bc83604051808273ffffffffffffffffffffffffffffffffffffffff1916815260200191505060405180910390a260019050919050565b6132ef6148ae565b73ffffffffffffffffffffffffffffffffffffffff16600760009054906101000a900473ffffffffffffffffffffffffffffffffffffffff1673ffffffffffffffffffffffffffffffffffffffff16146133b1576040517f08c379a00000000000000000000000000000000000000000000000000000000081526004018080602001828103825260208152602001807f4f776e61626c653a2063616c6c6572206973206e6f7420746865206f776e657281525060200191505060405180910390fd5b80600760146101000a81548160ff02191690831515021790555050565b60008073ffffffffffffffffffffffffffffffffffffffff168373ffffffffffffffffffffffffffffffffffffffff161415613455576040517f08c379a000000000000000000000000000000000000000000000000000000000815260040180806020018281038252602a815260200180614fd8602a913960400191505060405180910390fd5b600c60008373ffffffffffffffffffffffffffffffffffffffff191673ffffffffffffffffffffffffffffffffffffffff1916815260200190815260200160002060009054906101000a900473ffffffffffffffffffffffffffffffffffffffff1673ffffffffffffffffffffffffffffffffffffffff168473ffffffffffffffffffffffffffffffffffffffff161461353a576040517f08c379a000000000000000000000000000000000000000000000000000000000815260040180806020018281038252603b815260200180614ee2603b913960400191505060405180910390fd5b601060008573ffffffffffffffffffffffffffffffffffffffff1673ffffffffffffffffffffffffffffffffffffffff16815260200190815260200160002060008373ffffffffffffffffffffffffffffffffffffffff191673ffffffffffffffffffffffffffffffffffffffff1916815260200190815260200160002060009054906101000a900473ffffffffffffffffffffffffffffffffffffffff1673ffffffffffffffffffffffffffffffffffffffff163373ffffffffffffffffffffffffffffffffffffffff161461365c576040517f08c379a00000000000000000000000000000000000000000000000000000000081526004018080602001828103825260398152602001806150ee6039913960400191505060405180910390fd5b82600c60008473ffffffffffffffffffffffffffffffffffffffff191673ffffffffffffffffffffffffffffffffffffffff1916815260200190815260200160002060006101000a81548173ffffffffffffffffffffffffffffffffffffffff021916908373ffffffffffffffffffffffffffffffffffffffff160217905550600d60008473ffffffffffffffffffffffffffffffffffffffff1673ffffffffffffffffffffffffffffffffffffffff168152602001908152602001600020829080600181540180825580915050600190039060005260206000209060029182820401919006600c029091909190916101000a8154816bffffffffffffffffffffffff021916908360a01c02179055506137c26001600d60008673ffffffffffffffffffffffffffffffffffffffff1673ffffffffffffffffffffffffffffffffffffffff168152602001908152602001600020805490506148b690919063ffffffff16565b600e60008573ffffffffffffffffffffffffffffffffffffffff1673ffffffffffffffffffffffffffffffffffffffff16815260200190815260200160002060008473ffffffffffffffffffffffffffffffffffffffff191673ffffffffffffffffffffffffffffffffffffffff19168152602001908152602001600020819055506000600e60008673ffffffffffffffffffffffffffffffffffffffff1673ffffffffffffffffffffffffffffffffffffffff16815260200190815260200160002060008473ffffffffffffffffffffffffffffffffffffffff191673ffffffffffffffffffffffffffffffffffffffff19168152602001908152602001600020549050600061391f6001600d60008973ffffffffffffffffffffffffffffffffffffffff1673ffffffffffffffffffffffffffffffffffffffff168152602001908152602001600020805490506148b690919063ffffffff16565b90506000600d60008873ffffffffffffffffffffffffffffffffffffffff1673ffffffffffffffffffffffffffffffffffffffff168152602001908152602001600020828154811061396d57fe5b9060005260206000209060029182820401919006600c029054906101000a900460a01b905080600d60008973ffffffffffffffffffffffffffffffffffffffff1673ffffffffffffffffffffffffffffffffffffffff16815260200190815260200160002084815481106139dd57fe5b9060005260206000209060029182820401919006600c026101000a8154816bffffffffffffffffffffffff021916908360a01c0217905550600d60008873ffffffffffffffffffffffffffffffffffffffff1673ffffffffffffffffffffffffffffffffffffffff168152602001908152602001600020805480613a5d57fe5b6001900381819060005260206000209060029182820401919006600c026101000a8154906bffffffffffffffffffffffff02191690559055600e60008873ffffffffffffffffffffffffffffffffffffffff1673ffffffffffffffffffffffffffffffffffffffff16815260200190815260200160002060008673ffffffffffffffffffffffffffffffffffffffff191673ffffffffffffffffffffffffffffffffffffffff191681526020019081526020016000206000905582600e60008973ffffffffffffffffffffffffffffffffffffffff1673ffffffffffffffffffffffffffffffffffffffff16815260200190815260200160002060008373ffffffffffffffffffffffffffffffffffffffff191673ffffffffffffffffffffffffffffffffffffffff19168152602001908152602001600020819055508573ffffffffffffffffffffffffffffffffffffffff168773ffffffffffffffffffffffffffffffffffffffff167feaeb5d0421f302fc4986a95aad8ad429bc6fed08dfda4ca1e8ed110fb7f129d887604051808273ffffffffffffffffffffffffffffffffffffffff1916815260200191505060405180910390a3600193505050509392505050565b6000600160008473ffffffffffffffffffffffffffffffffffffffff1673ffffffffffffffffffffffffffffffffffffffff16815260200190815260200160002060008373ffffffffffffffffffffffffffffffffffffffff1673ffffffffffffffffffffffffffffffffffffffff16815260200190815260200160002054905092915050565b60003373ffffffffffffffffffffffffffffffffffffffff16600c60008473ffffffffffffffffffffffffffffffffffffffff191673ffffffffffffffffffffffffffffffffffffffff1916815260200190815260200160002060009054906101000a900473ffffffffffffffffffffffffffffffffffffffff1673ffffffffffffffffffffffffffffffffffffffff1614613d92576040517f08c379a0000000000000000000000000000000000000000000000000000000008152600401808060200182810382526029815260200180614f436029913960400191505060405180910390fd5b601060003373ffffffffffffffffffffffffffffffffffffffff1673ffffffffffffffffffffffffffffffffffffffff16815260200190815260200160002060008373ffffffffffffffffffffffffffffffffffffffff191673ffffffffffffffffffffffffffffffffffffffff1916815260200190815260200160002060006101000a81549073ffffffffffffffffffffffffffffffffffffffff021916905560019050919050565b6000600760149054906101000a900460ff1680613ea25750601260008373ffffffffffffffffffffffffffffffffffffffff1673ffffffffffffffffffffffffffffffffffffffff16815260200190815260200160002060009054906101000a900460ff165b9050919050565b613eb16148ae565b73ffffffffffffffffffffffffffffffffffffffff16600760009054906101000a900473ffffffffffffffffffffffffffffffffffffffff1673ffffffffffffffffffffffffffffffffffffffff1614613f73576040517f08c379a00000000000000000000000000000000000000000000000000000000081526004018080602001828103825260208152602001807f4f776e61626c653a2063616c6c6572206973206e6f7420746865206f776e657281525060200191505060405180910390fd5b80601260008473ffffffffffffffffffffffffffffffffffffffff1673ffffffffffffffffffffffffffffffffffffffff16815260200190815260200160002060006101000a81548160ff0219169083151502179055505050565b613fd66148ae565b73ffffffffffffffffffffffffffffffffffffffff16600760009054906101000a900473ffffffffffffffffffffffffffffffffffffffff1673ffffffffffffffffffffffffffffffffffffffff1614614098576040517f08c379a00000000000000000000000000000000000000000000000000000000081526004018080602001828103825260208152602001807f4f776e61626c653a2063616c6c6572206973206e6f7420746865206f776e657281525060200191505060405180910390fd5b600073ffffffffffffffffffffffffffffffffffffffff168173ffffffffffffffffffffffffffffffffffffffff16141561411e576040517f08c379a0000000000000000000000000000000000000000000000000000000008152600401808060200182810382526026815260200180614e9a6026913960400191505060405180910390fd5b8073ffffffffffffffffffffffffffffffffffffffff16600760009054906101000a900473ffffffffffffffffffffffffffffffffffffffff1673ffffffffffffffffffffffffffffffffffffffff167f8be0079c531659141344cd1fd0a4f28419497f9722a3daafe3b4186f6b6457e060405160405180910390a380600760006101000a81548173ffffffffffffffffffffffffffffffffffffffff021916908373ffffffffffffffffffffffffffffffffffffffff16021790555050565b6000600760149054906101000a900460ff1615614263576040517f08c379a000000000000000000000000000000000000000000000000000000000815260040180806020018281038252601c8152602001807f656e7375726520667265657a652069732064656163746976617465640000000081525060200191505060405180910390fd5b600860009054906101000a900473ffffffffffffffffffffffffffffffffffffffff1673ffffffffffffffffffffffffffffffffffffffff163373ffffffffffffffffffffffffffffffffffffffff1614614309576040517f08c379a000000000000000000000000000000000000000000000000000000000815260040180806020018281038252602e815260200180614e6c602e913960400191505060405180910390fd5b6143148484846147d5565b50600190509392505050565b60008082840190508381101561439e576040517f08c379a000000000000000000000000000000000000000000000000000000000815260040180806020018281038252601b8152602001807f536166654d6174683a206164646974696f6e206f766572666c6f77000000000081525060200191505060405180910390fd5b8091505092915050565b6143b383838361447f565b600073ffffffffffffffffffffffffffffffffffffffff168373ffffffffffffffffffffffffffffffffffffffff16141561447a57600654614405826143f7611350565b61432090919063ffffffff16565b1115614479576040517f08c379a00000000000000000000000000000000000000000000000000000000081526004018080602001828103825260198152602001807f45524332304361707065643a206361702065786365656465640000000000000081525060200191505060405180910390fd5b5b505050565b505050565b600073ffffffffffffffffffffffffffffffffffffffff168373ffffffffffffffffffffffffffffffffffffffff16141561450a576040517f08c379a00000000000000000000000000000000000000000000000000000000081526004018080602001828103825260248152602001806151276024913960400191505060405180910390fd5b600073ffffffffffffffffffffffffffffffffffffffff168273ffffffffffffffffffffffffffffffffffffffff161415614590576040517f08c379a0000000000000000000000000000000000000000000000000000000008152600401808060200182810382526022815260200180614ec06022913960400191505060405180910390fd5b80600160008573ffffffffffffffffffffffffffffffffffffffff1673ffffffffffffffffffffffffffffffffffffffff16815260200190815260200160002060008473ffffffffffffffffffffffffffffffffffffffff1673ffffffffffffffffffffffffffffffffffffffff168152602001908152602001600020819055508173ffffffffffffffffffffffffffffffffffffffff168373ffffffffffffffffffffffffffffffffffffffff167f8c5be1e5ebec7d5bd14f71427d1e84f3dd0314c0f7b2291e5b200ac8c7c3b925836040518082815260200191505060405180910390a3505050565b6000601260008473ffffffffffffffffffffffffffffffffffffffff1673ffffffffffffffffffffffffffffffffffffffff16815260200190815260200160002060009054906101000a900460ff161580156146e45750600760149054906101000a900460ff16155b80156147cd57506146f483611ff3565b6147ca600b60009054906101000a900473ffffffffffffffffffffffffffffffffffffffff1673ffffffffffffffffffffffffffffffffffffffff166304426db4866040518263ffffffff1660e01b8152600401808273ffffffffffffffffffffffffffffffffffffffff16815260200191505060206040518083038186803b15801561478057600080fd5b505afa158015614794573d6000803e3d6000fd5b505050506040513d60208110156147aa57600080fd5b81019080805190602001909291905050508461432090919063ffffffff16565b11155b905092915050565b60006147e28484846149eb565b6148a3846147ee6148ae565b61489e8560405180606001604052806028815260200161507860289139600160008b73ffffffffffffffffffffffffffffffffffffffff1673ffffffffffffffffffffffffffffffffffffffff16815260200190815260200160002060006148546148ae565b73ffffffffffffffffffffffffffffffffffffffff1673ffffffffffffffffffffffffffffffffffffffff16815260200190815260200160002054614cac9092919063ffffffff16565b614484565b600190509392505050565b600033905090565b60006148f883836040518060400160405280601e81526020017f536166654d6174683a207375627472616374696f6e206f766572666c6f770000815250614cac565b905092915050565b60006149c361490d6148ae565b846149be8560405180606001604052806025815260200161514b60259139600160006149376148ae565b73ffffffffffffffffffffffffffffffffffffffff1673ffffffffffffffffffffffffffffffffffffffff16815260200190815260200160002060008a73ffffffffffffffffffffffffffffffffffffffff1673ffffffffffffffffffffffffffffffffffffffff16815260200190815260200160002054614cac9092919063ffffffff16565b614484565b6001905092915050565b60006149e16149da6148ae565b84846149eb565b6001905092915050565b600073ffffffffffffffffffffffffffffffffffffffff168373ffffffffffffffffffffffffffffffffffffffff161415614a71576040517f08c379a00000000000000000000000000000000000000000000000000000000081526004018080602001828103825260258152602001806150c96025913960400191505060405180910390fd5b600073ffffffffffffffffffffffffffffffffffffffff168273ffffffffffffffffffffffffffffffffffffffff161415614af7576040517f08c379a0000000000000000000000000000000000000000000000000000000008152600401808060200182810382526023815260200180614e496023913960400191505060405180910390fd5b614b02838383614d6c565b614b6d81604051806060016040528060268152602001614f1d602691396000808773ffffffffffffffffffffffffffffffffffffffff1673ffffffffffffffffffffffffffffffffffffffff16815260200190815260200160002054614cac9092919063ffffffff16565b6000808573ffffffffffffffffffffffffffffffffffffffff1673ffffffffffffffffffffffffffffffffffffffff16815260200190815260200160002081905550614c00816000808573ffffffffffffffffffffffffffffffffffffffff1673ffffffffffffffffffffffffffffffffffffffff1681526020019081526020016000205461432090919063ffffffff16565b6000808473ffffffffffffffffffffffffffffffffffffffff1673ffffffffffffffffffffffffffffffffffffffff168152602001908152602001600020819055508173ffffffffffffffffffffffffffffffffffffffff168373ffffffffffffffffffffffffffffffffffffffff167fddf252ad1be2c89b69c2b068fc378daa952ba7f163c4a11628f55a4df523b3ef836040518082815260200191505060405180910390a3505050565b6000838311158290614d59576040517f08c379a00000000000000000000000000000000000000000000000000000000081526004018080602001828103825283818151815260200191508051906020019080838360005b83811015614d1e578082015181840152602081019050614d03565b50505050905090810190601f168015614d4b5780820380516001836020036101000a031916815260200191505b509250505060405180910390fd5b5060008385039050809150509392505050565b614d778383836143a8565b600073ffffffffffffffffffffffffffffffffffffffff168373ffffffffffffffffffffffffffffffffffffffff161415614e4357614db4611969565b614dce82614dc0611350565b61432090919063ffffffff16565b1115614e42576040517f08c379a00000000000000000000000000000000000000000000000000000000081526004018080602001828103825260198152602001807f45524332304361707065643a206361702065786365656465640000000000000081525060200191505060405180910390fd5b5b50505056fe45524332303a207472616e7366657220746f20746865207a65726f20616464726573736f6e6c7920746865206c656173652065786368616e67652063616e2063616c6c20746869732066756e6374696f6e4f776e61626c653a206e6577206f776e657220697320746865207a65726f206164647265737345524332303a20617070726f766520746f20746865207a65726f20616464726573737468652076616e697479206265696e67207472616e73666572726564206d757374206265206f776e65642062792061646472657373205f66726f6d45524332303a207472616e7366657220616d6f756e7420657863656564732062616c616e63657472616e73616374696f6e20696e69746961746f72206d757374206f776e207468652076616e6974796966207370656e64657220697320746865206c656173652065786368616e67652c2074686520616c6c6f77616e6365206d7573742062652067726561746572207468616e2074686520616d6f756e74207468652075736572206973206d696e696e672077697468204c454d426e65772076616e697479206f776e65722063616e6e6f74206265206f662061646472657373207a65726f76616e697479206d757374206e6f742062652070757263686173656420736f2066617276616c7565206d757374206265207472616e7366657265642066726f6d2061646472657373205f66726f6d7370656e646572206f662076616e6974792063616e6e6f742062652061646472657373207a65726f45524332303a207472616e7366657220616d6f756e74206578636565647320616c6c6f77616e63654c656173652045786368616e676520616464726573732063616e6e6f742062652073657420746f203045524332303a207472616e736665722066726f6d20746865207a65726f20616464726573737472616e73616374696f6e20696e69746961746f72206d75737420626520617070726f76656420746f207472616e736665722076616e69747945524332303a20617070726f76652066726f6d20746865207a65726f206164647265737345524332303a2064656372656173656420616c6c6f77616e63652062656c6f77207a65726f4c656173656420456d626c656d20616464726573732063616e6e6f742062652073657420746f203076616c7565206d757374206265207472616e736665727261626c65206279207472616e73616374696f6e20696e69746961746f72a264697066735822122015ce7d6dbe6cd9394538d8bc8f9ada2e9fb75f73af9fa3161688d69a64a1b19d64736f6c63430007060033",
  "immutableReferences": {},
  "source": "// SPDX-License-Identifier: MIT\n\npragma solidity 0.7.6;\n\nimport \"@openzeppelin/contracts/token/ERC20/ERC20.sol\";\nimport \"@openzeppelin/contracts/token/ERC20/ERC20Capped.sol\";\nimport \"@openzeppelin/contracts/math/SafeMath.sol\";\nimport \"@openzeppelin/contracts/access/Ownable.sol\";\nimport \"./LeasedEmblem.sol\";\n\ncontract Emblem is ERC20, ERC20Capped, Ownable {\n  using SafeMath for uint256;\n\n   bool public completeFreeze;\n   bool internal useVanityFees;\n   address internal leaseExchange;\n   uint256 internal vanityPurchaseCost = 1 * (10 ** 8); //1 EMB\n   bytes12[] internal allVanities;\n   LeasedEmblem internal LEMB;\n\n   mapping (bytes12 => address) public vanityAddresses;\n   mapping (address => bytes12[]) public ownedVanities;\n   mapping (address => mapping(bytes12 => uint256)) public ownedVanitiesIndex;\n   mapping (bytes12 => uint256) internal allVanitiesIndex;\n   mapping (address => mapping (bytes12 => address)) internal allowedVanities;\n   mapping (bytes12 => uint256) internal vanityFees;\n   mapping (address => bool) public frozenAccounts;\n\n   event TransferVanity(address indexed from, address indexed to, bytes12 vanity);\n   event ApprovedVanity(address indexed from, address indexed to, bytes12 vanity);\n   event VanityPurchaseCost(uint256 cost);\n   event VanityPurchased(address indexed from, bytes12 vanity);\n   event Test(address vanity);\n\n\n   constructor(string memory _name, string memory _ticker, uint8 _decimal, uint256 _supply, address _wallet) public ERC20(_name, _ticker) ERC20Capped(_supply) {\n     _mint(_wallet,_supply);\n     _setupDecimals(_decimal);\n   }\n\n   function setLeaseExchange(address _leaseExchange) public onlyOwner {\n     require(_leaseExchange != address(0), \"Lease Exchange address cannot be set to 0\");\n     leaseExchange = _leaseExchange;\n   }\n\n   function setVanityPurchaseCost(uint256 cost) public onlyOwner {\n     require(cost > 0, \"Vanity Purchase Cost must be > 0\");\n     vanityPurchaseCost = cost;\n     emit VanityPurchaseCost(cost);\n   }\n\n   function enableFees(bool enabled) public onlyOwner {\n     useVanityFees = enabled;\n   }\n\n   function setLEMB(address _lemb) public onlyOwner {\n     require(_lemb != address(0), \"Leased Emblem address cannot be set to 0\");\n     LEMB = LeasedEmblem(_lemb);\n   }\n\n   function setVanityFee(bytes12 vanity, uint256 fee) public onlyOwner {\n     vanityFees[vanity] = fee;\n   }\n\n   function getFee(bytes12 vanity) public view returns(uint256) {\n     return vanityFees[vanity];\n   }\n\n   function enabledVanityFee() public view returns(bool) {\n     return useVanityFees;\n   }\n\n   function vanityAllowance(address _owner, bytes12 _vanity, address _spender) public view returns (bool) {\n     return allowedVanities[_owner][_vanity] == _spender;\n   }\n\n   function getVanityOwner(bytes12 _vanity) public view returns (address) {\n     return vanityAddresses[_vanity];\n   }\n\n   function getAllVanities() public view returns (bytes12[] memory){\n     return allVanities;\n   }\n\n   function getMyVanities() public view returns (bytes12[] memory){\n     return ownedVanities[msg.sender];\n   }\n\n   function approveVanity(address _spender, bytes12 _vanity) public returns (bool) {\n     require(_spender != address(0), 'spender of vanity cannot be address zero');\n     require(vanityAddresses[_vanity] == msg.sender, 'transaction initiator must own the vanity');\n     allowedVanities[msg.sender][_vanity] = _spender;\n\n     emit ApprovedVanity(msg.sender, _spender, _vanity);\n     return true;\n   }\n\n   function clearVanityApproval(bytes12 _vanity) public returns (bool){\n     require(vanityAddresses[_vanity] == msg.sender,'transaction initiator must own the vanity');\n     delete allowedVanities[msg.sender][_vanity];\n     return true;\n   }\n\n   function transferVanity(bytes12 van, address newOwner) public returns (bool) {\n     require(newOwner != address(0),'new vanity owner cannot be of address zero');\n     require(vanityAddresses[van] == msg.sender,'transaction initiator must own the vanity');\n\n     vanityAddresses[van] = newOwner;\n     ownedVanities[newOwner].push(van);\n     ownedVanitiesIndex[newOwner][van] = ownedVanities[newOwner].length.sub(1);\n\n     uint256 vanityIndex = ownedVanitiesIndex[msg.sender][van];\n     uint256 lastVanityIndex = ownedVanities[msg.sender].length.sub(1);\n     bytes12 lastVanity = ownedVanities[msg.sender][lastVanityIndex];\n\n     ownedVanities[msg.sender][vanityIndex] = lastVanity;\n     ownedVanities[msg.sender].pop();\n\n     delete ownedVanitiesIndex[msg.sender][van];\n     ownedVanitiesIndex[msg.sender][lastVanity] = vanityIndex;\n\n     emit TransferVanity(msg.sender, newOwner,van);\n\n     return true;\n   }\n\n   function transferVanityFrom(\n     address _from,\n     address _to,\n     bytes12 _vanity\n   )\n     public\n     returns (bool)\n   {\n     require(_to != address(0),'new vanity owner cannot be of address zero');\n     require(_from == vanityAddresses[_vanity],'the vanity being transferred must be owned by address _from');\n     require(msg.sender == allowedVanities[_from][_vanity],'transaction initiator must be approved to transfer vanity');\n\n     vanityAddresses[_vanity] = _to;\n     ownedVanities[_to].push(_vanity);\n     ownedVanitiesIndex[_to][_vanity] = ownedVanities[_to].length.sub(1);\n\n     uint256 vanityIndex = ownedVanitiesIndex[_from][_vanity];\n     uint256 lastVanityIndex = ownedVanities[_from].length.sub(1);\n     bytes12 lastVanity = ownedVanities[_from][lastVanityIndex];\n\n     ownedVanities[_from][vanityIndex] = lastVanity;\n     ownedVanities[_from].pop();\n\n     delete ownedVanitiesIndex[_from][_vanity];\n     ownedVanitiesIndex[_from][lastVanity] = vanityIndex;\n\n     emit TransferVanity(_from, _to,_vanity);\n\n     return true;\n   }\n\n   function purchaseVanity(bytes12 van) public returns (bool) {\n     require(vanityAddresses[van] == address(0),'vanity must not be purchased so far');\n\n     for(uint8 i = 0; i < 12; i++){\n       //Vanities must be lower case\n       require((uint8(van[i]) >= 48 && uint8(van[i]) <= 57) || (uint8(van[i]) >= 65 && uint8(van[i]) <= 90));\n     }\n     if(vanityPurchaseCost > 0) transferFrom(msg.sender, address(this), vanityPurchaseCost);\n\n     vanityAddresses[van] = msg.sender;\n     ownedVanities[msg.sender].push(van);\n     ownedVanitiesIndex[msg.sender][van] = ownedVanities[msg.sender].length.sub(1);\n     allVanities.push(van);\n     allVanitiesIndex[van] = allVanities.length.sub(1);\n\n     emit VanityPurchased(msg.sender, van);\n     return true;\n   }\n\n   function freezeTransfers(bool _freeze) public onlyOwner {\n     completeFreeze = _freeze;\n   }\n\n   function freezeAccount(address _target, bool _freeze) public onlyOwner {\n     frozenAccounts[_target] = _freeze;\n   }\n\n   //ensure the account is not frozen\n   //ensure their is no complete freeze\n   //ensure the amount being transferred does not dip into EMB owned through leases.\n   function canTransfer(address _account,uint256 _value) internal view returns (bool) {\n      return (!frozenAccounts[_account] && !completeFreeze && (_value.add(LEMB.getAmountForUserMining(_account)) <= balanceOf(_account)));\n   }\n\n   function transfer(address _to, uint256 _value) public override returns (bool){\n      require(canTransfer(msg.sender,_value),'value must be transferrable by transaction initiator');\n      super.transfer(_to,_value);\n      return true;\n   }\n\n   function multiTransfer(bytes27[] calldata _addressesAndAmounts) external returns (address){\n      // emit Test(\"called\");\n      for (uint i = 0; i < _addressesAndAmounts.length; i++) {\n          address to = address(uint216(_addressesAndAmounts[i] >> 56));\n          emit Test(to);\n\n          uint216 amount = uint216(_addressesAndAmounts[i] << 160);\n          // emit Test(to);\n      //\n          transfer(to, amount);\n      }\n      return address(uint216(_addressesAndAmounts[0] >> 56));\n   }\n\n   function isFrozen(address _target) public view returns(bool) {\n     return completeFreeze || frozenAccounts[_target];\n   }\n\n   function releaseEMB(address _from, address _to, uint256 _value) external returns (bool){\n     require(!completeFreeze,'ensure freeze is deactivated');\n     require(msg.sender == leaseExchange, 'only the lease exchange can call this function');\n     super.transferFrom(_from,_to,_value);\n     return true;\n   }\n\n   function transferFrom(address _from, address _to, uint256 _value) public override returns (bool){\n      require(canTransfer(_from,_value),'value must be transfered from address _from');\n      super.transferFrom(_from,_to,_value);\n      return true;\n   }\n\n   function decreaseAllowance(address _spender,uint256 _subtractedValue) public override returns (bool) {\n     if(_spender == leaseExchange) {\n       require(allowance(msg.sender,_spender).sub(_subtractedValue) >= LEMB.getAmountForUserMining(msg.sender),'if spender is the lease exchange, the allowance must be greater than the amount the user is mining with LEMB');\n     }\n     super.decreaseAllowance(_spender,_subtractedValue);\n     return true;\n   }\n\n   function _beforeTokenTransfer(address from, address to, uint256 amount) internal virtual override(ERC20, ERC20Capped) {\n      super._beforeTokenTransfer(from, to, amount);\n\n      if (from == address(0)) { // When minting tokens\n          require(totalSupply().add(amount) <= cap(), \"ERC20Capped: cap exceeded\");\n      }\n    }\n\n   function approve(address _spender, uint256 _value) public override returns (bool) {\n     if(_spender == leaseExchange){\n       require(_value >= LEMB.getAmountForUserMining(msg.sender));\n     }\n     _approve(msg.sender, _spender, _value);\n     return true;\n   }\n\n}\n",
  "sourcePath": "/Users/arjunjain/Emblem_Ethereum_Anchor/contracts/Emblem.sol",
  "compiler": {
    "name": "solc",
    "version": "0.7.6+commit.7338295f.Emscripten.clang"
  },
  "schemaVersion": "3.3.3",
  "updatedAt": "2021-02-08T23:11:23.238Z",
  "devdoc": {
    "kind": "dev",
    "methods": {
      "allowance(address,address)": {
        "details": "See {IERC20-allowance}."
      },
      "balanceOf(address)": {
        "details": "See {IERC20-balanceOf}."
      },
      "cap()": {
        "details": "Returns the cap on the token's total supply."
      },
      "decimals()": {
        "details": "Returns the number of decimals used to get its user representation. For example, if `decimals` equals `2`, a balance of `505` tokens should be displayed to a user as `5,05` (`505 / 10 ** 2`). Tokens usually opt for a value of 18, imitating the relationship between Ether and Wei. This is the value {ERC20} uses, unless {_setupDecimals} is called. NOTE: This information is only used for _display_ purposes: it in no way affects any of the arithmetic of the contract, including {IERC20-balanceOf} and {IERC20-transfer}."
      },
      "increaseAllowance(address,uint256)": {
        "details": "Atomically increases the allowance granted to `spender` by the caller. This is an alternative to {approve} that can be used as a mitigation for problems described in {IERC20-approve}. Emits an {Approval} event indicating the updated allowance. Requirements: - `spender` cannot be the zero address."
      },
      "name()": {
        "details": "Returns the name of the token."
      },
      "owner()": {
        "details": "Returns the address of the current owner."
      },
      "renounceOwnership()": {
        "details": "Leaves the contract without owner. It will not be possible to call `onlyOwner` functions anymore. Can only be called by the current owner. NOTE: Renouncing ownership will leave the contract without an owner, thereby removing any functionality that is only available to the owner."
      },
      "symbol()": {
        "details": "Returns the symbol of the token, usually a shorter version of the name."
      },
      "totalSupply()": {
        "details": "See {IERC20-totalSupply}."
      },
      "transferOwnership(address)": {
        "details": "Transfers ownership of the contract to a new account (`newOwner`). Can only be called by the current owner."
      }
    },
    "version": 1
  },
  "userdoc": {
    "kind": "user",
    "methods": {},
    "version": 1
  }
}