{
  "contractName": "Emblem",
  "abi": [
    {
      "inputs": [
        {
          "internalType": "string",
          "name": "_name",
          "type": "string"
        },
        {
          "internalType": "string",
          "name": "_ticker",
          "type": "string"
        },
        {
          "internalType": "uint8",
          "name": "_decimal",
          "type": "uint8"
        },
        {
          "internalType": "uint256",
          "name": "_supply",
          "type": "uint256"
        },
        {
          "internalType": "address",
          "name": "_wallet",
          "type": "address"
        },
        {
          "internalType": "address",
          "name": "_lemb",
          "type": "address"
        }
      ],
      "stateMutability": "nonpayable",
      "type": "constructor"
    },
    {
      "anonymous": false,
      "inputs": [
        {
          "indexed": true,
          "internalType": "address",
          "name": "owner",
          "type": "address"
        },
        {
          "indexed": true,
          "internalType": "address",
          "name": "spender",
          "type": "address"
        },
        {
          "indexed": false,
          "internalType": "uint256",
          "name": "value",
          "type": "uint256"
        }
      ],
      "name": "Approval",
      "type": "event"
    },
    {
      "anonymous": false,
      "inputs": [
        {
          "indexed": false,
          "internalType": "address",
          "name": "from",
          "type": "address"
        },
        {
          "indexed": false,
          "internalType": "address",
          "name": "to",
          "type": "address"
        },
        {
          "indexed": false,
          "internalType": "bytes12",
          "name": "vanity",
          "type": "bytes12"
        }
      ],
      "name": "ApprovedVanity",
      "type": "event"
    },
    {
      "anonymous": false,
      "inputs": [
        {
          "indexed": true,
          "internalType": "address",
          "name": "previousOwner",
          "type": "address"
        },
        {
          "indexed": true,
          "internalType": "address",
          "name": "newOwner",
          "type": "address"
        }
      ],
      "name": "OwnershipTransferred",
      "type": "event"
    },
    {
      "anonymous": false,
      "inputs": [
        {
          "indexed": true,
          "internalType": "address",
          "name": "from",
          "type": "address"
        },
        {
          "indexed": true,
          "internalType": "address",
          "name": "to",
          "type": "address"
        },
        {
          "indexed": false,
          "internalType": "uint256",
          "name": "value",
          "type": "uint256"
        }
      ],
      "name": "Transfer",
      "type": "event"
    },
    {
      "anonymous": false,
      "inputs": [
        {
          "indexed": false,
          "internalType": "address",
          "name": "from",
          "type": "address"
        },
        {
          "indexed": false,
          "internalType": "address",
          "name": "to",
          "type": "address"
        },
        {
          "indexed": false,
          "internalType": "bytes12",
          "name": "vanity",
          "type": "bytes12"
        }
      ],
      "name": "TransferVanity",
      "type": "event"
    },
    {
      "anonymous": false,
      "inputs": [
        {
          "indexed": false,
          "internalType": "address",
          "name": "from",
          "type": "address"
        },
        {
          "indexed": false,
          "internalType": "bytes12",
          "name": "vanity",
          "type": "bytes12"
        }
      ],
      "name": "VanityPurchased",
      "type": "event"
    },
    {
      "inputs": [
        {
          "internalType": "uint256",
          "name": "",
          "type": "uint256"
        }
      ],
      "name": "allVanities",
      "outputs": [
        {
          "internalType": "bytes12",
          "name": "",
          "type": "bytes12"
        }
      ],
      "stateMutability": "view",
      "type": "function"
    },
    {
      "inputs": [
        {
          "internalType": "address",
          "name": "owner",
          "type": "address"
        },
        {
          "internalType": "address",
          "name": "spender",
          "type": "address"
        }
      ],
      "name": "allowance",
      "outputs": [
        {
          "internalType": "uint256",
          "name": "",
          "type": "uint256"
        }
      ],
      "stateMutability": "view",
      "type": "function"
    },
    {
      "inputs": [
        {
          "internalType": "address",
          "name": "account",
          "type": "address"
        }
      ],
      "name": "balanceOf",
      "outputs": [
        {
          "internalType": "uint256",
          "name": "",
          "type": "uint256"
        }
      ],
      "stateMutability": "view",
      "type": "function"
    },
    {
      "inputs": [],
      "name": "cap",
      "outputs": [
        {
          "internalType": "uint256",
          "name": "",
          "type": "uint256"
        }
      ],
      "stateMutability": "view",
      "type": "function"
    },
    {
      "inputs": [],
      "name": "completeFreeze",
      "outputs": [
        {
          "internalType": "bool",
          "name": "",
          "type": "bool"
        }
      ],
      "stateMutability": "view",
      "type": "function"
    },
    {
      "inputs": [],
      "name": "decimals",
      "outputs": [
        {
          "internalType": "uint8",
          "name": "",
          "type": "uint8"
        }
      ],
      "stateMutability": "view",
      "type": "function"
    },
    {
      "inputs": [
        {
          "internalType": "address",
          "name": "",
          "type": "address"
        }
      ],
      "name": "frozenAccounts",
      "outputs": [
        {
          "internalType": "bool",
          "name": "",
          "type": "bool"
        }
      ],
      "stateMutability": "view",
      "type": "function"
    },
    {
      "inputs": [
        {
          "internalType": "address",
          "name": "spender",
          "type": "address"
        },
        {
          "internalType": "uint256",
          "name": "addedValue",
          "type": "uint256"
        }
      ],
      "name": "increaseAllowance",
      "outputs": [
        {
          "internalType": "bool",
          "name": "",
          "type": "bool"
        }
      ],
      "stateMutability": "nonpayable",
      "type": "function"
    },
    {
      "inputs": [],
      "name": "name",
      "outputs": [
        {
          "internalType": "string",
          "name": "",
          "type": "string"
        }
      ],
      "stateMutability": "view",
      "type": "function"
    },
    {
      "inputs": [
        {
          "internalType": "address",
          "name": "",
          "type": "address"
        },
        {
          "internalType": "uint256",
          "name": "",
          "type": "uint256"
        }
      ],
      "name": "ownedVanities",
      "outputs": [
        {
          "internalType": "bytes12",
          "name": "",
          "type": "bytes12"
        }
      ],
      "stateMutability": "view",
      "type": "function"
    },
    {
      "inputs": [
        {
          "internalType": "address",
          "name": "",
          "type": "address"
        },
        {
          "internalType": "bytes12",
          "name": "",
          "type": "bytes12"
        }
      ],
      "name": "ownedVanitiesIndex",
      "outputs": [
        {
          "internalType": "uint256",
          "name": "",
          "type": "uint256"
        }
      ],
      "stateMutability": "view",
      "type": "function"
    },
    {
      "inputs": [],
      "name": "owner",
      "outputs": [
        {
          "internalType": "address",
          "name": "",
          "type": "address"
        }
      ],
      "stateMutability": "view",
      "type": "function"
    },
    {
      "inputs": [],
      "name": "renounceOwnership",
      "outputs": [],
      "stateMutability": "nonpayable",
      "type": "function"
    },
    {
      "inputs": [],
      "name": "symbol",
      "outputs": [
        {
          "internalType": "string",
          "name": "",
          "type": "string"
        }
      ],
      "stateMutability": "view",
      "type": "function"
    },
    {
      "inputs": [],
      "name": "totalSupply",
      "outputs": [
        {
          "internalType": "uint256",
          "name": "",
          "type": "uint256"
        }
      ],
      "stateMutability": "view",
      "type": "function"
    },
    {
      "inputs": [
        {
          "internalType": "address",
          "name": "newOwner",
          "type": "address"
        }
      ],
      "name": "transferOwnership",
      "outputs": [],
      "stateMutability": "nonpayable",
      "type": "function"
    },
    {
      "inputs": [
        {
          "internalType": "bytes12",
          "name": "",
          "type": "bytes12"
        }
      ],
      "name": "vanityAddresses",
      "outputs": [
        {
          "internalType": "address",
          "name": "",
          "type": "address"
        }
      ],
      "stateMutability": "view",
      "type": "function"
    },
    {
      "inputs": [
        {
          "internalType": "address",
          "name": "_leaseExchange",
          "type": "address"
        }
      ],
      "name": "setLeaseExchange",
      "outputs": [],
      "stateMutability": "nonpayable",
      "type": "function"
    },
    {
      "inputs": [
        {
          "internalType": "uint256",
          "name": "cost",
          "type": "uint256"
        }
      ],
      "name": "setVanityPurchaseCost",
      "outputs": [],
      "stateMutability": "nonpayable",
      "type": "function"
    },
    {
      "inputs": [
        {
          "internalType": "bool",
          "name": "enabled",
          "type": "bool"
        }
      ],
      "name": "enableFees",
      "outputs": [],
      "stateMutability": "nonpayable",
      "type": "function"
    },
    {
      "inputs": [
        {
          "internalType": "address",
          "name": "_lemb",
          "type": "address"
        }
      ],
      "name": "setLEMB",
      "outputs": [],
      "stateMutability": "nonpayable",
      "type": "function"
    },
    {
      "inputs": [
        {
          "internalType": "bytes12",
          "name": "vanity",
          "type": "bytes12"
        },
        {
          "internalType": "uint256",
          "name": "fee",
          "type": "uint256"
        }
      ],
      "name": "setVanityFee",
      "outputs": [],
      "stateMutability": "nonpayable",
      "type": "function"
    },
    {
      "inputs": [
        {
          "internalType": "bytes12",
          "name": "vanity",
          "type": "bytes12"
        }
      ],
      "name": "getFee",
      "outputs": [
        {
          "internalType": "uint256",
          "name": "",
          "type": "uint256"
        }
      ],
      "stateMutability": "view",
      "type": "function"
    },
    {
      "inputs": [
        {
          "internalType": "bytes12",
          "name": "vanity",
          "type": "bytes12"
        }
      ],
      "name": "enabledVanityFee",
      "outputs": [
        {
          "internalType": "bool",
          "name": "",
          "type": "bool"
        }
      ],
      "stateMutability": "view",
      "type": "function"
    },
    {
      "inputs": [
        {
          "internalType": "address",
          "name": "_owner",
          "type": "address"
        },
        {
          "internalType": "bytes12",
          "name": "_vanity",
          "type": "bytes12"
        },
        {
          "internalType": "address",
          "name": "_spender",
          "type": "address"
        }
      ],
      "name": "vanityAllowance",
      "outputs": [
        {
          "internalType": "bool",
          "name": "",
          "type": "bool"
        }
      ],
      "stateMutability": "view",
      "type": "function"
    },
    {
      "inputs": [
        {
          "internalType": "bytes12",
          "name": "_vanity",
          "type": "bytes12"
        }
      ],
      "name": "getVanityOwner",
      "outputs": [
        {
          "internalType": "address",
          "name": "",
          "type": "address"
        }
      ],
      "stateMutability": "view",
      "type": "function"
    },
    {
      "inputs": [],
      "name": "getAllVanities",
      "outputs": [
        {
          "internalType": "bytes12[]",
          "name": "",
          "type": "bytes12[]"
        }
      ],
      "stateMutability": "view",
      "type": "function"
    },
    {
      "inputs": [],
      "name": "getMyVanities",
      "outputs": [
        {
          "internalType": "bytes12[]",
          "name": "",
          "type": "bytes12[]"
        }
      ],
      "stateMutability": "view",
      "type": "function"
    },
    {
      "inputs": [
        {
          "internalType": "address",
          "name": "_spender",
          "type": "address"
        },
        {
          "internalType": "bytes12",
          "name": "_vanity",
          "type": "bytes12"
        }
      ],
      "name": "approveVanity",
      "outputs": [
        {
          "internalType": "bool",
          "name": "",
          "type": "bool"
        }
      ],
      "stateMutability": "nonpayable",
      "type": "function"
    },
    {
      "inputs": [
        {
          "internalType": "bytes12",
          "name": "_vanity",
          "type": "bytes12"
        }
      ],
      "name": "clearVanityApproval",
      "outputs": [
        {
          "internalType": "bool",
          "name": "",
          "type": "bool"
        }
      ],
      "stateMutability": "nonpayable",
      "type": "function"
    },
    {
      "inputs": [
        {
          "internalType": "bytes12",
          "name": "van",
          "type": "bytes12"
        },
        {
          "internalType": "address",
          "name": "newOwner",
          "type": "address"
        }
      ],
      "name": "transferVanity",
      "outputs": [
        {
          "internalType": "bool",
          "name": "",
          "type": "bool"
        }
      ],
      "stateMutability": "nonpayable",
      "type": "function"
    },
    {
      "inputs": [
        {
          "internalType": "address",
          "name": "_from",
          "type": "address"
        },
        {
          "internalType": "address",
          "name": "_to",
          "type": "address"
        },
        {
          "internalType": "bytes12",
          "name": "_vanity",
          "type": "bytes12"
        }
      ],
      "name": "transferVanityFrom",
      "outputs": [
        {
          "internalType": "bool",
          "name": "",
          "type": "bool"
        }
      ],
      "stateMutability": "nonpayable",
      "type": "function"
    },
    {
      "inputs": [
        {
          "internalType": "bytes12",
          "name": "van",
          "type": "bytes12"
        }
      ],
      "name": "purchaseVanity",
      "outputs": [
        {
          "internalType": "bool",
          "name": "",
          "type": "bool"
        }
      ],
      "stateMutability": "nonpayable",
      "type": "function"
    },
    {
      "inputs": [
        {
          "internalType": "bool",
          "name": "_freeze",
          "type": "bool"
        }
      ],
      "name": "freezeTransfers",
      "outputs": [],
      "stateMutability": "nonpayable",
      "type": "function"
    },
    {
      "inputs": [
        {
          "internalType": "address",
          "name": "_target",
          "type": "address"
        },
        {
          "internalType": "bool",
          "name": "_freeze",
          "type": "bool"
        }
      ],
      "name": "freezeAccount",
      "outputs": [],
      "stateMutability": "nonpayable",
      "type": "function"
    },
    {
      "inputs": [
        {
          "internalType": "address",
          "name": "_to",
          "type": "address"
        },
        {
          "internalType": "uint256",
          "name": "_value",
          "type": "uint256"
        }
      ],
      "name": "transfer",
      "outputs": [
        {
          "internalType": "bool",
          "name": "",
          "type": "bool"
        }
      ],
      "stateMutability": "nonpayable",
      "type": "function"
    },
    {
      "inputs": [
        {
          "internalType": "bytes32[]",
          "name": "_addressesAndAmounts",
          "type": "bytes32[]"
        }
      ],
      "name": "multiTransfer",
      "outputs": [],
      "stateMutability": "nonpayable",
      "type": "function"
    },
    {
      "inputs": [
        {
          "internalType": "bool",
          "name": "freeze",
          "type": "bool"
        }
      ],
      "name": "freezeMe",
      "outputs": [],
      "stateMutability": "nonpayable",
      "type": "function"
    },
    {
      "inputs": [
        {
          "internalType": "address",
          "name": "_target",
          "type": "address"
        }
      ],
      "name": "canFreeze",
      "outputs": [
        {
          "internalType": "bool",
          "name": "",
          "type": "bool"
        }
      ],
      "stateMutability": "view",
      "type": "function"
    },
    {
      "inputs": [
        {
          "internalType": "address",
          "name": "_target",
          "type": "address"
        }
      ],
      "name": "isFrozen",
      "outputs": [
        {
          "internalType": "bool",
          "name": "",
          "type": "bool"
        }
      ],
      "stateMutability": "view",
      "type": "function"
    },
    {
      "inputs": [
        {
          "internalType": "address",
          "name": "_target",
          "type": "address"
        },
        {
          "internalType": "bool",
          "name": "_freeze",
          "type": "bool"
        }
      ],
      "name": "externalFreezeAccount",
      "outputs": [],
      "stateMutability": "nonpayable",
      "type": "function"
    },
    {
      "inputs": [
        {
          "internalType": "address",
          "name": "_target",
          "type": "address"
        },
        {
          "internalType": "bool",
          "name": "_canFreeze",
          "type": "bool"
        }
      ],
      "name": "setExternalFreezer",
      "outputs": [],
      "stateMutability": "nonpayable",
      "type": "function"
    },
    {
      "inputs": [
        {
          "internalType": "address",
          "name": "_from",
          "type": "address"
        },
        {
          "internalType": "address",
          "name": "_to",
          "type": "address"
        },
        {
          "internalType": "uint256",
          "name": "_value",
          "type": "uint256"
        }
      ],
      "name": "transferFrom",
      "outputs": [
        {
          "internalType": "bool",
          "name": "",
          "type": "bool"
        }
      ],
      "stateMutability": "nonpayable",
      "type": "function"
    },
    {
      "inputs": [
        {
          "internalType": "address",
          "name": "_spender",
          "type": "address"
        },
        {
          "internalType": "uint256",
          "name": "_subtractedValue",
          "type": "uint256"
        }
      ],
      "name": "decreaseAllowance",
      "outputs": [
        {
          "internalType": "bool",
          "name": "",
          "type": "bool"
        }
      ],
      "stateMutability": "nonpayable",
      "type": "function"
    },
    {
      "inputs": [
        {
          "internalType": "address",
          "name": "_spender",
          "type": "address"
        },
        {
          "internalType": "uint256",
          "name": "_value",
          "type": "uint256"
        }
      ],
      "name": "approve",
      "outputs": [
        {
          "internalType": "bool",
          "name": "",
          "type": "bool"
        }
      ],
      "stateMutability": "nonpayable",
      "type": "function"
    }
  ],
  "bytecode": "0x60806040526001601060006101000a81548160ff0219169083151502179055506402540be4006011556000601360006101000a81548160ff0219169083151502179055503480156200005057600080fd5b506040516200586038038062005860833981810160405260c08110156200007657600080fd5b81019080805160405193929190846401000000008211156200009757600080fd5b83820191506020820185811115620000ae57600080fd5b8251866001820283011164010000000082111715620000cc57600080fd5b8083526020830192505050908051906020019080838360005b8381101562000102578082015181840152602081019050620000e5565b50505050905090810190601f168015620001305780820380516001836020036101000a031916815260200191505b50604052602001805160405193929190846401000000008211156200015457600080fd5b838201915060208201858111156200016b57600080fd5b82518660018202830111640100000000821117156200018957600080fd5b8083526020830192505050908051906020019080838360005b83811015620001bf578082015181840152602081019050620001a2565b50505050905090810190601f168015620001ed5780820380516001836020036101000a031916815260200191505b506040526020018051906020019092919080519060200190929190805190602001909291908051906020019092919050505082868681600390805190602001906200023a929190620008af565b50806004908051906020019062000253929190620008af565b506012600560006101000a81548160ff021916908360ff160217905550505060008111620002e9576040517f08c379a00000000000000000000000000000000000000000000000000000000081526004018080602001828103825260158152602001807f45524332304361707065643a206361702069732030000000000000000000000081525060200191505060405180910390fd5b80600681905550506000620003036200041260201b60201c565b905080600760006101000a81548173ffffffffffffffffffffffffffffffffffffffff021916908373ffffffffffffffffffffffffffffffffffffffff1602179055508073ffffffffffffffffffffffffffffffffffffffff16600073ffffffffffffffffffffffffffffffffffffffff167f8be0079c531659141344cd1fd0a4f28419497f9722a3daafe3b4186f6b6457e060405160405180910390a350620003b482846200041a60201b60201c565b620003c584620005f860201b60201c565b80601760006101000a81548173ffffffffffffffffffffffffffffffffffffffff021916908373ffffffffffffffffffffffffffffffffffffffff16021790555050505050505062000965565b600033905090565b600073ffffffffffffffffffffffffffffffffffffffff168273ffffffffffffffffffffffffffffffffffffffff161415620004be576040517f08c379a000000000000000000000000000000000000000000000000000000000815260040180806020018281038252601f8152602001807f45524332303a206d696e7420746f20746865207a65726f20616464726573730081525060200191505060405180910390fd5b620004d2600083836200061660201b60201c565b620004ee816002546200071860201b620042761790919060201c565b6002819055506200054c816000808573ffffffffffffffffffffffffffffffffffffffff1673ffffffffffffffffffffffffffffffffffffffff168152602001908152602001600020546200071860201b620042761790919060201c565b6000808473ffffffffffffffffffffffffffffffffffffffff1673ffffffffffffffffffffffffffffffffffffffff168152602001908152602001600020819055508173ffffffffffffffffffffffffffffffffffffffff16600073ffffffffffffffffffffffffffffffffffffffff167fddf252ad1be2c89b69c2b068fc378daa952ba7f163c4a11628f55a4df523b3ef836040518082815260200191505060405180910390a35050565b80600560006101000a81548160ff021916908360ff16021790555050565b6200062e838383620007a160201b620042fe1760201c565b600073ffffffffffffffffffffffffffffffffffffffff168373ffffffffffffffffffffffffffffffffffffffff1614156200071357620006746200089660201b60201c565b6200069d8262000689620008a060201b60201c565b6200071860201b620042761790919060201c565b111562000712576040517f08c379a00000000000000000000000000000000000000000000000000000000081526004018080602001828103825260198152602001807f45524332304361707065643a206361702065786365656465640000000000000081525060200191505060405180910390fd5b5b505050565b60008082840190508381101562000797576040517f08c379a000000000000000000000000000000000000000000000000000000000815260040180806020018281038252601b8152602001807f536166654d6174683a206164646974696f6e206f766572666c6f77000000000081525060200191505060405180910390fd5b8091505092915050565b620007b9838383620008aa60201b620043d51760201c565b600073ffffffffffffffffffffffffffffffffffffffff168373ffffffffffffffffffffffffffffffffffffffff16141562000891576006546200081b8262000807620008a060201b60201c565b6200071860201b620042761790919060201c565b111562000890576040517f08c379a00000000000000000000000000000000000000000000000000000000081526004018080602001828103825260198152602001807f45524332304361707065643a206361702065786365656465640000000000000081525060200191505060405180910390fd5b5b505050565b6000600654905090565b6000600254905090565b505050565b828054600181600116156101000203166002900490600052602060002090601f016020900481019282620008e7576000855562000933565b82601f106200090257805160ff191683800117855562000933565b8280016001018555821562000933579182015b828111156200093257825182559160200191906001019062000915565b5b50905062000942919062000946565b5090565b5b808211156200096157600081600090555060010162000947565b5090565b614eeb80620009756000396000f3fe608060405234801561001057600080fd5b506004361061027f5760003560e01c80636bc388b21161015c578063a9059cbb116100ce578063dd62ed3e11610087578063dd62ed3e1461101b578063e2af4cad14611093578063e5014b8c146110ee578063e583983614611147578063e724529c146111a1578063f2fde38b146111f15761027f565b8063a9059cbb14610e16578063b51ec3bb14610e7a578063b7fe896a14610e9a578063ba5011fa14610ef5578063cdc0613c14610f50578063ce086ec114610f805761027f565b8063860838a511610120578063860838a514610b6e5780638da5cb5b14610bc85780638eacf71314610bfc57806395d89b4114610c775780639c10d11514610cfa578063a457c2d714610db25761027f565b80636bc388b2146109da57806370a0823114610a34578063715018a614610a8c5780637beea4bf14610a965780637f6f3d7914610af55761027f565b80632bf5eabb116101f557806339509351116101b957806339509351146107735780633bd86d2d146107d757806350b040851461087257806360f39d18146108a05780636895a5b71461090f5780636a04c3811461095f5761027f565b80632bf5eabb146106615780632c83e86f14610691578063313ce567146106d5578063355274ea146106f65780633618bdab146107145761027f565b806318160ddd1161024757806318160ddd1461048357806323b872dd146104a1578063259e488d14610525578063261ea7a414610569578063269d152f146105b857806329bf81e4146105e85761027f565b806306fdde0314610284578063095ea7b3146103075780630c5cc0a21461036b578063157f49e0146103da57806316166f891461042a575b600080fd5b61028c611235565b6040518080602001828103825283818151815260200191508051906020019080838360005b838110156102cc5780820151818401526020810190506102b1565b50505050905090810190601f1680156102f95780820380516001836020036101000a031916815260200191505b509250505060405180910390f35b6103536004803603604081101561031d57600080fd5b81019080803573ffffffffffffffffffffffffffffffffffffffff169060200190929190803590602001909291905050506112d7565b60405180821515815260200191505060405180910390f35b6103ae6004803603602081101561038157600080fd5b81019080803573ffffffffffffffffffffffffffffffffffffffff19169060200190929190505050611415565b604051808273ffffffffffffffffffffffffffffffffffffffff16815260200191505060405180910390f35b610428600480360360408110156103f057600080fd5b81019080803573ffffffffffffffffffffffffffffffffffffffff169060200190929190803515159060200190929190505050611480565b005b61046d6004803603602081101561044057600080fd5b81019080803573ffffffffffffffffffffffffffffffffffffffff191690602001909291905050506115a5565b6040518082815260200191505060405180910390f35b61048b6115f0565b6040518082815260200191505060405180910390f35b61050d600480360360608110156104b757600080fd5b81019080803573ffffffffffffffffffffffffffffffffffffffff169060200190929190803573ffffffffffffffffffffffffffffffffffffffff169060200190929190803590602001909291905050506115fa565b60405180821515815260200191505060405180910390f35b6105676004803603602081101561053b57600080fd5b81019080803573ffffffffffffffffffffffffffffffffffffffff169060200190929190505050611692565b005b6105b66004803603604081101561057f57600080fd5b81019080803573ffffffffffffffffffffffffffffffffffffffff19169060200190929190803590602001909291905050506117a0565b005b6105e6600480360360208110156105ce57600080fd5b810190808035151590602001909291905050506118c2565b005b610634600480360360408110156105fe57600080fd5b81019080803573ffffffffffffffffffffffffffffffffffffffff16906020019092919080359060200190929190505050611973565b604051808273ffffffffffffffffffffffffffffffffffffffff1916815260200191505060405180910390f35b61068f6004803603602081101561067757600080fd5b810190808035151590602001909291905050506119b9565b005b6106d3600480360360208110156106a757600080fd5b81019080803573ffffffffffffffffffffffffffffffffffffffff169060200190929190505050611aa0565b005b6106dd611bae565b604051808260ff16815260200191505060405180910390f35b6106fe611bc5565b6040518082815260200191505060405180910390f35b61071c611bcf565b6040518080602001828103825283818151815260200191508051906020019060200280838360005b8381101561075f578082015181840152602081019050610744565b505050509050019250505060405180910390f35b6107bf6004803603604081101561078957600080fd5b81019080803573ffffffffffffffffffffffffffffffffffffffff16906020019092919080359060200190929190505050611c61565b60405180821515815260200191505060405180910390f35b61085a600480360360608110156107ed57600080fd5b81019080803573ffffffffffffffffffffffffffffffffffffffff169060200190929190803573ffffffffffffffffffffffffffffffffffffffff19169060200190929190803573ffffffffffffffffffffffffffffffffffffffff169060200190929190505050611d14565b60405180821515815260200191505060405180910390f35b61089e6004803603602081101561088857600080fd5b8101908080359060200190929190505050611dec565b005b6108e3600480360360208110156108b657600080fd5b81019080803573ffffffffffffffffffffffffffffffffffffffff19169060200190929190505050611ec0565b604051808273ffffffffffffffffffffffffffffffffffffffff16815260200191505060405180910390f35b61095d6004803603604081101561092557600080fd5b81019080803573ffffffffffffffffffffffffffffffffffffffff169060200190929190803515159060200190929190505050611ef3565b005b6109c26004803603604081101561097557600080fd5b81019080803573ffffffffffffffffffffffffffffffffffffffff169060200190929190803573ffffffffffffffffffffffffffffffffffffffff19169060200190929190505050611ffa565b60405180821515815260200191505060405180910390f35b610a1c600480360360208110156109f057600080fd5b81019080803573ffffffffffffffffffffffffffffffffffffffff1690602001909291905050506121e6565b60405180821515815260200191505060405180910390f35b610a7660048036036020811015610a4a57600080fd5b81019080803573ffffffffffffffffffffffffffffffffffffffff16906020019092919050505061223c565b6040518082815260200191505060405180910390f35b610a94612284565b005b610a9e61240f565b6040518080602001828103825283818151815260200191508051906020019060200280838360005b83811015610ae1578082015181840152602081019050610ac6565b505050509050019250505060405180910390f35b610b5860048036036040811015610b0b57600080fd5b81019080803573ffffffffffffffffffffffffffffffffffffffff169060200190929190803573ffffffffffffffffffffffffffffffffffffffff191690602001909291905050506124de565b6040518082815260200191505060405180910390f35b610bb060048036036020811015610b8457600080fd5b81019080803573ffffffffffffffffffffffffffffffffffffffff169060200190929190505050612503565b60405180821515815260200191505060405180910390f35b610bd0612523565b604051808273ffffffffffffffffffffffffffffffffffffffff16815260200191505060405180910390f35b610c5f60048036036040811015610c1257600080fd5b81019080803573ffffffffffffffffffffffffffffffffffffffff19169060200190929190803573ffffffffffffffffffffffffffffffffffffffff16906020019092919050505061254d565b60405180821515815260200191505060405180910390f35b610c7f612c7a565b6040518080602001828103825283818151815260200191508051906020019080838360005b83811015610cbf578082015181840152602081019050610ca4565b50505050905090810190601f168015610cec5780820380516001836020036101000a031916815260200191505b509250505060405180910390f35b610db060048036036020811015610d1057600080fd5b8101908080359060200190640100000000811115610d2d57600080fd5b820183602082011115610d3f57600080fd5b80359060200191846020830284011164010000000083111715610d6157600080fd5b919080806020026020016040519081016040528093929190818152602001838360200280828437600081840152601f19601f820116905080830192505050505050509192919290505050612d1c565b005b610dfe60048036036040811015610dc857600080fd5b81019080803573ffffffffffffffffffffffffffffffffffffffff16906020019092919080359060200190929190505050612d84565b60405180821515815260200191505060405180910390f35b610e6260048036036040811015610e2c57600080fd5b81019080803573ffffffffffffffffffffffffffffffffffffffff16906020019092919080359060200190929190505050612ed9565b60405180821515815260200191505060405180910390f35b610e82612eff565b60405180821515815260200191505060405180910390f35b610edd60048036036020811015610eb057600080fd5b81019080803573ffffffffffffffffffffffffffffffffffffffff19169060200190929190505050612f12565b60405180821515815260200191505060405180910390f35b610f3860048036036020811015610f0b57600080fd5b81019080803573ffffffffffffffffffffffffffffffffffffffff19169060200190929190505050612f82565b60405180821515815260200191505060405180910390f35b610f7e60048036036020811015610f6657600080fd5b810190808035151590602001909291905050506133e6565b005b61100360048036036060811015610f9657600080fd5b81019080803573ffffffffffffffffffffffffffffffffffffffff169060200190929190803573ffffffffffffffffffffffffffffffffffffffff169060200190929190803573ffffffffffffffffffffffffffffffffffffffff191690602001909291905050506134cd565b60405180821515815260200191505060405180910390f35b61107d6004803603604081101561103157600080fd5b81019080803573ffffffffffffffffffffffffffffffffffffffff169060200190929190803573ffffffffffffffffffffffffffffffffffffffff169060200190929190505050613cd1565b6040518082815260200191505060405180910390f35b6110d6600480360360208110156110a957600080fd5b81019080803573ffffffffffffffffffffffffffffffffffffffff19169060200190929190505050613d58565b60405180821515815260200191505060405180910390f35b61111a6004803603602081101561110457600080fd5b8101908080359060200190929190505050613e9d565b604051808273ffffffffffffffffffffffffffffffffffffffff1916815260200191505060405180910390f35b6111896004803603602081101561115d57600080fd5b81019080803573ffffffffffffffffffffffffffffffffffffffff169060200190929190505050613ed4565b60405180821515815260200191505060405180910390f35b6111ef600480360360408110156111b757600080fd5b81019080803573ffffffffffffffffffffffffffffffffffffffff169060200190929190803515159060200190929190505050613f41565b005b6112336004803603602081101561120757600080fd5b81019080803573ffffffffffffffffffffffffffffffffffffffff169060200190929190505050614066565b005b606060038054600181600116156101000203166002900480601f0160208091040260200160405190810160405280929190818152602001828054600181600116156101000203166002900480156112cd5780601f106112a2576101008083540402835291602001916112cd565b820191906000526020600020905b8154815290600101906020018083116112b057829003601f168201915b5050505050905090565b6000601660009054906101000a900473ffffffffffffffffffffffffffffffffffffffff1673ffffffffffffffffffffffffffffffffffffffff168373ffffffffffffffffffffffffffffffffffffffff16141561140057601760009054906101000a900473ffffffffffffffffffffffffffffffffffffffff1673ffffffffffffffffffffffffffffffffffffffff166304426db4336040518263ffffffff1660e01b8152600401808273ffffffffffffffffffffffffffffffffffffffff16815260200191505060206040518083038186803b1580156113b857600080fd5b505afa1580156113cc573d6000803e3d6000fd5b505050506040513d60208110156113e257600080fd5b81019080805190602001909291905050508210156113ff57600080fd5b5b61140b3384846143da565b6001905092915050565b6000600860008373ffffffffffffffffffffffffffffffffffffffff191673ffffffffffffffffffffffffffffffffffffffff1916815260200190815260200160002060009054906101000a900473ffffffffffffffffffffffffffffffffffffffff169050919050565b6114886145d1565b73ffffffffffffffffffffffffffffffffffffffff16600760009054906101000a900473ffffffffffffffffffffffffffffffffffffffff1673ffffffffffffffffffffffffffffffffffffffff161461154a576040517f08c379a00000000000000000000000000000000000000000000000000000000081526004018080602001828103825260208152602001807f4f776e61626c653a2063616c6c6572206973206e6f7420746865206f776e657281525060200191505060405180910390fd5b80601560008473ffffffffffffffffffffffffffffffffffffffff1673ffffffffffffffffffffffffffffffffffffffff16815260200190815260200160002060006101000a81548160ff0219169083151502179055505050565b6000600e60008373ffffffffffffffffffffffffffffffffffffffff191673ffffffffffffffffffffffffffffffffffffffff19168152602001908152602001600020549050919050565b6000600254905090565b6000601360009054906101000a900460ff161561161657600080fd5b601660009054906101000a900473ffffffffffffffffffffffffffffffffffffffff1673ffffffffffffffffffffffffffffffffffffffff163373ffffffffffffffffffffffffffffffffffffffff161461167f5761167584836145d9565b61167e57600080fd5b5b61168a848484614723565b509392505050565b61169a6145d1565b73ffffffffffffffffffffffffffffffffffffffff16600760009054906101000a900473ffffffffffffffffffffffffffffffffffffffff1673ffffffffffffffffffffffffffffffffffffffff161461175c576040517f08c379a00000000000000000000000000000000000000000000000000000000081526004018080602001828103825260208152602001807f4f776e61626c653a2063616c6c6572206973206e6f7420746865206f776e657281525060200191505060405180910390fd5b80601760006101000a81548173ffffffffffffffffffffffffffffffffffffffff021916908373ffffffffffffffffffffffffffffffffffffffff16021790555050565b6117a86145d1565b73ffffffffffffffffffffffffffffffffffffffff16600760009054906101000a900473ffffffffffffffffffffffffffffffffffffffff1673ffffffffffffffffffffffffffffffffffffffff161461186a576040517f08c379a00000000000000000000000000000000000000000000000000000000081526004018080602001828103825260208152602001807f4f776e61626c653a2063616c6c6572206973206e6f7420746865206f776e657281525060200191505060405180910390fd5b600081101561187857600080fd5b80600e60008473ffffffffffffffffffffffffffffffffffffffff191673ffffffffffffffffffffffffffffffffffffffff19168152602001908152602001600020819055505050565b601260003373ffffffffffffffffffffffffffffffffffffffff1673ffffffffffffffffffffffffffffffffffffffff16815260200190815260200160002060009054906101000a900460ff161561191957600080fd5b80601460003373ffffffffffffffffffffffffffffffffffffffff1673ffffffffffffffffffffffffffffffffffffffff16815260200190815260200160002060006101000a81548160ff02191690831515021790555050565b6009602052816000526040600020818154811061198f57600080fd5b9060005260206000209060029182820401919006600c02915091509054906101000a900460a01b81565b6119c16145d1565b73ffffffffffffffffffffffffffffffffffffffff16600760009054906101000a900473ffffffffffffffffffffffffffffffffffffffff1673ffffffffffffffffffffffffffffffffffffffff1614611a83576040517f08c379a00000000000000000000000000000000000000000000000000000000081526004018080602001828103825260208152602001807f4f776e61626c653a2063616c6c6572206973206e6f7420746865206f776e657281525060200191505060405180910390fd5b80601060006101000a81548160ff02191690831515021790555050565b611aa86145d1565b73ffffffffffffffffffffffffffffffffffffffff16600760009054906101000a900473ffffffffffffffffffffffffffffffffffffffff1673ffffffffffffffffffffffffffffffffffffffff1614611b6a576040517f08c379a00000000000000000000000000000000000000000000000000000000081526004018080602001828103825260208152602001807f4f776e61626c653a2063616c6c6572206973206e6f7420746865206f776e657281525060200191505060405180910390fd5b80601660006101000a81548173ffffffffffffffffffffffffffffffffffffffff021916908373ffffffffffffffffffffffffffffffffffffffff16021790555050565b6000600560009054906101000a900460ff16905090565b6000600654905090565b6060600c805480602002602001604051908101604052809291908181526020018280548015611c5757602002820191906000526020600020906000905b82829054906101000a900460a01b73ffffffffffffffffffffffffffffffffffffffff1916815260200190600c0190602082600b01049283019260010382029150808411611c0c5790505b5050505050905090565b6000611d0a611c6e6145d1565b84611d058560016000611c7f6145d1565b73ffffffffffffffffffffffffffffffffffffffff1673ffffffffffffffffffffffffffffffffffffffff16815260200190815260200160002060008973ffffffffffffffffffffffffffffffffffffffff1673ffffffffffffffffffffffffffffffffffffffff1681526020019081526020016000205461427690919063ffffffff16565b6143da565b6001905092915050565b60008173ffffffffffffffffffffffffffffffffffffffff16600d60008673ffffffffffffffffffffffffffffffffffffffff1673ffffffffffffffffffffffffffffffffffffffff16815260200190815260200160002060008573ffffffffffffffffffffffffffffffffffffffff191673ffffffffffffffffffffffffffffffffffffffff1916815260200190815260200160002060009054906101000a900473ffffffffffffffffffffffffffffffffffffffff1673ffffffffffffffffffffffffffffffffffffffff161490509392505050565b611df46145d1565b73ffffffffffffffffffffffffffffffffffffffff16600760009054906101000a900473ffffffffffffffffffffffffffffffffffffffff1673ffffffffffffffffffffffffffffffffffffffff1614611eb6576040517f08c379a00000000000000000000000000000000000000000000000000000000081526004018080602001828103825260208152602001807f4f776e61626c653a2063616c6c6572206973206e6f7420746865206f776e657281525060200191505060405180910390fd5b8060118190555050565b60086020528060005260406000206000915054906101000a900473ffffffffffffffffffffffffffffffffffffffff1681565b601460008373ffffffffffffffffffffffffffffffffffffffff1673ffffffffffffffffffffffffffffffffffffffff16815260200190815260200160002060009054906101000a900460ff16611f4957600080fd5b601560003373ffffffffffffffffffffffffffffffffffffffff1673ffffffffffffffffffffffffffffffffffffffff16815260200190815260200160002060009054906101000a900460ff16611f9f57600080fd5b80601260008473ffffffffffffffffffffffffffffffffffffffff1673ffffffffffffffffffffffffffffffffffffffff16815260200190815260200160002060006101000a81548160ff0219169083151502179055505050565b60003373ffffffffffffffffffffffffffffffffffffffff16600860008473ffffffffffffffffffffffffffffffffffffffff191673ffffffffffffffffffffffffffffffffffffffff1916815260200190815260200160002060009054906101000a900473ffffffffffffffffffffffffffffffffffffffff1673ffffffffffffffffffffffffffffffffffffffff161461209557600080fd5b82600d60003373ffffffffffffffffffffffffffffffffffffffff1673ffffffffffffffffffffffffffffffffffffffff16815260200190815260200160002060008473ffffffffffffffffffffffffffffffffffffffff191673ffffffffffffffffffffffffffffffffffffffff1916815260200190815260200160002060006101000a81548173ffffffffffffffffffffffffffffffffffffffff021916908373ffffffffffffffffffffffffffffffffffffffff1602179055507f9882ce26ee4b9d7f9cc08c2c2101323228f2412036c7a3a050c200eede86276c338484604051808473ffffffffffffffffffffffffffffffffffffffff1681526020018373ffffffffffffffffffffffffffffffffffffffff1681526020018273ffffffffffffffffffffffffffffffffffffffff19168152602001935050505060405180910390a16001905092915050565b6000601460008373ffffffffffffffffffffffffffffffffffffffff1673ffffffffffffffffffffffffffffffffffffffff16815260200190815260200160002060009054906101000a900460ff169050919050565b60008060008373ffffffffffffffffffffffffffffffffffffffff1673ffffffffffffffffffffffffffffffffffffffff168152602001908152602001600020549050919050565b61228c6145d1565b73ffffffffffffffffffffffffffffffffffffffff16600760009054906101000a900473ffffffffffffffffffffffffffffffffffffffff1673ffffffffffffffffffffffffffffffffffffffff161461234e576040517f08c379a00000000000000000000000000000000000000000000000000000000081526004018080602001828103825260208152602001807f4f776e61626c653a2063616c6c6572206973206e6f7420746865206f776e657281525060200191505060405180910390fd5b600073ffffffffffffffffffffffffffffffffffffffff16600760009054906101000a900473ffffffffffffffffffffffffffffffffffffffff1673ffffffffffffffffffffffffffffffffffffffff167f8be0079c531659141344cd1fd0a4f28419497f9722a3daafe3b4186f6b6457e060405160405180910390a36000600760006101000a81548173ffffffffffffffffffffffffffffffffffffffff021916908373ffffffffffffffffffffffffffffffffffffffff160217905550565b6060600960003373ffffffffffffffffffffffffffffffffffffffff1673ffffffffffffffffffffffffffffffffffffffff1681526020019081526020016000208054806020026020016040519081016040528092919081815260200182805480156124d457602002820191906000526020600020906000905b82829054906101000a900460a01b73ffffffffffffffffffffffffffffffffffffffff1916815260200190600c0190602082600b010492830192600103820291508084116124895790505b5050505050905090565b600a602052816000526040600020602052806000526040600020600091509150505481565b60126020528060005260406000206000915054906101000a900460ff1681565b6000600760009054906101000a900473ffffffffffffffffffffffffffffffffffffffff16905090565b60008073ffffffffffffffffffffffffffffffffffffffff168273ffffffffffffffffffffffffffffffffffffffff16141561258857600080fd5b3373ffffffffffffffffffffffffffffffffffffffff16600860008573ffffffffffffffffffffffffffffffffffffffff191673ffffffffffffffffffffffffffffffffffffffff1916815260200190815260200160002060009054906101000a900473ffffffffffffffffffffffffffffffffffffffff1673ffffffffffffffffffffffffffffffffffffffff161461262157600080fd5b81600860008573ffffffffffffffffffffffffffffffffffffffff191673ffffffffffffffffffffffffffffffffffffffff1916815260200190815260200160002060006101000a81548173ffffffffffffffffffffffffffffffffffffffff021916908373ffffffffffffffffffffffffffffffffffffffff160217905550600960008373ffffffffffffffffffffffffffffffffffffffff1673ffffffffffffffffffffffffffffffffffffffff168152602001908152602001600020839080600181540180825580915050600190039060005260206000209060029182820401919006600c029091909190916101000a8154816bffffffffffffffffffffffff021916908360a01c02179055506127876001600960008573ffffffffffffffffffffffffffffffffffffffff1673ffffffffffffffffffffffffffffffffffffffff168152602001908152602001600020805490506147fc90919063ffffffff16565b600a60008473ffffffffffffffffffffffffffffffffffffffff1673ffffffffffffffffffffffffffffffffffffffff16815260200190815260200160002060008573ffffffffffffffffffffffffffffffffffffffff191673ffffffffffffffffffffffffffffffffffffffff19168152602001908152602001600020819055506000600a60003373ffffffffffffffffffffffffffffffffffffffff1673ffffffffffffffffffffffffffffffffffffffff16815260200190815260200160002060008573ffffffffffffffffffffffffffffffffffffffff191673ffffffffffffffffffffffffffffffffffffffff1916815260200190815260200160002054905060006128e46001600960003373ffffffffffffffffffffffffffffffffffffffff1673ffffffffffffffffffffffffffffffffffffffff168152602001908152602001600020805490506147fc90919063ffffffff16565b90506000600960003373ffffffffffffffffffffffffffffffffffffffff1673ffffffffffffffffffffffffffffffffffffffff168152602001908152602001600020828154811061293257fe5b9060005260206000209060029182820401919006600c029054906101000a900460a01b905080600960003373ffffffffffffffffffffffffffffffffffffffff1673ffffffffffffffffffffffffffffffffffffffff16815260200190815260200160002084815481106129a257fe5b9060005260206000209060029182820401919006600c026101000a8154816bffffffffffffffffffffffff021916908360a01c02179055506000600960003373ffffffffffffffffffffffffffffffffffffffff1673ffffffffffffffffffffffffffffffffffffffff1681526020019081526020016000208381548110612a2657fe5b9060005260206000209060029182820401919006600c026101000a8154816bffffffffffffffffffffffff021916908360a01c0217905550600960003373ffffffffffffffffffffffffffffffffffffffff1673ffffffffffffffffffffffffffffffffffffffff168152602001908152602001600020805480612aa657fe5b6001900381819060005260206000209060029182820401919006600c026101000a8154906bffffffffffffffffffffffff02191690559055600a60003373ffffffffffffffffffffffffffffffffffffffff1673ffffffffffffffffffffffffffffffffffffffff16815260200190815260200160002060008773ffffffffffffffffffffffffffffffffffffffff191673ffffffffffffffffffffffffffffffffffffffff191681526020019081526020016000206000905582600a60003373ffffffffffffffffffffffffffffffffffffffff1673ffffffffffffffffffffffffffffffffffffffff16815260200190815260200160002060008373ffffffffffffffffffffffffffffffffffffffff191673ffffffffffffffffffffffffffffffffffffffff19168152602001908152602001600020819055507feaeb5d0421f302fc4986a95aad8ad429bc6fed08dfda4ca1e8ed110fb7f129d8338688604051808473ffffffffffffffffffffffffffffffffffffffff1681526020018373ffffffffffffffffffffffffffffffffffffffff1681526020018273ffffffffffffffffffffffffffffffffffffffff19168152602001935050505060405180910390a16001935050505092915050565b606060048054600181600116156101000203166002900480601f016020809104026020016040519081016040528092919081815260200182805460018160011615610100020316600290048015612d125780601f10612ce757610100808354040283529160200191612d12565b820191906000526020600020905b815481529060010190602001808311612cf557829003601f168201915b5050505050905090565b60005b8151811015612d805760006060838381518110612d3857fe5b6020026020010151901c60001c9050600060a0848481518110612d5757fe5b6020026020010151901b60001c9050612d708282612ed9565b5050508080600101915050612d1f565b5050565b6000601660009054906101000a900473ffffffffffffffffffffffffffffffffffffffff1673ffffffffffffffffffffffffffffffffffffffff168373ffffffffffffffffffffffffffffffffffffffff161415612ec857601760009054906101000a900473ffffffffffffffffffffffffffffffffffffffff1673ffffffffffffffffffffffffffffffffffffffff166304426db4336040518263ffffffff1660e01b8152600401808273ffffffffffffffffffffffffffffffffffffffff16815260200191505060206040518083038186803b158015612e6557600080fd5b505afa158015612e79573d6000803e3d6000fd5b505050506040513d6020811015612e8f57600080fd5b8101908080519060200190929190505050612ebc83612eae3387613cd1565b6147fc90919063ffffffff16565b1015612ec757600080fd5b5b612ed28383614846565b5092915050565b6000612ee533836145d9565b612eee57600080fd5b612ef88383614913565b5092915050565b601360009054906101000a900460ff1681565b6000600f60008373ffffffffffffffffffffffffffffffffffffffff191673ffffffffffffffffffffffffffffffffffffffff1916815260200190815260200160002060009054906101000a900460ff168015612f7b5750601060009054906101000a900460ff165b9050919050565b60008073ffffffffffffffffffffffffffffffffffffffff16600860008473ffffffffffffffffffffffffffffffffffffffff191673ffffffffffffffffffffffffffffffffffffffff1916815260200190815260200160002060009054906101000a900473ffffffffffffffffffffffffffffffffffffffff1673ffffffffffffffffffffffffffffffffffffffff161461301d57600080fd5b60005b600c8160ff1610156130cd576030838260ff16600c811061303d57fe5b1a60f81b60f81c60ff161015801561306e57506039838260ff16600c811061306157fe5b1a60f81b60f81c60ff1611155b806130b757506041838260ff16600c811061308557fe5b1a60f81b60f81c60ff16101580156130b65750605a838260ff16600c81106130a957fe5b1a60f81b60f81c60ff1611155b5b6130c057600080fd5b8080600101915050613020565b506130db33306011546115fa565b5033600860008473ffffffffffffffffffffffffffffffffffffffff191673ffffffffffffffffffffffffffffffffffffffff1916815260200190815260200160002060006101000a81548173ffffffffffffffffffffffffffffffffffffffff021916908373ffffffffffffffffffffffffffffffffffffffff160217905550600960003373ffffffffffffffffffffffffffffffffffffffff1673ffffffffffffffffffffffffffffffffffffffff168152602001908152602001600020829080600181540180825580915050600190039060005260206000209060029182820401919006600c029091909190916101000a8154816bffffffffffffffffffffffff021916908360a01c02179055506132426001600960003373ffffffffffffffffffffffffffffffffffffffff1673ffffffffffffffffffffffffffffffffffffffff168152602001908152602001600020805490506147fc90919063ffffffff16565b600a60003373ffffffffffffffffffffffffffffffffffffffff1673ffffffffffffffffffffffffffffffffffffffff16815260200190815260200160002060008473ffffffffffffffffffffffffffffffffffffffff191673ffffffffffffffffffffffffffffffffffffffff1916815260200190815260200160002081905550600c829080600181540180825580915050600190039060005260206000209060029182820401919006600c029091909190916101000a8154816bffffffffffffffffffffffff021916908360a01c02179055506133306001600c805490506147fc90919063ffffffff16565b600b60008473ffffffffffffffffffffffffffffffffffffffff191673ffffffffffffffffffffffffffffffffffffffff19168152602001908152602001600020819055507f6828c0068cad8973e4a3a23e513d4f8842302b74ed927230e9523febaf4a22bc3383604051808373ffffffffffffffffffffffffffffffffffffffff1681526020018273ffffffffffffffffffffffffffffffffffffffff191681526020019250505060405180910390a1919050565b6133ee6145d1565b73ffffffffffffffffffffffffffffffffffffffff16600760009054906101000a900473ffffffffffffffffffffffffffffffffffffffff1673ffffffffffffffffffffffffffffffffffffffff16146134b0576040517f08c379a00000000000000000000000000000000000000000000000000000000081526004018080602001828103825260208152602001807f4f776e61626c653a2063616c6c6572206973206e6f7420746865206f776e657281525060200191505060405180910390fd5b80601360006101000a81548160ff02191690831515021790555050565b60008073ffffffffffffffffffffffffffffffffffffffff168373ffffffffffffffffffffffffffffffffffffffff16141561350857600080fd5b600860008373ffffffffffffffffffffffffffffffffffffffff191673ffffffffffffffffffffffffffffffffffffffff1916815260200190815260200160002060009054906101000a900473ffffffffffffffffffffffffffffffffffffffff1673ffffffffffffffffffffffffffffffffffffffff168473ffffffffffffffffffffffffffffffffffffffff16146135a157600080fd5b600d60008573ffffffffffffffffffffffffffffffffffffffff1673ffffffffffffffffffffffffffffffffffffffff16815260200190815260200160002060008373ffffffffffffffffffffffffffffffffffffffff191673ffffffffffffffffffffffffffffffffffffffff1916815260200190815260200160002060009054906101000a900473ffffffffffffffffffffffffffffffffffffffff1673ffffffffffffffffffffffffffffffffffffffff163373ffffffffffffffffffffffffffffffffffffffff161461367757600080fd5b82600860008473ffffffffffffffffffffffffffffffffffffffff191673ffffffffffffffffffffffffffffffffffffffff1916815260200190815260200160002060006101000a81548173ffffffffffffffffffffffffffffffffffffffff021916908373ffffffffffffffffffffffffffffffffffffffff160217905550600960008473ffffffffffffffffffffffffffffffffffffffff1673ffffffffffffffffffffffffffffffffffffffff168152602001908152602001600020829080600181540180825580915050600190039060005260206000209060029182820401919006600c029091909190916101000a8154816bffffffffffffffffffffffff021916908360a01c02179055506137dd6001600960008673ffffffffffffffffffffffffffffffffffffffff1673ffffffffffffffffffffffffffffffffffffffff168152602001908152602001600020805490506147fc90919063ffffffff16565b600a60008573ffffffffffffffffffffffffffffffffffffffff1673ffffffffffffffffffffffffffffffffffffffff16815260200190815260200160002060008473ffffffffffffffffffffffffffffffffffffffff191673ffffffffffffffffffffffffffffffffffffffff19168152602001908152602001600020819055506000600a60008673ffffffffffffffffffffffffffffffffffffffff1673ffffffffffffffffffffffffffffffffffffffff16815260200190815260200160002060008473ffffffffffffffffffffffffffffffffffffffff191673ffffffffffffffffffffffffffffffffffffffff19168152602001908152602001600020549050600061393a6001600960008973ffffffffffffffffffffffffffffffffffffffff1673ffffffffffffffffffffffffffffffffffffffff168152602001908152602001600020805490506147fc90919063ffffffff16565b90506000600960008873ffffffffffffffffffffffffffffffffffffffff1673ffffffffffffffffffffffffffffffffffffffff168152602001908152602001600020828154811061398857fe5b9060005260206000209060029182820401919006600c029054906101000a900460a01b905080600960008973ffffffffffffffffffffffffffffffffffffffff1673ffffffffffffffffffffffffffffffffffffffff16815260200190815260200160002084815481106139f857fe5b9060005260206000209060029182820401919006600c026101000a8154816bffffffffffffffffffffffff021916908360a01c02179055506000600960008973ffffffffffffffffffffffffffffffffffffffff1673ffffffffffffffffffffffffffffffffffffffff1681526020019081526020016000208381548110613a7c57fe5b9060005260206000209060029182820401919006600c026101000a8154816bffffffffffffffffffffffff021916908360a01c0217905550600960008873ffffffffffffffffffffffffffffffffffffffff1673ffffffffffffffffffffffffffffffffffffffff168152602001908152602001600020805480613afc57fe5b6001900381819060005260206000209060029182820401919006600c026101000a8154906bffffffffffffffffffffffff02191690559055600a60008873ffffffffffffffffffffffffffffffffffffffff1673ffffffffffffffffffffffffffffffffffffffff16815260200190815260200160002060008673ffffffffffffffffffffffffffffffffffffffff191673ffffffffffffffffffffffffffffffffffffffff191681526020019081526020016000206000905582600a60008973ffffffffffffffffffffffffffffffffffffffff1673ffffffffffffffffffffffffffffffffffffffff16815260200190815260200160002060008373ffffffffffffffffffffffffffffffffffffffff191673ffffffffffffffffffffffffffffffffffffffff19168152602001908152602001600020819055507feaeb5d0421f302fc4986a95aad8ad429bc6fed08dfda4ca1e8ed110fb7f129d8338787604051808473ffffffffffffffffffffffffffffffffffffffff1681526020018373ffffffffffffffffffffffffffffffffffffffff1681526020018273ffffffffffffffffffffffffffffffffffffffff19168152602001935050505060405180910390a1600193505050509392505050565b6000600160008473ffffffffffffffffffffffffffffffffffffffff1673ffffffffffffffffffffffffffffffffffffffff16815260200190815260200160002060008373ffffffffffffffffffffffffffffffffffffffff1673ffffffffffffffffffffffffffffffffffffffff16815260200190815260200160002054905092915050565b60003373ffffffffffffffffffffffffffffffffffffffff16600860008473ffffffffffffffffffffffffffffffffffffffff191673ffffffffffffffffffffffffffffffffffffffff1916815260200190815260200160002060009054906101000a900473ffffffffffffffffffffffffffffffffffffffff1673ffffffffffffffffffffffffffffffffffffffff1614613df357600080fd5b600d60003373ffffffffffffffffffffffffffffffffffffffff1673ffffffffffffffffffffffffffffffffffffffff16815260200190815260200160002060008373ffffffffffffffffffffffffffffffffffffffff191673ffffffffffffffffffffffffffffffffffffffff1916815260200190815260200160002060006101000a81549073ffffffffffffffffffffffffffffffffffffffff021916905560019050919050565b600c8181548110613ead57600080fd5b9060005260206000209060029182820401919006600c02915054906101000a900460a01b81565b6000601360009054906101000a900460ff1680613f3a5750601260008373ffffffffffffffffffffffffffffffffffffffff1673ffffffffffffffffffffffffffffffffffffffff16815260200190815260200160002060009054906101000a900460ff165b9050919050565b613f496145d1565b73ffffffffffffffffffffffffffffffffffffffff16600760009054906101000a900473ffffffffffffffffffffffffffffffffffffffff1673ffffffffffffffffffffffffffffffffffffffff161461400b576040517f08c379a00000000000000000000000000000000000000000000000000000000081526004018080602001828103825260208152602001807f4f776e61626c653a2063616c6c6572206973206e6f7420746865206f776e657281525060200191505060405180910390fd5b80601260008473ffffffffffffffffffffffffffffffffffffffff1673ffffffffffffffffffffffffffffffffffffffff16815260200190815260200160002060006101000a81548160ff0219169083151502179055505050565b61406e6145d1565b73ffffffffffffffffffffffffffffffffffffffff16600760009054906101000a900473ffffffffffffffffffffffffffffffffffffffff1673ffffffffffffffffffffffffffffffffffffffff1614614130576040517f08c379a00000000000000000000000000000000000000000000000000000000081526004018080602001828103825260208152602001807f4f776e61626c653a2063616c6c6572206973206e6f7420746865206f776e657281525060200191505060405180910390fd5b600073ffffffffffffffffffffffffffffffffffffffff168173ffffffffffffffffffffffffffffffffffffffff1614156141b6576040517f08c379a0000000000000000000000000000000000000000000000000000000008152600401808060200182810382526026815260200180614db26026913960400191505060405180910390fd5b8073ffffffffffffffffffffffffffffffffffffffff16600760009054906101000a900473ffffffffffffffffffffffffffffffffffffffff1673ffffffffffffffffffffffffffffffffffffffff167f8be0079c531659141344cd1fd0a4f28419497f9722a3daafe3b4186f6b6457e060405160405180910390a380600760006101000a81548173ffffffffffffffffffffffffffffffffffffffff021916908373ffffffffffffffffffffffffffffffffffffffff16021790555050565b6000808284019050838110156142f4576040517f08c379a000000000000000000000000000000000000000000000000000000000815260040180806020018281038252601b8152602001807f536166654d6174683a206164646974696f6e206f766572666c6f77000000000081525060200191505060405180910390fd5b8091505092915050565b6143098383836143d5565b600073ffffffffffffffffffffffffffffffffffffffff168373ffffffffffffffffffffffffffffffffffffffff1614156143d05760065461435b8261434d6115f0565b61427690919063ffffffff16565b11156143cf576040517f08c379a00000000000000000000000000000000000000000000000000000000081526004018080602001828103825260198152602001807f45524332304361707065643a206361702065786365656465640000000000000081525060200191505060405180910390fd5b5b505050565b505050565b600073ffffffffffffffffffffffffffffffffffffffff168373ffffffffffffffffffffffffffffffffffffffff161415614460576040517f08c379a0000000000000000000000000000000000000000000000000000000008152600401808060200182810382526024815260200180614e6d6024913960400191505060405180910390fd5b600073ffffffffffffffffffffffffffffffffffffffff168273ffffffffffffffffffffffffffffffffffffffff1614156144e6576040517f08c379a0000000000000000000000000000000000000000000000000000000008152600401808060200182810382526022815260200180614dd86022913960400191505060405180910390fd5b80600160008573ffffffffffffffffffffffffffffffffffffffff1673ffffffffffffffffffffffffffffffffffffffff16815260200190815260200160002060008473ffffffffffffffffffffffffffffffffffffffff1673ffffffffffffffffffffffffffffffffffffffff168152602001908152602001600020819055508173ffffffffffffffffffffffffffffffffffffffff168373ffffffffffffffffffffffffffffffffffffffff167f8c5be1e5ebec7d5bd14f71427d1e84f3dd0314c0f7b2291e5b200ac8c7c3b925836040518082815260200191505060405180910390a3505050565b600033905090565b6000601260008473ffffffffffffffffffffffffffffffffffffffff1673ffffffffffffffffffffffffffffffffffffffff16815260200190815260200160002060009054906101000a900460ff161580156146425750601360009054906101000a900460ff16155b801561471b57506146528361223c565b601760009054906101000a900473ffffffffffffffffffffffffffffffffffffffff1673ffffffffffffffffffffffffffffffffffffffff166304426db4856040518263ffffffff1660e01b8152600401808273ffffffffffffffffffffffffffffffffffffffff16815260200191505060206040518083038186803b1580156146db57600080fd5b505afa1580156146ef573d6000803e3d6000fd5b505050506040513d602081101561470557600080fd5b8101908080519060200190929190505050830111155b905092915050565b6000614730848484614931565b6147f18461473c6145d1565b6147ec85604051806060016040528060288152602001614e2060289139600160008b73ffffffffffffffffffffffffffffffffffffffff1673ffffffffffffffffffffffffffffffffffffffff16815260200190815260200160002060006147a26145d1565b73ffffffffffffffffffffffffffffffffffffffff1673ffffffffffffffffffffffffffffffffffffffff16815260200190815260200160002054614bf29092919063ffffffff16565b6143da565b600190509392505050565b600061483e83836040518060400160405280601e81526020017f536166654d6174683a207375627472616374696f6e206f766572666c6f770000815250614bf2565b905092915050565b60006149096148536145d1565b8461490485604051806060016040528060258152602001614e91602591396001600061487d6145d1565b73ffffffffffffffffffffffffffffffffffffffff1673ffffffffffffffffffffffffffffffffffffffff16815260200190815260200160002060008a73ffffffffffffffffffffffffffffffffffffffff1673ffffffffffffffffffffffffffffffffffffffff16815260200190815260200160002054614bf29092919063ffffffff16565b6143da565b6001905092915050565b60006149276149206145d1565b8484614931565b6001905092915050565b600073ffffffffffffffffffffffffffffffffffffffff168373ffffffffffffffffffffffffffffffffffffffff1614156149b7576040517f08c379a0000000000000000000000000000000000000000000000000000000008152600401808060200182810382526025815260200180614e486025913960400191505060405180910390fd5b600073ffffffffffffffffffffffffffffffffffffffff168273ffffffffffffffffffffffffffffffffffffffff161415614a3d576040517f08c379a0000000000000000000000000000000000000000000000000000000008152600401808060200182810382526023815260200180614d8f6023913960400191505060405180910390fd5b614a48838383614cb2565b614ab381604051806060016040528060268152602001614dfa602691396000808773ffffffffffffffffffffffffffffffffffffffff1673ffffffffffffffffffffffffffffffffffffffff16815260200190815260200160002054614bf29092919063ffffffff16565b6000808573ffffffffffffffffffffffffffffffffffffffff1673ffffffffffffffffffffffffffffffffffffffff16815260200190815260200160002081905550614b46816000808573ffffffffffffffffffffffffffffffffffffffff1673ffffffffffffffffffffffffffffffffffffffff1681526020019081526020016000205461427690919063ffffffff16565b6000808473ffffffffffffffffffffffffffffffffffffffff1673ffffffffffffffffffffffffffffffffffffffff168152602001908152602001600020819055508173ffffffffffffffffffffffffffffffffffffffff168373ffffffffffffffffffffffffffffffffffffffff167fddf252ad1be2c89b69c2b068fc378daa952ba7f163c4a11628f55a4df523b3ef836040518082815260200191505060405180910390a3505050565b6000838311158290614c9f576040517f08c379a00000000000000000000000000000000000000000000000000000000081526004018080602001828103825283818151815260200191508051906020019080838360005b83811015614c64578082015181840152602081019050614c49565b50505050905090810190601f168015614c915780820380516001836020036101000a031916815260200191505b509250505060405180910390fd5b5060008385039050809150509392505050565b614cbd8383836142fe565b600073ffffffffffffffffffffffffffffffffffffffff168373ffffffffffffffffffffffffffffffffffffffff161415614d8957614cfa611bc5565b614d1482614d066115f0565b61427690919063ffffffff16565b1115614d88576040517f08c379a00000000000000000000000000000000000000000000000000000000081526004018080602001828103825260198152602001807f45524332304361707065643a206361702065786365656465640000000000000081525060200191505060405180910390fd5b5b50505056fe45524332303a207472616e7366657220746f20746865207a65726f20616464726573734f776e61626c653a206e6577206f776e657220697320746865207a65726f206164647265737345524332303a20617070726f766520746f20746865207a65726f206164647265737345524332303a207472616e7366657220616d6f756e7420657863656564732062616c616e636545524332303a207472616e7366657220616d6f756e74206578636565647320616c6c6f77616e636545524332303a207472616e736665722066726f6d20746865207a65726f206164647265737345524332303a20617070726f76652066726f6d20746865207a65726f206164647265737345524332303a2064656372656173656420616c6c6f77616e63652062656c6f77207a65726fa264697066735822122044d40dc6d0462ca7a4085fb7c494302d9faa1032981f4ec6462b44572dfe9d3464736f6c63430007060033",
  "immutableReferences": {},
  "source": "pragma solidity ^0.7.6;\n\nimport \"@openzeppelin/contracts/token/ERC20/ERC20.sol\";\nimport \"@openzeppelin/contracts/token/ERC20/ERC20Capped.sol\";\nimport \"@openzeppelin/contracts/math/SafeMath.sol\";\nimport \"@openzeppelin/contracts/access/Ownable.sol\";\nimport \"./LeasedEmblem.sol\";\n\ncontract Emblem is ERC20, ERC20Capped, Ownable {\n  using SafeMath for uint256;\n\n   mapping (bytes12 => address) public vanityAddresses;\n   mapping (address => bytes12[]) public ownedVanities;\n   mapping (address => mapping(bytes12 => uint256)) public ownedVanitiesIndex;\n   mapping (bytes12 => uint256) allVanitiesIndex;\n   bytes12[] public allVanities;\n   mapping (address => mapping (bytes12 => address)) internal allowedVanities;\n\n   mapping (bytes12 => uint256) vanityFees;\n   mapping (bytes12 => bool) vanityFeeEnabled;\n\n   bool internal useVanityFees = true;\n   uint256 internal vanityPurchaseCost = 100 * (10 ** 8);\n\n   mapping (address => bool) public frozenAccounts;\n   bool public completeFreeze = false;\n\n   mapping (address => bool) internal freezable;\n   mapping (address => bool) internal externalFreezers;\n\n   address leaseExchange;\n   LeasedEmblem LEMB;\n\n   event TransferVanity(address from, address to, bytes12 vanity);\n   event ApprovedVanity(address from, address to, bytes12 vanity);\n   event VanityPurchased(address from, bytes12 vanity);\n\n   constructor(string memory _name, string memory _ticker, uint8 _decimal, uint256 _supply, address _wallet, address _lemb) public ERC20(_name, _ticker) ERC20Capped(_supply) {\n     _mint(_wallet,_supply);\n     _setupDecimals(_decimal);\n     LEMB = LeasedEmblem(_lemb);\n   }\n\n   function setLeaseExchange(address _leaseExchange) public onlyOwner {\n     leaseExchange = _leaseExchange;\n   }\n\n   function setVanityPurchaseCost(uint256 cost) public onlyOwner {\n     vanityPurchaseCost = cost;\n   }\n\n   function enableFees(bool enabled) public onlyOwner {\n     useVanityFees = enabled;\n   }\n\n   function setLEMB(address _lemb) public onlyOwner {\n     LEMB = LeasedEmblem(_lemb);\n   }\n\n   function setVanityFee(bytes12 vanity, uint256 fee) public onlyOwner {\n     require(fee >= 0);\n     vanityFees[vanity] = fee;\n   }\n\n   function getFee(bytes12 vanity) public view returns(uint256) {\n     return vanityFees[vanity];\n   }\n\n   function enabledVanityFee(bytes12 vanity) public view returns(bool) {\n     return vanityFeeEnabled[vanity] && useVanityFees;\n   }\n\n   function vanityAllowance(address _owner, bytes12 _vanity, address _spender) public view returns (bool) {\n     return allowedVanities[_owner][_vanity] == _spender;\n   }\n\n   function getVanityOwner(bytes12 _vanity) public view returns (address) {\n     return vanityAddresses[_vanity];\n   }\n\n   function getAllVanities() public view returns (bytes12[] memory){\n     return allVanities;\n   }\n\n   function getMyVanities() public view returns (bytes12[] memory){\n     return ownedVanities[msg.sender];\n   }\n\n   function approveVanity(address _spender, bytes12 _vanity) public returns (bool) {\n     require(vanityAddresses[_vanity] == msg.sender);\n     allowedVanities[msg.sender][_vanity] = _spender;\n\n     emit ApprovedVanity(msg.sender, _spender, _vanity);\n     return true;\n   }\n\n   function clearVanityApproval(bytes12 _vanity) public returns (bool){\n     require(vanityAddresses[_vanity] == msg.sender);\n     delete allowedVanities[msg.sender][_vanity];\n     return true;\n   }\n\n   function transferVanity(bytes12 van, address newOwner) public returns (bool) {\n     require(newOwner != address(0));\n     require(vanityAddresses[van] == msg.sender);\n\n     vanityAddresses[van] = newOwner;\n     ownedVanities[newOwner].push(van);\n     ownedVanitiesIndex[newOwner][van] = ownedVanities[newOwner].length.sub(1);\n\n     uint256 vanityIndex = ownedVanitiesIndex[msg.sender][van];\n     uint256 lastVanityIndex = ownedVanities[msg.sender].length.sub(1);\n     bytes12 lastVanity = ownedVanities[msg.sender][lastVanityIndex];\n\n     ownedVanities[msg.sender][vanityIndex] = lastVanity;\n     ownedVanities[msg.sender][lastVanityIndex] = \"\";\n     ownedVanities[msg.sender].pop();\n\n     delete ownedVanitiesIndex[msg.sender][van];\n     ownedVanitiesIndex[msg.sender][lastVanity] = vanityIndex;\n\n     emit TransferVanity(msg.sender, newOwner,van);\n\n     return true;\n   }\n\n   function transferVanityFrom(\n     address _from,\n     address _to,\n     bytes12 _vanity\n   )\n     public\n     returns (bool)\n   {\n     require(_to != address(0));\n     require(_from == vanityAddresses[_vanity]);\n     require(msg.sender == allowedVanities[_from][_vanity]);\n\n     vanityAddresses[_vanity] = _to;\n     ownedVanities[_to].push(_vanity);\n     ownedVanitiesIndex[_to][_vanity] = ownedVanities[_to].length.sub(1);\n\n     uint256 vanityIndex = ownedVanitiesIndex[_from][_vanity];\n     uint256 lastVanityIndex = ownedVanities[_from].length.sub(1);\n     bytes12 lastVanity = ownedVanities[_from][lastVanityIndex];\n\n     ownedVanities[_from][vanityIndex] = lastVanity;\n     ownedVanities[_from][lastVanityIndex] = \"\";\n     ownedVanities[_from].pop();\n\n     delete ownedVanitiesIndex[_from][_vanity];\n     ownedVanitiesIndex[_from][lastVanity] = vanityIndex;\n\n     emit TransferVanity(msg.sender, _to,_vanity);\n\n     return true;\n   }\n\n   function purchaseVanity(bytes12 van) public returns (bool) {\n     require(vanityAddresses[van] == address(0));\n\n     for(uint8 i = 0; i < 12; i++){\n       require((uint8(van[i]) >= 48 && uint8(van[i]) <= 57) || (uint8(van[i]) >= 65 && uint8(van[i]) <= 90));\n     }\n\n     transferFrom(msg.sender, address(this), vanityPurchaseCost);\n\n     vanityAddresses[van] = msg.sender;\n     ownedVanities[msg.sender].push(van);\n     ownedVanitiesIndex[msg.sender][van] = ownedVanities[msg.sender].length.sub(1);\n     allVanities.push(van);\n     allVanitiesIndex[van] = allVanities.length.sub(1);\n\n     emit VanityPurchased(msg.sender, van);\n   }\n\n   function freezeTransfers(bool _freeze) public onlyOwner {\n     completeFreeze = _freeze;\n   }\n\n   function freezeAccount(address _target, bool _freeze) public onlyOwner {\n     frozenAccounts[_target] = _freeze;\n   }\n\n   function canTransfer(address _account,uint256 _value) internal view returns (bool) {\n      return (!frozenAccounts[_account] && !completeFreeze && (_value + LEMB.getAmountForUserMining(_account) <= balanceOf(_account)));\n   }\n\n   function transfer(address _to, uint256 _value) public override returns (bool){\n      require(canTransfer(msg.sender,_value));\n      super.transfer(_to,_value);\n   }\n\n   function multiTransfer(bytes32[] memory _addressesAndAmounts) public {\n      for (uint i = 0; i < _addressesAndAmounts.length; i++) {\n          address to = address(uint256(_addressesAndAmounts[i] >> 96));\n          uint amount = uint(uint(_addressesAndAmounts[i] << 160));\n          transfer(to, amount);\n      }\n   }\n\n   function freezeMe(bool freeze) public {\n     require(!frozenAccounts[msg.sender]);\n     freezable[msg.sender] = freeze;\n   }\n\n   function canFreeze(address _target) public view returns(bool){\n     return freezable[_target];\n   }\n\n   function isFrozen(address _target) public view returns(bool) {\n     return completeFreeze || frozenAccounts[_target];\n   }\n\n   function externalFreezeAccount(address _target, bool _freeze) public {\n     require(freezable[_target]);\n     require(externalFreezers[msg.sender]);\n     frozenAccounts[_target] = _freeze;\n   }\n\n   function setExternalFreezer(address _target, bool _canFreeze) public onlyOwner {\n     externalFreezers[_target] = _canFreeze;\n   }\n\n\n   function transferFrom(address _from, address _to, uint256 _value) public override returns (bool){\n      require(!completeFreeze);\n      if(msg.sender != leaseExchange) require(canTransfer(_from,_value));\n      super.transferFrom(_from,_to,_value);\n   }\n\n   function decreaseAllowance(address _spender,uint256 _subtractedValue) public override returns (bool) {\n     if(_spender == leaseExchange) {\n       require(allowance(msg.sender,_spender).sub(_subtractedValue) >= LEMB.getAmountForUserMining(msg.sender));\n     }\n     super.decreaseAllowance(_spender,_subtractedValue);\n   }\n\n   function _beforeTokenTransfer(address from, address to, uint256 amount) internal virtual override(ERC20, ERC20Capped) {\n        super._beforeTokenTransfer(from, to, amount);\n\n        if (from == address(0)) { // When minting tokens\n            require(totalSupply().add(amount) <= cap(), \"ERC20Capped: cap exceeded\");\n        }\n    }\n\n   function approve(address _spender, uint256 _value) public override returns (bool) {\n     if(_spender == leaseExchange){\n       require(_value >= LEMB.getAmountForUserMining(msg.sender));\n     }\n     _approve(msg.sender, _spender, _value);\n     return true;\n   }\n\n}\n",
  "sourcePath": "/Users/arjunjain/Emblem_Ethereum_Anchor/contracts/Emblem.sol",
  "compiler": {
    "name": "solc",
    "version": "0.7.6+commit.7338295f.Emscripten.clang"
  },
  "schemaVersion": "3.3.3",
  "updatedAt": "2021-01-28T01:07:42.183Z",
  "devdoc": {
    "kind": "dev",
    "methods": {
      "allowance(address,address)": {
        "details": "See {IERC20-allowance}."
      },
      "balanceOf(address)": {
        "details": "See {IERC20-balanceOf}."
      },
      "cap()": {
        "details": "Returns the cap on the token's total supply."
      },
      "decimals()": {
        "details": "Returns the number of decimals used to get its user representation. For example, if `decimals` equals `2`, a balance of `505` tokens should be displayed to a user as `5,05` (`505 / 10 ** 2`). Tokens usually opt for a value of 18, imitating the relationship between Ether and Wei. This is the value {ERC20} uses, unless {_setupDecimals} is called. NOTE: This information is only used for _display_ purposes: it in no way affects any of the arithmetic of the contract, including {IERC20-balanceOf} and {IERC20-transfer}."
      },
      "increaseAllowance(address,uint256)": {
        "details": "Atomically increases the allowance granted to `spender` by the caller. This is an alternative to {approve} that can be used as a mitigation for problems described in {IERC20-approve}. Emits an {Approval} event indicating the updated allowance. Requirements: - `spender` cannot be the zero address."
      },
      "name()": {
        "details": "Returns the name of the token."
      },
      "owner()": {
        "details": "Returns the address of the current owner."
      },
      "renounceOwnership()": {
        "details": "Leaves the contract without owner. It will not be possible to call `onlyOwner` functions anymore. Can only be called by the current owner. NOTE: Renouncing ownership will leave the contract without an owner, thereby removing any functionality that is only available to the owner."
      },
      "symbol()": {
        "details": "Returns the symbol of the token, usually a shorter version of the name."
      },
      "totalSupply()": {
        "details": "See {IERC20-totalSupply}."
      },
      "transferOwnership(address)": {
        "details": "Transfers ownership of the contract to a new account (`newOwner`). Can only be called by the current owner."
      }
    },
    "version": 1
  },
  "userdoc": {
    "kind": "user",
    "methods": {},
    "version": 1
  }
}