{
  "contractName": "ExistingLeaseExchange",
  "abi": [
    {
      "constant": false,
      "inputs": [],
      "name": "renounceOwnership",
      "outputs": [],
      "payable": false,
      "stateMutability": "nonpayable",
      "type": "function"
    },
    {
      "constant": true,
      "inputs": [],
      "name": "owner",
      "outputs": [
        {
          "name": "",
          "type": "address"
        }
      ],
      "payable": false,
      "stateMutability": "view",
      "type": "function"
    },
    {
      "constant": true,
      "inputs": [
        {
          "name": "",
          "type": "uint256"
        }
      ],
      "name": "orders",
      "outputs": [
        {
          "name": "id",
          "type": "uint256"
        },
        {
          "name": "maker",
          "type": "address"
        },
        {
          "name": "makerVanity",
          "type": "bytes12"
        },
        {
          "name": "amount",
          "type": "uint256"
        },
        {
          "name": "price",
          "type": "uint256"
        },
        {
          "name": "demand",
          "type": "bool"
        },
        {
          "name": "duration",
          "type": "uint256"
        },
        {
          "name": "createdAt",
          "type": "uint256"
        },
        {
          "name": "tradeExpiry",
          "type": "uint256"
        },
        {
          "name": "lembId",
          "type": "uint256"
        }
      ],
      "payable": false,
      "stateMutability": "view",
      "type": "function"
    },
    {
      "constant": false,
      "inputs": [
        {
          "name": "_newOwner",
          "type": "address"
        }
      ],
      "name": "transferOwnership",
      "outputs": [],
      "payable": false,
      "stateMutability": "nonpayable",
      "type": "function"
    },
    {
      "inputs": [
        {
          "name": "_emb",
          "type": "address"
        },
        {
          "name": "_lemb",
          "type": "address"
        },
        {
          "name": "_feeReciever",
          "type": "address"
        }
      ],
      "payable": false,
      "stateMutability": "nonpayable",
      "type": "constructor"
    },
    {
      "anonymous": false,
      "inputs": [
        {
          "indexed": false,
          "name": "id",
          "type": "uint256"
        },
        {
          "indexed": false,
          "name": "maker",
          "type": "address"
        },
        {
          "indexed": false,
          "name": "amount",
          "type": "uint256"
        },
        {
          "indexed": false,
          "name": "price",
          "type": "uint256"
        },
        {
          "indexed": false,
          "name": "demand",
          "type": "bool"
        },
        {
          "indexed": false,
          "name": "duration",
          "type": "uint256"
        },
        {
          "indexed": false,
          "name": "createdAt",
          "type": "uint256"
        },
        {
          "indexed": false,
          "name": "lembId",
          "type": "uint256"
        }
      ],
      "name": "OrderPlaced",
      "type": "event"
    },
    {
      "anonymous": false,
      "inputs": [
        {
          "indexed": false,
          "name": "id",
          "type": "uint256"
        },
        {
          "indexed": false,
          "name": "maker",
          "type": "address"
        },
        {
          "indexed": false,
          "name": "taker",
          "type": "address"
        },
        {
          "indexed": false,
          "name": "originalAmount",
          "type": "uint256"
        },
        {
          "indexed": false,
          "name": "amountFilled",
          "type": "uint256"
        },
        {
          "indexed": false,
          "name": "price",
          "type": "uint256"
        },
        {
          "indexed": false,
          "name": "duration",
          "type": "uint256"
        },
        {
          "indexed": false,
          "name": "lembId",
          "type": "uint256"
        },
        {
          "indexed": false,
          "name": "fulfilledAt",
          "type": "uint256"
        }
      ],
      "name": "OrderFilled",
      "type": "event"
    },
    {
      "anonymous": false,
      "inputs": [
        {
          "indexed": false,
          "name": "id",
          "type": "uint256"
        },
        {
          "indexed": false,
          "name": "maker",
          "type": "address"
        },
        {
          "indexed": false,
          "name": "amount",
          "type": "uint256"
        },
        {
          "indexed": false,
          "name": "price",
          "type": "uint256"
        },
        {
          "indexed": false,
          "name": "demand",
          "type": "bool"
        },
        {
          "indexed": false,
          "name": "duration",
          "type": "uint256"
        },
        {
          "indexed": false,
          "name": "createdAt",
          "type": "uint256"
        }
      ],
      "name": "OrderCancelled",
      "type": "event"
    },
    {
      "anonymous": false,
      "inputs": [
        {
          "indexed": true,
          "name": "previousOwner",
          "type": "address"
        }
      ],
      "name": "OwnershipRenounced",
      "type": "event"
    },
    {
      "anonymous": false,
      "inputs": [
        {
          "indexed": true,
          "name": "previousOwner",
          "type": "address"
        },
        {
          "indexed": true,
          "name": "newOwner",
          "type": "address"
        }
      ],
      "name": "OwnershipTransferred",
      "type": "event"
    },
    {
      "constant": false,
      "inputs": [
        {
          "name": "_makerFee",
          "type": "uint256"
        },
        {
          "name": "_takerFee",
          "type": "uint256"
        },
        {
          "name": "_denomination",
          "type": "uint256"
        }
      ],
      "name": "setFees",
      "outputs": [],
      "payable": false,
      "stateMutability": "nonpayable",
      "type": "function"
    },
    {
      "constant": true,
      "inputs": [
        {
          "name": "owner",
          "type": "address"
        },
        {
          "name": "vanity",
          "type": "bytes12"
        },
        {
          "name": "isMaker",
          "type": "bool"
        }
      ],
      "name": "getFee",
      "outputs": [
        {
          "name": "",
          "type": "uint256"
        }
      ],
      "payable": false,
      "stateMutability": "view",
      "type": "function"
    },
    {
      "constant": true,
      "inputs": [
        {
          "name": "id",
          "type": "uint256"
        }
      ],
      "name": "exists",
      "outputs": [
        {
          "name": "",
          "type": "bool"
        }
      ],
      "payable": false,
      "stateMutability": "view",
      "type": "function"
    },
    {
      "constant": true,
      "inputs": [],
      "name": "getNewId",
      "outputs": [
        {
          "name": "",
          "type": "uint256"
        }
      ],
      "payable": false,
      "stateMutability": "view",
      "type": "function"
    },
    {
      "constant": true,
      "inputs": [],
      "name": "retrieveMyOrders",
      "outputs": [
        {
          "name": "",
          "type": "uint256[]"
        }
      ],
      "payable": false,
      "stateMutability": "view",
      "type": "function"
    },
    {
      "constant": true,
      "inputs": [],
      "name": "retrieveOrders",
      "outputs": [
        {
          "name": "",
          "type": "uint256[]"
        }
      ],
      "payable": false,
      "stateMutability": "view",
      "type": "function"
    },
    {
      "constant": true,
      "inputs": [
        {
          "name": "id",
          "type": "uint256"
        }
      ],
      "name": "getOrderData",
      "outputs": [
        {
          "name": "",
          "type": "uint256"
        },
        {
          "name": "",
          "type": "uint256"
        },
        {
          "name": "",
          "type": "uint256"
        },
        {
          "name": "",
          "type": "uint256"
        },
        {
          "name": "",
          "type": "uint256"
        },
        {
          "name": "",
          "type": "address"
        },
        {
          "name": "",
          "type": "bool"
        }
      ],
      "payable": false,
      "stateMutability": "view",
      "type": "function"
    },
    {
      "constant": true,
      "inputs": [
        {
          "name": "id",
          "type": "uint256"
        }
      ],
      "name": "getLembId",
      "outputs": [
        {
          "name": "",
          "type": "uint256"
        }
      ],
      "payable": false,
      "stateMutability": "view",
      "type": "function"
    },
    {
      "constant": false,
      "inputs": [
        {
          "name": "price",
          "type": "uint256"
        },
        {
          "name": "amount",
          "type": "uint256"
        },
        {
          "name": "demand",
          "type": "bool"
        },
        {
          "name": "duration",
          "type": "uint256"
        },
        {
          "name": "tradeDuration",
          "type": "uint256"
        },
        {
          "name": "lembId",
          "type": "uint256"
        },
        {
          "name": "vanity",
          "type": "bytes12"
        }
      ],
      "name": "placeOrder",
      "outputs": [
        {
          "name": "",
          "type": "bool"
        }
      ],
      "payable": true,
      "stateMutability": "payable",
      "type": "function"
    },
    {
      "constant": false,
      "inputs": [
        {
          "name": "id",
          "type": "uint256"
        },
        {
          "name": "amount",
          "type": "uint256"
        },
        {
          "name": "lembId",
          "type": "uint256"
        },
        {
          "name": "vanity",
          "type": "bytes12"
        }
      ],
      "name": "takeOrder",
      "outputs": [
        {
          "name": "",
          "type": "bool"
        }
      ],
      "payable": true,
      "stateMutability": "payable",
      "type": "function"
    },
    {
      "constant": false,
      "inputs": [
        {
          "name": "id",
          "type": "uint256"
        }
      ],
      "name": "cancelOrder",
      "outputs": [
        {
          "name": "",
          "type": "bool"
        }
      ],
      "payable": false,
      "stateMutability": "nonpayable",
      "type": "function"
    }
  ],
  "bytecode": "0x608060405260008060006101000a81548160ff0219169083151502179055506000600655600160075562f099c06008556301e133806009556303c26700600a556305f5e100600b556001600c556001600d556103e8600e5534801561006357600080fd5b50604051606080620057f283398101806040528101908080519060200190929190805190602001909291908051906020019092919050505033600060016101000a81548173ffffffffffffffffffffffffffffffffffffffff021916908373ffffffffffffffffffffffffffffffffffffffff16021790555082601060006101000a81548173ffffffffffffffffffffffffffffffffffffffff021916908373ffffffffffffffffffffffffffffffffffffffff16021790555081600f60006101000a81548173ffffffffffffffffffffffffffffffffffffffff021916908373ffffffffffffffffffffffffffffffffffffffff16021790555080601160006101000a81548173ffffffffffffffffffffffffffffffffffffffff021916908373ffffffffffffffffffffffffffffffffffffffff16021790555050505061564080620001b26000396000f3006080604052600436106100db576000357c0100000000000000000000000000000000000000000000000000000000900463ffffffff1680634f558e79146100e0578063514fcac7146101255780637017d4f11461016a578063715018a6146101955780638da5cb5b146101ac57806395178c681461020357806395eefab71461029e5780639ebec7ab1461032b578063a85c38ef14610397578063bd39833914610475578063c4934116146104e1578063cec10c1114610522578063cef88df414610563578063f2fde38b146105e7578063f993c6211461062a575b600080fd5b3480156100ec57600080fd5b5061010b60048036038101908080359060200190929190505050610697565b604051808215151515815260200191505060405180910390f35b34801561013157600080fd5b50610150600480360381019080803590602001909291905050506106b9565b604051808215151515815260200191505060405180910390f35b34801561017657600080fd5b5061017f6108f1565b6040518082815260200191505060405180910390f35b3480156101a157600080fd5b506101aa6108fb565b005b3480156101b857600080fd5b506101c16109ff565b604051808273ffffffffffffffffffffffffffffffffffffffff1673ffffffffffffffffffffffffffffffffffffffff16815260200191505060405180910390f35b34801561020f57600080fd5b5061022e60048036038101908080359060200190929190505050610a25565b604051808881526020018781526020018681526020018581526020018481526020018373ffffffffffffffffffffffffffffffffffffffff1673ffffffffffffffffffffffffffffffffffffffff1681526020018215151515815260200197505050505050505060405180910390f35b6103116004803603810190808035906020019092919080359060200190929190803515159060200190929190803590602001909291908035906020019092919080359060200190929190803573ffffffffffffffffffffffffffffffffffffffff19169060200190929190505050610b3b565b604051808215151515815260200191505060405180910390f35b34801561033757600080fd5b50610340610c12565b6040518080602001828103825283818151815260200191508051906020019060200280838360005b83811015610383578082015181840152602081019050610368565b505050509050019250505060405180910390f35b3480156103a357600080fd5b506103c260048036038101908080359060200190929190505050610c6a565b604051808b81526020018a73ffffffffffffffffffffffffffffffffffffffff1673ffffffffffffffffffffffffffffffffffffffff1681526020018973ffffffffffffffffffffffffffffffffffffffff191673ffffffffffffffffffffffffffffffffffffffff19168152602001888152602001878152602001861515151581526020018581526020018481526020018381526020018281526020019a505050505050505050505060405180910390f35b34801561048157600080fd5b5061048a610d0c565b6040518080602001828103825283818151815260200191508051906020019060200280838360005b838110156104cd5780820151818401526020810190506104b2565b505050509050019250505060405180910390f35b3480156104ed57600080fd5b5061050c60048036038101908080359060200190929190505050610da1565b6040518082815260200191505060405180910390f35b34801561052e57600080fd5b50610561600480360381019080803590602001909291908035906020019092919080359060200190929190505050610de5565b005b34801561056f57600080fd5b506105d1600480360381019080803573ffffffffffffffffffffffffffffffffffffffff169060200190929190803573ffffffffffffffffffffffffffffffffffffffff19169060200190929190803515159060200190929190505050610e74565b6040518082815260200191505060405180910390f35b3480156105f357600080fd5b50610628600480360381019080803573ffffffffffffffffffffffffffffffffffffffff1690602001909291905050506111c3565b005b61067d600480360381019080803590602001909291908035906020019092919080359060200190929190803573ffffffffffffffffffffffffffffffffffffffff1916906020019092919050505061122b565b604051808215151515815260200191505060405180910390f35b6000816001600084815260200190815260200160002060000154149050919050565b60008060008060008060008060009054906101000a900460ff161515156106df57600080fd5b60016000806101000a81548160ff02191690831515021790555060008811801561071e575087600160008a815260200190815260200160002060000154145b801561078b57503373ffffffffffffffffffffffffffffffffffffffff16600160008a815260200190815260200160002060010160009054906101000a900473ffffffffffffffffffffffffffffffffffffffff1673ffffffffffffffffffffffffffffffffffffffff16145b151561079657600080fd5b60016000898152602001908152602001600020600201549550600160008981526020019081526020016000206003015494506001600089815260200190815260200160002060040160009054906101000a900460ff1693506001600089815260200190815260200160002060050154925060016000898152602001908152602001600020600601549150610829886115a1565b905080156108c9577ff42459ddef5edd15de35c5fc8b33253ce0181c882e28da60d19d69a212def92988338888888888604051808881526020018773ffffffffffffffffffffffffffffffffffffffff1673ffffffffffffffffffffffffffffffffffffffff1681526020018681526020018581526020018415151515815260200183815260200182815260200197505050505050505060405180910390a15b80965060008060006101000a81548160ff021916908315150217905550505050505050919050565b6000600754905090565b600060019054906101000a900473ffffffffffffffffffffffffffffffffffffffff1673ffffffffffffffffffffffffffffffffffffffff163373ffffffffffffffffffffffffffffffffffffffff1614151561095757600080fd5b600060019054906101000a900473ffffffffffffffffffffffffffffffffffffffff1673ffffffffffffffffffffffffffffffffffffffff167ff8df31144d9c2f0f6b59d69b8b98abd5459d07f2742c4df920b25aae33c6482060405160405180910390a260008060016101000a81548173ffffffffffffffffffffffffffffffffffffffff021916908373ffffffffffffffffffffffffffffffffffffffff160217905550565b600060019054906101000a900473ffffffffffffffffffffffffffffffffffffffff1681565b600080600080600080600087600160008a815260200190815260200160002060000154141515610a5457600080fd5b6001600089815260200190815260200160002060000154600160008a815260200190815260200160002060020154600160008b815260200190815260200160002060030154600160008c815260200190815260200160002060050154600160008d815260200190815260200160002060070154600160008e815260200190815260200160002060010160009054906101000a900473ffffffffffffffffffffffffffffffffffffffff16600160008f815260200190815260200160002060040160009054906101000a900460ff169650965096509650965096509650919395979092949650565b600080346006819055506000809054906101000a900460ff16151515610b6057600080fd5b60016000806101000a81548160ff021916908315150217905550610b8a338a8a878b8b8b8a611a24565b905060006006541115610be1573373ffffffffffffffffffffffffffffffffffffffff166108fc6006549081150290604051600060405180830381858888f19350505050158015610bdf573d6000803e3d6000fd5b505b80915060008060006101000a81548160ff021916908315150217905550600060068190555050979650505050505050565b60606002805480602002602001604051908101604052809291908181526020018280548015610c6057602002820191906000526020600020905b815481526020019060010190808311610c4c575b5050505050905090565b60016020528060005260406000206000915090508060000154908060010160009054906101000a900473ffffffffffffffffffffffffffffffffffffffff16908060010160149054906101000a90047401000000000000000000000000000000000000000002908060020154908060030154908060040160009054906101000a900460ff1690806005015490806006015490806007015490806008015490508a565b6060600460003373ffffffffffffffffffffffffffffffffffffffff1673ffffffffffffffffffffffffffffffffffffffff168152602001908152602001600020805480602002602001604051908101604052809291908181526020018280548015610d9757602002820191906000526020600020905b815481526020019060010190808311610d83575b5050505050905090565b6000816001600084815260200190815260200160002060000154141515610dc757600080fd5b60016000838152602001908152602001600020600801549050919050565b600060019054906101000a900473ffffffffffffffffffffffffffffffffffffffff1673ffffffffffffffffffffffffffffffffffffffff163373ffffffffffffffffffffffffffffffffffffffff16141515610e4157600080fd5b8083108015610e4f57508082105b1515610e5a57600080fd5b82600c8190555081600d8190555080600e81905550505050565b60008373ffffffffffffffffffffffffffffffffffffffff16601060009054906101000a900473ffffffffffffffffffffffffffffffffffffffff1673ffffffffffffffffffffffffffffffffffffffff16630c5cc0a2856040518263ffffffff167c0100000000000000000000000000000000000000000000000000000000028152600401808273ffffffffffffffffffffffffffffffffffffffff191673ffffffffffffffffffffffffffffffffffffffff19168152602001915050602060405180830381600087803b158015610f4c57600080fd5b505af1158015610f60573d6000803e3d6000fd5b505050506040513d6020811015610f7657600080fd5b810190808051906020019092919050505073ffffffffffffffffffffffffffffffffffffffff161480156110a05750601060009054906101000a900473ffffffffffffffffffffffffffffffffffffffff1673ffffffffffffffffffffffffffffffffffffffff1663b7fe896a846040518263ffffffff167c0100000000000000000000000000000000000000000000000000000000028152600401808273ffffffffffffffffffffffffffffffffffffffff191673ffffffffffffffffffffffffffffffffffffffff19168152602001915050602060405180830381600087803b15801561106457600080fd5b505af1158015611078573d6000803e3d6000fd5b505050506040513d602081101561108e57600080fd5b81019080805190602001909291905050505b156111a657601060009054906101000a900473ffffffffffffffffffffffffffffffffffffffff1673ffffffffffffffffffffffffffffffffffffffff166316166f89846040518263ffffffff167c0100000000000000000000000000000000000000000000000000000000028152600401808273ffffffffffffffffffffffffffffffffffffffff191673ffffffffffffffffffffffffffffffffffffffff19168152602001915050602060405180830381600087803b15801561116457600080fd5b505af1158015611178573d6000803e3d6000fd5b505050506040513d602081101561118e57600080fd5b810190808051906020019092919050505090506111bc565b81156111b657600c5490506111bc565b600d5490505b9392505050565b600060019054906101000a900473ffffffffffffffffffffffffffffffffffffffff1673ffffffffffffffffffffffffffffffffffffffff163373ffffffffffffffffffffffffffffffffffffffff1614151561121f57600080fd5b61122881612d8e565b50565b6000611235615540565b6000806000346006819055506000809054906101000a900460ff1615151561125c57600080fd5b60016000806101000a81548160ff021916908315150217905550600160008a81526020019081526020016000206101406040519081016040529081600082015481526020016001820160009054906101000a900473ffffffffffffffffffffffffffffffffffffffff1673ffffffffffffffffffffffffffffffffffffffff1673ffffffffffffffffffffffffffffffffffffffff1681526020016001820160149054906101000a9004740100000000000000000000000000000000000000000273ffffffffffffffffffffffffffffffffffffffff191673ffffffffffffffffffffffffffffffffffffffff1916815260200160028201548152602001600382015481526020016004820160009054906101000a900460ff1615151515815260200160058201548152602001600682015481526020016007820154815260200160088201548152505093508884600001511480156113bc575060008914155b15156113c757600080fd5b8360a00151156114705761140b600e546113fd6113ee876020015188604001516001610e74565b8b612e8a90919063ffffffff16565b612ec290919063ffffffff16565b9250611469600e5461145b611422338a6000610e74565b61144d600b5461143f8a608001518f612e8a90919063ffffffff16565b612ec290919063ffffffff16565b612e8a90919063ffffffff16565b612ec290919063ffffffff16565b915061150b565b6114d4600e546114c661148d876020015188604001516001610e74565b6114b8600b546114aa8a608001518f612e8a90919063ffffffff16565b612ec290919063ffffffff16565b612e8a90919063ffffffff16565b612ec290919063ffffffff16565b9250611508600e546114fa6114eb338a6000610e74565b8b612e8a90919063ffffffff16565b612ec290919063ffffffff16565b91505b611519338a8a8a8688612ed8565b905060006006541115611570573373ffffffffffffffffffffffffffffffffffffffff166108fc6006549081150290604051600060405180830381858888f1935050505015801561156e573d6000803e3d6000fd5b505b80945060008060006101000a81548160ff021916908315150217905550600060068190555050505050949350505050565b6000806000806000851115806115cd575084600160008781526020019081526020016000206000015414155b156115db5760009350611a1c565b6003600086815260200190815260200160002054925061160a600160028054905061515890919063ffffffff16565b915060028281548110151561161b57fe5b906000526020600020015490508060028481548110151561163857fe5b9060005260206000200181905550600060028381548110151561165757fe5b90600052602060002001819055506000600360008781526020019081526020016000208190555082600360008381526020019081526020016000208190555060028054809190600190036116ab91906155c3565b506000600160008781526020019081526020016000206002015414151561192f57600015156001600087815260200190815260200160002060040160009054906101000a900460ff161515141561185e57600f60009054906101000a900473ffffffffffffffffffffffffffffffffffffffff1673ffffffffffffffffffffffffffffffffffffffff166323b872dd306001600089815260200190815260200160002060010160009054906101000a900473ffffffffffffffffffffffffffffffffffffffff16600160008a8152602001908152602001600020600801546040518463ffffffff167c0100000000000000000000000000000000000000000000000000000000028152600401808473ffffffffffffffffffffffffffffffffffffffff1673ffffffffffffffffffffffffffffffffffffffff1681526020018373ffffffffffffffffffffffffffffffffffffffff1673ffffffffffffffffffffffffffffffffffffffff1681526020018281526020019350505050600060405180830381600087803b15801561184157600080fd5b505af1158015611855573d6000803e3d6000fd5b5050505061192e565b6001600086815260200190815260200160002060010160009054906101000a900473ffffffffffffffffffffffffffffffffffffffff1673ffffffffffffffffffffffffffffffffffffffff166108fc611901600b546118f3600160008b815260200190815260200160002060030154600160008c815260200190815260200160002060020154612e8a90919063ffffffff16565b612ec290919063ffffffff16565b9081150290604051600060405180830381858888f1935050505015801561192c573d6000803e3d6000fd5b505b5b61196f6001600087815260200190815260200160002060010160009054906101000a900473ffffffffffffffffffffffffffffffffffffffff1686615171565b600160008681526020019081526020016000206000808201600090556001820160006101000a81549073ffffffffffffffffffffffffffffffffffffffff02191690556001820160146101000a8154906bffffffffffffffffffffffff0219169055600282016000905560038201600090556004820160006101000a81549060ff021916905560058201600090556006820160009055600782016000905560088201600090555050600193505b505050919050565b6000806000611a316108f1565b9150600089111580611a44575060008a11155b80611a625750600b54611a608b8b612e8a90919063ffffffff16565b105b80611a8b57506008548614158015611a7c57506009548614155b8015611a8a5750600a548614155b5b15611a995760009250612d80565b8615611b03576000600654111580611ad85750611ad3600b54611ac58c8c612e8a90919063ffffffff16565b612ec290919063ffffffff16565b600654105b80611ae4575060008511155b80611af0575060085485115b15611afe5760009250612d80565b611f8e565b600f60009054906101000a900473ffffffffffffffffffffffffffffffffffffffff1673ffffffffffffffffffffffffffffffffffffffff16638bb126a7896040518263ffffffff167c010000000000000000000000000000000000000000000000000000000002815260040180828152602001915050602060405180830381600087803b158015611b9457600080fd5b505af1158015611ba8573d6000803e3d6000fd5b505050506040513d6020811015611bbe57600080fd5b810190808051906020019092919050505086141580611ca65750600f60009054906101000a900473ffffffffffffffffffffffffffffffffffffffff1673ffffffffffffffffffffffffffffffffffffffff16634f558e79896040518263ffffffff167c010000000000000000000000000000000000000000000000000000000002815260040180828152602001915050602060405180830381600087803b158015611c6957600080fd5b505af1158015611c7d573d6000803e3d6000fd5b505050506040513d6020811015611c9357600080fd5b8101908080519060200190929190505050155b80611da857508a73ffffffffffffffffffffffffffffffffffffffff16600f60009054906101000a900473ffffffffffffffffffffffffffffffffffffffff1673ffffffffffffffffffffffffffffffffffffffff16636352211e8a6040518263ffffffff167c010000000000000000000000000000000000000000000000000000000002815260040180828152602001915050602060405180830381600087803b158015611d5457600080fd5b505af1158015611d68573d6000803e3d6000fd5b505050506040513d6020811015611d7e57600080fd5b810190808051906020019092919050505073ffffffffffffffffffffffffffffffffffffffff1614155b80611e7d5750600f60009054906101000a900473ffffffffffffffffffffffffffffffffffffffff1673ffffffffffffffffffffffffffffffffffffffff16639980ec86896040518263ffffffff167c010000000000000000000000000000000000000000000000000000000002815260040180828152602001915050602060405180830381600087803b158015611e3f57600080fd5b505af1158015611e53573d6000803e3d6000fd5b505050506040513d6020811015611e6957600080fd5b810190808051906020019092919050505089115b80611f7f57503073ffffffffffffffffffffffffffffffffffffffff16600f60009054906101000a900473ffffffffffffffffffffffffffffffffffffffff1673ffffffffffffffffffffffffffffffffffffffff1663081812fc8a6040518263ffffffff167c010000000000000000000000000000000000000000000000000000000002815260040180828152602001915050602060405180830381600087803b158015611f2b57600080fd5b505af1158015611f3f573d6000803e3d6000fd5b505050506040513d6020811015611f5557600080fd5b810190808051906020019092919050505073ffffffffffffffffffffffffffffffffffffffff1614155b15611f8d5760009250612d80565b5b86156121f957611fcf611fbe600b54611fb08d8d612e8a90919063ffffffff16565b612ec290919063ffffffff16565b60065461515890919063ffffffff16565b600681905550610140604051908101604052808381526020018c73ffffffffffffffffffffffffffffffffffffffff1681526020018573ffffffffffffffffffffffffffffffffffffffff191681526020018a81526020018b8152602001881515815260200187815260200142815260200186420181526020016000815250600160008481526020019081526020016000206000820151816000015560208201518160010160006101000a81548173ffffffffffffffffffffffffffffffffffffffff021916908373ffffffffffffffffffffffffffffffffffffffff16021790555060408201518160010160146101000a8154816bffffffffffffffffffffffff02191690837401000000000000000000000000000000000000000090040217905550606082015181600201556080820151816003015560a08201518160040160006101000a81548160ff02191690831515021790555060c0820151816005015560e08201518160060155610100820151816007015561012082015181600801559050507fb60f754ddc049752ab5a21d59c6f9d982cb28caffde92d2f6182c79a97af60be828c8b8d8b8b426000604051808981526020018873ffffffffffffffffffffffffffffffffffffffff1673ffffffffffffffffffffffffffffffffffffffff168152602001878152602001868152602001851515151581526020018481526020018381526020018281526020019850505050505050505060405180910390a1612d09565b600f60009054906101000a900473ffffffffffffffffffffffffffffffffffffffff1673ffffffffffffffffffffffffffffffffffffffff166323b872dd8c308b6040518463ffffffff167c0100000000000000000000000000000000000000000000000000000000028152600401808473ffffffffffffffffffffffffffffffffffffffff1673ffffffffffffffffffffffffffffffffffffffff1681526020018373ffffffffffffffffffffffffffffffffffffffff1673ffffffffffffffffffffffffffffffffffffffff1681526020018281526020019350505050600060405180830381600087803b1580156122f257600080fd5b505af1158015612306573d6000803e3d6000fd5b50505050600f60009054906101000a900473ffffffffffffffffffffffffffffffffffffffff1673ffffffffffffffffffffffffffffffffffffffff16639980ec86896040518263ffffffff167c010000000000000000000000000000000000000000000000000000000002815260040180828152602001915050602060405180830381600087803b15801561239b57600080fd5b505af11580156123af573d6000803e3d6000fd5b505050506040513d60208110156123c557600080fd5b810190808051906020019092919050505089101561294d57600f60009054906101000a900473ffffffffffffffffffffffffffffffffffffffff1673ffffffffffffffffffffffffffffffffffffffff16637017d4f16040518163ffffffff167c0100000000000000000000000000000000000000000000000000000000028152600401602060405180830381600087803b15801561246357600080fd5b505af1158015612477573d6000803e3d6000fd5b505050506040513d602081101561248d57600080fd5b81019080805190602001909291905050509050600f60009054906101000a900473ffffffffffffffffffffffffffffffffffffffff1673ffffffffffffffffffffffffffffffffffffffff1663b1eb511b898b6040518363ffffffff167c01000000000000000000000000000000000000000000000000000000000281526004018083815260200182815260200192505050600060405180830381600087803b15801561253957600080fd5b505af115801561254d573d6000803e3d6000fd5b50505050600f60009054906101000a900473ffffffffffffffffffffffffffffffffffffffff1673ffffffffffffffffffffffffffffffffffffffff166323b872dd308d8b6040518463ffffffff167c0100000000000000000000000000000000000000000000000000000000028152600401808473ffffffffffffffffffffffffffffffffffffffff1673ffffffffffffffffffffffffffffffffffffffff1681526020018373ffffffffffffffffffffffffffffffffffffffff1673ffffffffffffffffffffffffffffffffffffffff1681526020018281526020019350505050600060405180830381600087803b15801561264a57600080fd5b505af115801561265e573d6000803e3d6000fd5b50505050610140604051908101604052808381526020018c73ffffffffffffffffffffffffffffffffffffffff1681526020018573ffffffffffffffffffffffffffffffffffffffff191681526020018a81526020018b81526020018815158152602001878152602001428152602001600f60009054906101000a900473ffffffffffffffffffffffffffffffffffffffff1673ffffffffffffffffffffffffffffffffffffffff16632a03fd7e8b6040518263ffffffff167c010000000000000000000000000000000000000000000000000000000002815260040180828152602001915050602060405180830381600087803b15801561275f57600080fd5b505af1158015612773573d6000803e3d6000fd5b505050506040513d602081101561278957600080fd5b8101908080519060200190929190505050815260200182815250600160008481526020019081526020016000206000820151816000015560208201518160010160006101000a81548173ffffffffffffffffffffffffffffffffffffffff021916908373ffffffffffffffffffffffffffffffffffffffff16021790555060408201518160010160146101000a8154816bffffffffffffffffffffffff02191690837401000000000000000000000000000000000000000090040217905550606082015181600201556080820151816003015560a08201518160040160006101000a81548160ff02191690831515021790555060c0820151816005015560e08201518160060155610100820151816007015561012082015181600801559050507fb60f754ddc049752ab5a21d59c6f9d982cb28caffde92d2f6182c79a97af60be828c8b8d8b8b4288604051808981526020018873ffffffffffffffffffffffffffffffffffffffff1673ffffffffffffffffffffffffffffffffffffffff168152602001878152602001868152602001851515151581526020018481526020018381526020018281526020019850505050505050505060405180910390a1612d08565b600f60009054906101000a900473ffffffffffffffffffffffffffffffffffffffff1673ffffffffffffffffffffffffffffffffffffffff16639980ec86896040518263ffffffff167c010000000000000000000000000000000000000000000000000000000002815260040180828152602001915050602060405180830381600087803b1580156129de57600080fd5b505af11580156129f2573d6000803e3d6000fd5b505050506040513d6020811015612a0857600080fd5b8101908080519060200190929190505050891415612d0757610140604051908101604052808381526020018c73ffffffffffffffffffffffffffffffffffffffff1681526020018573ffffffffffffffffffffffffffffffffffffffff191681526020018a81526020018b81526020018815158152602001878152602001428152602001600f60009054906101000a900473ffffffffffffffffffffffffffffffffffffffff1673ffffffffffffffffffffffffffffffffffffffff16632a03fd7e8b6040518263ffffffff167c010000000000000000000000000000000000000000000000000000000002815260040180828152602001915050602060405180830381600087803b158015612b1d57600080fd5b505af1158015612b31573d6000803e3d6000fd5b505050506040513d6020811015612b4757600080fd5b8101908080519060200190929190505050815260200189815250600160008481526020019081526020016000206000820151816000015560208201518160010160006101000a81548173ffffffffffffffffffffffffffffffffffffffff021916908373ffffffffffffffffffffffffffffffffffffffff16021790555060408201518160010160146101000a8154816bffffffffffffffffffffffff02191690837401000000000000000000000000000000000000000090040217905550606082015181600201556080820151816003015560a08201518160040160006101000a81548160ff02191690831515021790555060c0820151816005015560e08201518160060155610100820151816007015561012082015181600801559050507fb60f754ddc049752ab5a21d59c6f9d982cb28caffde92d2f6182c79a97af60be828c8b8d8b8b428f604051808981526020018873ffffffffffffffffffffffffffffffffffffffff1673ffffffffffffffffffffffffffffffffffffffff168152602001878152602001868152602001851515151581526020018481526020018381526020018281526020019850505050505050505060405180910390a15b5b5b6002829080600181540180825580915050906001820390600052602060002001600090919290919091505550612d4e600160028054905061515890919063ffffffff16565b6003600084815260200190815260200160002081905550612d6f8b83615436565b600160075401600781905550600192505b505098975050505050505050565b600073ffffffffffffffffffffffffffffffffffffffff168173ffffffffffffffffffffffffffffffffffffffff1614151515612dca57600080fd5b8073ffffffffffffffffffffffffffffffffffffffff16600060019054906101000a900473ffffffffffffffffffffffffffffffffffffffff1673ffffffffffffffffffffffffffffffffffffffff167f8be0079c531659141344cd1fd0a4f28419497f9722a3daafe3b4186f6b6457e060405160405180910390a380600060016101000a81548173ffffffffffffffffffffffffffffffffffffffff021916908373ffffffffffffffffffffffffffffffffffffffff16021790555050565b600080831415612e9d5760009050612ebc565b8183029050818382811515612eae57fe5b04141515612eb857fe5b8090505b92915050565b60008183811515612ecf57fe5b04905092915050565b6000806000806000808a111515612ef2576000945061514a565b600160008b81526020019081526020016000209350898460000154141580612f1b575060008911155b15612f29576000945061514a565b8360020154891115612f3d57836002015498505b8360040160009054906101000a900460ff16156142e457600f60009054906101000a900473ffffffffffffffffffffffffffffffffffffffff1673ffffffffffffffffffffffffffffffffffffffff16634f558e79896040518263ffffffff167c010000000000000000000000000000000000000000000000000000000002815260040180828152602001915050602060405180830381600087803b158015612fe557600080fd5b505af1158015612ff9573d6000803e3d6000fd5b505050506040513d602081101561300f57600080fd5b8101908080519060200190929190505050158061312357508a73ffffffffffffffffffffffffffffffffffffffff16600f60009054906101000a900473ffffffffffffffffffffffffffffffffffffffff1673ffffffffffffffffffffffffffffffffffffffff16636352211e8a6040518263ffffffff167c010000000000000000000000000000000000000000000000000000000002815260040180828152602001915050602060405180830381600087803b1580156130cf57600080fd5b505af11580156130e3573d6000803e3d6000fd5b505050506040513d60208110156130f957600080fd5b810190808051906020019092919050505073ffffffffffffffffffffffffffffffffffffffff1614155b806131f85750600f60009054906101000a900473ffffffffffffffffffffffffffffffffffffffff1673ffffffffffffffffffffffffffffffffffffffff16639980ec86896040518263ffffffff167c010000000000000000000000000000000000000000000000000000000002815260040180828152602001915050602060405180830381600087803b1580156131ba57600080fd5b505af11580156131ce573d6000803e3d6000fd5b505050506040513d60208110156131e457600080fd5b810190808051906020019092919050505089115b806132fa57503073ffffffffffffffffffffffffffffffffffffffff16600f60009054906101000a900473ffffffffffffffffffffffffffffffffffffffff1673ffffffffffffffffffffffffffffffffffffffff1663081812fc8a6040518263ffffffff167c010000000000000000000000000000000000000000000000000000000002815260040180828152602001915050602060405180830381600087803b1580156132a657600080fd5b505af11580156132ba573d6000803e3d6000fd5b505050506040513d60208110156132d057600080fd5b810190808051906020019092919050505073ffffffffffffffffffffffffffffffffffffffff1614155b15613308576000945061514a565b600f60009054906101000a900473ffffffffffffffffffffffffffffffffffffffff1673ffffffffffffffffffffffffffffffffffffffff166323b872dd8c308b6040518463ffffffff167c0100000000000000000000000000000000000000000000000000000000028152600401808473ffffffffffffffffffffffffffffffffffffffff1673ffffffffffffffffffffffffffffffffffffffff1681526020018373ffffffffffffffffffffffffffffffffffffffff1673ffffffffffffffffffffffffffffffffffffffff1681526020018281526020019350505050600060405180830381600087803b15801561340157600080fd5b505af1158015613415573d6000803e3d6000fd5b50505050600f60009054906101000a900473ffffffffffffffffffffffffffffffffffffffff1673ffffffffffffffffffffffffffffffffffffffff16639980ec86896040518263ffffffff167c010000000000000000000000000000000000000000000000000000000002815260040180828152602001915050602060405180830381600087803b1580156134aa57600080fd5b505af11580156134be573d6000803e3d6000fd5b505050506040513d60208110156134d457600080fd5b8101908080519060200190929190505050891015613c5357600f60009054906101000a900473ffffffffffffffffffffffffffffffffffffffff1673ffffffffffffffffffffffffffffffffffffffff16637017d4f16040518163ffffffff167c0100000000000000000000000000000000000000000000000000000000028152600401602060405180830381600087803b15801561357257600080fd5b505af1158015613586573d6000803e3d6000fd5b505050506040513d602081101561359c57600080fd5b81019080805190602001909291905050509250600f60009054906101000a900473ffffffffffffffffffffffffffffffffffffffff1673ffffffffffffffffffffffffffffffffffffffff1663b1eb511b89886040518363ffffffff167c01000000000000000000000000000000000000000000000000000000000281526004018083815260200182815260200192505050600060405180830381600087803b15801561364857600080fd5b505af115801561365c573d6000803e3d6000fd5b50505050600f60009054906101000a900473ffffffffffffffffffffffffffffffffffffffff1673ffffffffffffffffffffffffffffffffffffffff166323b872dd30601160009054906101000a900473ffffffffffffffffffffffffffffffffffffffff16866040518463ffffffff167c0100000000000000000000000000000000000000000000000000000000028152600401808473ffffffffffffffffffffffffffffffffffffffff1673ffffffffffffffffffffffffffffffffffffffff1681526020018373ffffffffffffffffffffffffffffffffffffffff1673ffffffffffffffffffffffffffffffffffffffff1681526020018281526020019350505050600060405180830381600087803b15801561377b57600080fd5b505af115801561378f573d6000803e3d6000fd5b50505050600f60009054906101000a900473ffffffffffffffffffffffffffffffffffffffff1673ffffffffffffffffffffffffffffffffffffffff16637017d4f16040518163ffffffff167c0100000000000000000000000000000000000000000000000000000000028152600401602060405180830381600087803b15801561381957600080fd5b505af115801561382d573d6000803e3d6000fd5b505050506040513d602081101561384357600080fd5b81019080805190602001909291905050509150600f60009054906101000a900473ffffffffffffffffffffffffffffffffffffffff1673ffffffffffffffffffffffffffffffffffffffff1663b1eb511b89888c036040518363ffffffff167c01000000000000000000000000000000000000000000000000000000000281526004018083815260200182815260200192505050600060405180830381600087803b1580156138f157600080fd5b505af1158015613905573d6000803e3d6000fd5b50505050600f60009054906101000a900473ffffffffffffffffffffffffffffffffffffffff1673ffffffffffffffffffffffffffffffffffffffff166323b872dd308660010160009054906101000a900473ffffffffffffffffffffffffffffffffffffffff16856040518463ffffffff167c0100000000000000000000000000000000000000000000000000000000028152600401808473ffffffffffffffffffffffffffffffffffffffff1673ffffffffffffffffffffffffffffffffffffffff1681526020018373ffffffffffffffffffffffffffffffffffffffff1673ffffffffffffffffffffffffffffffffffffffff1681526020018281526020019350505050600060405180830381600087803b158015613a2657600080fd5b505af1158015613a3a573d6000803e3d6000fd5b50505050600f60009054906101000a900473ffffffffffffffffffffffffffffffffffffffff1673ffffffffffffffffffffffffffffffffffffffff166323b872dd308d8b6040518463ffffffff167c0100000000000000000000000000000000000000000000000000000000028152600401808473ffffffffffffffffffffffffffffffffffffffff1673ffffffffffffffffffffffffffffffffffffffff1681526020018373ffffffffffffffffffffffffffffffffffffffff1673ffffffffffffffffffffffffffffffffffffffff1681526020018281526020019350505050600060405180830381600087803b158015613b3757600080fd5b505af1158015613b4b573d6000803e3d6000fd5b505050507f6420256322ce1b4f6410d00b6a790226862fff2507e569b9117abcefcae948a28a8560010160009054906101000a900473ffffffffffffffffffffffffffffffffffffffff168d87600201548d89600301548a600501548942604051808a81526020018973ffffffffffffffffffffffffffffffffffffffff1673ffffffffffffffffffffffffffffffffffffffff1681526020018873ffffffffffffffffffffffffffffffffffffffff1673ffffffffffffffffffffffffffffffffffffffff168152602001878152602001868152602001858152602001848152602001838152602001828152602001995050505050505050505060405180910390a1614203565b600f60009054906101000a900473ffffffffffffffffffffffffffffffffffffffff1673ffffffffffffffffffffffffffffffffffffffff16639980ec86896040518263ffffffff167c010000000000000000000000000000000000000000000000000000000002815260040180828152602001915050602060405180830381600087803b158015613ce457600080fd5b505af1158015613cf8573d6000803e3d6000fd5b505050506040513d6020811015613d0e57600080fd5b810190808051906020019092919050505089141561420257600f60009054906101000a900473ffffffffffffffffffffffffffffffffffffffff1673ffffffffffffffffffffffffffffffffffffffff16637017d4f16040518163ffffffff167c0100000000000000000000000000000000000000000000000000000000028152600401602060405180830381600087803b158015613dac57600080fd5b505af1158015613dc0573d6000803e3d6000fd5b505050506040513d6020811015613dd657600080fd5b81019080805190602001909291905050509250600f60009054906101000a900473ffffffffffffffffffffffffffffffffffffffff1673ffffffffffffffffffffffffffffffffffffffff1663b1eb511b89886040518363ffffffff167c01000000000000000000000000000000000000000000000000000000000281526004018083815260200182815260200192505050600060405180830381600087803b158015613e8257600080fd5b505af1158015613e96573d6000803e3d6000fd5b50505050600f60009054906101000a900473ffffffffffffffffffffffffffffffffffffffff1673ffffffffffffffffffffffffffffffffffffffff166323b872dd30601160009054906101000a900473ffffffffffffffffffffffffffffffffffffffff16866040518463ffffffff167c0100000000000000000000000000000000000000000000000000000000028152600401808473ffffffffffffffffffffffffffffffffffffffff1673ffffffffffffffffffffffffffffffffffffffff1681526020018373ffffffffffffffffffffffffffffffffffffffff1673ffffffffffffffffffffffffffffffffffffffff1681526020018281526020019350505050600060405180830381600087803b158015613fb557600080fd5b505af1158015613fc9573d6000803e3d6000fd5b50505050600f60009054906101000a900473ffffffffffffffffffffffffffffffffffffffff1673ffffffffffffffffffffffffffffffffffffffff166323b872dd308660010160009054906101000a900473ffffffffffffffffffffffffffffffffffffffff168b6040518463ffffffff167c0100000000000000000000000000000000000000000000000000000000028152600401808473ffffffffffffffffffffffffffffffffffffffff1673ffffffffffffffffffffffffffffffffffffffff1681526020018373ffffffffffffffffffffffffffffffffffffffff1673ffffffffffffffffffffffffffffffffffffffff1681526020018281526020019350505050600060405180830381600087803b1580156140ea57600080fd5b505af11580156140fe573d6000803e3d6000fd5b505050507f6420256322ce1b4f6410d00b6a790226862fff2507e569b9117abcefcae948a28a8560010160009054906101000a900473ffffffffffffffffffffffffffffffffffffffff168d87600201548d89600301548a600501548f42604051808a81526020018973ffffffffffffffffffffffffffffffffffffffff1673ffffffffffffffffffffffffffffffffffffffff1681526020018873ffffffffffffffffffffffffffffffffffffffff1673ffffffffffffffffffffffffffffffffffffffff168152602001878152602001868152602001858152602001848152602001838152602001828152602001995050505050505050505060405180910390a15b5b601160009054906101000a900473ffffffffffffffffffffffffffffffffffffffff1673ffffffffffffffffffffffffffffffffffffffff166108fc889081150290604051600060405180830381858888f1935050505015801561426b573d6000803e3d6000fd5b508a73ffffffffffffffffffffffffffffffffffffffff166108fc886142b2600b546142a489600301548f612e8a90919063ffffffff16565b612ec290919063ffffffff16565b039081150290604051600060405180830381858888f193505050501580156142de573d6000803e3d6000fd5b5061511e565b6000600654111580614321575061431c600b5461430e86600301548c612e8a90919063ffffffff16565b612ec290919063ffffffff16565b600654105b1561432f576000945061514a565b61436e61435d600b5461434f87600301548d612e8a90919063ffffffff16565b612ec290919063ffffffff16565b60065461515890919063ffffffff16565b600681905550601160009054906101000a900473ffffffffffffffffffffffffffffffffffffffff1673ffffffffffffffffffffffffffffffffffffffff166108fc879081150290604051600060405180830381858888f193505050501580156143dc573d6000803e3d6000fd5b508360010160009054906101000a900473ffffffffffffffffffffffffffffffffffffffff1673ffffffffffffffffffffffffffffffffffffffff166108fc87614447600b5461443989600301548f612e8a90919063ffffffff16565b612ec290919063ffffffff16565b039081150290604051600060405180830381858888f19350505050158015614473573d6000803e3d6000fd5b50600f60009054906101000a900473ffffffffffffffffffffffffffffffffffffffff1673ffffffffffffffffffffffffffffffffffffffff16639980ec8685600801546040518263ffffffff167c010000000000000000000000000000000000000000000000000000000002815260040180828152602001915050602060405180830381600087803b15801561450957600080fd5b505af115801561451d573d6000803e3d6000fd5b505050506040513d602081101561453357600080fd5b8101908080519060200190929190505050891015614b8557600f60009054906101000a900473ffffffffffffffffffffffffffffffffffffffff1673ffffffffffffffffffffffffffffffffffffffff16637017d4f16040518163ffffffff167c0100000000000000000000000000000000000000000000000000000000028152600401602060405180830381600087803b1580156145d157600080fd5b505af11580156145e5573d6000803e3d6000fd5b505050506040513d60208110156145fb57600080fd5b81019080805190602001909291905050509250600f60009054906101000a900473ffffffffffffffffffffffffffffffffffffffff1673ffffffffffffffffffffffffffffffffffffffff1663b1eb511b8560080154896040518363ffffffff167c01000000000000000000000000000000000000000000000000000000000281526004018083815260200182815260200192505050600060405180830381600087803b1580156146ab57600080fd5b505af11580156146bf573d6000803e3d6000fd5b50505050600f60009054906101000a900473ffffffffffffffffffffffffffffffffffffffff1673ffffffffffffffffffffffffffffffffffffffff166323b872dd30601160009054906101000a900473ffffffffffffffffffffffffffffffffffffffff16866040518463ffffffff167c0100000000000000000000000000000000000000000000000000000000028152600401808473ffffffffffffffffffffffffffffffffffffffff1673ffffffffffffffffffffffffffffffffffffffff1681526020018373ffffffffffffffffffffffffffffffffffffffff1673ffffffffffffffffffffffffffffffffffffffff1681526020018281526020019350505050600060405180830381600087803b1580156147de57600080fd5b505af11580156147f2573d6000803e3d6000fd5b50505050600f60009054906101000a900473ffffffffffffffffffffffffffffffffffffffff1673ffffffffffffffffffffffffffffffffffffffff16637017d4f16040518163ffffffff167c0100000000000000000000000000000000000000000000000000000000028152600401602060405180830381600087803b15801561487c57600080fd5b505af1158015614890573d6000803e3d6000fd5b505050506040513d60208110156148a657600080fd5b81019080805190602001909291905050509050600f60009054906101000a900473ffffffffffffffffffffffffffffffffffffffff1673ffffffffffffffffffffffffffffffffffffffff1663b1eb511b8560080154898c036040518363ffffffff167c01000000000000000000000000000000000000000000000000000000000281526004018083815260200182815260200192505050600060405180830381600087803b15801561495857600080fd5b505af115801561496c573d6000803e3d6000fd5b50505050600f60009054906101000a900473ffffffffffffffffffffffffffffffffffffffff1673ffffffffffffffffffffffffffffffffffffffff166323b872dd308d846040518463ffffffff167c0100000000000000000000000000000000000000000000000000000000028152600401808473ffffffffffffffffffffffffffffffffffffffff1673ffffffffffffffffffffffffffffffffffffffff1681526020018373ffffffffffffffffffffffffffffffffffffffff1673ffffffffffffffffffffffffffffffffffffffff1681526020018281526020019350505050600060405180830381600087803b158015614a6957600080fd5b505af1158015614a7d573d6000803e3d6000fd5b505050507f6420256322ce1b4f6410d00b6a790226862fff2507e569b9117abcefcae948a28a8560010160009054906101000a900473ffffffffffffffffffffffffffffffffffffffff168d87600201548d89600301548a600501548842604051808a81526020018973ffffffffffffffffffffffffffffffffffffffff1673ffffffffffffffffffffffffffffffffffffffff1681526020018873ffffffffffffffffffffffffffffffffffffffff1673ffffffffffffffffffffffffffffffffffffffff168152602001878152602001868152602001858152602001848152602001838152602001828152602001995050505050505050505060405180910390a161511d565b600f60009054906101000a900473ffffffffffffffffffffffffffffffffffffffff1673ffffffffffffffffffffffffffffffffffffffff16639980ec86896040518263ffffffff167c010000000000000000000000000000000000000000000000000000000002815260040180828152602001915050602060405180830381600087803b158015614c1657600080fd5b505af1158015614c2a573d6000803e3d6000fd5b505050506040513d6020811015614c4057600080fd5b810190808051906020019092919050505089141561511c57600f60009054906101000a900473ffffffffffffffffffffffffffffffffffffffff1673ffffffffffffffffffffffffffffffffffffffff16637017d4f16040518163ffffffff167c0100000000000000000000000000000000000000000000000000000000028152600401602060405180830381600087803b158015614cde57600080fd5b505af1158015614cf2573d6000803e3d6000fd5b505050506040513d6020811015614d0857600080fd5b81019080805190602001909291905050509250600f60009054906101000a900473ffffffffffffffffffffffffffffffffffffffff1673ffffffffffffffffffffffffffffffffffffffff1663b1eb511b8560080154896040518363ffffffff167c01000000000000000000000000000000000000000000000000000000000281526004018083815260200182815260200192505050600060405180830381600087803b158015614db857600080fd5b505af1158015614dcc573d6000803e3d6000fd5b50505050600f60009054906101000a900473ffffffffffffffffffffffffffffffffffffffff1673ffffffffffffffffffffffffffffffffffffffff166323b872dd30601160009054906101000a900473ffffffffffffffffffffffffffffffffffffffff16866040518463ffffffff167c0100000000000000000000000000000000000000000000000000000000028152600401808473ffffffffffffffffffffffffffffffffffffffff1673ffffffffffffffffffffffffffffffffffffffff1681526020018373ffffffffffffffffffffffffffffffffffffffff1673ffffffffffffffffffffffffffffffffffffffff1681526020018281526020019350505050600060405180830381600087803b158015614eeb57600080fd5b505af1158015614eff573d6000803e3d6000fd5b50505050600f60009054906101000a900473ffffffffffffffffffffffffffffffffffffffff1673ffffffffffffffffffffffffffffffffffffffff166323b872dd308d87600801546040518463ffffffff167c0100000000000000000000000000000000000000000000000000000000028152600401808473ffffffffffffffffffffffffffffffffffffffff1673ffffffffffffffffffffffffffffffffffffffff1681526020018373ffffffffffffffffffffffffffffffffffffffff1673ffffffffffffffffffffffffffffffffffffffff1681526020018281526020019350505050600060405180830381600087803b15801561500057600080fd5b505af1158015615014573d6000803e3d6000fd5b505050507f6420256322ce1b4f6410d00b6a790226862fff2507e569b9117abcefcae948a28a8560010160009054906101000a900473ffffffffffffffffffffffffffffffffffffffff168d87600201548d89600301548a600501548b6008015442604051808a81526020018973ffffffffffffffffffffffffffffffffffffffff1673ffffffffffffffffffffffffffffffffffffffff1681526020018873ffffffffffffffffffffffffffffffffffffffff1673ffffffffffffffffffffffffffffffffffffffff168152602001878152602001868152602001858152602001848152602001838152602001828152602001995050505050505050505060405180910390a15b5b5b888460020154038460020181905550600084600201541415615145576151438a6115a1565b505b600194505b505050509695505050505050565b600082821115151561516657fe5b818303905092915050565b6000806000600560008673ffffffffffffffffffffffffffffffffffffffff1673ffffffffffffffffffffffffffffffffffffffff168152602001908152602001600020600085815260200190815260200160002054925061521f6001600460008873ffffffffffffffffffffffffffffffffffffffff1673ffffffffffffffffffffffffffffffffffffffff1681526020019081526020016000208054905061515890919063ffffffff16565b9150600460008673ffffffffffffffffffffffffffffffffffffffff1673ffffffffffffffffffffffffffffffffffffffff1681526020019081526020016000208281548110151561526d57fe5b9060005260206000200154905080600460008773ffffffffffffffffffffffffffffffffffffffff1673ffffffffffffffffffffffffffffffffffffffff168152602001908152602001600020848154811015156152c757fe5b90600052602060002001819055506000600460008773ffffffffffffffffffffffffffffffffffffffff1673ffffffffffffffffffffffffffffffffffffffff1681526020019081526020016000208381548110151561532357fe5b9060005260206000200181905550600460008673ffffffffffffffffffffffffffffffffffffffff1673ffffffffffffffffffffffffffffffffffffffff16815260200190815260200160002080548091906001900361538391906155c3565b506000600560008773ffffffffffffffffffffffffffffffffffffffff1673ffffffffffffffffffffffffffffffffffffffff16815260200190815260200160002060008681526020019081526020016000208190555082600560008773ffffffffffffffffffffffffffffffffffffffff1673ffffffffffffffffffffffffffffffffffffffff1681526020019081526020016000206000838152602001908152602001600020819055505050505050565b6000600460008473ffffffffffffffffffffffffffffffffffffffff1673ffffffffffffffffffffffffffffffffffffffff168152602001908152602001600020805490509050600460008473ffffffffffffffffffffffffffffffffffffffff1673ffffffffffffffffffffffffffffffffffffffff16815260200190815260200160002082908060018154018082558091505090600182039060005260206000200160009091929091909150555080600560008573ffffffffffffffffffffffffffffffffffffffff1673ffffffffffffffffffffffffffffffffffffffff168152602001908152602001600020600084815260200190815260200160002081905550505050565b6101406040519081016040528060008152602001600073ffffffffffffffffffffffffffffffffffffffff168152602001600073ffffffffffffffffffffffffffffffffffffffff191681526020016000815260200160008152602001600015158152602001600081526020016000815260200160008152602001600081525090565b8154818355818111156155ea578183600052602060002091820191016155e991906155ef565b5b505050565b61561191905b8082111561560d5760008160009055506001016155f5565b5090565b905600a165627a7a723058209c63a4596c586e8a4509fff4e873a1255a1509c22deb006dd9b734720669bd390029",
  "source": "pragma solidity ^0.4.24;\n\nimport \"openzeppelin-solidity/contracts/math/SafeMath.sol\";\nimport \"openzeppelin-solidity/contracts/ReentrancyGuard.sol\";\nimport \"openzeppelin-solidity/contracts/ownership/Ownable.sol\";\nimport \"./LeasedEmblem.sol\";\nimport \"./Emblem.sol\";\n\ncontract ExistingLeaseExchange is ReentrancyGuard,Ownable {\n  using SafeMath for uint256;\n\n  struct Order {\n    uint256 id;\n    address maker;\n    bytes12 makerVanity;\n    uint256 amount;\n    uint256 price;\n    bool demand;\n    uint256 duration;\n    uint256 createdAt;\n    uint256 tradeExpiry;\n    uint256 lembId;\n  }\n\n  // order id -> order\n  mapping(uint256 => Order) public orders;\n\n  // Array with all order ids, used for enumeration\n  uint256[]  allOrders;\n\n  // Mapping from order id to position in the allOrders array\n  mapping(uint256 => uint256)  allOrdersIndex;\n\n  // Mapping from owner to list of owned order IDs\n  mapping(address => uint256[])  ownedOrders;\n\n  // Mapping from owner to map of order ID to index of the owner orders list\n  mapping(address => mapping (uint256 => uint256))  ownedOrdersIndex;\n\n  // weiSend of current tx\n  uint256 private weiSend = 0;\n\n  uint256 private highestId = 1;\n\n  uint256 sixMonths       = 15768000;\n  uint256 twelveMonths    = 31536000;\n  uint256 twentyFourMonths = 63072000;\n\n  uint256 EMBPrecision = (10 ** 8);\n\n  uint256 makerFee = 1;\n  uint256 takerFee = 1;\n  uint256 feeDenomination = 1000;\n\n  LeasedEmblem LEMB;\n  Emblem EMB;\n  address feeReciever;\n\n\n  // makes sure weiSend of current tx is reset\n  modifier weiSendGuard() {\n    weiSend = msg.value;\n    _;\n    weiSend = 0;\n  }\n\n  // logs\n  event OrderPlaced(uint256 id, address maker, uint256 amount, uint256 price, bool demand, uint256 duration, uint256 createdAt, uint256 lembId);\n\n  event OrderFilled(uint256 id, address maker, address taker, uint256 originalAmount, uint256 amountFilled, uint256 price, uint256 duration, uint256 lembId, uint256 fulfilledAt);\n\n  event OrderCancelled(uint256 id, address maker, uint256 amount, uint256 price, bool demand, uint256 duration, uint256 createdAt);\n\n  constructor(address _emb, address _lemb, address _feeReciever) public {\n    EMB = Emblem(_emb);\n    LEMB = LeasedEmblem(_lemb);\n    feeReciever = _feeReciever;\n  }\n\n  function setFees(uint256 _makerFee, uint256 _takerFee, uint256 _denomination) public onlyOwner {\n    require(_makerFee < _denomination && _takerFee < _denomination);\n    makerFee = _makerFee;\n    takerFee = _takerFee;\n    feeDenomination = _denomination;\n  }\n\n  function getFee(address owner, bytes12 vanity, bool isMaker) public view returns (uint256){\n    if(EMB.getVanityOwner(vanity) == owner && EMB.enabledVanityFee(vanity)) return EMB.getFee(vanity);\n    else {\n      if(isMaker) return makerFee;\n      else return takerFee;\n    }\n  }\n\n  function exists(uint256 id) public view returns (bool) {\n    return (orders[id].id == id);\n  }\n\n  function getNewId() public view returns(uint256) {\n    return highestId;\n  }\n\n  function _placeOrder(address maker, uint256 price, uint256 amount, uint256 lembId, bool demand, uint256 duration, uint256 tradeDuration, bytes12 vanity) internal returns (bool){\n\n    uint256 id = getNewId();\n    // validate input\n    if (\n      amount <= 0 ||\n      price <= 0 ||\n      amount.mul(price) < (EMBPrecision) ||\n      (duration != sixMonths && duration != twelveMonths && duration != twentyFourMonths)\n    ) return (false);\n\n    if(demand) {\n      if(weiSend <= 0 || weiSend < amount.mul(price).div(EMBPrecision) || tradeDuration <= 0 || tradeDuration > sixMonths) return (false);\n    }\n    else {\n      if(duration != LEMB.getDuration(lembId) || !LEMB.exists(lembId) || LEMB.ownerOf(lembId) != maker || amount > LEMB.getAmount(lembId) || LEMB.getApproved(lembId) != address(this)) return (false);\n    }\n\n    if(demand) {\n      weiSend = weiSend.sub(amount.mul(price).div(EMBPrecision));\n      orders[id] = Order(id, maker,vanity, amount, price, demand, duration,now,now + tradeDuration,0);\n      emit OrderPlaced(id, maker, amount, price,demand, duration,now,0);\n    }\n    else {\n      LEMB.transferFrom(maker, this, lembId);\n      if(amount < LEMB.getAmount(lembId)){\n        uint256 newLembId = LEMB.getNewId();\n        LEMB.splitLEMB(lembId, amount);\n        LEMB.transferFrom(this,maker,lembId);\n        orders[id] = Order(id, maker,vanity, amount, price, demand, duration,now,LEMB.getTradeExpiry(lembId),newLembId);\n        emit OrderPlaced(id, maker, amount, price,demand, duration,now,newLembId);\n      }\n      else if(amount == LEMB.getAmount(lembId)){\n        orders[id] = Order(id, maker,vanity, amount, price, demand, duration,now,LEMB.getTradeExpiry(lembId),lembId);\n        emit OrderPlaced(id, maker, amount, price,demand, duration,now,lembId);\n      }\n    }\n\n    allOrders.push(id);\n    allOrdersIndex[id] = allOrders.length.sub(1);\n    _addOrderToUser(maker, id);\n\n    highestId = highestId + 1;\n\n    return (true);\n  }\n\n  function _takeOrder(address taker, uint256 id, uint256 amount, uint256 lembId, uint256 fee_taker, uint256 fee_maker) internal returns (bool) {\n    // validate inputs\n\n    if (id <= 0) return (false);\n\n    // get order\n    Order storage order = orders[id];\n\n    // validate order\n    if (\n      order.id != id ||\n      amount <= 0\n    ) return (false);\n\n    //if above, set amount to that of the order's amount\n    if(amount > order.amount) amount = order.amount;\n\n    if(order.demand){\n\n      //ensure that you cannot game the allowance of EMB\n      if(!LEMB.exists(lembId) || LEMB.ownerOf(lembId) != taker || amount > LEMB.getAmount(lembId) || LEMB.getApproved(lembId) != address(this)) return (false);\n\n      //transfer EMB from taker to Lease Address\n      LEMB.transferFrom(taker, this, lembId);\n\n      if(amount < LEMB.getAmount(lembId)){\n        //split the LEMB for the fee Reciever\n        uint256 feeRecieverLembId = LEMB.getNewId();\n        LEMB.splitLEMB(lembId, fee_maker);\n        LEMB.transferFrom(this,feeReciever,feeRecieverLembId);\n\n        //split the LEMB for the maker\n        uint256 makerLembId = LEMB.getNewId();\n        LEMB.splitLEMB(lembId, amount - fee_maker);\n        LEMB.transferFrom(this,order.maker,makerLembId);\n\n        //send back leftover LEMB\n        LEMB.transferFrom(this,taker,lembId);\n\n        emit OrderFilled(id, order.maker, taker, order.amount, amount, order.price, order.duration, makerLembId, now);\n      }\n      else if(amount == LEMB.getAmount(lembId)){\n\n        //split the LEMB for the fee Reciever\n        feeRecieverLembId = LEMB.getNewId();\n        LEMB.splitLEMB(lembId, fee_maker);\n        LEMB.transferFrom(this,feeReciever,feeRecieverLembId);\n\n        //send the rest of the lembId to the maker\n        LEMB.transferFrom(this,order.maker,lembId);\n\n        emit OrderFilled(id, order.maker, taker, order.amount, amount, order.price, order.duration, lembId, now);\n      }\n\n      //\n      feeReciever.transfer(fee_taker);\n\n      //pay taker\n      taker.transfer(amount.mul(order.price).div(EMBPrecision) - fee_taker);\n    }\n    else {\n\n      //ensure that you have sent the right amount of eth\n      if (weiSend <= 0 || weiSend < amount.mul(order.price).div(EMBPrecision)) return (false);\n\n      //pay maker\n      weiSend = weiSend.sub(amount.mul(order.price).div(EMBPrecision));\n\n      feeReciever.transfer(fee_maker);\n      order.maker.transfer(amount.mul(order.price).div(EMBPrecision) - fee_maker);\n\n      //create LEMB for the taker\n      if(amount < LEMB.getAmount(order.lembId)){\n\n        //pay feeReciever\n        feeRecieverLembId = LEMB.getNewId();\n        LEMB.splitLEMB(order.lembId, fee_taker);\n        LEMB.transferFrom(this,feeReciever,feeRecieverLembId);\n\n        //pay fee Taker\n        uint256 takerLembId = LEMB.getNewId();\n        LEMB.splitLEMB(order.lembId, amount - fee_taker);\n        LEMB.transferFrom(this,taker,takerLembId);\n\n        emit OrderFilled(id, order.maker, taker, order.amount, amount, order.price, order.duration, takerLembId, now);\n      }\n      else if(amount == LEMB.getAmount(lembId)){\n\n        //split the LEMB for the fee Reciever\n        feeRecieverLembId = LEMB.getNewId();\n        LEMB.splitLEMB(order.lembId, fee_taker);\n        LEMB.transferFrom(this,feeReciever,feeRecieverLembId);\n\n        LEMB.transferFrom(this,taker,order.lembId);\n        emit OrderFilled(id, order.maker, taker, order.amount, amount, order.price, order.duration, order.lembId, now);\n      }\n    }\n\n    order.amount = order.amount - amount;\n\n    if(order.amount == 0){\n      _deleteOrder(id);\n    }\n\n    return (true);\n  }\n\n  function _deleteOrder(uint256 id) internal returns (bool) {\n\n    if (\n      id <= 0 ||\n      orders[id].id != id\n    ) return (false);\n\n    // // Reorg all orders\n    uint256 orderIndex = allOrdersIndex[id];\n    uint256 lastOrderIndex = allOrders.length.sub(1);\n    uint256 lastOrder = allOrders[lastOrderIndex];\n    allOrders[orderIndex] = lastOrder;\n    allOrders[lastOrderIndex] = 0;\n    allOrdersIndex[id] = 0;\n    allOrdersIndex[lastOrder] = orderIndex;\n    allOrders.length--;\n\n    //pay back on cancellation\n    if(orders[id].amount !=0) {\n      if(orders[id].demand == false){\n        LEMB.transferFrom(this, orders[id].maker, orders[id].lembId);\n      }\n      else {\n        orders[id].maker.transfer(orders[id].amount.mul(orders[id].price).div(EMBPrecision));\n      }\n    }\n\n    //remove order from user\n    _removeOrderFromUser(orders[id].maker, id);\n\n    delete orders[id];\n\n    return (true);\n  }\n\n  function retrieveMyOrders() public view returns(uint256[]) {\n    return ownedOrders[msg.sender];\n  }\n\n  function retrieveOrders() public view returns(uint256[]) {\n    return allOrders;\n  }\n\n  function getOrderData(uint256 id) public view returns (\n    uint256,\n    uint256,\n    uint256,\n    uint256,\n    uint256,\n    address,\n    bool\n  ) {\n    require(orders[id].id == id);\n    return (orders[id].id,orders[id].amount,orders[id].price,orders[id].duration,orders[id].tradeExpiry,orders[id].maker,orders[id].demand);\n  }\n\n  function getLembId(uint256 id) public view returns (\n    uint256\n  ) {\n    require(orders[id].id == id);\n    return (orders[id].lembId);\n  }\n\n  function _addOrderToUser(address _to, uint256 _orderId) internal {\n    uint256 length = ownedOrders[_to].length;\n    ownedOrders[_to].push(_orderId);\n    ownedOrdersIndex[_to][_orderId] = length;\n  }\n\n  function _removeOrderFromUser(address _from, uint256 _orderId) internal {\n    uint256 orderIndex = ownedOrdersIndex[_from][_orderId];\n    uint256 lastOrderIndex = ownedOrders[_from].length.sub(1);\n    uint256 lastOrderId = ownedOrders[_from][lastOrderIndex];\n\n    ownedOrders[_from][orderIndex] = lastOrderId;\n    ownedOrders[_from][lastOrderIndex] = 0;\n    ownedOrders[_from].length--;\n\n    ownedOrdersIndex[_from][_orderId] = 0;\n    ownedOrdersIndex[_from][lastOrderId] = orderIndex;\n  }\n\n  function placeOrder(uint256 price, uint256 amount, bool demand, uint256 duration,uint256 tradeDuration,uint256 lembId,bytes12 vanity) external payable weiSendGuard nonReentrant returns (bool) {\n\n    bool success = _placeOrder(msg.sender, price, amount, lembId, demand, duration, tradeDuration,vanity);\n\n    if (weiSend > 0) msg.sender.transfer(weiSend);\n\n    return success;\n  }\n\n  function takeOrder(uint256 id, uint256 amount,uint256 lembId,bytes12 vanity)  external payable weiSendGuard nonReentrant returns (bool) {\n    Order memory order = orders[id];\n\n    require(order.id == id && id != 0);\n\n    if(order.demand){\n      uint256 fee_maker = amount.mul(getFee(order.maker, order.makerVanity, true)).div(feeDenomination);\n      uint256 fee_taker = amount.mul(order.price).div(EMBPrecision).mul(getFee(msg.sender, vanity, false)).div(feeDenomination);\n    }\n    else {\n      fee_maker = amount.mul(order.price).div(EMBPrecision).mul(getFee(order.maker, order.makerVanity, true)).div(feeDenomination);\n      fee_taker = amount.mul(getFee(msg.sender, vanity, false)).div(feeDenomination);\n    }\n\n    bool success = _takeOrder(msg.sender,id,amount,lembId,fee_taker,fee_maker);\n\n    //send back excess ETH\n    if (weiSend > 0) msg.sender.transfer(weiSend);\n\n    return success;\n  }\n\n  function cancelOrder(uint256 id) external nonReentrant returns (bool) {\n    require(\n      id > 0 &&\n      orders[id].id == id &&\n      orders[id].maker == msg.sender\n    );\n\n    uint256 amount = orders[id].amount;\n    uint256 price = orders[id].price;\n    bool demand = orders[id].demand;\n    uint256 duration = orders[id].duration;\n    uint256 createdAt = orders[id].createdAt;\n\n    bool success = _deleteOrder(id);\n    if(success) emit OrderCancelled(id, msg.sender, amount, price, demand, duration, createdAt);\n\n    return success;\n  }\n\n}\n",
  "sourcePath": "/Users/arjunjain/Emblem_Ethereum_Anchor/contracts/ExistingLeaseExchange.sol",
  "compiler": {
    "name": "solc",
    "version": "0.4.24+commit.e67f0147.Emscripten.clang"
  },
  "schemaVersion": "2.0.1",
  "updatedAt": "2021-01-05T02:48:56.109Z"
}