{
  "contractName": "ExistingLeaseExchange",
  "abi": [
    {
      "inputs": [
        {
          "internalType": "address",
          "name": "_emb",
          "type": "address"
        },
        {
          "internalType": "address",
          "name": "_lemb",
          "type": "address"
        },
        {
          "internalType": "address payable",
          "name": "_feeReciever",
          "type": "address"
        }
      ],
      "stateMutability": "nonpayable",
      "type": "constructor"
    },
    {
      "anonymous": false,
      "inputs": [
        {
          "indexed": false,
          "internalType": "uint256",
          "name": "id",
          "type": "uint256"
        },
        {
          "indexed": false,
          "internalType": "address",
          "name": "maker",
          "type": "address"
        },
        {
          "indexed": false,
          "internalType": "uint256",
          "name": "amount",
          "type": "uint256"
        },
        {
          "indexed": false,
          "internalType": "uint256",
          "name": "price",
          "type": "uint256"
        },
        {
          "indexed": false,
          "internalType": "bool",
          "name": "demand",
          "type": "bool"
        },
        {
          "indexed": false,
          "internalType": "uint256",
          "name": "duration",
          "type": "uint256"
        },
        {
          "indexed": false,
          "internalType": "uint256",
          "name": "createdAt",
          "type": "uint256"
        }
      ],
      "name": "OrderCancelled",
      "type": "event"
    },
    {
      "anonymous": false,
      "inputs": [
        {
          "indexed": false,
          "internalType": "uint256",
          "name": "id",
          "type": "uint256"
        },
        {
          "indexed": false,
          "internalType": "address",
          "name": "maker",
          "type": "address"
        },
        {
          "indexed": false,
          "internalType": "address",
          "name": "taker",
          "type": "address"
        },
        {
          "indexed": false,
          "internalType": "uint256",
          "name": "originalAmount",
          "type": "uint256"
        },
        {
          "indexed": false,
          "internalType": "uint256",
          "name": "amountFilled",
          "type": "uint256"
        },
        {
          "indexed": false,
          "internalType": "uint256",
          "name": "price",
          "type": "uint256"
        },
        {
          "indexed": false,
          "internalType": "uint256",
          "name": "duration",
          "type": "uint256"
        },
        {
          "indexed": false,
          "internalType": "uint256",
          "name": "lembId",
          "type": "uint256"
        },
        {
          "indexed": false,
          "internalType": "uint256",
          "name": "fulfilledAt",
          "type": "uint256"
        }
      ],
      "name": "OrderFilled",
      "type": "event"
    },
    {
      "anonymous": false,
      "inputs": [
        {
          "indexed": false,
          "internalType": "uint256",
          "name": "id",
          "type": "uint256"
        },
        {
          "indexed": false,
          "internalType": "address",
          "name": "maker",
          "type": "address"
        },
        {
          "indexed": false,
          "internalType": "uint256",
          "name": "amount",
          "type": "uint256"
        },
        {
          "indexed": false,
          "internalType": "uint256",
          "name": "price",
          "type": "uint256"
        },
        {
          "indexed": false,
          "internalType": "bool",
          "name": "demand",
          "type": "bool"
        },
        {
          "indexed": false,
          "internalType": "uint256",
          "name": "duration",
          "type": "uint256"
        },
        {
          "indexed": false,
          "internalType": "uint256",
          "name": "createdAt",
          "type": "uint256"
        },
        {
          "indexed": false,
          "internalType": "uint256",
          "name": "lembId",
          "type": "uint256"
        }
      ],
      "name": "OrderPlaced",
      "type": "event"
    },
    {
      "anonymous": false,
      "inputs": [
        {
          "indexed": true,
          "internalType": "address",
          "name": "previousOwner",
          "type": "address"
        },
        {
          "indexed": true,
          "internalType": "address",
          "name": "newOwner",
          "type": "address"
        }
      ],
      "name": "OwnershipTransferred",
      "type": "event"
    },
    {
      "inputs": [
        {
          "internalType": "uint256",
          "name": "",
          "type": "uint256"
        }
      ],
      "name": "orders",
      "outputs": [
        {
          "internalType": "uint256",
          "name": "id",
          "type": "uint256"
        },
        {
          "internalType": "address payable",
          "name": "maker",
          "type": "address"
        },
        {
          "internalType": "bytes12",
          "name": "makerVanity",
          "type": "bytes12"
        },
        {
          "internalType": "uint256",
          "name": "amount",
          "type": "uint256"
        },
        {
          "internalType": "uint256",
          "name": "price",
          "type": "uint256"
        },
        {
          "internalType": "bool",
          "name": "demand",
          "type": "bool"
        },
        {
          "internalType": "uint256",
          "name": "duration",
          "type": "uint256"
        },
        {
          "internalType": "uint256",
          "name": "createdAt",
          "type": "uint256"
        },
        {
          "internalType": "uint256",
          "name": "tradeExpiry",
          "type": "uint256"
        },
        {
          "internalType": "uint256",
          "name": "lembId",
          "type": "uint256"
        }
      ],
      "stateMutability": "view",
      "type": "function"
    },
    {
      "inputs": [],
      "name": "owner",
      "outputs": [
        {
          "internalType": "address",
          "name": "",
          "type": "address"
        }
      ],
      "stateMutability": "view",
      "type": "function"
    },
    {
      "inputs": [],
      "name": "renounceOwnership",
      "outputs": [],
      "stateMutability": "nonpayable",
      "type": "function"
    },
    {
      "inputs": [
        {
          "internalType": "address",
          "name": "newOwner",
          "type": "address"
        }
      ],
      "name": "transferOwnership",
      "outputs": [],
      "stateMutability": "nonpayable",
      "type": "function"
    },
    {
      "inputs": [
        {
          "internalType": "uint256",
          "name": "_makerFee",
          "type": "uint256"
        },
        {
          "internalType": "uint256",
          "name": "_takerFee",
          "type": "uint256"
        },
        {
          "internalType": "uint256",
          "name": "_denomination",
          "type": "uint256"
        }
      ],
      "name": "setFees",
      "outputs": [],
      "stateMutability": "nonpayable",
      "type": "function"
    },
    {
      "inputs": [
        {
          "internalType": "address",
          "name": "owner",
          "type": "address"
        },
        {
          "internalType": "bytes12",
          "name": "vanity",
          "type": "bytes12"
        },
        {
          "internalType": "bool",
          "name": "isMaker",
          "type": "bool"
        }
      ],
      "name": "getFee",
      "outputs": [
        {
          "internalType": "uint256",
          "name": "",
          "type": "uint256"
        }
      ],
      "stateMutability": "view",
      "type": "function"
    },
    {
      "inputs": [
        {
          "internalType": "uint256",
          "name": "id",
          "type": "uint256"
        }
      ],
      "name": "exists",
      "outputs": [
        {
          "internalType": "bool",
          "name": "",
          "type": "bool"
        }
      ],
      "stateMutability": "view",
      "type": "function"
    },
    {
      "inputs": [],
      "name": "getNewId",
      "outputs": [
        {
          "internalType": "uint256",
          "name": "",
          "type": "uint256"
        }
      ],
      "stateMutability": "view",
      "type": "function"
    },
    {
      "inputs": [],
      "name": "retrieveMyOrders",
      "outputs": [
        {
          "internalType": "uint256[]",
          "name": "",
          "type": "uint256[]"
        }
      ],
      "stateMutability": "view",
      "type": "function"
    },
    {
      "inputs": [],
      "name": "retrieveOrders",
      "outputs": [
        {
          "internalType": "uint256[]",
          "name": "",
          "type": "uint256[]"
        }
      ],
      "stateMutability": "view",
      "type": "function"
    },
    {
      "inputs": [
        {
          "internalType": "uint256",
          "name": "id",
          "type": "uint256"
        }
      ],
      "name": "getOrderData",
      "outputs": [
        {
          "internalType": "uint256",
          "name": "",
          "type": "uint256"
        },
        {
          "internalType": "uint256",
          "name": "",
          "type": "uint256"
        },
        {
          "internalType": "uint256",
          "name": "",
          "type": "uint256"
        },
        {
          "internalType": "uint256",
          "name": "",
          "type": "uint256"
        },
        {
          "internalType": "uint256",
          "name": "",
          "type": "uint256"
        },
        {
          "internalType": "address",
          "name": "",
          "type": "address"
        },
        {
          "internalType": "bool",
          "name": "",
          "type": "bool"
        }
      ],
      "stateMutability": "view",
      "type": "function"
    },
    {
      "inputs": [
        {
          "internalType": "uint256",
          "name": "id",
          "type": "uint256"
        }
      ],
      "name": "getLembId",
      "outputs": [
        {
          "internalType": "uint256",
          "name": "",
          "type": "uint256"
        }
      ],
      "stateMutability": "view",
      "type": "function"
    },
    {
      "inputs": [
        {
          "internalType": "uint256",
          "name": "price",
          "type": "uint256"
        },
        {
          "internalType": "uint256",
          "name": "amount",
          "type": "uint256"
        },
        {
          "internalType": "bool",
          "name": "demand",
          "type": "bool"
        },
        {
          "internalType": "uint256",
          "name": "duration",
          "type": "uint256"
        },
        {
          "internalType": "uint256",
          "name": "tradeDuration",
          "type": "uint256"
        },
        {
          "internalType": "uint256",
          "name": "lembId",
          "type": "uint256"
        },
        {
          "internalType": "bytes12",
          "name": "vanity",
          "type": "bytes12"
        }
      ],
      "name": "placeOrder",
      "outputs": [
        {
          "internalType": "bool",
          "name": "",
          "type": "bool"
        }
      ],
      "stateMutability": "payable",
      "type": "function"
    },
    {
      "inputs": [
        {
          "internalType": "uint256",
          "name": "id",
          "type": "uint256"
        },
        {
          "internalType": "uint256",
          "name": "amount",
          "type": "uint256"
        },
        {
          "internalType": "uint256",
          "name": "lembId",
          "type": "uint256"
        },
        {
          "internalType": "bytes12",
          "name": "vanity",
          "type": "bytes12"
        }
      ],
      "name": "takeOrder",
      "outputs": [
        {
          "internalType": "bool",
          "name": "",
          "type": "bool"
        }
      ],
      "stateMutability": "payable",
      "type": "function"
    },
    {
      "inputs": [
        {
          "internalType": "uint256",
          "name": "id",
          "type": "uint256"
        }
      ],
      "name": "cancelOrder",
      "outputs": [
        {
          "internalType": "bool",
          "name": "",
          "type": "bool"
        }
      ],
      "stateMutability": "nonpayable",
      "type": "function"
    }
  ],
  "bytecode": "0x60806040526000600755600160085562f099c06009556301e13380600a556303c26700600b556305f5e100600c556001600d556001600e556103e8600f553480156200004a57600080fd5b506040516200519838038062005198833981810160405260608110156200007057600080fd5b8101908080519060200190929190805190602001909291908051906020019092919050505060016000819055506000620000af6200021a60201b60201c565b905080600160006101000a81548173ffffffffffffffffffffffffffffffffffffffff021916908373ffffffffffffffffffffffffffffffffffffffff1602179055508073ffffffffffffffffffffffffffffffffffffffff16600073ffffffffffffffffffffffffffffffffffffffff167f8be0079c531659141344cd1fd0a4f28419497f9722a3daafe3b4186f6b6457e060405160405180910390a35082601160006101000a81548173ffffffffffffffffffffffffffffffffffffffff021916908373ffffffffffffffffffffffffffffffffffffffff16021790555081601060006101000a81548173ffffffffffffffffffffffffffffffffffffffff021916908373ffffffffffffffffffffffffffffffffffffffff16021790555080601260006101000a81548173ffffffffffffffffffffffffffffffffffffffff021916908373ffffffffffffffffffffffffffffffffffffffff16021790555050505062000222565b600033905090565b614f6680620002326000396000f3fe6080604052600436106100e85760003560e01c80639ebec7ab1161008a578063cec10c1111610059578063cec10c1114610520578063cef88df41461056f578063f2fde38b14610601578063f993c62114610652576100e8565b80639ebec7ab1461033c578063a85c38ef146103a8578063bd39833914610465578063c4934116146104d1576100e8565b8063715018a6116100c6578063715018a6146101ba5780638da5cb5b146101d157806395178c681461021257806395eefab7146102a3576100e8565b80634f558e79146100ed578063514fcac71461013e5780637017d4f11461018f575b600080fd5b3480156100f957600080fd5b506101266004803603602081101561011057600080fd5b81019080803590602001909291905050506106cb565b60405180821515815260200191505060405180910390f35b34801561014a57600080fd5b506101776004803603602081101561016157600080fd5b81019080803590602001909291905050506106ed565b60405180821515815260200191505060405180910390f35b34801561019b57600080fd5b506101a4610948565b6040518082815260200191505060405180910390f35b3480156101c657600080fd5b506101cf610952565b005b3480156101dd57600080fd5b506101e6610add565b604051808273ffffffffffffffffffffffffffffffffffffffff16815260200191505060405180910390f35b34801561021e57600080fd5b5061024b6004803603602081101561023557600080fd5b8101908080359060200190929190505050610b07565b604051808881526020018781526020018681526020018581526020018481526020018373ffffffffffffffffffffffffffffffffffffffff168152602001821515815260200197505050505050505060405180910390f35b610324600480360360e08110156102b957600080fd5b810190808035906020019092919080359060200190929190803515159060200190929190803590602001909291908035906020019092919080359060200190929190803573ffffffffffffffffffffffffffffffffffffffff19169060200190929190505050610c1b565b60405180821515815260200191505060405180910390f35b34801561034857600080fd5b50610351610d2d565b6040518080602001828103825283818151815260200191508051906020019060200280838360005b83811015610394578082015181840152602081019050610379565b505050509050019250505060405180910390f35b3480156103b457600080fd5b506103e1600480360360208110156103cb57600080fd5b8101908080359060200190929190505050610d85565b604051808b81526020018a73ffffffffffffffffffffffffffffffffffffffff1681526020018973ffffffffffffffffffffffffffffffffffffffff1916815260200188815260200187815260200186151581526020018581526020018481526020018381526020018281526020019a505050505050505050505060405180910390f35b34801561047157600080fd5b5061047a610e13565b6040518080602001828103825283818151815260200191508051906020019060200280838360005b838110156104bd5780820151818401526020810190506104a2565b505050509050019250505060405180910390f35b3480156104dd57600080fd5b5061050a600480360360208110156104f457600080fd5b8101908080359060200190929190505050610ea8565b6040518082815260200191505060405180910390f35b34801561052c57600080fd5b5061056d6004803603606081101561054357600080fd5b81019080803590602001909291908035906020019092919080359060200190929190505050610eea565b005b34801561057b57600080fd5b506105eb6004803603606081101561059257600080fd5b81019080803573ffffffffffffffffffffffffffffffffffffffff169060200190929190803573ffffffffffffffffffffffffffffffffffffffff19169060200190929190803515159060200190929190505050610fe5565b6040518082815260200191505060405180910390f35b34801561060d57600080fd5b506106506004803603602081101561062457600080fd5b81019080803573ffffffffffffffffffffffffffffffffffffffff169060200190929190505050611295565b005b6106b36004803603608081101561066857600080fd5b81019080803590602001909291908035906020019092919080359060200190929190803573ffffffffffffffffffffffffffffffffffffffff191690602001909291905050506114a5565b60405180821515815260200191505060405180910390f35b6000816002600084815260200190815260200160002060000154149050919050565b600060026000541415610768576040517f08c379a000000000000000000000000000000000000000000000000000000000815260040180806020018281038252601f8152602001807f5265656e7472616e637947756172643a207265656e7472616e742063616c6c0081525060200191505060405180910390fd5b60026000819055506000821180156107955750816002600084815260200190815260200160002060000154145b801561080257503373ffffffffffffffffffffffffffffffffffffffff166002600084815260200190815260200160002060010160009054906101000a900473ffffffffffffffffffffffffffffffffffffffff1673ffffffffffffffffffffffffffffffffffffffff16145b61080b57600080fd5b60006002600084815260200190815260200160002060020154905060006002600085815260200190815260200160002060030154905060006002600086815260200190815260200160002060040160009054906101000a900460ff16905060006002600087815260200190815260200160002060050154905060006002600088815260200190815260200160002060060154905060006108aa8861184f565b90508015610932577ff42459ddef5edd15de35c5fc8b33253ce0181c882e28da60d19d69a212def92988338888888888604051808881526020018773ffffffffffffffffffffffffffffffffffffffff168152602001868152602001858152602001841515815260200183815260200182815260200197505050505050505060405180910390a15b8096505050505050506001600081905550919050565b6000600854905090565b61095a611c6f565b73ffffffffffffffffffffffffffffffffffffffff16600160009054906101000a900473ffffffffffffffffffffffffffffffffffffffff1673ffffffffffffffffffffffffffffffffffffffff1614610a1c576040517f08c379a00000000000000000000000000000000000000000000000000000000081526004018080602001828103825260208152602001807f4f776e61626c653a2063616c6c6572206973206e6f7420746865206f776e657281525060200191505060405180910390fd5b600073ffffffffffffffffffffffffffffffffffffffff16600160009054906101000a900473ffffffffffffffffffffffffffffffffffffffff1673ffffffffffffffffffffffffffffffffffffffff167f8be0079c531659141344cd1fd0a4f28419497f9722a3daafe3b4186f6b6457e060405160405180910390a36000600160006101000a81548173ffffffffffffffffffffffffffffffffffffffff021916908373ffffffffffffffffffffffffffffffffffffffff160217905550565b6000600160009054906101000a900473ffffffffffffffffffffffffffffffffffffffff16905090565b600080600080600080600087600260008a81526020019081526020016000206000015414610b3457600080fd5b6002600089815260200190815260200160002060000154600260008a815260200190815260200160002060020154600260008b815260200190815260200160002060030154600260008c815260200190815260200160002060050154600260008d815260200190815260200160002060070154600260008e815260200190815260200160002060010160009054906101000a900473ffffffffffffffffffffffffffffffffffffffff16600260008f815260200190815260200160002060040160009054906101000a900460ff169650965096509650965096509650919395979092949650565b60003460078190555060026000541415610c9d576040517f08c379a000000000000000000000000000000000000000000000000000000000815260040180806020018281038252601f8152602001807f5265656e7472616e637947756172643a207265656e7472616e742063616c6c0081525060200191505060405180910390fd5b60026000819055506000610cb7338a8a878b8b8b8a611c77565b905060006007541115610d0e573373ffffffffffffffffffffffffffffffffffffffff166108fc6007549081150290604051600060405180830381858888f19350505050158015610d0c573d6000803e3d6000fd5b505b8091505060016000819055506000600781905550979650505050505050565b60606003805480602002602001604051908101604052809291908181526020018280548015610d7b57602002820191906000526020600020905b815481526020019060010190808311610d67575b5050505050905090565b60026020528060005260406000206000915090508060000154908060010160009054906101000a900473ffffffffffffffffffffffffffffffffffffffff16908060010160149054906101000a900460a01b908060020154908060030154908060040160009054906101000a900460ff1690806005015490806006015490806007015490806008015490508a565b6060600560003373ffffffffffffffffffffffffffffffffffffffff1673ffffffffffffffffffffffffffffffffffffffff168152602001908152602001600020805480602002602001604051908101604052809291908181526020018280548015610e9e57602002820191906000526020600020905b815481526020019060010190808311610e8a575b5050505050905090565b600081600260008481526020019081526020016000206000015414610ecc57600080fd5b60026000838152602001908152602001600020600801549050919050565b610ef2611c6f565b73ffffffffffffffffffffffffffffffffffffffff16600160009054906101000a900473ffffffffffffffffffffffffffffffffffffffff1673ffffffffffffffffffffffffffffffffffffffff1614610fb4576040517f08c379a00000000000000000000000000000000000000000000000000000000081526004018080602001828103825260208152602001807f4f776e61626c653a2063616c6c6572206973206e6f7420746865206f776e657281525060200191505060405180910390fd5b8083108015610fc257508082105b610fcb57600080fd5b82600d8190555081600e8190555080600f81905550505050565b60008373ffffffffffffffffffffffffffffffffffffffff16601160009054906101000a900473ffffffffffffffffffffffffffffffffffffffff1673ffffffffffffffffffffffffffffffffffffffff16630c5cc0a2856040518263ffffffff1660e01b8152600401808273ffffffffffffffffffffffffffffffffffffffff1916815260200191505060206040518083038186803b15801561108857600080fd5b505afa15801561109c573d6000803e3d6000fd5b505050506040513d60208110156110b257600080fd5b810190808051906020019092919050505073ffffffffffffffffffffffffffffffffffffffff161480156111a75750601160009054906101000a900473ffffffffffffffffffffffffffffffffffffffff1673ffffffffffffffffffffffffffffffffffffffff1663b7fe896a846040518263ffffffff1660e01b8152600401808273ffffffffffffffffffffffffffffffffffffffff1916815260200191505060206040518083038186803b15801561116b57600080fd5b505afa15801561117f573d6000803e3d6000fd5b505050506040513d602081101561119557600080fd5b81019080805190602001909291905050505b1561127857601160009054906101000a900473ffffffffffffffffffffffffffffffffffffffff1673ffffffffffffffffffffffffffffffffffffffff166316166f89846040518263ffffffff1660e01b8152600401808273ffffffffffffffffffffffffffffffffffffffff1916815260200191505060206040518083038186803b15801561123657600080fd5b505afa15801561124a573d6000803e3d6000fd5b505050506040513d602081101561126057600080fd5b8101908080519060200190929190505050905061128e565b811561128857600d54905061128e565b600e5490505b9392505050565b61129d611c6f565b73ffffffffffffffffffffffffffffffffffffffff16600160009054906101000a900473ffffffffffffffffffffffffffffffffffffffff1673ffffffffffffffffffffffffffffffffffffffff161461135f576040517f08c379a00000000000000000000000000000000000000000000000000000000081526004018080602001828103825260208152602001807f4f776e61626c653a2063616c6c6572206973206e6f7420746865206f776e657281525060200191505060405180910390fd5b600073ffffffffffffffffffffffffffffffffffffffff168173ffffffffffffffffffffffffffffffffffffffff1614156113e5576040517f08c379a0000000000000000000000000000000000000000000000000000000008152600401808060200182810382526026815260200180614eea6026913960400191505060405180910390fd5b8073ffffffffffffffffffffffffffffffffffffffff16600160009054906101000a900473ffffffffffffffffffffffffffffffffffffffff1673ffffffffffffffffffffffffffffffffffffffff167f8be0079c531659141344cd1fd0a4f28419497f9722a3daafe3b4186f6b6457e060405160405180910390a380600160006101000a81548173ffffffffffffffffffffffffffffffffffffffff021916908373ffffffffffffffffffffffffffffffffffffffff16021790555050565b60003460078190555060026000541415611527576040517f08c379a000000000000000000000000000000000000000000000000000000000815260040180806020018281038252601f8152602001807f5265656e7472616e637947756172643a207265656e7472616e742063616c6c0081525060200191505060405180910390fd5b600260008190555060006002600087815260200190815260200160002060405180610140016040529081600082015481526020016001820160009054906101000a900473ffffffffffffffffffffffffffffffffffffffff1673ffffffffffffffffffffffffffffffffffffffff1673ffffffffffffffffffffffffffffffffffffffff1681526020016001820160149054906101000a900460a01b73ffffffffffffffffffffffffffffffffffffffff191673ffffffffffffffffffffffffffffffffffffffff1916815260200160028201548152602001600382015481526020016004820160009054906101000a900460ff161515151581526020016005820154815260200160068201548152602001600782015481526020016008820154815250509050858160000151148015611662575060008614155b61166b57600080fd5b60008160a001511561172c5760006116b3600f546116a5611696866020015187604001516001610fe5565b8a612cc990919063ffffffff16565b612d4f90919063ffffffff16565b90506000611713600f546117056116cc338a6000610fe5565b6116f7600c546116e98a608001518f612cc990919063ffffffff16565b612d4f90919063ffffffff16565b612cc990919063ffffffff16565b612d4f90919063ffffffff16565b9050611723338a8a8a8587612d99565b925050506117dd565b6000611792600f5461178461174b866020015187604001516001610fe5565b611776600c5461176889608001518e612cc990919063ffffffff16565b612d4f90919063ffffffff16565b612cc990919063ffffffff16565b612d4f90919063ffffffff16565b905060006117c8600f546117ba6117ab338a6000610fe5565b8b612cc990919063ffffffff16565b612d4f90919063ffffffff16565b90506117d8338a8a8a8587612d99565b925050505b60006007541115611832573373ffffffffffffffffffffffffffffffffffffffff166108fc6007549081150290604051600060405180830381858888f19350505050158015611830573d6000803e3d6000fd5b505b809250505060016000819055506000600781905550949350505050565b60008082111580611876575081600260008481526020019081526020016000206000015414155b156118845760009050611c6a565b60006004600084815260200190815260200160002054905060006118b760016003805490506149a390919063ffffffff16565b90506000600382815481106118c857fe5b9060005260206000200154905080600384815481106118e357fe5b90600052602060002001819055506004600086815260200190815260200160002060009055826004600083815260200190815260200160002081905550600380548061192b57fe5b600190038181906000526020600020016000905590556000600260008781526020019081526020016000206002015414611b7a57600015156002600087815260200190815260200160002060040160009054906101000a900460ff1615151415611aa957601060009054906101000a900473ffffffffffffffffffffffffffffffffffffffff1673ffffffffffffffffffffffffffffffffffffffff166323b872dd306002600089815260200190815260200160002060010160009054906101000a900473ffffffffffffffffffffffffffffffffffffffff16600260008a8152602001908152602001600020600801546040518463ffffffff1660e01b8152600401808473ffffffffffffffffffffffffffffffffffffffff1681526020018373ffffffffffffffffffffffffffffffffffffffff1681526020018281526020019350505050600060405180830381600087803b158015611a8c57600080fd5b505af1158015611aa0573d6000803e3d6000fd5b50505050611b79565b6002600086815260200190815260200160002060010160009054906101000a900473ffffffffffffffffffffffffffffffffffffffff1673ffffffffffffffffffffffffffffffffffffffff166108fc611b4c600c54611b3e600260008b815260200190815260200160002060030154600260008c815260200190815260200160002060020154612cc990919063ffffffff16565b612d4f90919063ffffffff16565b9081150290604051600060405180830381858888f19350505050158015611b77573d6000803e3d6000fd5b505b5b611bba6002600087815260200190815260200160002060010160009054906101000a900473ffffffffffffffffffffffffffffffffffffffff16866149ed565b600260008681526020019081526020016000206000808201600090556001820160006101000a81549073ffffffffffffffffffffffffffffffffffffffff02191690556001820160146101000a8154906bffffffffffffffffffffffff0219169055600282016000905560038201600090556004820160006101000a81549060ff021916905560058201600090556006820160009055600782016000905560088201600090555050600193505050505b919050565b600033905090565b600080611c82610948565b9050600088111580611c95575060008911155b80611cb35750600c54611cb18a8a612cc990919063ffffffff16565b105b80611cdc57506009548514158015611ccd5750600a548514155b8015611cdb5750600b548514155b5b15611ceb576000915050612cbd565b8515611d56576000600754111580611d2a5750611d25600c54611d178b8b612cc990919063ffffffff16565b612d4f90919063ffffffff16565b600754105b80611d36575060008411155b80611d42575060095484115b15611d51576000915050612cbd565b612096565b601060009054906101000a900473ffffffffffffffffffffffffffffffffffffffff1673ffffffffffffffffffffffffffffffffffffffff16638bb126a7886040518263ffffffff1660e01b81526004018082815260200191505060206040518083038186803b158015611dc957600080fd5b505afa158015611ddd573d6000803e3d6000fd5b505050506040513d6020811015611df357600080fd5b810190808051906020019092919050505085141580611eeb57508973ffffffffffffffffffffffffffffffffffffffff16601060009054906101000a900473ffffffffffffffffffffffffffffffffffffffff1673ffffffffffffffffffffffffffffffffffffffff16636352211e896040518263ffffffff1660e01b81526004018082815260200191505060206040518083038186803b158015611e9757600080fd5b505afa158015611eab573d6000803e3d6000fd5b505050506040513d6020811015611ec157600080fd5b810190808051906020019092919050505073ffffffffffffffffffffffffffffffffffffffff1614155b80611fa25750601060009054906101000a900473ffffffffffffffffffffffffffffffffffffffff1673ffffffffffffffffffffffffffffffffffffffff16639980ec86886040518263ffffffff1660e01b81526004018082815260200191505060206040518083038186803b158015611f6457600080fd5b505afa158015611f78573d6000803e3d6000fd5b505050506040513d6020811015611f8e57600080fd5b810190808051906020019092919050505088115b8061208657503073ffffffffffffffffffffffffffffffffffffffff16601060009054906101000a900473ffffffffffffffffffffffffffffffffffffffff1673ffffffffffffffffffffffffffffffffffffffff1663081812fc896040518263ffffffff1660e01b81526004018082815260200191505060206040518083038186803b15801561203257600080fd5b505afa158015612046573d6000803e3d6000fd5b505050506040513d602081101561205c57600080fd5b810190808051906020019092919050505073ffffffffffffffffffffffffffffffffffffffff1614155b15612095576000915050612cbd565b5b85156122d3576120d76120c6600c546120b88c8c612cc990919063ffffffff16565b612d4f90919063ffffffff16565b6007546149a390919063ffffffff16565b6007819055506040518061014001604052808281526020018b73ffffffffffffffffffffffffffffffffffffffff1681526020018473ffffffffffffffffffffffffffffffffffffffff191681526020018981526020018a8152602001871515815260200186815260200142815260200185420181526020016000815250600260008381526020019081526020016000206000820151816000015560208201518160010160006101000a81548173ffffffffffffffffffffffffffffffffffffffff021916908373ffffffffffffffffffffffffffffffffffffffff16021790555060408201518160010160146101000a8154816bffffffffffffffffffffffff021916908360a01c0217905550606082015181600201556080820151816003015560a08201518160040160006101000a81548160ff02191690831515021790555060c0820151816005015560e08201518160060155610100820151816007015561012082015181600801559050507fb60f754ddc049752ab5a21d59c6f9d982cb28caffde92d2f6182c79a97af60be818b8a8c8a8a426000604051808981526020018873ffffffffffffffffffffffffffffffffffffffff16815260200187815260200186815260200185151581526020018481526020018381526020018281526020019850505050505050505060405180910390a1612c48565b601060009054906101000a900473ffffffffffffffffffffffffffffffffffffffff1673ffffffffffffffffffffffffffffffffffffffff166323b872dd8b308a6040518463ffffffff1660e01b8152600401808473ffffffffffffffffffffffffffffffffffffffff1681526020018373ffffffffffffffffffffffffffffffffffffffff1681526020018281526020019350505050600060405180830381600087803b15801561238457600080fd5b505af1158015612398573d6000803e3d6000fd5b50505050601060009054906101000a900473ffffffffffffffffffffffffffffffffffffffff1673ffffffffffffffffffffffffffffffffffffffff16639980ec86886040518263ffffffff1660e01b81526004018082815260200191505060206040518083038186803b15801561240f57600080fd5b505afa158015612423573d6000803e3d6000fd5b505050506040513d602081101561243957600080fd5b81019080805190602001909291905050508810156128f6576000601060009054906101000a900473ffffffffffffffffffffffffffffffffffffffff1673ffffffffffffffffffffffffffffffffffffffff16637017d4f16040518163ffffffff1660e01b815260040160206040518083038186803b1580156124bb57600080fd5b505afa1580156124cf573d6000803e3d6000fd5b505050506040513d60208110156124e557600080fd5b81019080805190602001909291905050509050601060009054906101000a900473ffffffffffffffffffffffffffffffffffffffff1673ffffffffffffffffffffffffffffffffffffffff1663b1eb511b898b6040518363ffffffff1660e01b81526004018083815260200182815260200192505050600060405180830381600087803b15801561257557600080fd5b505af1158015612589573d6000803e3d6000fd5b50505050601060009054906101000a900473ffffffffffffffffffffffffffffffffffffffff1673ffffffffffffffffffffffffffffffffffffffff166323b872dd308d8b6040518463ffffffff1660e01b8152600401808473ffffffffffffffffffffffffffffffffffffffff1681526020018373ffffffffffffffffffffffffffffffffffffffff1681526020018281526020019350505050600060405180830381600087803b15801561263e57600080fd5b505af1158015612652573d6000803e3d6000fd5b505050506040518061014001604052808381526020018c73ffffffffffffffffffffffffffffffffffffffff1681526020018573ffffffffffffffffffffffffffffffffffffffff191681526020018a81526020018b81526020018815158152602001878152602001428152602001601060009054906101000a900473ffffffffffffffffffffffffffffffffffffffff1673ffffffffffffffffffffffffffffffffffffffff16632a03fd7e8b6040518263ffffffff1660e01b81526004018082815260200191505060206040518083038186803b15801561273457600080fd5b505afa158015612748573d6000803e3d6000fd5b505050506040513d602081101561275e57600080fd5b8101908080519060200190929190505050815260200182815250600260008481526020019081526020016000206000820151816000015560208201518160010160006101000a81548173ffffffffffffffffffffffffffffffffffffffff021916908373ffffffffffffffffffffffffffffffffffffffff16021790555060408201518160010160146101000a8154816bffffffffffffffffffffffff021916908360a01c0217905550606082015181600201556080820151816003015560a08201518160040160006101000a81548160ff02191690831515021790555060c0820151816005015560e08201518160060155610100820151816007015561012082015181600801559050507fb60f754ddc049752ab5a21d59c6f9d982cb28caffde92d2f6182c79a97af60be828c8b8d8b8b4288604051808981526020018873ffffffffffffffffffffffffffffffffffffffff16815260200187815260200186815260200185151581526020018481526020018381526020018281526020019850505050505050505060405180910390a150612c47565b601060009054906101000a900473ffffffffffffffffffffffffffffffffffffffff1673ffffffffffffffffffffffffffffffffffffffff16639980ec86886040518263ffffffff1660e01b81526004018082815260200191505060206040518083038186803b15801561296957600080fd5b505afa15801561297d573d6000803e3d6000fd5b505050506040513d602081101561299357600080fd5b8101908080519060200190929190505050881415612c46576040518061014001604052808281526020018b73ffffffffffffffffffffffffffffffffffffffff1681526020018473ffffffffffffffffffffffffffffffffffffffff191681526020018981526020018a81526020018715158152602001868152602001428152602001601060009054906101000a900473ffffffffffffffffffffffffffffffffffffffff1673ffffffffffffffffffffffffffffffffffffffff16632a03fd7e8a6040518263ffffffff1660e01b81526004018082815260200191505060206040518083038186803b158015612a8957600080fd5b505afa158015612a9d573d6000803e3d6000fd5b505050506040513d6020811015612ab357600080fd5b8101908080519060200190929190505050815260200188815250600260008381526020019081526020016000206000820151816000015560208201518160010160006101000a81548173ffffffffffffffffffffffffffffffffffffffff021916908373ffffffffffffffffffffffffffffffffffffffff16021790555060408201518160010160146101000a8154816bffffffffffffffffffffffff021916908360a01c0217905550606082015181600201556080820151816003015560a08201518160040160006101000a81548160ff02191690831515021790555060c0820151816005015560e08201518160060155610100820151816007015561012082015181600801559050507fb60f754ddc049752ab5a21d59c6f9d982cb28caffde92d2f6182c79a97af60be818b8a8c8a8a428e604051808981526020018873ffffffffffffffffffffffffffffffffffffffff16815260200187815260200186815260200185151581526020018481526020018381526020018281526020019850505050505050505060405180910390a15b5b5b6003819080600181540180825580915050600190039060005260206000200160009091909190915055612c8a60016003805490506149a390919063ffffffff16565b6004600083815260200190815260200160002081905550612cab8a82614c5c565b60016008540160088190555060019150505b98975050505050505050565b600080831415612cdc5760009050612d49565b6000828402905082848281612ced57fe5b0414612d44576040517f08c379a0000000000000000000000000000000000000000000000000000000008152600401808060200182810382526021815260200180614f106021913960400191505060405180910390fd5b809150505b92915050565b6000612d9183836040518060400160405280601a81526020017f536166654d6174683a206469766973696f6e206279207a65726f000000000000815250614d63565b905092915050565b6000808611612dab5760009050614999565b6000600260008881526020019081526020016000209050868160000154141580612dd6575060008611155b15612de5576000915050614999565b8060020154861115612df957806002015495505b8060040160009054906101000a900460ff1615613d8a578773ffffffffffffffffffffffffffffffffffffffff16601060009054906101000a900473ffffffffffffffffffffffffffffffffffffffff1673ffffffffffffffffffffffffffffffffffffffff16636352211e876040518263ffffffff1660e01b81526004018082815260200191505060206040518083038186803b158015612e9a57600080fd5b505afa158015612eae573d6000803e3d6000fd5b505050506040513d6020811015612ec457600080fd5b810190808051906020019092919050505073ffffffffffffffffffffffffffffffffffffffff16141580612fa45750601060009054906101000a900473ffffffffffffffffffffffffffffffffffffffff1673ffffffffffffffffffffffffffffffffffffffff16639980ec86866040518263ffffffff1660e01b81526004018082815260200191505060206040518083038186803b158015612f6657600080fd5b505afa158015612f7a573d6000803e3d6000fd5b505050506040513d6020811015612f9057600080fd5b810190808051906020019092919050505086115b8061308857503073ffffffffffffffffffffffffffffffffffffffff16601060009054906101000a900473ffffffffffffffffffffffffffffffffffffffff1673ffffffffffffffffffffffffffffffffffffffff1663081812fc876040518263ffffffff1660e01b81526004018082815260200191505060206040518083038186803b15801561303457600080fd5b505afa158015613048573d6000803e3d6000fd5b505050506040513d602081101561305e57600080fd5b810190808051906020019092919050505073ffffffffffffffffffffffffffffffffffffffff1614155b15613097576000915050614999565b601060009054906101000a900473ffffffffffffffffffffffffffffffffffffffff1673ffffffffffffffffffffffffffffffffffffffff166323b872dd8930886040518463ffffffff1660e01b8152600401808473ffffffffffffffffffffffffffffffffffffffff1681526020018373ffffffffffffffffffffffffffffffffffffffff1681526020018281526020019350505050600060405180830381600087803b15801561314857600080fd5b505af115801561315c573d6000803e3d6000fd5b50505050601060009054906101000a900473ffffffffffffffffffffffffffffffffffffffff1673ffffffffffffffffffffffffffffffffffffffff16639980ec86866040518263ffffffff1660e01b81526004018082815260200191505060206040518083038186803b1580156131d357600080fd5b505afa1580156131e7573d6000803e3d6000fd5b505050506040513d60208110156131fd57600080fd5b810190808051906020019092919050505086101561380a576000601060009054906101000a900473ffffffffffffffffffffffffffffffffffffffff1673ffffffffffffffffffffffffffffffffffffffff16637017d4f16040518163ffffffff1660e01b815260040160206040518083038186803b15801561327f57600080fd5b505afa158015613293573d6000803e3d6000fd5b505050506040513d60208110156132a957600080fd5b81019080805190602001909291905050509050601060009054906101000a900473ffffffffffffffffffffffffffffffffffffffff1673ffffffffffffffffffffffffffffffffffffffff1663b1eb511b87866040518363ffffffff1660e01b81526004018083815260200182815260200192505050600060405180830381600087803b15801561333957600080fd5b505af115801561334d573d6000803e3d6000fd5b50505050601060009054906101000a900473ffffffffffffffffffffffffffffffffffffffff1673ffffffffffffffffffffffffffffffffffffffff166323b872dd30601260009054906101000a900473ffffffffffffffffffffffffffffffffffffffff16846040518463ffffffff1660e01b8152600401808473ffffffffffffffffffffffffffffffffffffffff1681526020018373ffffffffffffffffffffffffffffffffffffffff1681526020018281526020019350505050600060405180830381600087803b15801561342457600080fd5b505af1158015613438573d6000803e3d6000fd5b505050506000601060009054906101000a900473ffffffffffffffffffffffffffffffffffffffff1673ffffffffffffffffffffffffffffffffffffffff16637017d4f16040518163ffffffff1660e01b815260040160206040518083038186803b1580156134a657600080fd5b505afa1580156134ba573d6000803e3d6000fd5b505050506040513d60208110156134d057600080fd5b81019080805190602001909291905050509050601060009054906101000a900473ffffffffffffffffffffffffffffffffffffffff1673ffffffffffffffffffffffffffffffffffffffff1663b1eb511b88878b036040518363ffffffff1660e01b81526004018083815260200182815260200192505050600060405180830381600087803b15801561356257600080fd5b505af1158015613576573d6000803e3d6000fd5b50505050601060009054906101000a900473ffffffffffffffffffffffffffffffffffffffff1673ffffffffffffffffffffffffffffffffffffffff166323b872dd308560010160009054906101000a900473ffffffffffffffffffffffffffffffffffffffff16846040518463ffffffff1660e01b8152600401808473ffffffffffffffffffffffffffffffffffffffff1681526020018373ffffffffffffffffffffffffffffffffffffffff1681526020018281526020019350505050600060405180830381600087803b15801561364f57600080fd5b505af1158015613663573d6000803e3d6000fd5b50505050601060009054906101000a900473ffffffffffffffffffffffffffffffffffffffff1673ffffffffffffffffffffffffffffffffffffffff166323b872dd308c8a6040518463ffffffff1660e01b8152600401808473ffffffffffffffffffffffffffffffffffffffff1681526020018373ffffffffffffffffffffffffffffffffffffffff1681526020018281526020019350505050600060405180830381600087803b15801561371857600080fd5b505af115801561372c573d6000803e3d6000fd5b505050507f6420256322ce1b4f6410d00b6a790226862fff2507e569b9117abcefcae948a2898460010160009054906101000a900473ffffffffffffffffffffffffffffffffffffffff168c86600201548c886003015489600501548842604051808a81526020018973ffffffffffffffffffffffffffffffffffffffff1681526020018873ffffffffffffffffffffffffffffffffffffffff168152602001878152602001868152602001858152602001848152602001838152602001828152602001995050505050505050505060405180910390a15050613ca9565b601060009054906101000a900473ffffffffffffffffffffffffffffffffffffffff1673ffffffffffffffffffffffffffffffffffffffff16639980ec86866040518263ffffffff1660e01b81526004018082815260200191505060206040518083038186803b15801561387d57600080fd5b505afa158015613891573d6000803e3d6000fd5b505050506040513d60208110156138a757600080fd5b8101908080519060200190929190505050861415613ca8576000601060009054906101000a900473ffffffffffffffffffffffffffffffffffffffff1673ffffffffffffffffffffffffffffffffffffffff16637017d4f16040518163ffffffff1660e01b815260040160206040518083038186803b15801561392957600080fd5b505afa15801561393d573d6000803e3d6000fd5b505050506040513d602081101561395357600080fd5b81019080805190602001909291905050509050601060009054906101000a900473ffffffffffffffffffffffffffffffffffffffff1673ffffffffffffffffffffffffffffffffffffffff1663b1eb511b87866040518363ffffffff1660e01b81526004018083815260200182815260200192505050600060405180830381600087803b1580156139e357600080fd5b505af11580156139f7573d6000803e3d6000fd5b50505050601060009054906101000a900473ffffffffffffffffffffffffffffffffffffffff1673ffffffffffffffffffffffffffffffffffffffff166323b872dd30601260009054906101000a900473ffffffffffffffffffffffffffffffffffffffff16846040518463ffffffff1660e01b8152600401808473ffffffffffffffffffffffffffffffffffffffff1681526020018373ffffffffffffffffffffffffffffffffffffffff1681526020018281526020019350505050600060405180830381600087803b158015613ace57600080fd5b505af1158015613ae2573d6000803e3d6000fd5b50505050601060009054906101000a900473ffffffffffffffffffffffffffffffffffffffff1673ffffffffffffffffffffffffffffffffffffffff166323b872dd308460010160009054906101000a900473ffffffffffffffffffffffffffffffffffffffff16896040518463ffffffff1660e01b8152600401808473ffffffffffffffffffffffffffffffffffffffff1681526020018373ffffffffffffffffffffffffffffffffffffffff1681526020018281526020019350505050600060405180830381600087803b158015613bbb57600080fd5b505af1158015613bcf573d6000803e3d6000fd5b505050507f6420256322ce1b4f6410d00b6a790226862fff2507e569b9117abcefcae948a2888360010160009054906101000a900473ffffffffffffffffffffffffffffffffffffffff168b85600201548b876003015488600501548d42604051808a81526020018973ffffffffffffffffffffffffffffffffffffffff1681526020018873ffffffffffffffffffffffffffffffffffffffff168152602001878152602001868152602001858152602001848152602001838152602001828152602001995050505050505050505060405180910390a1505b5b601260009054906101000a900473ffffffffffffffffffffffffffffffffffffffff1673ffffffffffffffffffffffffffffffffffffffff166108fc859081150290604051600060405180830381858888f19350505050158015613d11573d6000803e3d6000fd5b508773ffffffffffffffffffffffffffffffffffffffff166108fc85613d58600c54613d4a86600301548c612cc990919063ffffffff16565b612d4f90919063ffffffff16565b039081150290604051600060405180830381858888f19350505050158015613d84573d6000803e3d6000fd5b5061496c565b6000600754111580613dc75750613dc2600c54613db4836003015489612cc990919063ffffffff16565b612d4f90919063ffffffff16565b600754105b15613dd6576000915050614999565b613e15613e04600c54613df684600301548a612cc990919063ffffffff16565b612d4f90919063ffffffff16565b6007546149a390919063ffffffff16565b600781905550601260009054906101000a900473ffffffffffffffffffffffffffffffffffffffff1673ffffffffffffffffffffffffffffffffffffffff166108fc849081150290604051600060405180830381858888f19350505050158015613e83573d6000803e3d6000fd5b508060010160009054906101000a900473ffffffffffffffffffffffffffffffffffffffff1673ffffffffffffffffffffffffffffffffffffffff166108fc84613eee600c54613ee086600301548c612cc990919063ffffffff16565b612d4f90919063ffffffff16565b039081150290604051600060405180830381858888f19350505050158015613f1a573d6000803e3d6000fd5b50601060009054906101000a900473ffffffffffffffffffffffffffffffffffffffff1673ffffffffffffffffffffffffffffffffffffffff16639980ec8682600801546040518263ffffffff1660e01b81526004018082815260200191505060206040518083038186803b158015613f9257600080fd5b505afa158015613fa6573d6000803e3d6000fd5b505050506040513d6020811015613fbc57600080fd5b81019080805190602001909291905050508610156144e4576000601060009054906101000a900473ffffffffffffffffffffffffffffffffffffffff1673ffffffffffffffffffffffffffffffffffffffff16637017d4f16040518163ffffffff1660e01b815260040160206040518083038186803b15801561403e57600080fd5b505afa158015614052573d6000803e3d6000fd5b505050506040513d602081101561406857600080fd5b81019080805190602001909291905050509050601060009054906101000a900473ffffffffffffffffffffffffffffffffffffffff1673ffffffffffffffffffffffffffffffffffffffff1663b1eb511b8360080154876040518363ffffffff1660e01b81526004018083815260200182815260200192505050600060405180830381600087803b1580156140fc57600080fd5b505af1158015614110573d6000803e3d6000fd5b50505050601060009054906101000a900473ffffffffffffffffffffffffffffffffffffffff1673ffffffffffffffffffffffffffffffffffffffff166323b872dd30601260009054906101000a900473ffffffffffffffffffffffffffffffffffffffff16846040518463ffffffff1660e01b8152600401808473ffffffffffffffffffffffffffffffffffffffff1681526020018373ffffffffffffffffffffffffffffffffffffffff1681526020018281526020019350505050600060405180830381600087803b1580156141e757600080fd5b505af11580156141fb573d6000803e3d6000fd5b505050506000601060009054906101000a900473ffffffffffffffffffffffffffffffffffffffff1673ffffffffffffffffffffffffffffffffffffffff16637017d4f16040518163ffffffff1660e01b815260040160206040518083038186803b15801561426957600080fd5b505afa15801561427d573d6000803e3d6000fd5b505050506040513d602081101561429357600080fd5b81019080805190602001909291905050509050601060009054906101000a900473ffffffffffffffffffffffffffffffffffffffff1673ffffffffffffffffffffffffffffffffffffffff1663b1eb511b8460080154888b036040518363ffffffff1660e01b81526004018083815260200182815260200192505050600060405180830381600087803b15801561432957600080fd5b505af115801561433d573d6000803e3d6000fd5b50505050601060009054906101000a900473ffffffffffffffffffffffffffffffffffffffff1673ffffffffffffffffffffffffffffffffffffffff166323b872dd308c846040518463ffffffff1660e01b8152600401808473ffffffffffffffffffffffffffffffffffffffff1681526020018373ffffffffffffffffffffffffffffffffffffffff1681526020018281526020019350505050600060405180830381600087803b1580156143f257600080fd5b505af1158015614406573d6000803e3d6000fd5b505050507f6420256322ce1b4f6410d00b6a790226862fff2507e569b9117abcefcae948a2898460010160009054906101000a900473ffffffffffffffffffffffffffffffffffffffff168c86600201548c886003015489600501548842604051808a81526020018973ffffffffffffffffffffffffffffffffffffffff1681526020018873ffffffffffffffffffffffffffffffffffffffff168152602001878152602001868152602001858152602001848152602001838152602001828152602001995050505050505050505060405180910390a1505061496b565b601060009054906101000a900473ffffffffffffffffffffffffffffffffffffffff1673ffffffffffffffffffffffffffffffffffffffff16639980ec86866040518263ffffffff1660e01b81526004018082815260200191505060206040518083038186803b15801561455757600080fd5b505afa15801561456b573d6000803e3d6000fd5b505050506040513d602081101561458157600080fd5b810190808051906020019092919050505086141561496a576000601060009054906101000a900473ffffffffffffffffffffffffffffffffffffffff1673ffffffffffffffffffffffffffffffffffffffff16637017d4f16040518163ffffffff1660e01b815260040160206040518083038186803b15801561460357600080fd5b505afa158015614617573d6000803e3d6000fd5b505050506040513d602081101561462d57600080fd5b81019080805190602001909291905050509050601060009054906101000a900473ffffffffffffffffffffffffffffffffffffffff1673ffffffffffffffffffffffffffffffffffffffff1663b1eb511b8360080154876040518363ffffffff1660e01b81526004018083815260200182815260200192505050600060405180830381600087803b1580156146c157600080fd5b505af11580156146d5573d6000803e3d6000fd5b50505050601060009054906101000a900473ffffffffffffffffffffffffffffffffffffffff1673ffffffffffffffffffffffffffffffffffffffff166323b872dd30601260009054906101000a900473ffffffffffffffffffffffffffffffffffffffff16846040518463ffffffff1660e01b8152600401808473ffffffffffffffffffffffffffffffffffffffff1681526020018373ffffffffffffffffffffffffffffffffffffffff1681526020018281526020019350505050600060405180830381600087803b1580156147ac57600080fd5b505af11580156147c0573d6000803e3d6000fd5b50505050601060009054906101000a900473ffffffffffffffffffffffffffffffffffffffff1673ffffffffffffffffffffffffffffffffffffffff166323b872dd308b85600801546040518463ffffffff1660e01b8152600401808473ffffffffffffffffffffffffffffffffffffffff1681526020018373ffffffffffffffffffffffffffffffffffffffff1681526020018281526020019350505050600060405180830381600087803b15801561487957600080fd5b505af115801561488d573d6000803e3d6000fd5b505050507f6420256322ce1b4f6410d00b6a790226862fff2507e569b9117abcefcae948a2888360010160009054906101000a900473ffffffffffffffffffffffffffffffffffffffff168b85600201548b87600301548860050154896008015442604051808a81526020018973ffffffffffffffffffffffffffffffffffffffff1681526020018873ffffffffffffffffffffffffffffffffffffffff168152602001878152602001868152602001858152602001848152602001838152602001828152602001995050505050505050505060405180910390a1505b5b5b858160020154038160020181905550600081600201541415614993576149918761184f565b505b60019150505b9695505050505050565b60006149e583836040518060400160405280601e81526020017f536166654d6174683a207375627472616374696f6e206f766572666c6f770000815250614e29565b905092915050565b6000600660008473ffffffffffffffffffffffffffffffffffffffff1673ffffffffffffffffffffffffffffffffffffffff16815260200190815260200160002060008381526020019081526020016000205490506000614a9a6001600560008773ffffffffffffffffffffffffffffffffffffffff1673ffffffffffffffffffffffffffffffffffffffff168152602001908152602001600020805490506149a390919063ffffffff16565b90506000600560008673ffffffffffffffffffffffffffffffffffffffff1673ffffffffffffffffffffffffffffffffffffffff1681526020019081526020016000208281548110614ae857fe5b9060005260206000200154905080600560008773ffffffffffffffffffffffffffffffffffffffff1673ffffffffffffffffffffffffffffffffffffffff1681526020019081526020016000208481548110614b4057fe5b9060005260206000200181905550600560008673ffffffffffffffffffffffffffffffffffffffff1673ffffffffffffffffffffffffffffffffffffffff168152602001908152602001600020805480614b9657fe5b60019003818190600052602060002001600090559055600660008673ffffffffffffffffffffffffffffffffffffffff1673ffffffffffffffffffffffffffffffffffffffff16815260200190815260200160002060008581526020019081526020016000206000905582600660008773ffffffffffffffffffffffffffffffffffffffff1673ffffffffffffffffffffffffffffffffffffffff1681526020019081526020016000206000838152602001908152602001600020819055505050505050565b6000600560008473ffffffffffffffffffffffffffffffffffffffff1673ffffffffffffffffffffffffffffffffffffffff168152602001908152602001600020805490509050600560008473ffffffffffffffffffffffffffffffffffffffff1673ffffffffffffffffffffffffffffffffffffffff16815260200190815260200160002082908060018154018082558091505060019003906000526020600020016000909190919091505580600660008573ffffffffffffffffffffffffffffffffffffffff1673ffffffffffffffffffffffffffffffffffffffff168152602001908152602001600020600084815260200190815260200160002081905550505050565b60008083118290614e0f576040517f08c379a00000000000000000000000000000000000000000000000000000000081526004018080602001828103825283818151815260200191508051906020019080838360005b83811015614dd4578082015181840152602081019050614db9565b50505050905090810190601f168015614e015780820380516001836020036101000a031916815260200191505b509250505060405180910390fd5b506000838581614e1b57fe5b049050809150509392505050565b6000838311158290614ed6576040517f08c379a00000000000000000000000000000000000000000000000000000000081526004018080602001828103825283818151815260200191508051906020019080838360005b83811015614e9b578082015181840152602081019050614e80565b50505050905090810190601f168015614ec85780820380516001836020036101000a031916815260200191505b509250505060405180910390fd5b506000838503905080915050939250505056fe4f776e61626c653a206e6577206f776e657220697320746865207a65726f2061646472657373536166654d6174683a206d756c7469706c69636174696f6e206f766572666c6f77a26469706673582212201b2df9650bbe5c80ae8dc92b725a66fefeef4f19f900520d84b6a94372c647a664736f6c63430007060033",
  "immutableReferences": {},
  "source": "// SPDX-License-Identifier: MIT\n\npragma solidity 0.7.6;\n\nimport \"@openzeppelin/contracts/math/SafeMath.sol\";\nimport \"@openzeppelin/contracts/utils/ReentrancyGuard.sol\";\nimport \"@openzeppelin/contracts/access/Ownable.sol\";\nimport \"./LeasedEmblem.sol\";\nimport \"./Emblem.sol\";\n\ncontract ExistingLeaseExchange is ReentrancyGuard,Ownable {\n  using SafeMath for uint256;\n\n  struct Order {\n    uint256 id;\n    address payable maker;\n    bytes12 makerVanity;\n    uint256 amount;\n    uint256 price;\n    bool demand;\n    uint256 duration;\n    uint256 createdAt;\n    uint256 tradeExpiry;\n    uint256 lembId;\n  }\n\n  // order id -> order\n  mapping(uint256 => Order) public orders;\n\n  // Array with all order ids, used for enumeration\n  uint256[]  allOrders;\n\n  // Mapping from order id to position in the allOrders array\n  mapping(uint256 => uint256)  allOrdersIndex;\n\n  // Mapping from owner to list of owned order IDs\n  mapping(address => uint256[])  ownedOrders;\n\n  // Mapping from owner to map of order ID to index of the owner orders list\n  mapping(address => mapping (uint256 => uint256))  ownedOrdersIndex;\n\n  // weiSend of current tx\n  uint256 private weiSend = 0;\n\n  uint256 private highestId = 1;\n\n  uint256 sixMonths       = 15768000;\n  uint256 twelveMonths    = 31536000;\n  uint256 twentyFourMonths = 63072000;\n\n  uint256 EMBPrecision = (10 ** 8);\n\n  uint256 makerFee = 1;\n  uint256 takerFee = 1;\n  uint256 feeDenomination = 1000;\n\n  LeasedEmblem LEMB;\n  Emblem EMB;\n  address payable feeReciever;\n\n\n  // makes sure weiSend of current tx is reset\n  modifier weiSendGuard() {\n    weiSend = msg.value;\n    _;\n    weiSend = 0;\n  }\n\n  // logs\n  event OrderPlaced(uint256 id, address maker, uint256 amount, uint256 price, bool demand, uint256 duration, uint256 createdAt, uint256 lembId);\n\n  event OrderFilled(uint256 id, address maker, address taker, uint256 originalAmount, uint256 amountFilled, uint256 price, uint256 duration, uint256 lembId, uint256 fulfilledAt);\n\n  event OrderCancelled(uint256 id, address maker, uint256 amount, uint256 price, bool demand, uint256 duration, uint256 createdAt);\n\n  constructor(address _emb, address _lemb, address payable _feeReciever) public {\n    EMB = Emblem(_emb);\n    LEMB = LeasedEmblem(_lemb);\n    feeReciever = _feeReciever;\n  }\n\n  function setFees(uint256 _makerFee, uint256 _takerFee, uint256 _denomination) public onlyOwner {\n    require(_makerFee < _denomination && _takerFee < _denomination);\n    makerFee = _makerFee;\n    takerFee = _takerFee;\n    feeDenomination = _denomination;\n  }\n\n  function getFee(address owner, bytes12 vanity, bool isMaker) public view returns (uint256){\n    if(EMB.getVanityOwner(vanity) == owner && EMB.enabledVanityFee(vanity)) return EMB.getFee(vanity);\n    else {\n      if(isMaker) return makerFee;\n      else return takerFee;\n    }\n  }\n\n  function exists(uint256 id) public view returns (bool) {\n    return (orders[id].id == id);\n  }\n\n  function getNewId() public view returns(uint256) {\n    return highestId;\n  }\n\n  function _placeOrder(address payable maker, uint256 price, uint256 amount, uint256 lembId, bool demand, uint256 duration, uint256 tradeDuration, bytes12 vanity) internal returns (bool){\n\n    uint256 id = getNewId();\n    // validate input\n    if (\n      amount <= 0 ||\n      price <= 0 ||\n      amount.mul(price) < (EMBPrecision) ||\n      (duration != sixMonths && duration != twelveMonths && duration != twentyFourMonths)\n    ) return (false);\n\n    if(demand) {\n      if(weiSend <= 0 || weiSend < amount.mul(price).div(EMBPrecision) || tradeDuration <= 0 || tradeDuration > sixMonths) return (false);\n    }\n    else {\n      if(duration != LEMB.getDuration(lembId) || LEMB.ownerOf(lembId) != maker || amount > LEMB.getAmount(lembId) || LEMB.getApproved(lembId) != address(this)) return (false);\n    }\n\n    if(demand) {\n      weiSend = weiSend.sub(amount.mul(price).div(EMBPrecision));\n      orders[id] = Order(id, maker,vanity, amount, price, demand, duration,block.timestamp,block.timestamp + tradeDuration,0);\n      emit OrderPlaced(id, maker, amount, price,demand, duration,block.timestamp,0);\n    }\n    else {\n      LEMB.transferFrom(maker, address(this), lembId);\n      if(amount < LEMB.getAmount(lembId)){\n        uint256 newLembId = LEMB.getNewId();\n        LEMB.splitLEMB(lembId, amount);\n        LEMB.transferFrom(address(this),maker,lembId);\n        orders[id] = Order(id, maker,vanity, amount, price, demand, duration,block.timestamp,LEMB.getTradeExpiry(lembId),newLembId);\n        emit OrderPlaced(id, maker, amount, price,demand, duration,block.timestamp,newLembId);\n      }\n      else if(amount == LEMB.getAmount(lembId)){\n        orders[id] = Order(id, maker,vanity, amount, price, demand, duration,block.timestamp,LEMB.getTradeExpiry(lembId),lembId);\n        emit OrderPlaced(id, maker, amount, price,demand, duration,block.timestamp,lembId);\n      }\n    }\n\n    allOrders.push(id);\n    allOrdersIndex[id] = allOrders.length.sub(1);\n    _addOrderToUser(maker, id);\n\n    highestId = highestId + 1;\n\n    return (true);\n  }\n\n  function _takeOrder(address payable taker, uint256 id, uint256 amount, uint256 lembId, uint256 fee_taker, uint256 fee_maker) internal returns (bool) {\n    // validate inputs\n\n    if (id <= 0) return (false);\n\n    // get order\n    Order storage order = orders[id];\n\n    // validate order\n    if (\n      order.id != id ||\n      amount <= 0\n    ) return (false);\n\n    //if above, set amount to that of the order's amount\n    if(amount > order.amount) amount = order.amount;\n\n    if(order.demand){\n\n      //ensure that you cannot game the allowance of EMB\n      if(LEMB.ownerOf(lembId) != taker || amount > LEMB.getAmount(lembId) || LEMB.getApproved(lembId) != address(this)) return (false);\n\n      //transfer EMB from taker to Lease Address\n      LEMB.transferFrom(taker, address(this), lembId);\n\n      if(amount < LEMB.getAmount(lembId)){\n        //split the LEMB for the fee Reciever\n        uint256 feeRecieverLembId = LEMB.getNewId();\n        LEMB.splitLEMB(lembId, fee_maker);\n        LEMB.transferFrom(address(this),feeReciever,feeRecieverLembId);\n\n        //split the LEMB for the maker\n        uint256 makerLembId = LEMB.getNewId();\n        LEMB.splitLEMB(lembId, amount - fee_maker);\n        LEMB.transferFrom(address(this),order.maker,makerLembId);\n\n        //send back leftover LEMB\n        LEMB.transferFrom(address(this),taker,lembId);\n\n        emit OrderFilled(id, order.maker, taker, order.amount, amount, order.price, order.duration, makerLembId, block.timestamp);\n      }\n      else if(amount == LEMB.getAmount(lembId)){\n\n        //split the LEMB for the fee Reciever\n        uint256 feeRecieverLembId = LEMB.getNewId();\n        LEMB.splitLEMB(lembId, fee_maker);\n        LEMB.transferFrom(address(this),feeReciever,feeRecieverLembId);\n\n        //send the rest of the lembId to the maker\n        LEMB.transferFrom(address(this),order.maker,lembId);\n\n        emit OrderFilled(id, order.maker, taker, order.amount, amount, order.price, order.duration, lembId, block.timestamp);\n      }\n\n      //\n      feeReciever.transfer(fee_taker);\n\n      //pay taker\n      taker.transfer(amount.mul(order.price).div(EMBPrecision) - fee_taker);\n    }\n    else {\n\n      //ensure that you have sent the right amount of eth\n      if (weiSend <= 0 || weiSend < amount.mul(order.price).div(EMBPrecision)) return (false);\n\n      //pay maker\n      weiSend = weiSend.sub(amount.mul(order.price).div(EMBPrecision));\n\n      feeReciever.transfer(fee_maker);\n      order.maker.transfer(amount.mul(order.price).div(EMBPrecision) - fee_maker);\n\n      //create LEMB for the taker\n      if(amount < LEMB.getAmount(order.lembId)){\n\n        //pay feeReciever\n        uint256 feeRecieverLembId = LEMB.getNewId();\n        LEMB.splitLEMB(order.lembId, fee_taker);\n        LEMB.transferFrom(address(this),feeReciever,feeRecieverLembId);\n\n        //pay fee Taker\n        uint256 takerLembId = LEMB.getNewId();\n        LEMB.splitLEMB(order.lembId, amount - fee_taker);\n        LEMB.transferFrom(address(this),taker,takerLembId);\n\n        emit OrderFilled(id, order.maker, taker, order.amount, amount, order.price, order.duration, takerLembId, block.timestamp);\n      }\n      else if(amount == LEMB.getAmount(lembId)){\n\n        //split the LEMB for the fee Reciever\n        uint256 feeRecieverLembId = LEMB.getNewId();\n        LEMB.splitLEMB(order.lembId, fee_taker);\n        LEMB.transferFrom(address(this),feeReciever,feeRecieverLembId);\n\n        LEMB.transferFrom(address(this),taker,order.lembId);\n        emit OrderFilled(id, order.maker, taker, order.amount, amount, order.price, order.duration, order.lembId, block.timestamp);\n      }\n    }\n\n    order.amount = order.amount - amount;\n\n    if(order.amount == 0){\n      _deleteOrder(id);\n    }\n\n    return (true);\n  }\n\n  function _deleteOrder(uint256 id) internal returns (bool) {\n\n    if (\n      id <= 0 ||\n      orders[id].id != id\n    ) return (false);\n\n    // // Reorg all orders\n    uint256 orderIndex = allOrdersIndex[id];\n    uint256 lastOrderIndex = allOrders.length.sub(1);\n    uint256 lastOrder = allOrders[lastOrderIndex];\n\n    allOrders[orderIndex] = lastOrder;\n    delete allOrdersIndex[id];\n    allOrdersIndex[lastOrder] = orderIndex;\n    allOrders.pop();\n\n    //pay back on cancellation\n    if(orders[id].amount !=0) {\n      if(orders[id].demand == false){\n        LEMB.transferFrom(address(this), orders[id].maker, orders[id].lembId);\n      }\n      else {\n        orders[id].maker.transfer(orders[id].amount.mul(orders[id].price).div(EMBPrecision));\n      }\n    }\n\n    //remove order from user\n    _removeOrderFromUser(orders[id].maker, id);\n\n    delete orders[id];\n\n    return (true);\n  }\n\n  function retrieveMyOrders() public view returns(uint256[] memory) {\n    return ownedOrders[msg.sender];\n  }\n\n  function retrieveOrders() public view returns(uint256[] memory) {\n    return allOrders;\n  }\n\n  function getOrderData(uint256 id) public view returns (\n    uint256,\n    uint256,\n    uint256,\n    uint256,\n    uint256,\n    address,\n    bool\n  ) {\n    require(orders[id].id == id);\n    return (orders[id].id,orders[id].amount,orders[id].price,orders[id].duration,orders[id].tradeExpiry,orders[id].maker,orders[id].demand);\n  }\n\n  function getLembId(uint256 id) public view returns (\n    uint256\n  ) {\n    require(orders[id].id == id);\n    return (orders[id].lembId);\n  }\n\n  function _addOrderToUser(address _to, uint256 _orderId) internal {\n    uint256 length = ownedOrders[_to].length;\n    ownedOrders[_to].push(_orderId);\n    ownedOrdersIndex[_to][_orderId] = length;\n  }\n\n  function _removeOrderFromUser(address _from, uint256 _orderId) internal {\n    uint256 orderIndex = ownedOrdersIndex[_from][_orderId];\n    uint256 lastOrderIndex = ownedOrders[_from].length.sub(1);\n    uint256 lastOrderId = ownedOrders[_from][lastOrderIndex];\n\n    ownedOrders[_from][orderIndex] = lastOrderId;\n    ownedOrders[_from].pop();\n    delete ownedOrdersIndex[_from][_orderId];\n    ownedOrdersIndex[_from][lastOrderId] = orderIndex;\n  }\n\n  function placeOrder(uint256 price, uint256 amount, bool demand, uint256 duration,uint256 tradeDuration,uint256 lembId,bytes12 vanity) external payable weiSendGuard nonReentrant returns (bool) {\n\n    bool success = _placeOrder(msg.sender, price, amount, lembId, demand, duration, tradeDuration,vanity);\n\n    if (weiSend > 0) msg.sender.transfer(weiSend);\n\n    return success;\n  }\n\n  function takeOrder(uint256 id, uint256 amount,uint256 lembId,bytes12 vanity)  external payable weiSendGuard nonReentrant returns (bool) {\n    Order memory order = orders[id];\n\n    require(order.id == id && id != 0);\n\n    bool success = false;\n\n    if(order.demand){\n      uint256 fee_maker = amount.mul(getFee(order.maker, order.makerVanity, true)).div(feeDenomination);\n      uint256 fee_taker = amount.mul(order.price).div(EMBPrecision).mul(getFee(msg.sender, vanity, false)).div(feeDenomination);\n      success = _takeOrder(msg.sender,id,amount,lembId,fee_taker,fee_maker);\n    }\n    else {\n      uint256 fee_maker = amount.mul(order.price).div(EMBPrecision).mul(getFee(order.maker, order.makerVanity, true)).div(feeDenomination);\n      uint256 fee_taker = amount.mul(getFee(msg.sender, vanity, false)).div(feeDenomination);\n      success = _takeOrder(msg.sender,id,amount,lembId,fee_taker,fee_maker);\n    }\n\n    //send back excess ETH\n    if (weiSend > 0) msg.sender.transfer(weiSend);\n\n    return success;\n  }\n\n  function cancelOrder(uint256 id) external nonReentrant returns (bool) {\n    require(\n      id > 0 &&\n      orders[id].id == id &&\n      orders[id].maker == msg.sender\n    );\n\n    uint256 amount = orders[id].amount;\n    uint256 price = orders[id].price;\n    bool demand = orders[id].demand;\n    uint256 duration = orders[id].duration;\n    uint256 createdAt = orders[id].createdAt;\n\n    bool success = _deleteOrder(id);\n    if(success) emit OrderCancelled(id, msg.sender, amount, price, demand, duration, createdAt);\n\n    return success;\n  }\n\n}\n",
  "sourcePath": "/Users/arjunjain/Emblem_Ethereum_Anchor/contracts/ExistingLeaseExchange.sol",
  "compiler": {
    "name": "solc",
    "version": "0.7.6+commit.7338295f.Emscripten.clang"
  },
  "schemaVersion": "3.3.3",
  "updatedAt": "2021-02-06T16:23:30.771Z",
  "devdoc": {
    "kind": "dev",
    "methods": {
      "owner()": {
        "details": "Returns the address of the current owner."
      },
      "renounceOwnership()": {
        "details": "Leaves the contract without owner. It will not be possible to call `onlyOwner` functions anymore. Can only be called by the current owner. NOTE: Renouncing ownership will leave the contract without an owner, thereby removing any functionality that is only available to the owner."
      },
      "transferOwnership(address)": {
        "details": "Transfers ownership of the contract to a new account (`newOwner`). Can only be called by the current owner."
      }
    },
    "version": 1
  },
  "userdoc": {
    "kind": "user",
    "methods": {},
    "version": 1
  }
}