{
  "contractName": "LeasedEmblem",
  "abi": [
    {
      "inputs": [
        {
          "internalType": "string",
          "name": "_name",
          "type": "string"
        },
        {
          "internalType": "string",
          "name": "_symbol",
          "type": "string"
        }
      ],
      "stateMutability": "nonpayable",
      "type": "constructor"
    },
    {
      "anonymous": false,
      "inputs": [
        {
          "indexed": true,
          "internalType": "address",
          "name": "owner",
          "type": "address"
        },
        {
          "indexed": true,
          "internalType": "address",
          "name": "approved",
          "type": "address"
        },
        {
          "indexed": true,
          "internalType": "uint256",
          "name": "tokenId",
          "type": "uint256"
        }
      ],
      "name": "Approval",
      "type": "event"
    },
    {
      "anonymous": false,
      "inputs": [
        {
          "indexed": true,
          "internalType": "address",
          "name": "owner",
          "type": "address"
        },
        {
          "indexed": true,
          "internalType": "address",
          "name": "operator",
          "type": "address"
        },
        {
          "indexed": false,
          "internalType": "bool",
          "name": "approved",
          "type": "bool"
        }
      ],
      "name": "ApprovalForAll",
      "type": "event"
    },
    {
      "anonymous": false,
      "inputs": [
        {
          "indexed": true,
          "internalType": "address",
          "name": "previousOwner",
          "type": "address"
        },
        {
          "indexed": true,
          "internalType": "address",
          "name": "newOwner",
          "type": "address"
        }
      ],
      "name": "OwnershipTransferred",
      "type": "event"
    },
    {
      "anonymous": false,
      "inputs": [
        {
          "indexed": true,
          "internalType": "address",
          "name": "from",
          "type": "address"
        },
        {
          "indexed": true,
          "internalType": "address",
          "name": "to",
          "type": "address"
        },
        {
          "indexed": true,
          "internalType": "uint256",
          "name": "tokenId",
          "type": "uint256"
        }
      ],
      "name": "Transfer",
      "type": "event"
    },
    {
      "inputs": [
        {
          "internalType": "address",
          "name": "to",
          "type": "address"
        },
        {
          "internalType": "uint256",
          "name": "tokenId",
          "type": "uint256"
        }
      ],
      "name": "approve",
      "outputs": [],
      "stateMutability": "nonpayable",
      "type": "function"
    },
    {
      "inputs": [
        {
          "internalType": "address",
          "name": "owner",
          "type": "address"
        }
      ],
      "name": "balanceOf",
      "outputs": [
        {
          "internalType": "uint256",
          "name": "",
          "type": "uint256"
        }
      ],
      "stateMutability": "view",
      "type": "function"
    },
    {
      "inputs": [],
      "name": "baseURI",
      "outputs": [
        {
          "internalType": "string",
          "name": "",
          "type": "string"
        }
      ],
      "stateMutability": "view",
      "type": "function"
    },
    {
      "inputs": [
        {
          "internalType": "uint256",
          "name": "tokenId",
          "type": "uint256"
        }
      ],
      "name": "getApproved",
      "outputs": [
        {
          "internalType": "address",
          "name": "",
          "type": "address"
        }
      ],
      "stateMutability": "view",
      "type": "function"
    },
    {
      "inputs": [
        {
          "internalType": "address",
          "name": "owner",
          "type": "address"
        },
        {
          "internalType": "address",
          "name": "operator",
          "type": "address"
        }
      ],
      "name": "isApprovedForAll",
      "outputs": [
        {
          "internalType": "bool",
          "name": "",
          "type": "bool"
        }
      ],
      "stateMutability": "view",
      "type": "function"
    },
    {
      "inputs": [
        {
          "internalType": "uint256",
          "name": "",
          "type": "uint256"
        }
      ],
      "name": "metadata",
      "outputs": [
        {
          "internalType": "uint256",
          "name": "amount",
          "type": "uint256"
        },
        {
          "internalType": "address",
          "name": "leasor",
          "type": "address"
        },
        {
          "internalType": "uint256",
          "name": "duration",
          "type": "uint256"
        },
        {
          "internalType": "uint256",
          "name": "tradeExpiry",
          "type": "uint256"
        },
        {
          "internalType": "uint256",
          "name": "leaseExpiry",
          "type": "uint256"
        },
        {
          "internalType": "bool",
          "name": "isMining",
          "type": "bool"
        }
      ],
      "stateMutability": "view",
      "type": "function"
    },
    {
      "inputs": [],
      "name": "name",
      "outputs": [
        {
          "internalType": "string",
          "name": "",
          "type": "string"
        }
      ],
      "stateMutability": "view",
      "type": "function"
    },
    {
      "inputs": [],
      "name": "owner",
      "outputs": [
        {
          "internalType": "address",
          "name": "",
          "type": "address"
        }
      ],
      "stateMutability": "view",
      "type": "function"
    },
    {
      "inputs": [
        {
          "internalType": "uint256",
          "name": "tokenId",
          "type": "uint256"
        }
      ],
      "name": "ownerOf",
      "outputs": [
        {
          "internalType": "address",
          "name": "",
          "type": "address"
        }
      ],
      "stateMutability": "view",
      "type": "function"
    },
    {
      "inputs": [],
      "name": "renounceOwnership",
      "outputs": [],
      "stateMutability": "nonpayable",
      "type": "function"
    },
    {
      "inputs": [
        {
          "internalType": "address",
          "name": "from",
          "type": "address"
        },
        {
          "internalType": "address",
          "name": "to",
          "type": "address"
        },
        {
          "internalType": "uint256",
          "name": "tokenId",
          "type": "uint256"
        }
      ],
      "name": "safeTransferFrom",
      "outputs": [],
      "stateMutability": "nonpayable",
      "type": "function"
    },
    {
      "inputs": [
        {
          "internalType": "address",
          "name": "from",
          "type": "address"
        },
        {
          "internalType": "address",
          "name": "to",
          "type": "address"
        },
        {
          "internalType": "uint256",
          "name": "tokenId",
          "type": "uint256"
        },
        {
          "internalType": "bytes",
          "name": "_data",
          "type": "bytes"
        }
      ],
      "name": "safeTransferFrom",
      "outputs": [],
      "stateMutability": "nonpayable",
      "type": "function"
    },
    {
      "inputs": [
        {
          "internalType": "address",
          "name": "operator",
          "type": "address"
        },
        {
          "internalType": "bool",
          "name": "approved",
          "type": "bool"
        }
      ],
      "name": "setApprovalForAll",
      "outputs": [],
      "stateMutability": "nonpayable",
      "type": "function"
    },
    {
      "inputs": [
        {
          "internalType": "bytes4",
          "name": "interfaceId",
          "type": "bytes4"
        }
      ],
      "name": "supportsInterface",
      "outputs": [
        {
          "internalType": "bool",
          "name": "",
          "type": "bool"
        }
      ],
      "stateMutability": "view",
      "type": "function"
    },
    {
      "inputs": [],
      "name": "symbol",
      "outputs": [
        {
          "internalType": "string",
          "name": "",
          "type": "string"
        }
      ],
      "stateMutability": "view",
      "type": "function"
    },
    {
      "inputs": [
        {
          "internalType": "uint256",
          "name": "index",
          "type": "uint256"
        }
      ],
      "name": "tokenByIndex",
      "outputs": [
        {
          "internalType": "uint256",
          "name": "",
          "type": "uint256"
        }
      ],
      "stateMutability": "view",
      "type": "function"
    },
    {
      "inputs": [
        {
          "internalType": "address",
          "name": "owner",
          "type": "address"
        },
        {
          "internalType": "uint256",
          "name": "index",
          "type": "uint256"
        }
      ],
      "name": "tokenOfOwnerByIndex",
      "outputs": [
        {
          "internalType": "uint256",
          "name": "",
          "type": "uint256"
        }
      ],
      "stateMutability": "view",
      "type": "function"
    },
    {
      "inputs": [
        {
          "internalType": "uint256",
          "name": "tokenId",
          "type": "uint256"
        }
      ],
      "name": "tokenURI",
      "outputs": [
        {
          "internalType": "string",
          "name": "",
          "type": "string"
        }
      ],
      "stateMutability": "view",
      "type": "function"
    },
    {
      "inputs": [],
      "name": "totalSupply",
      "outputs": [
        {
          "internalType": "uint256",
          "name": "",
          "type": "uint256"
        }
      ],
      "stateMutability": "view",
      "type": "function"
    },
    {
      "inputs": [
        {
          "internalType": "address",
          "name": "from",
          "type": "address"
        },
        {
          "internalType": "address",
          "name": "to",
          "type": "address"
        },
        {
          "internalType": "uint256",
          "name": "tokenId",
          "type": "uint256"
        }
      ],
      "name": "transferFrom",
      "outputs": [],
      "stateMutability": "nonpayable",
      "type": "function"
    },
    {
      "inputs": [
        {
          "internalType": "address",
          "name": "newOwner",
          "type": "address"
        }
      ],
      "name": "transferOwnership",
      "outputs": [],
      "stateMutability": "nonpayable",
      "type": "function"
    },
    {
      "inputs": [],
      "name": "getNewId",
      "outputs": [
        {
          "internalType": "uint256",
          "name": "",
          "type": "uint256"
        }
      ],
      "stateMutability": "view",
      "type": "function"
    },
    {
      "inputs": [
        {
          "internalType": "uint256",
          "name": "_tokenId",
          "type": "uint256"
        }
      ],
      "name": "leasorOf",
      "outputs": [
        {
          "internalType": "address",
          "name": "",
          "type": "address"
        }
      ],
      "stateMutability": "view",
      "type": "function"
    },
    {
      "inputs": [
        {
          "internalType": "address",
          "name": "_leasor",
          "type": "address"
        }
      ],
      "name": "balanceOfLeasor",
      "outputs": [
        {
          "internalType": "uint256",
          "name": "",
          "type": "uint256"
        }
      ],
      "stateMutability": "view",
      "type": "function"
    },
    {
      "inputs": [
        {
          "internalType": "address",
          "name": "_leasor",
          "type": "address"
        },
        {
          "internalType": "uint256",
          "name": "_index",
          "type": "uint256"
        }
      ],
      "name": "tokenOfLeasorByIndex",
      "outputs": [
        {
          "internalType": "uint256",
          "name": "",
          "type": "uint256"
        }
      ],
      "stateMutability": "view",
      "type": "function"
    },
    {
      "inputs": [
        {
          "internalType": "address",
          "name": "_leaseExchange",
          "type": "address"
        }
      ],
      "name": "setLeaseExchange",
      "outputs": [],
      "stateMutability": "nonpayable",
      "type": "function"
    },
    {
      "inputs": [],
      "name": "totalAmount",
      "outputs": [
        {
          "internalType": "uint256",
          "name": "",
          "type": "uint256"
        }
      ],
      "stateMutability": "view",
      "type": "function"
    },
    {
      "inputs": [
        {
          "internalType": "uint256",
          "name": "_tokenId",
          "type": "uint256"
        }
      ],
      "name": "getMetadata",
      "outputs": [
        {
          "internalType": "uint256",
          "name": "",
          "type": "uint256"
        },
        {
          "internalType": "address",
          "name": "",
          "type": "address"
        },
        {
          "internalType": "uint256",
          "name": "",
          "type": "uint256"
        },
        {
          "internalType": "uint256",
          "name": "",
          "type": "uint256"
        },
        {
          "internalType": "uint256",
          "name": "",
          "type": "uint256"
        },
        {
          "internalType": "bool",
          "name": "",
          "type": "bool"
        }
      ],
      "stateMutability": "view",
      "type": "function"
    },
    {
      "inputs": [
        {
          "internalType": "address",
          "name": "owner",
          "type": "address"
        }
      ],
      "name": "getAmountForUser",
      "outputs": [
        {
          "internalType": "uint256",
          "name": "",
          "type": "uint256"
        }
      ],
      "stateMutability": "view",
      "type": "function"
    },
    {
      "inputs": [
        {
          "internalType": "address",
          "name": "owner",
          "type": "address"
        }
      ],
      "name": "getAmountForUserMining",
      "outputs": [
        {
          "internalType": "uint256",
          "name": "",
          "type": "uint256"
        }
      ],
      "stateMutability": "view",
      "type": "function"
    },
    {
      "inputs": [
        {
          "internalType": "uint256",
          "name": "_tokenId",
          "type": "uint256"
        }
      ],
      "name": "getAmount",
      "outputs": [
        {
          "internalType": "uint256",
          "name": "",
          "type": "uint256"
        }
      ],
      "stateMutability": "view",
      "type": "function"
    },
    {
      "inputs": [
        {
          "internalType": "uint256",
          "name": "_tokenId",
          "type": "uint256"
        }
      ],
      "name": "getTradeExpiry",
      "outputs": [
        {
          "internalType": "uint256",
          "name": "",
          "type": "uint256"
        }
      ],
      "stateMutability": "view",
      "type": "function"
    },
    {
      "inputs": [
        {
          "internalType": "uint256",
          "name": "_tokenId",
          "type": "uint256"
        }
      ],
      "name": "getDuration",
      "outputs": [
        {
          "internalType": "uint256",
          "name": "",
          "type": "uint256"
        }
      ],
      "stateMutability": "view",
      "type": "function"
    },
    {
      "inputs": [
        {
          "internalType": "uint256",
          "name": "_tokenId",
          "type": "uint256"
        }
      ],
      "name": "getIsMining",
      "outputs": [
        {
          "internalType": "bool",
          "name": "",
          "type": "bool"
        }
      ],
      "stateMutability": "view",
      "type": "function"
    },
    {
      "inputs": [
        {
          "internalType": "address",
          "name": "_owner",
          "type": "address"
        },
        {
          "internalType": "uint256",
          "name": "_tokenId",
          "type": "uint256"
        }
      ],
      "name": "startMining",
      "outputs": [
        {
          "internalType": "bool",
          "name": "",
          "type": "bool"
        }
      ],
      "stateMutability": "nonpayable",
      "type": "function"
    },
    {
      "inputs": [
        {
          "internalType": "address",
          "name": "_leasor",
          "type": "address"
        },
        {
          "internalType": "uint256",
          "name": "_tokenId",
          "type": "uint256"
        }
      ],
      "name": "canRetrieveEMB",
      "outputs": [
        {
          "internalType": "bool",
          "name": "",
          "type": "bool"
        }
      ],
      "stateMutability": "view",
      "type": "function"
    },
    {
      "inputs": [
        {
          "internalType": "address",
          "name": "_leasee",
          "type": "address"
        },
        {
          "internalType": "uint256",
          "name": "_tokenId",
          "type": "uint256"
        }
      ],
      "name": "endLease",
      "outputs": [],
      "stateMutability": "nonpayable",
      "type": "function"
    },
    {
      "inputs": [
        {
          "internalType": "uint256",
          "name": "_tokenId",
          "type": "uint256"
        },
        {
          "internalType": "uint256",
          "name": "amount",
          "type": "uint256"
        }
      ],
      "name": "splitLEMB",
      "outputs": [],
      "stateMutability": "nonpayable",
      "type": "function"
    },
    {
      "inputs": [
        {
          "internalType": "address",
          "name": "_to",
          "type": "address"
        },
        {
          "internalType": "uint256",
          "name": "amount",
          "type": "uint256"
        },
        {
          "internalType": "address",
          "name": "leasor",
          "type": "address"
        },
        {
          "internalType": "uint256",
          "name": "duration",
          "type": "uint256"
        }
      ],
      "name": "mintUniqueTokenTo",
      "outputs": [],
      "stateMutability": "nonpayable",
      "type": "function"
    }
  ],
  "bytecode": "0x6080604052600160115562f099c06012553480156200001d57600080fd5b506040516200506338038062005063833981810160405260408110156200004357600080fd5b81019080805160405193929190846401000000008211156200006457600080fd5b838201915060208201858111156200007b57600080fd5b82518660018202830111640100000000821117156200009957600080fd5b8083526020830192505050908051906020019080838360005b83811015620000cf578082015181840152602081019050620000b2565b50505050905090810190601f168015620000fd5780820380516001836020036101000a031916815260200191505b50604052602001805160405193929190846401000000008211156200012157600080fd5b838201915060208201858111156200013857600080fd5b82518660018202830111640100000000821117156200015657600080fd5b8083526020830192505050908051906020019080838360005b838110156200018c5780820151818401526020810190506200016f565b50505050905090810190601f168015620001ba5780820380516001836020036101000a031916815260200191505b506040525050508181620001db6301ffc9a760e01b6200031060201b60201c565b8160069080519060200190620001f392919062000421565b5080600790805190602001906200020c92919062000421565b50620002256380ac58cd60e01b6200031060201b60201c565b6200023d635b5e139f60e01b6200031060201b60201c565b6200025563780e9d6360e01b6200031060201b60201c565b50506000620002696200041960201b60201c565b905080600a60006101000a81548173ffffffffffffffffffffffffffffffffffffffff021916908373ffffffffffffffffffffffffffffffffffffffff1602179055508073ffffffffffffffffffffffffffffffffffffffff16600073ffffffffffffffffffffffffffffffffffffffff167f8be0079c531659141344cd1fd0a4f28419497f9722a3daafe3b4186f6b6457e060405160405180910390a3505050620004d7565b63ffffffff60e01b817bffffffffffffffffffffffffffffffffffffffffffffffffffffffff19161415620003ad576040517f08c379a000000000000000000000000000000000000000000000000000000000815260040180806020018281038252601c8152602001807f4552433136353a20696e76616c696420696e746572666163652069640000000081525060200191505060405180910390fd5b6001600080837bffffffffffffffffffffffffffffffffffffffffffffffffffffffff19167bffffffffffffffffffffffffffffffffffffffffffffffffffffffff1916815260200190815260200160002060006101000a81548160ff02191690831515021790555050565b600033905090565b828054600181600116156101000203166002900490600052602060002090601f016020900481019282620004595760008555620004a5565b82601f106200047457805160ff1916838001178555620004a5565b82800160010185558215620004a5579182015b82811115620004a457825182559160200191906001019062000487565b5b509050620004b49190620004b8565b5090565b5b80821115620004d3576000816000905550600101620004b9565b5090565b614b7c80620004e76000396000f3fe608060405234801561001057600080fd5b506004361061023d5760003560e01c80636c0360eb1161013b578063a574cea4116100b8578063d64d22ae1161007c578063d64d22ae14610e43578063e2a3373214610ea7578063e3684e3914610eeb578063e985e9c514610f68578063f2fde38b14610fe25761023d565b8063a574cea414610b94578063b1eb511b14610c11578063b88d4fde14610c49578063c87b56dd14610d4e578063cf948c5c14610df55761023d565b80638da5cb5b116100ff5780638da5cb5b146109e957806395d89b4114610a1d578063985f422b14610aa05780639980ec8614610b02578063a22cb46514610b445761023d565b80636c0360eb146108a45780637017d4f11461092757806370a0823114610945578063715018a61461099d5780638bb126a7146109a75761023d565b806323b872dd116101c95780632f745c591161018d5780632f745c59146106e257806342842e0e14610744578063466cd5e5146107b25780634f6ccce71461080a5780636352211e1461084c5761023d565b806323b872dd1461051e578063266487c41461058c5780632a03fd7e146105e45780632c83e86f146106265780632ca8625f1461066a5761023d565b8063095ea7b311610210578063095ea7b3146103d857806318160ddd14610426578063183675181461044457806318a064a51461049c5780631a39d8ef146105005761023d565b806301ffc9a71461024257806304426db4146102a557806306fdde03146102fd578063081812fc14610380575b600080fd5b61028d6004803603602081101561025857600080fd5b8101908080357bffffffffffffffffffffffffffffffffffffffffffffffffffffffff19169060200190929190505050611026565b60405180821515815260200191505060405180910390f35b6102e7600480360360208110156102bb57600080fd5b81019080803573ffffffffffffffffffffffffffffffffffffffff16906020019092919050505061108d565b6040518082815260200191505060405180910390f35b61030561111b565b6040518080602001828103825283818151815260200191508051906020019080838360005b8381101561034557808201518184015260208101905061032a565b50505050905090810190601f1680156103725780820380516001836020036101000a031916815260200191505b509250505060405180910390f35b6103ac6004803603602081101561039657600080fd5b81019080803590602001909291905050506111bd565b604051808273ffffffffffffffffffffffffffffffffffffffff16815260200191505060405180910390f35b610424600480360360408110156103ee57600080fd5b81019080803573ffffffffffffffffffffffffffffffffffffffff16906020019092919080359060200190929190505050611258565b005b61042e61139c565b6040518082815260200191505060405180910390f35b6104866004803603602081101561045a57600080fd5b81019080803573ffffffffffffffffffffffffffffffffffffffff1690602001909291905050506113ad565b6040518082815260200191505060405180910390f35b6104e8600480360360408110156104b257600080fd5b81019080803573ffffffffffffffffffffffffffffffffffffffff1690602001909291908035906020019092919050505061142f565b60405180821515815260200191505060405180910390f35b610508611581565b6040518082815260200191505060405180910390f35b61058a6004803603606081101561053457600080fd5b81019080803573ffffffffffffffffffffffffffffffffffffffff169060200190929190803573ffffffffffffffffffffffffffffffffffffffff169060200190929190803590602001909291905050506115d2565b005b6105ce600480360360208110156105a257600080fd5b81019080803573ffffffffffffffffffffffffffffffffffffffff169060200190929190505050611648565b6040518082815260200191505060405180910390f35b610610600480360360208110156105fa57600080fd5b81019080803590602001909291905050506116a3565b6040518082815260200191505060405180910390f35b6106686004803603602081101561063c57600080fd5b81019080803573ffffffffffffffffffffffffffffffffffffffff1690602001909291905050506116d5565b005b6106e06004803603608081101561068057600080fd5b81019080803573ffffffffffffffffffffffffffffffffffffffff16906020019092919080359060200190929190803573ffffffffffffffffffffffffffffffffffffffff169060200190929190803590602001909291905050506117e3565b005b61072e600480360360408110156106f857600080fd5b81019080803573ffffffffffffffffffffffffffffffffffffffff16906020019092919080359060200190929190505050611889565b6040518082815260200191505060405180910390f35b6107b06004803603606081101561075a57600080fd5b81019080803573ffffffffffffffffffffffffffffffffffffffff169060200190929190803573ffffffffffffffffffffffffffffffffffffffff169060200190929190803590602001909291905050506118e4565b005b6107de600480360360208110156107c857600080fd5b8101908080359060200190929190505050611904565b604051808273ffffffffffffffffffffffffffffffffffffffff16815260200191505060405180910390f35b6108366004803603602081101561082057600080fd5b8101908080359060200190929190505050611980565b6040518082815260200191505060405180910390f35b6108786004803603602081101561086257600080fd5b81019080803590602001909291905050506119a3565b604051808273ffffffffffffffffffffffffffffffffffffffff16815260200191505060405180910390f35b6108ac6119da565b6040518080602001828103825283818151815260200191508051906020019080838360005b838110156108ec5780820151818401526020810190506108d1565b50505050905090810190601f1680156109195780820380516001836020036101000a031916815260200191505b509250505060405180910390f35b61092f611a7c565b6040518082815260200191505060405180910390f35b6109876004803603602081101561095b57600080fd5b81019080803573ffffffffffffffffffffffffffffffffffffffff169060200190929190505050611a86565b6040518082815260200191505060405180910390f35b6109a5611b5b565b005b6109d3600480360360208110156109bd57600080fd5b8101908080359060200190929190505050611ce6565b6040518082815260200191505060405180910390f35b6109f1611d18565b604051808273ffffffffffffffffffffffffffffffffffffffff16815260200191505060405180910390f35b610a25611d42565b6040518080602001828103825283818151815260200191508051906020019080838360005b83811015610a65578082015181840152602081019050610a4a565b50505050905090810190601f168015610a925780820380516001836020036101000a031916815260200191505b509250505060405180910390f35b610aec60048036036040811015610ab657600080fd5b81019080803573ffffffffffffffffffffffffffffffffffffffff16906020019092919080359060200190929190505050611de4565b6040518082815260200191505060405180910390f35b610b2e60048036036020811015610b1857600080fd5b8101908080359060200190929190505050611e57565b6040518082815260200191505060405180910390f35b610b9260048036036040811015610b5a57600080fd5b81019080803573ffffffffffffffffffffffffffffffffffffffff169060200190929190803515159060200190929190505050611e89565b005b610bc060048036036020811015610baa57600080fd5b810190808035906020019092919050505061203f565b604051808781526020018673ffffffffffffffffffffffffffffffffffffffff1681526020018581526020018481526020018381526020018215158152602001965050505050505060405180910390f35b610c4760048036036040811015610c2757600080fd5b810190808035906020019092919080359060200190929190505050612126565b005b610d4c60048036036080811015610c5f57600080fd5b81019080803573ffffffffffffffffffffffffffffffffffffffff169060200190929190803573ffffffffffffffffffffffffffffffffffffffff1690602001909291908035906020019092919080359060200190640100000000811115610cc657600080fd5b820183602082011115610cd857600080fd5b80359060200191846001830284011164010000000083111715610cfa57600080fd5b91908080601f016020809104026020016040519081016040528093929190818152602001838380828437600081840152601f19601f820116905080830192505050505050509192919290505050612299565b005b610d7a60048036036020811015610d6457600080fd5b8101908080359060200190929190505050612311565b6040518080602001828103825283818151815260200191508051906020019080838360005b83811015610dba578082015181840152602081019050610d9f565b50505050905090810190601f168015610de75780820380516001836020036101000a031916815260200191505b509250505060405180910390f35b610e4160048036036040811015610e0b57600080fd5b81019080803573ffffffffffffffffffffffffffffffffffffffff169060200190929190803590602001909291905050506125fa565b005b610e8f60048036036040811015610e5957600080fd5b81019080803573ffffffffffffffffffffffffffffffffffffffff16906020019092919080359060200190929190505050612715565b60405180821515815260200191505060405180910390f35b610ed360048036036020811015610ebd57600080fd5b8101908080359060200190929190505050612809565b60405180821515815260200191505060405180910390f35b610f1760048036036020811015610f0157600080fd5b8101908080359060200190929190505050612848565b604051808781526020018673ffffffffffffffffffffffffffffffffffffffff1681526020018581526020018481526020018381526020018215158152602001965050505050505060405180910390f35b610fca60048036036040811015610f7e57600080fd5b81019080803573ffffffffffffffffffffffffffffffffffffffff169060200190929190803573ffffffffffffffffffffffffffffffffffffffff1690602001909291905050506128b1565b60405180821515815260200191505060405180910390f35b61102460048036036020811015610ff857600080fd5b81019080803573ffffffffffffffffffffffffffffffffffffffff169060200190929190505050612945565b005b6000806000837bffffffffffffffffffffffffffffffffffffffffffffffffffffffff19167bffffffffffffffffffffffffffffffffffffffffffffffffffffffff1916815260200190815260200160002060009054906101000a900460ff169050919050565b60008060009050600061109f84611a86565b905060005b8181101561111057600c60006110ba8784611889565b815260200190815260200160002060050160009054906101000a900460ff161561110357600c60006110ec8784611889565b815260200190815260200160002060000154830192505b80806001019150506110a4565b508192505050919050565b606060068054600181600116156101000203166002900480601f0160208091040260200160405190810160405280929190818152602001828054600181600116156101000203166002900480156111b35780601f10611188576101008083540402835291602001916111b3565b820191906000526020600020905b81548152906001019060200180831161119657829003601f168201915b5050505050905090565b60006111c882612b55565b61121d576040517f08c379a000000000000000000000000000000000000000000000000000000000815260040180806020018281038252602c815260200180614a71602c913960400191505060405180910390fd5b6004600083815260200190815260200160002060009054906101000a900473ffffffffffffffffffffffffffffffffffffffff169050919050565b6000611263826119a3565b90508073ffffffffffffffffffffffffffffffffffffffff168373ffffffffffffffffffffffffffffffffffffffff1614156112ea576040517f08c379a0000000000000000000000000000000000000000000000000000000008152600401808060200182810382526021815260200180614af56021913960400191505060405180910390fd5b8073ffffffffffffffffffffffffffffffffffffffff16611309612b72565b73ffffffffffffffffffffffffffffffffffffffff161480611338575061133781611332612b72565b6128b1565b5b61138d576040517f08c379a00000000000000000000000000000000000000000000000000000000081526004018080602001828103825260388152602001806149c46038913960400191505060405180910390fd5b6113978383612b7a565b505050565b60006113a86002612c33565b905090565b60008073ffffffffffffffffffffffffffffffffffffffff168273ffffffffffffffffffffffffffffffffffffffff1614156113e857600080fd5b601060008373ffffffffffffffffffffffffffffffffffffffff1673ffffffffffffffffffffffffffffffffffffffff168152602001908152602001600020549050919050565b6000600b60009054906101000a900473ffffffffffffffffffffffffffffffffffffffff1673ffffffffffffffffffffffffffffffffffffffff163373ffffffffffffffffffffffffffffffffffffffff161461148b57600080fd5b61149482612b55565b61149d57600080fd5b8273ffffffffffffffffffffffffffffffffffffffff166114bd836119a3565b73ffffffffffffffffffffffffffffffffffffffff16146114dd57600080fd5b600c60008381526020019081526020016000206003015442106114ff57600080fd5b60001515600c600084815260200190815260200160002060050160009054906101000a900460ff1615151461153357600080fd5b6000600c6000848152602001908152602001600020905060018160050160006101000a81548160ff021916908315150217905550806002015442018160040181905550600191505092915050565b6000806000905060005b61159361139c565b8110156115ca57600c60006115a783611980565b81526020019081526020016000206000015482019150808060010191505061158b565b508091505090565b6115e36115dd612b72565b82612c48565b611638576040517f08c379a0000000000000000000000000000000000000000000000000000000008152600401808060200182810382526031815260200180614b166031913960400191505060405180910390fd5b611643838383612d3c565b505050565b60008060009050600061165a84611a86565b905060005b8181101561169857600c60006116758784611889565b81526020019081526020016000206000015483019250808060010191505061165f565b508192505050919050565b60006116ae82612b55565b6116b757600080fd5b600c6000838152602001908152602001600020600301549050919050565b6116dd612b72565b73ffffffffffffffffffffffffffffffffffffffff16600a60009054906101000a900473ffffffffffffffffffffffffffffffffffffffff1673ffffffffffffffffffffffffffffffffffffffff161461179f576040517f08c379a00000000000000000000000000000000000000000000000000000000081526004018080602001828103825260208152602001807f4f776e61626c653a2063616c6c6572206973206e6f7420746865206f776e657281525060200191505060405180910390fd5b80600b60006101000a81548173ffffffffffffffffffffffffffffffffffffffff021916908373ffffffffffffffffffffffffffffffffffffffff16021790555050565b600b60009054906101000a900473ffffffffffffffffffffffffffffffffffffffff1673ffffffffffffffffffffffffffffffffffffffff163373ffffffffffffffffffffffffffffffffffffffff161461183d57600080fd5b6000611847611a7c565b90506118538582612f7f565b61185d8382613173565b60006012544201905061187582868686856000613391565b600160115401601181905550505050505050565b60006118dc82600160008673ffffffffffffffffffffffffffffffffffffffff1673ffffffffffffffffffffffffffffffffffffffff16815260200190815260200160002061349690919063ffffffff16565b905092915050565b6118ff83838360405180602001604052806000815250612299565b505050565b600080600f600084815260200190815260200160002060009054906101000a900473ffffffffffffffffffffffffffffffffffffffff169050600073ffffffffffffffffffffffffffffffffffffffff168173ffffffffffffffffffffffffffffffffffffffff16141561197757600080fd5b80915050919050565b6000806119978360026134b090919063ffffffff16565b50905080915050919050565b60006119d382604051806060016040528060298152602001614a266029913960026134dc9092919063ffffffff16565b9050919050565b606060098054600181600116156101000203166002900480601f016020809104026020016040519081016040528092919081815260200182805460018160011615610100020316600290048015611a725780601f10611a4757610100808354040283529160200191611a72565b820191906000526020600020905b815481529060010190602001808311611a5557829003601f168201915b5050505050905090565b6000601154905090565b60008073ffffffffffffffffffffffffffffffffffffffff168273ffffffffffffffffffffffffffffffffffffffff161415611b0d576040517f08c379a000000000000000000000000000000000000000000000000000000000815260040180806020018281038252602a8152602001806149fc602a913960400191505060405180910390fd5b611b54600160008473ffffffffffffffffffffffffffffffffffffffff1673ffffffffffffffffffffffffffffffffffffffff1681526020019081526020016000206134fb565b9050919050565b611b63612b72565b73ffffffffffffffffffffffffffffffffffffffff16600a60009054906101000a900473ffffffffffffffffffffffffffffffffffffffff1673ffffffffffffffffffffffffffffffffffffffff1614611c25576040517f08c379a00000000000000000000000000000000000000000000000000000000081526004018080602001828103825260208152602001807f4f776e61626c653a2063616c6c6572206973206e6f7420746865206f776e657281525060200191505060405180910390fd5b600073ffffffffffffffffffffffffffffffffffffffff16600a60009054906101000a900473ffffffffffffffffffffffffffffffffffffffff1673ffffffffffffffffffffffffffffffffffffffff167f8be0079c531659141344cd1fd0a4f28419497f9722a3daafe3b4186f6b6457e060405160405180910390a36000600a60006101000a81548173ffffffffffffffffffffffffffffffffffffffff021916908373ffffffffffffffffffffffffffffffffffffffff160217905550565b6000611cf182612b55565b611cfa57600080fd5b600c6000838152602001908152602001600020600201549050919050565b6000600a60009054906101000a900473ffffffffffffffffffffffffffffffffffffffff16905090565b606060078054600181600116156101000203166002900480601f016020809104026020016040519081016040528092919081815260200182805460018160011615610100020316600290048015611dda5780601f10611daf57610100808354040283529160200191611dda565b820191906000526020600020905b815481529060010190602001808311611dbd57829003601f168201915b5050505050905090565b6000611def836113ad565b8210611dfa57600080fd5b600d60008473ffffffffffffffffffffffffffffffffffffffff1673ffffffffffffffffffffffffffffffffffffffff1681526020019081526020016000208281548110611e4457fe5b9060005260206000200154905092915050565b6000611e6282612b55565b611e6b57600080fd5b600c6000838152602001908152602001600020600001549050919050565b611e91612b72565b73ffffffffffffffffffffffffffffffffffffffff168273ffffffffffffffffffffffffffffffffffffffff161415611f32576040517f08c379a00000000000000000000000000000000000000000000000000000000081526004018080602001828103825260198152602001807f4552433732313a20617070726f766520746f2063616c6c65720000000000000081525060200191505060405180910390fd5b8060056000611f3f612b72565b73ffffffffffffffffffffffffffffffffffffffff1673ffffffffffffffffffffffffffffffffffffffff16815260200190815260200160002060008473ffffffffffffffffffffffffffffffffffffffff1673ffffffffffffffffffffffffffffffffffffffff16815260200190815260200160002060006101000a81548160ff0219169083151502179055508173ffffffffffffffffffffffffffffffffffffffff16611fec612b72565b73ffffffffffffffffffffffffffffffffffffffff167f17307eab39ab6107e8899845ad3d59bd9653f200f220920489ca2b5937696c318360405180821515815260200191505060405180910390a35050565b60008060008060008061205187612b55565b61205a57600080fd5b600c600088815260200190815260200160002060000154600c600089815260200190815260200160002060010160009054906101000a900473ffffffffffffffffffffffffffffffffffffffff16600c60008a815260200190815260200160002060020154600c60008b815260200190815260200160002060030154600c60008c815260200190815260200160002060040154600c60008d815260200190815260200160002060050160009054906101000a900460ff1695509550955095509550955091939550919395565b61212f82612b55565b61213857600080fd5b3373ffffffffffffffffffffffffffffffffffffffff16612158836119a3565b73ffffffffffffffffffffffffffffffffffffffff161461217857600080fd5b60001515600c600084815260200190815260200160002060050160009054906101000a900460ff161515146121ac57600080fd5b600c60008381526020019081526020016000206003015442106121ce57600080fd5b6121d782611e57565b81106121e257600080fd5b60006121ec611a7c565b90506000600c6000858152602001908152602001600020905082816000015403816000018190555061221e3383612f7f565b61224c8160010160009054906101000a900473ffffffffffffffffffffffffffffffffffffffff1683613173565b61228782848360010160009054906101000a900473ffffffffffffffffffffffffffffffffffffffff16846002015485600301546000613391565b60016011540160118190555050505050565b6122aa6122a4612b72565b83612c48565b6122ff576040517f08c379a0000000000000000000000000000000000000000000000000000000008152600401808060200182810382526031815260200180614b166031913960400191505060405180910390fd5b61230b84848484613510565b50505050565b606061231c82612b55565b612371576040517f08c379a000000000000000000000000000000000000000000000000000000000815260040180806020018281038252602f815260200180614ac6602f913960400191505060405180910390fd5b6000600860008481526020019081526020016000208054600181600116156101000203166002900480601f01602080910402602001604051908101604052809291908181526020018280546001816001161561010002031660029004801561241a5780601f106123ef5761010080835404028352916020019161241a565b820191906000526020600020905b8154815290600101906020018083116123fd57829003601f168201915b5050505050905060006009805460018160011615610100020316600290049050141561244957809150506125f5565b6000815111156125225760098160405160200180838054600181600116156101000203166002900480156124b45780601f106124925761010080835404028352918201916124b4565b820191906000526020600020905b8154815290600101906020018083116124a0575b505082805190602001908083835b602083106124e557805182526020820191506020810190506020830392506124c2565b6001836020036101000a038019825116818451168082178552505050505050905001925050506040516020818303038152906040529150506125f5565b600961252d84613582565b604051602001808380546001816001161561010002031660029004801561258b5780601f1061256957610100808354040283529182019161258b565b820191906000526020600020905b815481529060010190602001808311612577575b505082805190602001908083835b602083106125bc5780518252602082019150602081019050602083039250612599565b6001836020036101000a038019825116818451168082178552505050505050905001925050506040516020818303038152906040529150505b919050565b600b60009054906101000a900473ffffffffffffffffffffffffffffffffffffffff1673ffffffffffffffffffffffffffffffffffffffff163373ffffffffffffffffffffffffffffffffffffffff161461265457600080fd5b61265d81612b55565b61266657600080fd5b8173ffffffffffffffffffffffffffffffffffffffff16612686826119a3565b73ffffffffffffffffffffffffffffffffffffffff16146126a657600080fd5b600c60008281526020019081526020016000206004015442116126c857600080fd5b612708600c600083815260200190815260200160002060010160009054906101000a900473ffffffffffffffffffffffffffffffffffffffff16826136c9565b61271181613a04565b5050565b600061272082612b55565b61272957600080fd5b8273ffffffffffffffffffffffffffffffffffffffff16600c600084815260200190815260200160002060010160009054906101000a900473ffffffffffffffffffffffffffffffffffffffff1673ffffffffffffffffffffffffffffffffffffffff161461279757600080fd5b60001515600c600084815260200190815260200160002060050160009054906101000a900460ff16151514156127e757600c60008381526020019081526020016000206004015442119050612803565b600c600083815260200190815260200160002060030154421190505b92915050565b600061281482612b55565b61281d57600080fd5b600c600083815260200190815260200160002060050160009054906101000a900460ff169050919050565b600c6020528060005260406000206000915090508060000154908060010160009054906101000a900473ffffffffffffffffffffffffffffffffffffffff16908060020154908060030154908060040154908060050160009054906101000a900460ff16905086565b6000600560008473ffffffffffffffffffffffffffffffffffffffff1673ffffffffffffffffffffffffffffffffffffffff16815260200190815260200160002060008373ffffffffffffffffffffffffffffffffffffffff1673ffffffffffffffffffffffffffffffffffffffff16815260200190815260200160002060009054906101000a900460ff16905092915050565b61294d612b72565b73ffffffffffffffffffffffffffffffffffffffff16600a60009054906101000a900473ffffffffffffffffffffffffffffffffffffffff1673ffffffffffffffffffffffffffffffffffffffff1614612a0f576040517f08c379a00000000000000000000000000000000000000000000000000000000081526004018080602001828103825260208152602001807f4f776e61626c653a2063616c6c6572206973206e6f7420746865206f776e657281525060200191505060405180910390fd5b600073ffffffffffffffffffffffffffffffffffffffff168173ffffffffffffffffffffffffffffffffffffffff161415612a95576040517f08c379a00000000000000000000000000000000000000000000000000000000081526004018080602001828103825260268152602001806149286026913960400191505060405180910390fd5b8073ffffffffffffffffffffffffffffffffffffffff16600a60009054906101000a900473ffffffffffffffffffffffffffffffffffffffff1673ffffffffffffffffffffffffffffffffffffffff167f8be0079c531659141344cd1fd0a4f28419497f9722a3daafe3b4186f6b6457e060405160405180910390a380600a60006101000a81548173ffffffffffffffffffffffffffffffffffffffff021916908373ffffffffffffffffffffffffffffffffffffffff16021790555050565b6000612b6b826002613a8190919063ffffffff16565b9050919050565b600033905090565b816004600083815260200190815260200160002060006101000a81548173ffffffffffffffffffffffffffffffffffffffff021916908373ffffffffffffffffffffffffffffffffffffffff160217905550808273ffffffffffffffffffffffffffffffffffffffff16612bed836119a3565b73ffffffffffffffffffffffffffffffffffffffff167f8c5be1e5ebec7d5bd14f71427d1e84f3dd0314c0f7b2291e5b200ac8c7c3b92560405160405180910390a45050565b6000612c4182600001613a9b565b9050919050565b6000612c5382612b55565b612ca8576040517f08c379a000000000000000000000000000000000000000000000000000000000815260040180806020018281038252602c815260200180614998602c913960400191505060405180910390fd5b6000612cb3836119a3565b90508073ffffffffffffffffffffffffffffffffffffffff168473ffffffffffffffffffffffffffffffffffffffff161480612d2257508373ffffffffffffffffffffffffffffffffffffffff16612d0a846111bd565b73ffffffffffffffffffffffffffffffffffffffff16145b80612d335750612d3281856128b1565b5b91505092915050565b8273ffffffffffffffffffffffffffffffffffffffff16612d5c826119a3565b73ffffffffffffffffffffffffffffffffffffffff1614612dc8576040517f08c379a0000000000000000000000000000000000000000000000000000000008152600401808060200182810382526029815260200180614a9d6029913960400191505060405180910390fd5b600073ffffffffffffffffffffffffffffffffffffffff168273ffffffffffffffffffffffffffffffffffffffff161415612e4e576040517f08c379a000000000000000000000000000000000000000000000000000000000815260040180806020018281038252602481526020018061494e6024913960400191505060405180910390fd5b612e59838383613aac565b612e64600082612b7a565b612eb581600160008673ffffffffffffffffffffffffffffffffffffffff1673ffffffffffffffffffffffffffffffffffffffff168152602001908152602001600020613ab190919063ffffffff16565b50612f0781600160008573ffffffffffffffffffffffffffffffffffffffff1673ffffffffffffffffffffffffffffffffffffffff168152602001908152602001600020613acb90919063ffffffff16565b50612f1e81836002613ae59092919063ffffffff16565b50808273ffffffffffffffffffffffffffffffffffffffff168473ffffffffffffffffffffffffffffffffffffffff167fddf252ad1be2c89b69c2b068fc378daa952ba7f163c4a11628f55a4df523b3ef60405160405180910390a4505050565b600073ffffffffffffffffffffffffffffffffffffffff168273ffffffffffffffffffffffffffffffffffffffff161415613022576040517f08c379a00000000000000000000000000000000000000000000000000000000081526004018080602001828103825260208152602001807f4552433732313a206d696e7420746f20746865207a65726f206164647265737381525060200191505060405180910390fd5b61302b81612b55565b1561309e576040517f08c379a000000000000000000000000000000000000000000000000000000000815260040180806020018281038252601c8152602001807f4552433732313a20746f6b656e20616c7265616479206d696e7465640000000081525060200191505060405180910390fd5b6130aa60008383613aac565b6130fb81600160008573ffffffffffffffffffffffffffffffffffffffff1673ffffffffffffffffffffffffffffffffffffffff168152602001908152602001600020613acb90919063ffffffff16565b5061311281836002613ae59092919063ffffffff16565b50808273ffffffffffffffffffffffffffffffffffffffff16600073ffffffffffffffffffffffffffffffffffffffff167fddf252ad1be2c89b69c2b068fc378daa952ba7f163c4a11628f55a4df523b3ef60405160405180910390a45050565b600073ffffffffffffffffffffffffffffffffffffffff16600f600083815260200190815260200160002060009054906101000a900473ffffffffffffffffffffffffffffffffffffffff1673ffffffffffffffffffffffffffffffffffffffff16146131df57600080fd5b81600f600083815260200190815260200160002060006101000a81548173ffffffffffffffffffffffffffffffffffffffff021916908373ffffffffffffffffffffffffffffffffffffffff1602179055506132846001601060008573ffffffffffffffffffffffffffffffffffffffff1673ffffffffffffffffffffffffffffffffffffffff16815260200190815260200160002054613b1a90919063ffffffff16565b601060008473ffffffffffffffffffffffffffffffffffffffff1673ffffffffffffffffffffffffffffffffffffffff168152602001908152602001600020819055506000600d60008473ffffffffffffffffffffffffffffffffffffffff1673ffffffffffffffffffffffffffffffffffffffff168152602001908152602001600020805490509050600d60008473ffffffffffffffffffffffffffffffffffffffff1673ffffffffffffffffffffffffffffffffffffffff16815260200190815260200160002082908060018154018082558091505060019003906000526020600020016000909190919091505580600e600084815260200190815260200160002081905550505050565b61339a86612b55565b6133a357600080fd5b6040518060c001604052808681526020018573ffffffffffffffffffffffffffffffffffffffff16815260200184815260200183815260200182815260200160001515815250600c60008881526020019081526020016000206000820151816000015560208201518160010160006101000a81548173ffffffffffffffffffffffffffffffffffffffff021916908373ffffffffffffffffffffffffffffffffffffffff16021790555060408201518160020155606082015181600301556080820151816004015560a08201518160050160006101000a81548160ff021916908315150217905550905050505050505050565b60006134a58360000183613ba2565b60001c905092915050565b6000806000806134c38660000186613c25565b915091508160001c8160001c9350935050509250929050565b60006134ef846000018460001b84613cbe565b60001c90509392505050565b600061350982600001613db4565b9050919050565b61351b848484612d3c565b61352784848484613dc5565b61357c576040517f08c379a00000000000000000000000000000000000000000000000000000000081526004018080602001828103825260328152602001806148f66032913960400191505060405180910390fd5b50505050565b606060008214156135ca576040518060400160405280600181526020017f300000000000000000000000000000000000000000000000000000000000000081525090506136c4565b600082905060005b600082146135f4578080600101915050600a82816135ec57fe5b0491506135d2565b60008167ffffffffffffffff8111801561360d57600080fd5b506040519080825280601f01601f1916602001820160405280156136405781602001600182028036833780820191505090505b50905060006001830390508593505b600084146136bc57600a848161366157fe5b0660300160f81b8282806001900393508151811061367b57fe5b60200101907effffffffffffffffffffffffffffffffffffffffffffffffffffffffffffff1916908160001a905350600a84816136b457fe5b04935061364f565b819450505050505b919050565b8173ffffffffffffffffffffffffffffffffffffffff166136e982611904565b73ffffffffffffffffffffffffffffffffffffffff161461370957600080fd5b61375c6001601060008573ffffffffffffffffffffffffffffffffffffffff1673ffffffffffffffffffffffffffffffffffffffff16815260200190815260200160002054613fde90919063ffffffff16565b601060008473ffffffffffffffffffffffffffffffffffffffff1673ffffffffffffffffffffffffffffffffffffffff168152602001908152602001600020819055506000600f600083815260200190815260200160002060006101000a81548173ffffffffffffffffffffffffffffffffffffffff021916908373ffffffffffffffffffffffffffffffffffffffff1602179055506000600e600083815260200190815260200160002054905060006138626001600d60008773ffffffffffffffffffffffffffffffffffffffff1673ffffffffffffffffffffffffffffffffffffffff16815260200190815260200160002080549050613fde90919063ffffffff16565b90506000600d60008673ffffffffffffffffffffffffffffffffffffffff1673ffffffffffffffffffffffffffffffffffffffff16815260200190815260200160002082815481106138b057fe5b9060005260206000200154905080600d60008773ffffffffffffffffffffffffffffffffffffffff1673ffffffffffffffffffffffffffffffffffffffff168152602001908152602001600020848154811061390857fe5b90600052602060002001819055506000600d60008773ffffffffffffffffffffffffffffffffffffffff1673ffffffffffffffffffffffffffffffffffffffff168152602001908152602001600020838154811061396257fe5b9060005260206000200181905550600d60008673ffffffffffffffffffffffffffffffffffffffff1673ffffffffffffffffffffffffffffffffffffffff1681526020019081526020016000208054806139b857fe5b60019003818190600052602060002001600090559055600e60008581526020019081526020016000206000905582600e6000838152602001908152602001600020819055505050505050565b613a0d81614028565b600c60008281526020019081526020016000206000808201600090556001820160006101000a81549073ffffffffffffffffffffffffffffffffffffffff02191690556002820160009055600382016000905560048201600090556005820160006101000a81549060ff0219169055505050565b6000613a93836000018360001b614162565b905092915050565b600081600001805490509050919050565b505050565b6000613ac3836000018360001b614185565b905092915050565b6000613add836000018360001b61426d565b905092915050565b6000613b11846000018460001b8473ffffffffffffffffffffffffffffffffffffffff1660001b6142dd565b90509392505050565b600080828401905083811015613b98576040517f08c379a000000000000000000000000000000000000000000000000000000000815260040180806020018281038252601b8152602001807f536166654d6174683a206164646974696f6e206f766572666c6f77000000000081525060200191505060405180910390fd5b8091505092915050565b600081836000018054905011613c03576040517f08c379a00000000000000000000000000000000000000000000000000000000081526004018080602001828103825260228152602001806148d46022913960400191505060405180910390fd5b826000018281548110613c1257fe5b9060005260206000200154905092915050565b60008082846000018054905011613c87576040517f08c379a0000000000000000000000000000000000000000000000000000000008152600401808060200182810382526022815260200180614a4f6022913960400191505060405180910390fd5b6000846000018481548110613c9857fe5b906000526020600020906002020190508060000154816001015492509250509250929050565b60008084600101600085815260200190815260200160002054905060008114158390613d85576040517f08c379a00000000000000000000000000000000000000000000000000000000081526004018080602001828103825283818151815260200191508051906020019080838360005b83811015613d4a578082015181840152602081019050613d2f565b50505050905090810190601f168015613d775780820380516001836020036101000a031916815260200191505b509250505060405180910390fd5b50846000016001820381548110613d9857fe5b9060005260206000209060020201600101549150509392505050565b600081600001805490509050919050565b6000613de68473ffffffffffffffffffffffffffffffffffffffff166143b9565b613df35760019050613fd6565b6000613f5d63150b7a0260e01b613e08612b72565b888787604051602401808573ffffffffffffffffffffffffffffffffffffffff1681526020018473ffffffffffffffffffffffffffffffffffffffff16815260200183815260200180602001828103825283818151815260200191508051906020019080838360005b83811015613e8c578082015181840152602081019050613e71565b50505050905090810190601f168015613eb95780820380516001836020036101000a031916815260200191505b5095505050505050604051602081830303815290604052907bffffffffffffffffffffffffffffffffffffffffffffffffffffffff19166020820180517bffffffffffffffffffffffffffffffffffffffffffffffffffffffff83818316178352505050506040518060600160405280603281526020016148f6603291398773ffffffffffffffffffffffffffffffffffffffff166143cc9092919063ffffffff16565b90506000818060200190516020811015613f7657600080fd5b8101908080519060200190929190505050905063150b7a0260e01b7bffffffffffffffffffffffffffffffffffffffffffffffffffffffff1916817bffffffffffffffffffffffffffffffffffffffffffffffffffffffff191614925050505b949350505050565b600061402083836040518060400160405280601e81526020017f536166654d6174683a207375627472616374696f6e206f766572666c6f7700008152506143e4565b905092915050565b6000614033826119a3565b905061404181600084613aac565b61404c600083612b7a565b6000600860008481526020019081526020016000208054600181600116156101000203166002900490501461409b5760086000838152602001908152602001600020600061409a919061486e565b5b6140ec82600160008473ffffffffffffffffffffffffffffffffffffffff1673ffffffffffffffffffffffffffffffffffffffff168152602001908152602001600020613ab190919063ffffffff16565b506141018260026144a490919063ffffffff16565b5081600073ffffffffffffffffffffffffffffffffffffffff168273ffffffffffffffffffffffffffffffffffffffff167fddf252ad1be2c89b69c2b068fc378daa952ba7f163c4a11628f55a4df523b3ef60405160405180910390a45050565b600080836001016000848152602001908152602001600020541415905092915050565b6000808360010160008481526020019081526020016000205490506000811461426157600060018203905060006001866000018054905003905060008660000182815481106141d057fe5b90600052602060002001549050808760000184815481106141ed57fe5b906000526020600020018190555060018301876001016000838152602001908152602001600020819055508660000180548061422557fe5b60019003818190600052602060002001600090559055866001016000878152602001908152602001600020600090556001945050505050614267565b60009150505b92915050565b600061427983836144be565b6142d25782600001829080600181540180825580915050600190039060005260206000200160009091909190915055826000018054905083600101600084815260200190815260200160002081905550600190506142d7565b600090505b92915050565b6000808460010160008581526020019081526020016000205490506000811415614384578460000160405180604001604052808681526020018581525090806001815401808255809150506001900390600052602060002090600202016000909190919091506000820151816000015560208201518160010155505084600001805490508560010160008681526020019081526020016000208190555060019150506143b2565b8285600001600183038154811061439757fe5b90600052602060002090600202016001018190555060009150505b9392505050565b600080823b905060008111915050919050565b60606143db84846000856144e1565b90509392505050565b6000838311158290614491576040517f08c379a00000000000000000000000000000000000000000000000000000000081526004018080602001828103825283818151815260200191508051906020019080838360005b8381101561445657808201518184015260208101905061443b565b50505050905090810190601f1680156144835780820380516001836020036101000a031916815260200191505b509250505060405180910390fd5b5060008385039050809150509392505050565b60006144b6836000018360001b614689565b905092915050565b600080836001016000848152602001908152602001600020541415905092915050565b60608247101561453c576040517f08c379a00000000000000000000000000000000000000000000000000000000081526004018080602001828103825260268152602001806149726026913960400191505060405180910390fd5b614545856143b9565b6145b7576040517f08c379a000000000000000000000000000000000000000000000000000000000815260040180806020018281038252601d8152602001807f416464726573733a2063616c6c20746f206e6f6e2d636f6e747261637400000081525060200191505060405180910390fd5b6000808673ffffffffffffffffffffffffffffffffffffffff1685876040518082805190602001908083835b6020831061460657805182526020820191506020810190506020830392506145e3565b6001836020036101000a03801982511681845116808217855250505050505090500191505060006040518083038185875af1925050503d8060008114614668576040519150601f19603f3d011682016040523d82523d6000602084013e61466d565b606091505b509150915061467d8282866147a2565b92505050949350505050565b6000808360010160008481526020019081526020016000205490506000811461479657600060018203905060006001866000018054905003905060008660000182815481106146d457fe5b90600052602060002090600202019050808760000184815481106146f457fe5b906000526020600020906002020160008201548160000155600182015481600101559050506001830187600101600083600001548152602001908152602001600020819055508660000180548061474757fe5b600190038181906000526020600020906002020160008082016000905560018201600090555050905586600101600087815260200190815260200160002060009055600194505050505061479c565b60009150505b92915050565b606083156147b257829050614867565b6000835111156147c55782518084602001fd5b816040517f08c379a00000000000000000000000000000000000000000000000000000000081526004018080602001828103825283818151815260200191508051906020019080838360005b8381101561482c578082015181840152602081019050614811565b50505050905090810190601f1680156148595780820380516001836020036101000a031916815260200191505b509250505060405180910390fd5b9392505050565b50805460018160011615610100020316600290046000825580601f1061489457506148b3565b601f0160209004906000526020600020908101906148b291906148b6565b5b50565b5b808211156148cf5760008160009055506001016148b7565b509056fe456e756d657261626c655365743a20696e646578206f7574206f6620626f756e64734552433732313a207472616e7366657220746f206e6f6e20455243373231526563656976657220696d706c656d656e7465724f776e61626c653a206e6577206f776e657220697320746865207a65726f20616464726573734552433732313a207472616e7366657220746f20746865207a65726f2061646472657373416464726573733a20696e73756666696369656e742062616c616e636520666f722063616c6c4552433732313a206f70657261746f7220717565727920666f72206e6f6e6578697374656e7420746f6b656e4552433732313a20617070726f76652063616c6c6572206973206e6f74206f776e6572206e6f7220617070726f76656420666f7220616c6c4552433732313a2062616c616e636520717565727920666f7220746865207a65726f20616464726573734552433732313a206f776e657220717565727920666f72206e6f6e6578697374656e7420746f6b656e456e756d657261626c654d61703a20696e646578206f7574206f6620626f756e64734552433732313a20617070726f76656420717565727920666f72206e6f6e6578697374656e7420746f6b656e4552433732313a207472616e73666572206f6620746f6b656e2074686174206973206e6f74206f776e4552433732314d657461646174613a2055524920717565727920666f72206e6f6e6578697374656e7420746f6b656e4552433732313a20617070726f76616c20746f2063757272656e74206f776e65724552433732313a207472616e736665722063616c6c6572206973206e6f74206f776e6572206e6f7220617070726f766564a26469706673582212208c7b8a25659c21c20a06412ac8cb7d4f60a6f531f86073e82c3ab60947aa01bf64736f6c63430007060033",
  "immutableReferences": {},
  "source": "pragma solidity ^0.7.6;\n\nimport \"@openzeppelin/contracts/token/ERC721/ERC721.sol\";\nimport \"@openzeppelin/contracts/access/Ownable.sol\";\nimport \"@openzeppelin/contracts/math/SafeMath.sol\";\n\ncontract LeasedEmblem is ERC721, Ownable {\n  using SafeMath for uint256;\n\n  address internal leaseExchange;\n\n\n  struct Metadata {\n    uint256 amount;\n    address leasor;\n    uint256 duration;\n    uint256 tradeExpiry;\n    uint256 leaseExpiry;\n    bool isMining;\n  }\n\n  mapping(uint256 => Metadata) public metadata;\n\n\n  mapping(address => uint256[]) internal leasedTokens;\n\n\n  mapping(uint256 => uint256) internal leasedTokensIndex;\n\n\n  mapping (uint256 => address) internal tokenLeasor;\n\n\n  mapping (address => uint256) internal leasedTokensCount;\n\n  uint256 highestId = 1;\n\n  uint256 sixMonths = 15768000;\n\n  constructor (string memory _name, string memory _symbol) public ERC721(_name, _symbol) {\n  }\n\n\n  function getNewId() public view returns(uint256) {\n    return highestId;\n  }\n\n  function leasorOf(uint256 _tokenId) public view returns (address) {\n    address owner = tokenLeasor[_tokenId];\n    require(owner != address(0));\n    return owner;\n  }\n\n  function balanceOfLeasor(address _leasor) public view returns (uint256) {\n    require(_leasor != address(0));\n    return leasedTokensCount[_leasor];\n  }\n\n  function tokenOfLeasorByIndex(address _leasor,uint256 _index) public view returns (uint256){\n    require(_index < balanceOfLeasor(_leasor));\n    return leasedTokens[_leasor][_index];\n  }\n\n  function addTokenToLeasor(address _to, uint256 _tokenId) internal {\n    require(tokenLeasor[_tokenId] == address(0));\n    tokenLeasor[_tokenId] = _to;\n    leasedTokensCount[_to] = leasedTokensCount[_to].add(1);\n    uint256 length = leasedTokens[_to].length;\n    leasedTokens[_to].push(_tokenId);\n    leasedTokensIndex[_tokenId] = length;\n  }\n\n  function removeTokenFromLeasor(address _from, uint256 _tokenId) internal {\n    require(leasorOf(_tokenId) == _from);\n    leasedTokensCount[_from] = leasedTokensCount[_from].sub(1);\n    tokenLeasor[_tokenId] = address(0);\n\n    uint256 tokenIndex = leasedTokensIndex[_tokenId];\n    uint256 lastTokenIndex = leasedTokens[_from].length.sub(1);\n    uint256 lastToken = leasedTokens[_from][lastTokenIndex];\n\n    leasedTokens[_from][tokenIndex] = lastToken;\n    leasedTokens[_from][lastTokenIndex] = 0;\n    leasedTokens[_from].pop();\n    delete leasedTokensIndex[_tokenId];\n    leasedTokensIndex[lastToken] = tokenIndex;\n  }\n\n  function setLeaseExchange(address _leaseExchange) public onlyOwner {\n    leaseExchange = _leaseExchange;\n  }\n\n  function totalAmount() external view returns (uint256) {\n    uint256 amount = 0;\n    for(uint256 i = 0; i < totalSupply(); i++){\n      amount += metadata[tokenByIndex(i)].amount;\n    }\n    return amount;\n  }\n\n  function setMetadata(uint256 _tokenId, uint256 amount, address leasor, uint256 duration,uint256 tradeExpiry, uint256 leaseExpiry) internal {\n    require(_exists(_tokenId));\n    metadata[_tokenId]= Metadata(amount,leasor,duration,tradeExpiry,leaseExpiry,false);\n  }\n\n  function getMetadata(uint256 _tokenId) public view returns (uint256, address, uint256, uint256,uint256, bool) {\n    require(_exists(_tokenId));\n    return (\n      metadata[_tokenId].amount,\n      metadata[_tokenId].leasor,\n      metadata[_tokenId].duration,\n      metadata[_tokenId].tradeExpiry,\n      metadata[_tokenId].leaseExpiry,\n      metadata[_tokenId].isMining\n    );\n  }\n\n  function getAmountForUser(address owner) external view returns (uint256) {\n    uint256 amount = 0;\n    uint256 numTokens = balanceOf(owner);\n\n    for(uint256 i = 0; i < numTokens; i++){\n      amount += metadata[tokenOfOwnerByIndex(owner,i)].amount;\n    }\n    return amount;\n  }\n\n  function getAmountForUserMining(address owner) external view returns (uint256) {\n    uint256 amount = 0;\n    uint256 numTokens = balanceOf(owner);\n\n    for(uint256 i = 0; i < numTokens; i++){\n      if(metadata[tokenOfOwnerByIndex(owner,i)].isMining) {\n        amount += metadata[tokenOfOwnerByIndex(owner,i)].amount;\n      }\n    }\n    return amount;\n  }\n\n  function getAmount(uint256 _tokenId) public view returns (uint256) {\n    require(_exists(_tokenId));\n    return metadata[_tokenId].amount;\n  }\n\n  function getTradeExpiry(uint256 _tokenId) public view returns (uint256) {\n    require(_exists(_tokenId));\n    return metadata[_tokenId].tradeExpiry;\n  }\n\n  function getDuration(uint256 _tokenId) public view returns (uint256) {\n    require(_exists(_tokenId));\n    return metadata[_tokenId].duration;\n  }\n\n  function getIsMining(uint256 _tokenId) public view returns (bool) {\n    require(_exists(_tokenId));\n    return metadata[_tokenId].isMining;\n  }\n\n  function startMining(address _owner, uint256 _tokenId) public returns (bool) {\n    require(msg.sender == leaseExchange);\n    require(_exists(_tokenId));\n    require(ownerOf(_tokenId) == _owner);\n    require(block.timestamp < metadata[_tokenId].tradeExpiry);\n    require(metadata[_tokenId].isMining == false);\n    Metadata storage m = metadata[_tokenId];\n    m.isMining = true;\n    m.leaseExpiry = block.timestamp + m.duration;\n    return true;\n  }\n\n  function canRetrieveEMB(address _leasor, uint256 _tokenId) public view returns (bool) {\n    require(_exists(_tokenId));\n    require(metadata[_tokenId].leasor == _leasor);\n    if(metadata[_tokenId].isMining == false) {\n      return(block.timestamp > metadata[_tokenId].leaseExpiry);\n    }\n    else {\n      return(block.timestamp > metadata[_tokenId].tradeExpiry);\n    }\n  }\n\n  function endLease(address _leasee, uint256 _tokenId) public {\n    require(msg.sender == leaseExchange);\n    require(_exists(_tokenId));\n    require(ownerOf(_tokenId) == _leasee);\n    require(block.timestamp > metadata[_tokenId].leaseExpiry);\n    removeTokenFromLeasor(metadata[_tokenId].leasor, _tokenId);\n    _burn(_tokenId);\n  }\n\n  function splitLEMB(uint256 _tokenId, uint256 amount) public {\n    require(_exists(_tokenId));\n    require(ownerOf(_tokenId) == msg.sender);\n    require(metadata[_tokenId].isMining == false);\n    require(block.timestamp < metadata[_tokenId].tradeExpiry);\n    require(amount < getAmount(_tokenId));\n\n    uint256 _newTokenId = getNewId();\n\n    Metadata storage m = metadata[_tokenId];\n    m.amount = m.amount - amount;\n\n    _mint(msg.sender, _newTokenId);\n    addTokenToLeasor(m.leasor, _newTokenId);\n    setMetadata(_newTokenId, amount, m.leasor, m.duration,m.tradeExpiry, 0);\n    highestId = highestId + 1;\n  }\n\n  function mintUniqueTokenTo(address _to, uint256 amount, address leasor, uint256 duration) public {\n    require(msg.sender == leaseExchange);\n    uint256 _tokenId = getNewId();\n    _mint(_to, _tokenId);\n    addTokenToLeasor(leasor, _tokenId);\n    uint256 tradeExpiry = block.timestamp + sixMonths;\n    setMetadata(_tokenId, amount, leasor, duration,tradeExpiry, 0);\n    highestId = highestId + 1;\n  }\n\n  function _burn(uint256 _tokenId) override internal {\n    super._burn(_tokenId);\n    delete metadata[_tokenId];\n  }\n\n  modifier canTransfer(uint256 _tokenId) {\n    require(_isApprovedOrOwner(msg.sender, _tokenId));\n    require(metadata[_tokenId].isMining == false);\n    _;\n  }\n\n}\n",
  "sourcePath": "/Users/arjunjain/Emblem_Ethereum_Anchor/contracts/LeasedEmblem.sol",
  "compiler": {
    "name": "solc",
    "version": "0.7.6+commit.7338295f.Emscripten.clang"
  },
  "schemaVersion": "3.3.3",
  "updatedAt": "2021-01-28T01:07:42.212Z",
  "devdoc": {
    "kind": "dev",
    "methods": {
      "approve(address,uint256)": {
        "details": "See {IERC721-approve}."
      },
      "balanceOf(address)": {
        "details": "See {IERC721-balanceOf}."
      },
      "baseURI()": {
        "details": "Returns the base URI set via {_setBaseURI}. This will be automatically added as a prefix in {tokenURI} to each token's URI, or to the token ID if no specific URI is set for that token ID."
      },
      "getApproved(uint256)": {
        "details": "See {IERC721-getApproved}."
      },
      "isApprovedForAll(address,address)": {
        "details": "See {IERC721-isApprovedForAll}."
      },
      "name()": {
        "details": "See {IERC721Metadata-name}."
      },
      "owner()": {
        "details": "Returns the address of the current owner."
      },
      "ownerOf(uint256)": {
        "details": "See {IERC721-ownerOf}."
      },
      "renounceOwnership()": {
        "details": "Leaves the contract without owner. It will not be possible to call `onlyOwner` functions anymore. Can only be called by the current owner. NOTE: Renouncing ownership will leave the contract without an owner, thereby removing any functionality that is only available to the owner."
      },
      "safeTransferFrom(address,address,uint256)": {
        "details": "See {IERC721-safeTransferFrom}."
      },
      "safeTransferFrom(address,address,uint256,bytes)": {
        "details": "See {IERC721-safeTransferFrom}."
      },
      "setApprovalForAll(address,bool)": {
        "details": "See {IERC721-setApprovalForAll}."
      },
      "supportsInterface(bytes4)": {
        "details": "See {IERC165-supportsInterface}. Time complexity O(1), guaranteed to always use less than 30 000 gas."
      },
      "symbol()": {
        "details": "See {IERC721Metadata-symbol}."
      },
      "tokenByIndex(uint256)": {
        "details": "See {IERC721Enumerable-tokenByIndex}."
      },
      "tokenOfOwnerByIndex(address,uint256)": {
        "details": "See {IERC721Enumerable-tokenOfOwnerByIndex}."
      },
      "tokenURI(uint256)": {
        "details": "See {IERC721Metadata-tokenURI}."
      },
      "totalSupply()": {
        "details": "See {IERC721Enumerable-totalSupply}."
      },
      "transferFrom(address,address,uint256)": {
        "details": "See {IERC721-transferFrom}."
      },
      "transferOwnership(address)": {
        "details": "Transfers ownership of the contract to a new account (`newOwner`). Can only be called by the current owner."
      }
    },
    "version": 1
  },
  "userdoc": {
    "kind": "user",
    "methods": {},
    "version": 1
  }
}