{
  "contractName": "LeasedEmblem",
  "abi": [
    {
      "inputs": [
        {
          "internalType": "string",
          "name": "_name",
          "type": "string"
        },
        {
          "internalType": "string",
          "name": "_symbol",
          "type": "string"
        }
      ],
      "stateMutability": "nonpayable",
      "type": "constructor"
    },
    {
      "anonymous": false,
      "inputs": [
        {
          "indexed": true,
          "internalType": "address",
          "name": "owner",
          "type": "address"
        },
        {
          "indexed": true,
          "internalType": "address",
          "name": "approved",
          "type": "address"
        },
        {
          "indexed": true,
          "internalType": "uint256",
          "name": "tokenId",
          "type": "uint256"
        }
      ],
      "name": "Approval",
      "type": "event"
    },
    {
      "anonymous": false,
      "inputs": [
        {
          "indexed": true,
          "internalType": "address",
          "name": "owner",
          "type": "address"
        },
        {
          "indexed": true,
          "internalType": "address",
          "name": "operator",
          "type": "address"
        },
        {
          "indexed": false,
          "internalType": "bool",
          "name": "approved",
          "type": "bool"
        }
      ],
      "name": "ApprovalForAll",
      "type": "event"
    },
    {
      "anonymous": false,
      "inputs": [
        {
          "indexed": true,
          "internalType": "address",
          "name": "previousOwner",
          "type": "address"
        },
        {
          "indexed": true,
          "internalType": "address",
          "name": "newOwner",
          "type": "address"
        }
      ],
      "name": "OwnershipTransferred",
      "type": "event"
    },
    {
      "anonymous": false,
      "inputs": [
        {
          "indexed": true,
          "internalType": "address",
          "name": "from",
          "type": "address"
        },
        {
          "indexed": true,
          "internalType": "address",
          "name": "to",
          "type": "address"
        },
        {
          "indexed": true,
          "internalType": "uint256",
          "name": "tokenId",
          "type": "uint256"
        }
      ],
      "name": "Transfer",
      "type": "event"
    },
    {
      "inputs": [
        {
          "internalType": "address",
          "name": "to",
          "type": "address"
        },
        {
          "internalType": "uint256",
          "name": "tokenId",
          "type": "uint256"
        }
      ],
      "name": "approve",
      "outputs": [],
      "stateMutability": "nonpayable",
      "type": "function"
    },
    {
      "inputs": [
        {
          "internalType": "address",
          "name": "owner",
          "type": "address"
        }
      ],
      "name": "balanceOf",
      "outputs": [
        {
          "internalType": "uint256",
          "name": "",
          "type": "uint256"
        }
      ],
      "stateMutability": "view",
      "type": "function"
    },
    {
      "inputs": [],
      "name": "baseURI",
      "outputs": [
        {
          "internalType": "string",
          "name": "",
          "type": "string"
        }
      ],
      "stateMutability": "view",
      "type": "function"
    },
    {
      "inputs": [
        {
          "internalType": "uint256",
          "name": "tokenId",
          "type": "uint256"
        }
      ],
      "name": "getApproved",
      "outputs": [
        {
          "internalType": "address",
          "name": "",
          "type": "address"
        }
      ],
      "stateMutability": "view",
      "type": "function"
    },
    {
      "inputs": [
        {
          "internalType": "address",
          "name": "owner",
          "type": "address"
        },
        {
          "internalType": "address",
          "name": "operator",
          "type": "address"
        }
      ],
      "name": "isApprovedForAll",
      "outputs": [
        {
          "internalType": "bool",
          "name": "",
          "type": "bool"
        }
      ],
      "stateMutability": "view",
      "type": "function"
    },
    {
      "inputs": [
        {
          "internalType": "uint256",
          "name": "",
          "type": "uint256"
        }
      ],
      "name": "metadata",
      "outputs": [
        {
          "internalType": "uint256",
          "name": "amount",
          "type": "uint256"
        },
        {
          "internalType": "address",
          "name": "leasor",
          "type": "address"
        },
        {
          "internalType": "uint256",
          "name": "duration",
          "type": "uint256"
        },
        {
          "internalType": "uint256",
          "name": "tradeExpiry",
          "type": "uint256"
        },
        {
          "internalType": "uint256",
          "name": "leaseExpiry",
          "type": "uint256"
        },
        {
          "internalType": "bool",
          "name": "isMining",
          "type": "bool"
        }
      ],
      "stateMutability": "view",
      "type": "function"
    },
    {
      "inputs": [],
      "name": "name",
      "outputs": [
        {
          "internalType": "string",
          "name": "",
          "type": "string"
        }
      ],
      "stateMutability": "view",
      "type": "function"
    },
    {
      "inputs": [],
      "name": "owner",
      "outputs": [
        {
          "internalType": "address",
          "name": "",
          "type": "address"
        }
      ],
      "stateMutability": "view",
      "type": "function"
    },
    {
      "inputs": [
        {
          "internalType": "uint256",
          "name": "tokenId",
          "type": "uint256"
        }
      ],
      "name": "ownerOf",
      "outputs": [
        {
          "internalType": "address",
          "name": "",
          "type": "address"
        }
      ],
      "stateMutability": "view",
      "type": "function"
    },
    {
      "inputs": [],
      "name": "renounceOwnership",
      "outputs": [],
      "stateMutability": "nonpayable",
      "type": "function"
    },
    {
      "inputs": [
        {
          "internalType": "address",
          "name": "from",
          "type": "address"
        },
        {
          "internalType": "address",
          "name": "to",
          "type": "address"
        },
        {
          "internalType": "uint256",
          "name": "tokenId",
          "type": "uint256"
        }
      ],
      "name": "safeTransferFrom",
      "outputs": [],
      "stateMutability": "nonpayable",
      "type": "function"
    },
    {
      "inputs": [
        {
          "internalType": "address",
          "name": "from",
          "type": "address"
        },
        {
          "internalType": "address",
          "name": "to",
          "type": "address"
        },
        {
          "internalType": "uint256",
          "name": "tokenId",
          "type": "uint256"
        },
        {
          "internalType": "bytes",
          "name": "_data",
          "type": "bytes"
        }
      ],
      "name": "safeTransferFrom",
      "outputs": [],
      "stateMutability": "nonpayable",
      "type": "function"
    },
    {
      "inputs": [
        {
          "internalType": "address",
          "name": "operator",
          "type": "address"
        },
        {
          "internalType": "bool",
          "name": "approved",
          "type": "bool"
        }
      ],
      "name": "setApprovalForAll",
      "outputs": [],
      "stateMutability": "nonpayable",
      "type": "function"
    },
    {
      "inputs": [
        {
          "internalType": "bytes4",
          "name": "interfaceId",
          "type": "bytes4"
        }
      ],
      "name": "supportsInterface",
      "outputs": [
        {
          "internalType": "bool",
          "name": "",
          "type": "bool"
        }
      ],
      "stateMutability": "view",
      "type": "function"
    },
    {
      "inputs": [],
      "name": "symbol",
      "outputs": [
        {
          "internalType": "string",
          "name": "",
          "type": "string"
        }
      ],
      "stateMutability": "view",
      "type": "function"
    },
    {
      "inputs": [
        {
          "internalType": "uint256",
          "name": "index",
          "type": "uint256"
        }
      ],
      "name": "tokenByIndex",
      "outputs": [
        {
          "internalType": "uint256",
          "name": "",
          "type": "uint256"
        }
      ],
      "stateMutability": "view",
      "type": "function"
    },
    {
      "inputs": [
        {
          "internalType": "address",
          "name": "owner",
          "type": "address"
        },
        {
          "internalType": "uint256",
          "name": "index",
          "type": "uint256"
        }
      ],
      "name": "tokenOfOwnerByIndex",
      "outputs": [
        {
          "internalType": "uint256",
          "name": "",
          "type": "uint256"
        }
      ],
      "stateMutability": "view",
      "type": "function"
    },
    {
      "inputs": [
        {
          "internalType": "uint256",
          "name": "tokenId",
          "type": "uint256"
        }
      ],
      "name": "tokenURI",
      "outputs": [
        {
          "internalType": "string",
          "name": "",
          "type": "string"
        }
      ],
      "stateMutability": "view",
      "type": "function"
    },
    {
      "inputs": [],
      "name": "totalSupply",
      "outputs": [
        {
          "internalType": "uint256",
          "name": "",
          "type": "uint256"
        }
      ],
      "stateMutability": "view",
      "type": "function"
    },
    {
      "inputs": [
        {
          "internalType": "address",
          "name": "from",
          "type": "address"
        },
        {
          "internalType": "address",
          "name": "to",
          "type": "address"
        },
        {
          "internalType": "uint256",
          "name": "tokenId",
          "type": "uint256"
        }
      ],
      "name": "transferFrom",
      "outputs": [],
      "stateMutability": "nonpayable",
      "type": "function"
    },
    {
      "inputs": [
        {
          "internalType": "address",
          "name": "newOwner",
          "type": "address"
        }
      ],
      "name": "transferOwnership",
      "outputs": [],
      "stateMutability": "nonpayable",
      "type": "function"
    },
    {
      "inputs": [],
      "name": "getNewId",
      "outputs": [
        {
          "internalType": "uint256",
          "name": "",
          "type": "uint256"
        }
      ],
      "stateMutability": "view",
      "type": "function"
    },
    {
      "inputs": [
        {
          "internalType": "uint256",
          "name": "_tokenId",
          "type": "uint256"
        }
      ],
      "name": "leasorOf",
      "outputs": [
        {
          "internalType": "address",
          "name": "",
          "type": "address"
        }
      ],
      "stateMutability": "view",
      "type": "function"
    },
    {
      "inputs": [
        {
          "internalType": "address",
          "name": "_leasor",
          "type": "address"
        }
      ],
      "name": "balanceOfLeasor",
      "outputs": [
        {
          "internalType": "uint256",
          "name": "",
          "type": "uint256"
        }
      ],
      "stateMutability": "view",
      "type": "function"
    },
    {
      "inputs": [
        {
          "internalType": "address",
          "name": "_leasor",
          "type": "address"
        },
        {
          "internalType": "uint256",
          "name": "_index",
          "type": "uint256"
        }
      ],
      "name": "tokenOfLeasorByIndex",
      "outputs": [
        {
          "internalType": "uint256",
          "name": "",
          "type": "uint256"
        }
      ],
      "stateMutability": "view",
      "type": "function"
    },
    {
      "inputs": [
        {
          "internalType": "address",
          "name": "_leaseExchange",
          "type": "address"
        }
      ],
      "name": "setLeaseExchange",
      "outputs": [],
      "stateMutability": "nonpayable",
      "type": "function"
    },
    {
      "inputs": [],
      "name": "totalAmount",
      "outputs": [
        {
          "internalType": "uint256",
          "name": "",
          "type": "uint256"
        }
      ],
      "stateMutability": "view",
      "type": "function"
    },
    {
      "inputs": [
        {
          "internalType": "uint256",
          "name": "_tokenId",
          "type": "uint256"
        }
      ],
      "name": "getMetadata",
      "outputs": [
        {
          "internalType": "uint256",
          "name": "",
          "type": "uint256"
        },
        {
          "internalType": "address",
          "name": "",
          "type": "address"
        },
        {
          "internalType": "uint256",
          "name": "",
          "type": "uint256"
        },
        {
          "internalType": "uint256",
          "name": "",
          "type": "uint256"
        },
        {
          "internalType": "uint256",
          "name": "",
          "type": "uint256"
        },
        {
          "internalType": "bool",
          "name": "",
          "type": "bool"
        }
      ],
      "stateMutability": "view",
      "type": "function"
    },
    {
      "inputs": [
        {
          "internalType": "address",
          "name": "owner",
          "type": "address"
        }
      ],
      "name": "getAmountForUser",
      "outputs": [
        {
          "internalType": "uint256",
          "name": "",
          "type": "uint256"
        }
      ],
      "stateMutability": "view",
      "type": "function"
    },
    {
      "inputs": [
        {
          "internalType": "address",
          "name": "owner",
          "type": "address"
        }
      ],
      "name": "getAmountForUserMining",
      "outputs": [
        {
          "internalType": "uint256",
          "name": "",
          "type": "uint256"
        }
      ],
      "stateMutability": "view",
      "type": "function"
    },
    {
      "inputs": [
        {
          "internalType": "uint256",
          "name": "_tokenId",
          "type": "uint256"
        }
      ],
      "name": "getAmount",
      "outputs": [
        {
          "internalType": "uint256",
          "name": "",
          "type": "uint256"
        }
      ],
      "stateMutability": "view",
      "type": "function"
    },
    {
      "inputs": [
        {
          "internalType": "uint256",
          "name": "_tokenId",
          "type": "uint256"
        }
      ],
      "name": "getTradeExpiry",
      "outputs": [
        {
          "internalType": "uint256",
          "name": "",
          "type": "uint256"
        }
      ],
      "stateMutability": "view",
      "type": "function"
    },
    {
      "inputs": [
        {
          "internalType": "uint256",
          "name": "_tokenId",
          "type": "uint256"
        }
      ],
      "name": "getDuration",
      "outputs": [
        {
          "internalType": "uint256",
          "name": "",
          "type": "uint256"
        }
      ],
      "stateMutability": "view",
      "type": "function"
    },
    {
      "inputs": [
        {
          "internalType": "uint256",
          "name": "_tokenId",
          "type": "uint256"
        }
      ],
      "name": "getIsMining",
      "outputs": [
        {
          "internalType": "bool",
          "name": "",
          "type": "bool"
        }
      ],
      "stateMutability": "view",
      "type": "function"
    },
    {
      "inputs": [
        {
          "internalType": "address",
          "name": "_owner",
          "type": "address"
        },
        {
          "internalType": "uint256",
          "name": "_tokenId",
          "type": "uint256"
        }
      ],
      "name": "startMining",
      "outputs": [
        {
          "internalType": "bool",
          "name": "",
          "type": "bool"
        }
      ],
      "stateMutability": "nonpayable",
      "type": "function"
    },
    {
      "inputs": [
        {
          "internalType": "address",
          "name": "_leasor",
          "type": "address"
        },
        {
          "internalType": "uint256",
          "name": "_tokenId",
          "type": "uint256"
        }
      ],
      "name": "canRetrieveEMB",
      "outputs": [
        {
          "internalType": "bool",
          "name": "",
          "type": "bool"
        }
      ],
      "stateMutability": "view",
      "type": "function"
    },
    {
      "inputs": [
        {
          "internalType": "address",
          "name": "_leasee",
          "type": "address"
        },
        {
          "internalType": "uint256",
          "name": "_tokenId",
          "type": "uint256"
        }
      ],
      "name": "endLease",
      "outputs": [],
      "stateMutability": "nonpayable",
      "type": "function"
    },
    {
      "inputs": [
        {
          "internalType": "uint256",
          "name": "_tokenId",
          "type": "uint256"
        },
        {
          "internalType": "uint256",
          "name": "amount",
          "type": "uint256"
        }
      ],
      "name": "splitLEMB",
      "outputs": [],
      "stateMutability": "nonpayable",
      "type": "function"
    },
    {
      "inputs": [
        {
          "internalType": "address",
          "name": "_to",
          "type": "address"
        },
        {
          "internalType": "uint256",
          "name": "amount",
          "type": "uint256"
        },
        {
          "internalType": "address",
          "name": "leasor",
          "type": "address"
        },
        {
          "internalType": "uint256",
          "name": "duration",
          "type": "uint256"
        }
      ],
      "name": "mintUniqueTokenTo",
      "outputs": [],
      "stateMutability": "nonpayable",
      "type": "function"
    }
  ],
  "bytecode": "0x6080604052600160115562f099c06012553480156200001d57600080fd5b5060405162004f7338038062004f73833981810160405260408110156200004357600080fd5b81019080805160405193929190846401000000008211156200006457600080fd5b838201915060208201858111156200007b57600080fd5b82518660018202830111640100000000821117156200009957600080fd5b8083526020830192505050908051906020019080838360005b83811015620000cf578082015181840152602081019050620000b2565b50505050905090810190601f168015620000fd5780820380516001836020036101000a031916815260200191505b50604052602001805160405193929190846401000000008211156200012157600080fd5b838201915060208201858111156200013857600080fd5b82518660018202830111640100000000821117156200015657600080fd5b8083526020830192505050908051906020019080838360005b838110156200018c5780820151818401526020810190506200016f565b50505050905090810190601f168015620001ba5780820380516001836020036101000a031916815260200191505b506040525050508181620001db6301ffc9a760e01b6200031060201b60201c565b8160069080519060200190620001f392919062000421565b5080600790805190602001906200020c92919062000421565b50620002256380ac58cd60e01b6200031060201b60201c565b6200023d635b5e139f60e01b6200031060201b60201c565b6200025563780e9d6360e01b6200031060201b60201c565b50506000620002696200041960201b60201c565b905080600a60006101000a81548173ffffffffffffffffffffffffffffffffffffffff021916908373ffffffffffffffffffffffffffffffffffffffff1602179055508073ffffffffffffffffffffffffffffffffffffffff16600073ffffffffffffffffffffffffffffffffffffffff167f8be0079c531659141344cd1fd0a4f28419497f9722a3daafe3b4186f6b6457e060405160405180910390a3505050620004d7565b63ffffffff60e01b817bffffffffffffffffffffffffffffffffffffffffffffffffffffffff19161415620003ad576040517f08c379a000000000000000000000000000000000000000000000000000000000815260040180806020018281038252601c8152602001807f4552433136353a20696e76616c696420696e746572666163652069640000000081525060200191505060405180910390fd5b6001600080837bffffffffffffffffffffffffffffffffffffffffffffffffffffffff19167bffffffffffffffffffffffffffffffffffffffffffffffffffffffff1916815260200190815260200160002060006101000a81548160ff02191690831515021790555050565b600033905090565b828054600181600116156101000203166002900490600052602060002090601f016020900481019282620004595760008555620004a5565b82601f106200047457805160ff1916838001178555620004a5565b82800160010185558215620004a5579182015b82811115620004a457825182559160200191906001019062000487565b5b509050620004b49190620004b8565b5090565b5b80821115620004d3576000816000905550600101620004b9565b5090565b614a8c80620004e76000396000f3fe608060405234801561001057600080fd5b506004361061023d5760003560e01c80636c0360eb1161013b578063a574cea4116100b8578063d64d22ae1161007c578063d64d22ae14610e43578063e2a3373214610ea7578063e3684e3914610eeb578063e985e9c514610f68578063f2fde38b14610fe25761023d565b8063a574cea414610b94578063b1eb511b14610c11578063b88d4fde14610c49578063c87b56dd14610d4e578063cf948c5c14610df55761023d565b80638da5cb5b116100ff5780638da5cb5b146109e957806395d89b4114610a1d578063985f422b14610aa05780639980ec8614610b02578063a22cb46514610b445761023d565b80636c0360eb146108a45780637017d4f11461092757806370a0823114610945578063715018a61461099d5780638bb126a7146109a75761023d565b806323b872dd116101c95780632f745c591161018d5780632f745c59146106e257806342842e0e14610744578063466cd5e5146107b25780634f6ccce71461080a5780636352211e1461084c5761023d565b806323b872dd1461051e578063266487c41461058c5780632a03fd7e146105e45780632c83e86f146106265780632ca8625f1461066a5761023d565b8063095ea7b311610210578063095ea7b3146103d857806318160ddd14610426578063183675181461044457806318a064a51461049c5780631a39d8ef146105005761023d565b806301ffc9a71461024257806304426db4146102a557806306fdde03146102fd578063081812fc14610380575b600080fd5b61028d6004803603602081101561025857600080fd5b8101908080357bffffffffffffffffffffffffffffffffffffffffffffffffffffffff19169060200190929190505050611026565b60405180821515815260200191505060405180910390f35b6102e7600480360360208110156102bb57600080fd5b81019080803573ffffffffffffffffffffffffffffffffffffffff16906020019092919050505061108d565b6040518082815260200191505060405180910390f35b61030561111b565b6040518080602001828103825283818151815260200191508051906020019080838360005b8381101561034557808201518184015260208101905061032a565b50505050905090810190601f1680156103725780820380516001836020036101000a031916815260200191505b509250505060405180910390f35b6103ac6004803603602081101561039657600080fd5b81019080803590602001909291905050506111bd565b604051808273ffffffffffffffffffffffffffffffffffffffff16815260200191505060405180910390f35b610424600480360360408110156103ee57600080fd5b81019080803573ffffffffffffffffffffffffffffffffffffffff16906020019092919080359060200190929190505050611258565b005b61042e61139c565b6040518082815260200191505060405180910390f35b6104866004803603602081101561045a57600080fd5b81019080803573ffffffffffffffffffffffffffffffffffffffff1690602001909291905050506113ad565b6040518082815260200191505060405180910390f35b6104e8600480360360408110156104b257600080fd5b81019080803573ffffffffffffffffffffffffffffffffffffffff1690602001909291908035906020019092919050505061142f565b60405180821515815260200191505060405180910390f35b610508611581565b6040518082815260200191505060405180910390f35b61058a6004803603606081101561053457600080fd5b81019080803573ffffffffffffffffffffffffffffffffffffffff169060200190929190803573ffffffffffffffffffffffffffffffffffffffff169060200190929190803590602001909291905050506115d2565b005b6105ce600480360360208110156105a257600080fd5b81019080803573ffffffffffffffffffffffffffffffffffffffff169060200190929190505050611648565b6040518082815260200191505060405180910390f35b610610600480360360208110156105fa57600080fd5b81019080803590602001909291905050506116a3565b6040518082815260200191505060405180910390f35b6106686004803603602081101561063c57600080fd5b81019080803573ffffffffffffffffffffffffffffffffffffffff1690602001909291905050506116d5565b005b6106e06004803603608081101561068057600080fd5b81019080803573ffffffffffffffffffffffffffffffffffffffff16906020019092919080359060200190929190803573ffffffffffffffffffffffffffffffffffffffff169060200190929190803590602001909291905050506117c8565b005b61072e600480360360408110156106f857600080fd5b81019080803573ffffffffffffffffffffffffffffffffffffffff1690602001909291908035906020019092919050505061186e565b6040518082815260200191505060405180910390f35b6107b06004803603606081101561075a57600080fd5b81019080803573ffffffffffffffffffffffffffffffffffffffff169060200190929190803573ffffffffffffffffffffffffffffffffffffffff169060200190929190803590602001909291905050506118c9565b005b6107de600480360360208110156107c857600080fd5b81019080803590602001909291905050506118e9565b604051808273ffffffffffffffffffffffffffffffffffffffff16815260200191505060405180910390f35b6108366004803603602081101561082057600080fd5b8101908080359060200190929190505050611965565b6040518082815260200191505060405180910390f35b6108786004803603602081101561086257600080fd5b8101908080359060200190929190505050611988565b604051808273ffffffffffffffffffffffffffffffffffffffff16815260200191505060405180910390f35b6108ac6119bf565b6040518080602001828103825283818151815260200191508051906020019080838360005b838110156108ec5780820151818401526020810190506108d1565b50505050905090810190601f1680156109195780820380516001836020036101000a031916815260200191505b509250505060405180910390f35b61092f611a61565b6040518082815260200191505060405180910390f35b6109876004803603602081101561095b57600080fd5b81019080803573ffffffffffffffffffffffffffffffffffffffff169060200190929190505050611a6b565b6040518082815260200191505060405180910390f35b6109a5611b40565b005b6109d3600480360360208110156109bd57600080fd5b8101908080359060200190929190505050611cb0565b6040518082815260200191505060405180910390f35b6109f1611ce2565b604051808273ffffffffffffffffffffffffffffffffffffffff16815260200191505060405180910390f35b610a25611d0c565b6040518080602001828103825283818151815260200191508051906020019080838360005b83811015610a65578082015181840152602081019050610a4a565b50505050905090810190601f168015610a925780820380516001836020036101000a031916815260200191505b509250505060405180910390f35b610aec60048036036040811015610ab657600080fd5b81019080803573ffffffffffffffffffffffffffffffffffffffff16906020019092919080359060200190929190505050611dae565b6040518082815260200191505060405180910390f35b610b2e60048036036020811015610b1857600080fd5b8101908080359060200190929190505050611e21565b6040518082815260200191505060405180910390f35b610b9260048036036040811015610b5a57600080fd5b81019080803573ffffffffffffffffffffffffffffffffffffffff169060200190929190803515159060200190929190505050611e53565b005b610bc060048036036020811015610baa57600080fd5b8101908080359060200190929190505050612009565b604051808781526020018673ffffffffffffffffffffffffffffffffffffffff1681526020018581526020018481526020018381526020018215158152602001965050505050505060405180910390f35b610c4760048036036040811015610c2757600080fd5b8101908080359060200190929190803590602001909291905050506120f0565b005b610d4c60048036036080811015610c5f57600080fd5b81019080803573ffffffffffffffffffffffffffffffffffffffff169060200190929190803573ffffffffffffffffffffffffffffffffffffffff1690602001909291908035906020019092919080359060200190640100000000811115610cc657600080fd5b820183602082011115610cd857600080fd5b80359060200191846001830284011164010000000083111715610cfa57600080fd5b91908080601f016020809104026020016040519081016040528093929190818152602001838380828437600081840152601f19601f820116905080830192505050505050509192919290505050612263565b005b610d7a60048036036020811015610d6457600080fd5b81019080803590602001909291905050506122db565b6040518080602001828103825283818151815260200191508051906020019080838360005b83811015610dba578082015181840152602081019050610d9f565b50505050905090810190601f168015610de75780820380516001836020036101000a031916815260200191505b509250505060405180910390f35b610e4160048036036040811015610e0b57600080fd5b81019080803573ffffffffffffffffffffffffffffffffffffffff169060200190929190803590602001909291905050506125ac565b005b610e8f60048036036040811015610e5957600080fd5b81019080803573ffffffffffffffffffffffffffffffffffffffff169060200190929190803590602001909291905050506126c7565b60405180821515815260200191505060405180910390f35b610ed360048036036020811015610ebd57600080fd5b81019080803590602001909291905050506127bb565b60405180821515815260200191505060405180910390f35b610f1760048036036020811015610f0157600080fd5b81019080803590602001909291905050506127fa565b604051808781526020018673ffffffffffffffffffffffffffffffffffffffff1681526020018581526020018481526020018381526020018215158152602001965050505050505060405180910390f35b610fca60048036036040811015610f7e57600080fd5b81019080803573ffffffffffffffffffffffffffffffffffffffff169060200190929190803573ffffffffffffffffffffffffffffffffffffffff169060200190929190505050612863565b60405180821515815260200191505060405180910390f35b61102460048036036020811015610ff857600080fd5b81019080803573ffffffffffffffffffffffffffffffffffffffff1690602001909291905050506128f7565b005b6000806000837bffffffffffffffffffffffffffffffffffffffffffffffffffffffff19167bffffffffffffffffffffffffffffffffffffffffffffffffffffffff1916815260200190815260200160002060009054906101000a900460ff169050919050565b60008060009050600061109f84611a6b565b905060005b8181101561111057600c60006110ba878461186e565b815260200190815260200160002060050160009054906101000a900460ff161561110357600c60006110ec878461186e565b815260200190815260200160002060000154830192505b80806001019150506110a4565b508192505050919050565b606060068054600181600116156101000203166002900480601f0160208091040260200160405190810160405280929190818152602001828054600181600116156101000203166002900480156111b35780601f10611188576101008083540402835291602001916111b3565b820191906000526020600020905b81548152906001019060200180831161119657829003601f168201915b5050505050905090565b60006111c882612aec565b61121d576040517f08c379a000000000000000000000000000000000000000000000000000000000815260040180806020018281038252602c815260200180614981602c913960400191505060405180910390fd5b6004600083815260200190815260200160002060009054906101000a900473ffffffffffffffffffffffffffffffffffffffff169050919050565b600061126382611988565b90508073ffffffffffffffffffffffffffffffffffffffff168373ffffffffffffffffffffffffffffffffffffffff1614156112ea576040517f08c379a0000000000000000000000000000000000000000000000000000000008152600401808060200182810382526021815260200180614a056021913960400191505060405180910390fd5b8073ffffffffffffffffffffffffffffffffffffffff16611309612b09565b73ffffffffffffffffffffffffffffffffffffffff161480611338575061133781611332612b09565b612863565b5b61138d576040517f08c379a00000000000000000000000000000000000000000000000000000000081526004018080602001828103825260388152602001806148d46038913960400191505060405180910390fd5b6113978383612b11565b505050565b60006113a86002612bca565b905090565b60008073ffffffffffffffffffffffffffffffffffffffff168273ffffffffffffffffffffffffffffffffffffffff1614156113e857600080fd5b601060008373ffffffffffffffffffffffffffffffffffffffff1673ffffffffffffffffffffffffffffffffffffffff168152602001908152602001600020549050919050565b6000600b60009054906101000a900473ffffffffffffffffffffffffffffffffffffffff1673ffffffffffffffffffffffffffffffffffffffff163373ffffffffffffffffffffffffffffffffffffffff161461148b57600080fd5b61149482612aec565b61149d57600080fd5b8273ffffffffffffffffffffffffffffffffffffffff166114bd83611988565b73ffffffffffffffffffffffffffffffffffffffff16146114dd57600080fd5b600c60008381526020019081526020016000206003015442106114ff57600080fd5b60001515600c600084815260200190815260200160002060050160009054906101000a900460ff1615151461153357600080fd5b6000600c6000848152602001908152602001600020905060018160050160006101000a81548160ff021916908315150217905550806002015442018160040181905550600191505092915050565b6000806000905060005b61159361139c565b8110156115ca57600c60006115a783611965565b81526020019081526020016000206000015482019150808060010191505061158b565b508091505090565b6115e36115dd612b09565b82612bdf565b611638576040517f08c379a0000000000000000000000000000000000000000000000000000000008152600401808060200182810382526031815260200180614a266031913960400191505060405180910390fd5b611643838383612cd3565b505050565b60008060009050600061165a84611a6b565b905060005b8181101561169857600c6000611675878461186e565b81526020019081526020016000206000015483019250808060010191505061165f565b508192505050919050565b60006116ae82612aec565b6116b757600080fd5b600c6000838152602001908152602001600020600301549050919050565b6116dd612b09565b73ffffffffffffffffffffffffffffffffffffffff166116fb611ce2565b73ffffffffffffffffffffffffffffffffffffffff1614611784576040517f08c379a00000000000000000000000000000000000000000000000000000000081526004018080602001828103825260208152602001807f4f776e61626c653a2063616c6c6572206973206e6f7420746865206f776e657281525060200191505060405180910390fd5b80600b60006101000a81548173ffffffffffffffffffffffffffffffffffffffff021916908373ffffffffffffffffffffffffffffffffffffffff16021790555050565b600b60009054906101000a900473ffffffffffffffffffffffffffffffffffffffff1673ffffffffffffffffffffffffffffffffffffffff163373ffffffffffffffffffffffffffffffffffffffff161461182257600080fd5b600061182c611a61565b90506118388582612f16565b611842838261310a565b60006012544201905061185a82868686856000613328565b600160115401601181905550505050505050565b60006118c182600160008673ffffffffffffffffffffffffffffffffffffffff1673ffffffffffffffffffffffffffffffffffffffff16815260200190815260200160002061342d90919063ffffffff16565b905092915050565b6118e483838360405180602001604052806000815250612263565b505050565b600080600f600084815260200190815260200160002060009054906101000a900473ffffffffffffffffffffffffffffffffffffffff169050600073ffffffffffffffffffffffffffffffffffffffff168173ffffffffffffffffffffffffffffffffffffffff16141561195c57600080fd5b80915050919050565b60008061197c83600261344790919063ffffffff16565b50905080915050919050565b60006119b8826040518060600160405280602981526020016149366029913960026134739092919063ffffffff16565b9050919050565b606060098054600181600116156101000203166002900480601f016020809104026020016040519081016040528092919081815260200182805460018160011615610100020316600290048015611a575780601f10611a2c57610100808354040283529160200191611a57565b820191906000526020600020905b815481529060010190602001808311611a3a57829003601f168201915b5050505050905090565b6000601154905090565b60008073ffffffffffffffffffffffffffffffffffffffff168273ffffffffffffffffffffffffffffffffffffffff161415611af2576040517f08c379a000000000000000000000000000000000000000000000000000000000815260040180806020018281038252602a81526020018061490c602a913960400191505060405180910390fd5b611b39600160008473ffffffffffffffffffffffffffffffffffffffff1673ffffffffffffffffffffffffffffffffffffffff168152602001908152602001600020613492565b9050919050565b611b48612b09565b73ffffffffffffffffffffffffffffffffffffffff16611b66611ce2565b73ffffffffffffffffffffffffffffffffffffffff1614611bef576040517f08c379a00000000000000000000000000000000000000000000000000000000081526004018080602001828103825260208152602001807f4f776e61626c653a2063616c6c6572206973206e6f7420746865206f776e657281525060200191505060405180910390fd5b600073ffffffffffffffffffffffffffffffffffffffff16600a60009054906101000a900473ffffffffffffffffffffffffffffffffffffffff1673ffffffffffffffffffffffffffffffffffffffff167f8be0079c531659141344cd1fd0a4f28419497f9722a3daafe3b4186f6b6457e060405160405180910390a36000600a60006101000a81548173ffffffffffffffffffffffffffffffffffffffff021916908373ffffffffffffffffffffffffffffffffffffffff160217905550565b6000611cbb82612aec565b611cc457600080fd5b600c6000838152602001908152602001600020600201549050919050565b6000600a60009054906101000a900473ffffffffffffffffffffffffffffffffffffffff16905090565b606060078054600181600116156101000203166002900480601f016020809104026020016040519081016040528092919081815260200182805460018160011615610100020316600290048015611da45780601f10611d7957610100808354040283529160200191611da4565b820191906000526020600020905b815481529060010190602001808311611d8757829003601f168201915b5050505050905090565b6000611db9836113ad565b8210611dc457600080fd5b600d60008473ffffffffffffffffffffffffffffffffffffffff1673ffffffffffffffffffffffffffffffffffffffff1681526020019081526020016000208281548110611e0e57fe5b9060005260206000200154905092915050565b6000611e2c82612aec565b611e3557600080fd5b600c6000838152602001908152602001600020600001549050919050565b611e5b612b09565b73ffffffffffffffffffffffffffffffffffffffff168273ffffffffffffffffffffffffffffffffffffffff161415611efc576040517f08c379a00000000000000000000000000000000000000000000000000000000081526004018080602001828103825260198152602001807f4552433732313a20617070726f766520746f2063616c6c65720000000000000081525060200191505060405180910390fd5b8060056000611f09612b09565b73ffffffffffffffffffffffffffffffffffffffff1673ffffffffffffffffffffffffffffffffffffffff16815260200190815260200160002060008473ffffffffffffffffffffffffffffffffffffffff1673ffffffffffffffffffffffffffffffffffffffff16815260200190815260200160002060006101000a81548160ff0219169083151502179055508173ffffffffffffffffffffffffffffffffffffffff16611fb6612b09565b73ffffffffffffffffffffffffffffffffffffffff167f17307eab39ab6107e8899845ad3d59bd9653f200f220920489ca2b5937696c318360405180821515815260200191505060405180910390a35050565b60008060008060008061201b87612aec565b61202457600080fd5b600c600088815260200190815260200160002060000154600c600089815260200190815260200160002060010160009054906101000a900473ffffffffffffffffffffffffffffffffffffffff16600c60008a815260200190815260200160002060020154600c60008b815260200190815260200160002060030154600c60008c815260200190815260200160002060040154600c60008d815260200190815260200160002060050160009054906101000a900460ff1695509550955095509550955091939550919395565b6120f982612aec565b61210257600080fd5b3373ffffffffffffffffffffffffffffffffffffffff1661212283611988565b73ffffffffffffffffffffffffffffffffffffffff161461214257600080fd5b60001515600c600084815260200190815260200160002060050160009054906101000a900460ff1615151461217657600080fd5b600c600083815260200190815260200160002060030154421061219857600080fd5b6121a182611e21565b81106121ac57600080fd5b60006121b6611a61565b90506000600c600085815260200190815260200160002090508281600001540381600001819055506121e83383612f16565b6122168160010160009054906101000a900473ffffffffffffffffffffffffffffffffffffffff168361310a565b61225182848360010160009054906101000a900473ffffffffffffffffffffffffffffffffffffffff16846002015485600301546000613328565b60016011540160118190555050505050565b61227461226e612b09565b83612bdf565b6122c9576040517f08c379a0000000000000000000000000000000000000000000000000000000008152600401808060200182810382526031815260200180614a266031913960400191505060405180910390fd5b6122d5848484846134a7565b50505050565b60606122e682612aec565b61233b576040517f08c379a000000000000000000000000000000000000000000000000000000000815260040180806020018281038252602f8152602001806149d6602f913960400191505060405180910390fd5b6000600860008481526020019081526020016000208054600181600116156101000203166002900480601f0160208091040260200160405190810160405280929190818152602001828054600181600116156101000203166002900480156123e45780601f106123b9576101008083540402835291602001916123e4565b820191906000526020600020905b8154815290600101906020018083116123c757829003601f168201915b5050505050905060006123f56119bf565b905060008151141561240b5781925050506125a7565b6000825111156124dc5780826040516020018083805190602001908083835b6020831061244d578051825260208201915060208101905060208303925061242a565b6001836020036101000a03801982511681845116808217855250505050505090500182805190602001908083835b6020831061249e578051825260208201915060208101905060208303925061247b565b6001836020036101000a03801982511681845116808217855250505050505090500192505050604051602081830303815290604052925050506125a7565b806124e685613519565b6040516020018083805190602001908083835b6020831061251c57805182526020820191506020810190506020830392506124f9565b6001836020036101000a03801982511681845116808217855250505050505090500182805190602001908083835b6020831061256d578051825260208201915060208101905060208303925061254a565b6001836020036101000a03801982511681845116808217855250505050505090500192505050604051602081830303815290604052925050505b919050565b600b60009054906101000a900473ffffffffffffffffffffffffffffffffffffffff1673ffffffffffffffffffffffffffffffffffffffff163373ffffffffffffffffffffffffffffffffffffffff161461260657600080fd5b61260f81612aec565b61261857600080fd5b8173ffffffffffffffffffffffffffffffffffffffff1661263882611988565b73ffffffffffffffffffffffffffffffffffffffff161461265857600080fd5b600c600082815260200190815260200160002060040154421161267a57600080fd5b6126ba600c600083815260200190815260200160002060010160009054906101000a900473ffffffffffffffffffffffffffffffffffffffff1682613660565b6126c38161399b565b5050565b60006126d282612aec565b6126db57600080fd5b8273ffffffffffffffffffffffffffffffffffffffff16600c600084815260200190815260200160002060010160009054906101000a900473ffffffffffffffffffffffffffffffffffffffff1673ffffffffffffffffffffffffffffffffffffffff161461274957600080fd5b60001515600c600084815260200190815260200160002060050160009054906101000a900460ff161515141561279957600c600083815260200190815260200160002060040154421190506127b5565b600c600083815260200190815260200160002060030154421190505b92915050565b60006127c682612aec565b6127cf57600080fd5b600c600083815260200190815260200160002060050160009054906101000a900460ff169050919050565b600c6020528060005260406000206000915090508060000154908060010160009054906101000a900473ffffffffffffffffffffffffffffffffffffffff16908060020154908060030154908060040154908060050160009054906101000a900460ff16905086565b6000600560008473ffffffffffffffffffffffffffffffffffffffff1673ffffffffffffffffffffffffffffffffffffffff16815260200190815260200160002060008373ffffffffffffffffffffffffffffffffffffffff1673ffffffffffffffffffffffffffffffffffffffff16815260200190815260200160002060009054906101000a900460ff16905092915050565b6128ff612b09565b73ffffffffffffffffffffffffffffffffffffffff1661291d611ce2565b73ffffffffffffffffffffffffffffffffffffffff16146129a6576040517f08c379a00000000000000000000000000000000000000000000000000000000081526004018080602001828103825260208152602001807f4f776e61626c653a2063616c6c6572206973206e6f7420746865206f776e657281525060200191505060405180910390fd5b600073ffffffffffffffffffffffffffffffffffffffff168173ffffffffffffffffffffffffffffffffffffffff161415612a2c576040517f08c379a00000000000000000000000000000000000000000000000000000000081526004018080602001828103825260268152602001806148386026913960400191505060405180910390fd5b8073ffffffffffffffffffffffffffffffffffffffff16600a60009054906101000a900473ffffffffffffffffffffffffffffffffffffffff1673ffffffffffffffffffffffffffffffffffffffff167f8be0079c531659141344cd1fd0a4f28419497f9722a3daafe3b4186f6b6457e060405160405180910390a380600a60006101000a81548173ffffffffffffffffffffffffffffffffffffffff021916908373ffffffffffffffffffffffffffffffffffffffff16021790555050565b6000612b02826002613a1890919063ffffffff16565b9050919050565b600033905090565b816004600083815260200190815260200160002060006101000a81548173ffffffffffffffffffffffffffffffffffffffff021916908373ffffffffffffffffffffffffffffffffffffffff160217905550808273ffffffffffffffffffffffffffffffffffffffff16612b8483611988565b73ffffffffffffffffffffffffffffffffffffffff167f8c5be1e5ebec7d5bd14f71427d1e84f3dd0314c0f7b2291e5b200ac8c7c3b92560405160405180910390a45050565b6000612bd882600001613a32565b9050919050565b6000612bea82612aec565b612c3f576040517f08c379a000000000000000000000000000000000000000000000000000000000815260040180806020018281038252602c8152602001806148a8602c913960400191505060405180910390fd5b6000612c4a83611988565b90508073ffffffffffffffffffffffffffffffffffffffff168473ffffffffffffffffffffffffffffffffffffffff161480612cb957508373ffffffffffffffffffffffffffffffffffffffff16612ca1846111bd565b73ffffffffffffffffffffffffffffffffffffffff16145b80612cca5750612cc98185612863565b5b91505092915050565b8273ffffffffffffffffffffffffffffffffffffffff16612cf382611988565b73ffffffffffffffffffffffffffffffffffffffff1614612d5f576040517f08c379a00000000000000000000000000000000000000000000000000000000081526004018080602001828103825260298152602001806149ad6029913960400191505060405180910390fd5b600073ffffffffffffffffffffffffffffffffffffffff168273ffffffffffffffffffffffffffffffffffffffff161415612de5576040517f08c379a000000000000000000000000000000000000000000000000000000000815260040180806020018281038252602481526020018061485e6024913960400191505060405180910390fd5b612df0838383613a43565b612dfb600082612b11565b612e4c81600160008673ffffffffffffffffffffffffffffffffffffffff1673ffffffffffffffffffffffffffffffffffffffff168152602001908152602001600020613a4890919063ffffffff16565b50612e9e81600160008573ffffffffffffffffffffffffffffffffffffffff1673ffffffffffffffffffffffffffffffffffffffff168152602001908152602001600020613a6290919063ffffffff16565b50612eb581836002613a7c9092919063ffffffff16565b50808273ffffffffffffffffffffffffffffffffffffffff168473ffffffffffffffffffffffffffffffffffffffff167fddf252ad1be2c89b69c2b068fc378daa952ba7f163c4a11628f55a4df523b3ef60405160405180910390a4505050565b600073ffffffffffffffffffffffffffffffffffffffff168273ffffffffffffffffffffffffffffffffffffffff161415612fb9576040517f08c379a00000000000000000000000000000000000000000000000000000000081526004018080602001828103825260208152602001807f4552433732313a206d696e7420746f20746865207a65726f206164647265737381525060200191505060405180910390fd5b612fc281612aec565b15613035576040517f08c379a000000000000000000000000000000000000000000000000000000000815260040180806020018281038252601c8152602001807f4552433732313a20746f6b656e20616c7265616479206d696e7465640000000081525060200191505060405180910390fd5b61304160008383613a43565b61309281600160008573ffffffffffffffffffffffffffffffffffffffff1673ffffffffffffffffffffffffffffffffffffffff168152602001908152602001600020613a6290919063ffffffff16565b506130a981836002613a7c9092919063ffffffff16565b50808273ffffffffffffffffffffffffffffffffffffffff16600073ffffffffffffffffffffffffffffffffffffffff167fddf252ad1be2c89b69c2b068fc378daa952ba7f163c4a11628f55a4df523b3ef60405160405180910390a45050565b600073ffffffffffffffffffffffffffffffffffffffff16600f600083815260200190815260200160002060009054906101000a900473ffffffffffffffffffffffffffffffffffffffff1673ffffffffffffffffffffffffffffffffffffffff161461317657600080fd5b81600f600083815260200190815260200160002060006101000a81548173ffffffffffffffffffffffffffffffffffffffff021916908373ffffffffffffffffffffffffffffffffffffffff16021790555061321b6001601060008573ffffffffffffffffffffffffffffffffffffffff1673ffffffffffffffffffffffffffffffffffffffff16815260200190815260200160002054613ab190919063ffffffff16565b601060008473ffffffffffffffffffffffffffffffffffffffff1673ffffffffffffffffffffffffffffffffffffffff168152602001908152602001600020819055506000600d60008473ffffffffffffffffffffffffffffffffffffffff1673ffffffffffffffffffffffffffffffffffffffff168152602001908152602001600020805490509050600d60008473ffffffffffffffffffffffffffffffffffffffff1673ffffffffffffffffffffffffffffffffffffffff16815260200190815260200160002082908060018154018082558091505060019003906000526020600020016000909190919091505580600e600084815260200190815260200160002081905550505050565b61333186612aec565b61333a57600080fd5b6040518060c001604052808681526020018573ffffffffffffffffffffffffffffffffffffffff16815260200184815260200183815260200182815260200160001515815250600c60008881526020019081526020016000206000820151816000015560208201518160010160006101000a81548173ffffffffffffffffffffffffffffffffffffffff021916908373ffffffffffffffffffffffffffffffffffffffff16021790555060408201518160020155606082015181600301556080820151816004015560a08201518160050160006101000a81548160ff021916908315150217905550905050505050505050565b600061343c8360000183613b39565b60001c905092915050565b60008060008061345a8660000186613bbc565b915091508160001c8160001c9350935050509250929050565b6000613486846000018460001b84613c55565b60001c90509392505050565b60006134a082600001613d4b565b9050919050565b6134b2848484612cd3565b6134be84848484613d5c565b613513576040517f08c379a00000000000000000000000000000000000000000000000000000000081526004018080602001828103825260328152602001806148066032913960400191505060405180910390fd5b50505050565b60606000821415613561576040518060400160405280600181526020017f3000000000000000000000000000000000000000000000000000000000000000815250905061365b565b600082905060005b6000821461358b578080600101915050600a828161358357fe5b049150613569565b60008167ffffffffffffffff811180156135a457600080fd5b506040519080825280601f01601f1916602001820160405280156135d75781602001600182028036833780820191505090505b50905060006001830390508593505b6000841461365357600a84816135f857fe5b0660300160f81b8282806001900393508151811061361257fe5b60200101907effffffffffffffffffffffffffffffffffffffffffffffffffffffffffffff1916908160001a905350600a848161364b57fe5b0493506135e6565b819450505050505b919050565b8173ffffffffffffffffffffffffffffffffffffffff16613680826118e9565b73ffffffffffffffffffffffffffffffffffffffff16146136a057600080fd5b6136f36001601060008573ffffffffffffffffffffffffffffffffffffffff1673ffffffffffffffffffffffffffffffffffffffff16815260200190815260200160002054613f7590919063ffffffff16565b601060008473ffffffffffffffffffffffffffffffffffffffff1673ffffffffffffffffffffffffffffffffffffffff168152602001908152602001600020819055506000600f600083815260200190815260200160002060006101000a81548173ffffffffffffffffffffffffffffffffffffffff021916908373ffffffffffffffffffffffffffffffffffffffff1602179055506000600e600083815260200190815260200160002054905060006137f96001600d60008773ffffffffffffffffffffffffffffffffffffffff1673ffffffffffffffffffffffffffffffffffffffff16815260200190815260200160002080549050613f7590919063ffffffff16565b90506000600d60008673ffffffffffffffffffffffffffffffffffffffff1673ffffffffffffffffffffffffffffffffffffffff168152602001908152602001600020828154811061384757fe5b9060005260206000200154905080600d60008773ffffffffffffffffffffffffffffffffffffffff1673ffffffffffffffffffffffffffffffffffffffff168152602001908152602001600020848154811061389f57fe5b90600052602060002001819055506000600d60008773ffffffffffffffffffffffffffffffffffffffff1673ffffffffffffffffffffffffffffffffffffffff16815260200190815260200160002083815481106138f957fe5b9060005260206000200181905550600d60008673ffffffffffffffffffffffffffffffffffffffff1673ffffffffffffffffffffffffffffffffffffffff16815260200190815260200160002080548061394f57fe5b60019003818190600052602060002001600090559055600e60008581526020019081526020016000206000905582600e6000838152602001908152602001600020819055505050505050565b6139a481613ff8565b600c60008281526020019081526020016000206000808201600090556001820160006101000a81549073ffffffffffffffffffffffffffffffffffffffff02191690556002820160009055600382016000905560048201600090556005820160006101000a81549060ff0219169055505050565b6000613a2a836000018360001b614132565b905092915050565b600081600001805490509050919050565b505050565b6000613a5a836000018360001b614155565b905092915050565b6000613a74836000018360001b61423d565b905092915050565b6000613aa8846000018460001b8473ffffffffffffffffffffffffffffffffffffffff1660001b6142ad565b90509392505050565b600080828401905083811015613b2f576040517f08c379a000000000000000000000000000000000000000000000000000000000815260040180806020018281038252601b8152602001807f536166654d6174683a206164646974696f6e206f766572666c6f77000000000081525060200191505060405180910390fd5b8091505092915050565b600081836000018054905011613b9a576040517f08c379a00000000000000000000000000000000000000000000000000000000081526004018080602001828103825260228152602001806147e46022913960400191505060405180910390fd5b826000018281548110613ba957fe5b9060005260206000200154905092915050565b60008082846000018054905011613c1e576040517f08c379a000000000000000000000000000000000000000000000000000000000815260040180806020018281038252602281526020018061495f6022913960400191505060405180910390fd5b6000846000018481548110613c2f57fe5b906000526020600020906002020190508060000154816001015492509250509250929050565b60008084600101600085815260200190815260200160002054905060008114158390613d1c576040517f08c379a00000000000000000000000000000000000000000000000000000000081526004018080602001828103825283818151815260200191508051906020019080838360005b83811015613ce1578082015181840152602081019050613cc6565b50505050905090810190601f168015613d0e5780820380516001836020036101000a031916815260200191505b509250505060405180910390fd5b50846000016001820381548110613d2f57fe5b9060005260206000209060020201600101549150509392505050565b600081600001805490509050919050565b6000613d7d8473ffffffffffffffffffffffffffffffffffffffff16614389565b613d8a5760019050613f6d565b6000613ef463150b7a0260e01b613d9f612b09565b888787604051602401808573ffffffffffffffffffffffffffffffffffffffff1681526020018473ffffffffffffffffffffffffffffffffffffffff16815260200183815260200180602001828103825283818151815260200191508051906020019080838360005b83811015613e23578082015181840152602081019050613e08565b50505050905090810190601f168015613e505780820380516001836020036101000a031916815260200191505b5095505050505050604051602081830303815290604052907bffffffffffffffffffffffffffffffffffffffffffffffffffffffff19166020820180517bffffffffffffffffffffffffffffffffffffffffffffffffffffffff8381831617835250505050604051806060016040528060328152602001614806603291398773ffffffffffffffffffffffffffffffffffffffff1661439c9092919063ffffffff16565b90506000818060200190516020811015613f0d57600080fd5b8101908080519060200190929190505050905063150b7a0260e01b7bffffffffffffffffffffffffffffffffffffffffffffffffffffffff1916817bffffffffffffffffffffffffffffffffffffffffffffffffffffffff191614925050505b949350505050565b600082821115613fed576040517f08c379a000000000000000000000000000000000000000000000000000000000815260040180806020018281038252601e8152602001807f536166654d6174683a207375627472616374696f6e206f766572666c6f77000081525060200191505060405180910390fd5b818303905092915050565b600061400382611988565b905061401181600084613a43565b61401c600083612b11565b6000600860008481526020019081526020016000208054600181600116156101000203166002900490501461406b5760086000838152602001908152602001600020600061406a919061477e565b5b6140bc82600160008473ffffffffffffffffffffffffffffffffffffffff1673ffffffffffffffffffffffffffffffffffffffff168152602001908152602001600020613a4890919063ffffffff16565b506140d18260026143b490919063ffffffff16565b5081600073ffffffffffffffffffffffffffffffffffffffff168273ffffffffffffffffffffffffffffffffffffffff167fddf252ad1be2c89b69c2b068fc378daa952ba7f163c4a11628f55a4df523b3ef60405160405180910390a45050565b600080836001016000848152602001908152602001600020541415905092915050565b6000808360010160008481526020019081526020016000205490506000811461423157600060018203905060006001866000018054905003905060008660000182815481106141a057fe5b90600052602060002001549050808760000184815481106141bd57fe5b90600052602060002001819055506001830187600101600083815260200190815260200160002081905550866000018054806141f557fe5b60019003818190600052602060002001600090559055866001016000878152602001908152602001600020600090556001945050505050614237565b60009150505b92915050565b600061424983836143ce565b6142a25782600001829080600181540180825580915050600190039060005260206000200160009091909190915055826000018054905083600101600084815260200190815260200160002081905550600190506142a7565b600090505b92915050565b600080846001016000858152602001908152602001600020549050600081141561435457846000016040518060400160405280868152602001858152509080600181540180825580915050600190039060005260206000209060020201600090919091909150600082015181600001556020820151816001015550508460000180549050856001016000868152602001908152602001600020819055506001915050614382565b8285600001600183038154811061436757fe5b90600052602060002090600202016001018190555060009150505b9392505050565b600080823b905060008111915050919050565b60606143ab84846000856143f1565b90509392505050565b60006143c6836000018360001b614599565b905092915050565b600080836001016000848152602001908152602001600020541415905092915050565b60608247101561444c576040517f08c379a00000000000000000000000000000000000000000000000000000000081526004018080602001828103825260268152602001806148826026913960400191505060405180910390fd5b61445585614389565b6144c7576040517f08c379a000000000000000000000000000000000000000000000000000000000815260040180806020018281038252601d8152602001807f416464726573733a2063616c6c20746f206e6f6e2d636f6e747261637400000081525060200191505060405180910390fd5b6000808673ffffffffffffffffffffffffffffffffffffffff1685876040518082805190602001908083835b6020831061451657805182526020820191506020810190506020830392506144f3565b6001836020036101000a03801982511681845116808217855250505050505090500191505060006040518083038185875af1925050503d8060008114614578576040519150601f19603f3d011682016040523d82523d6000602084013e61457d565b606091505b509150915061458d8282866146b2565b92505050949350505050565b600080836001016000848152602001908152602001600020549050600081146146a657600060018203905060006001866000018054905003905060008660000182815481106145e457fe5b906000526020600020906002020190508087600001848154811061460457fe5b906000526020600020906002020160008201548160000155600182015481600101559050506001830187600101600083600001548152602001908152602001600020819055508660000180548061465757fe5b60019003818190600052602060002090600202016000808201600090556001820160009055505090558660010160008781526020019081526020016000206000905560019450505050506146ac565b60009150505b92915050565b606083156146c257829050614777565b6000835111156146d55782518084602001fd5b816040517f08c379a00000000000000000000000000000000000000000000000000000000081526004018080602001828103825283818151815260200191508051906020019080838360005b8381101561473c578082015181840152602081019050614721565b50505050905090810190601f1680156147695780820380516001836020036101000a031916815260200191505b509250505060405180910390fd5b9392505050565b50805460018160011615610100020316600290046000825580601f106147a457506147c3565b601f0160209004906000526020600020908101906147c291906147c6565b5b50565b5b808211156147df5760008160009055506001016147c7565b509056fe456e756d657261626c655365743a20696e646578206f7574206f6620626f756e64734552433732313a207472616e7366657220746f206e6f6e20455243373231526563656976657220696d706c656d656e7465724f776e61626c653a206e6577206f776e657220697320746865207a65726f20616464726573734552433732313a207472616e7366657220746f20746865207a65726f2061646472657373416464726573733a20696e73756666696369656e742062616c616e636520666f722063616c6c4552433732313a206f70657261746f7220717565727920666f72206e6f6e6578697374656e7420746f6b656e4552433732313a20617070726f76652063616c6c6572206973206e6f74206f776e6572206e6f7220617070726f76656420666f7220616c6c4552433732313a2062616c616e636520717565727920666f7220746865207a65726f20616464726573734552433732313a206f776e657220717565727920666f72206e6f6e6578697374656e7420746f6b656e456e756d657261626c654d61703a20696e646578206f7574206f6620626f756e64734552433732313a20617070726f76656420717565727920666f72206e6f6e6578697374656e7420746f6b656e4552433732313a207472616e73666572206f6620746f6b656e2074686174206973206e6f74206f776e4552433732314d657461646174613a2055524920717565727920666f72206e6f6e6578697374656e7420746f6b656e4552433732313a20617070726f76616c20746f2063757272656e74206f776e65724552433732313a207472616e736665722063616c6c6572206973206e6f74206f776e6572206e6f7220617070726f766564a2646970667358221220d0511f8a03c96d3af6e4570c2bb5438b964d79a2f7d44047e9f8c6c7eee9b1ff64736f6c63430007060033",
  "immutableReferences": {},
  "source": "// SPDX-License-Identifier: MIT\n\npragma solidity 0.7.6;\n\nimport \"@openzeppelin/contracts/token/ERC721/ERC721.sol\";\nimport \"@openzeppelin/contracts/access/Ownable.sol\";\nimport \"@openzeppelin/contracts/math/SafeMath.sol\";\n\ncontract LeasedEmblem is ERC721, Ownable {\n  using SafeMath for uint256;\n\n  address internal leaseExchange;\n\n\n  struct Metadata {\n    uint256 amount;\n    address leasor;\n    uint256 duration;\n    uint256 tradeExpiry;\n    uint256 leaseExpiry;\n    bool isMining;\n  }\n\n  mapping(uint256 => Metadata) public metadata;\n\n\n  mapping(address => uint256[]) internal leasedTokens;\n\n\n  mapping(uint256 => uint256) internal leasedTokensIndex;\n\n\n  mapping (uint256 => address) internal tokenLeasor;\n\n\n  mapping (address => uint256) internal leasedTokensCount;\n\n  uint256 highestId = 1;\n\n  uint256 sixMonths = 15768000;\n\n  constructor (string memory _name, string memory _symbol) public ERC721(_name, _symbol) {\n  }\n\n\n  function getNewId() public view returns(uint256) {\n    return highestId;\n  }\n\n  function leasorOf(uint256 _tokenId) public view returns (address) {\n    address owner = tokenLeasor[_tokenId];\n    require(owner != address(0));\n    return owner;\n  }\n\n  function balanceOfLeasor(address _leasor) public view returns (uint256) {\n    require(_leasor != address(0));\n    return leasedTokensCount[_leasor];\n  }\n\n  function tokenOfLeasorByIndex(address _leasor,uint256 _index) public view returns (uint256){\n    require(_index < balanceOfLeasor(_leasor));\n    return leasedTokens[_leasor][_index];\n  }\n\n  function addTokenToLeasor(address _to, uint256 _tokenId) internal {\n    require(tokenLeasor[_tokenId] == address(0));\n    tokenLeasor[_tokenId] = _to;\n    leasedTokensCount[_to] = leasedTokensCount[_to].add(1);\n    uint256 length = leasedTokens[_to].length;\n    leasedTokens[_to].push(_tokenId);\n    leasedTokensIndex[_tokenId] = length;\n  }\n\n  function removeTokenFromLeasor(address _from, uint256 _tokenId) internal {\n    require(leasorOf(_tokenId) == _from);\n    leasedTokensCount[_from] = leasedTokensCount[_from].sub(1);\n    tokenLeasor[_tokenId] = address(0);\n\n    uint256 tokenIndex = leasedTokensIndex[_tokenId];\n    uint256 lastTokenIndex = leasedTokens[_from].length.sub(1);\n    uint256 lastToken = leasedTokens[_from][lastTokenIndex];\n\n    leasedTokens[_from][tokenIndex] = lastToken;\n    leasedTokens[_from][lastTokenIndex] = 0;\n    leasedTokens[_from].pop();\n    delete leasedTokensIndex[_tokenId];\n    leasedTokensIndex[lastToken] = tokenIndex;\n  }\n\n  function setLeaseExchange(address _leaseExchange) public onlyOwner {\n    leaseExchange = _leaseExchange;\n  }\n\n  function totalAmount() external view returns (uint256) {\n    uint256 amount = 0;\n    for(uint256 i = 0; i < totalSupply(); i++){\n      amount += metadata[tokenByIndex(i)].amount;\n    }\n    return amount;\n  }\n\n  function setMetadata(uint256 _tokenId, uint256 amount, address leasor, uint256 duration,uint256 tradeExpiry, uint256 leaseExpiry) internal {\n    require(_exists(_tokenId));\n    metadata[_tokenId]= Metadata(amount,leasor,duration,tradeExpiry,leaseExpiry,false);\n  }\n\n  function getMetadata(uint256 _tokenId) public view returns (uint256, address, uint256, uint256,uint256, bool) {\n    require(_exists(_tokenId));\n    return (\n      metadata[_tokenId].amount,\n      metadata[_tokenId].leasor,\n      metadata[_tokenId].duration,\n      metadata[_tokenId].tradeExpiry,\n      metadata[_tokenId].leaseExpiry,\n      metadata[_tokenId].isMining\n    );\n  }\n\n  function getAmountForUser(address owner) external view returns (uint256) {\n    uint256 amount = 0;\n    uint256 numTokens = balanceOf(owner);\n\n    for(uint256 i = 0; i < numTokens; i++){\n      amount += metadata[tokenOfOwnerByIndex(owner,i)].amount;\n    }\n    return amount;\n  }\n\n  function getAmountForUserMining(address owner) external view returns (uint256) {\n    uint256 amount = 0;\n    uint256 numTokens = balanceOf(owner);\n\n    for(uint256 i = 0; i < numTokens; i++){\n      if(metadata[tokenOfOwnerByIndex(owner,i)].isMining) {\n        amount += metadata[tokenOfOwnerByIndex(owner,i)].amount;\n      }\n    }\n    return amount;\n  }\n\n  function getAmount(uint256 _tokenId) public view returns (uint256) {\n    require(_exists(_tokenId));\n    return metadata[_tokenId].amount;\n  }\n\n  function getTradeExpiry(uint256 _tokenId) public view returns (uint256) {\n    require(_exists(_tokenId));\n    return metadata[_tokenId].tradeExpiry;\n  }\n\n  function getDuration(uint256 _tokenId) public view returns (uint256) {\n    require(_exists(_tokenId));\n    return metadata[_tokenId].duration;\n  }\n\n  function getIsMining(uint256 _tokenId) public view returns (bool) {\n    require(_exists(_tokenId));\n    return metadata[_tokenId].isMining;\n  }\n\n  function startMining(address _owner, uint256 _tokenId) public returns (bool) {\n    require(msg.sender == leaseExchange);\n    require(_exists(_tokenId));\n    require(ownerOf(_tokenId) == _owner);\n    require(block.timestamp < metadata[_tokenId].tradeExpiry);\n    require(metadata[_tokenId].isMining == false);\n    Metadata storage m = metadata[_tokenId];\n    m.isMining = true;\n    m.leaseExpiry = block.timestamp + m.duration;\n    return true;\n  }\n\n  function canRetrieveEMB(address _leasor, uint256 _tokenId) public view returns (bool) {\n    require(_exists(_tokenId));\n    require(metadata[_tokenId].leasor == _leasor);\n    if(metadata[_tokenId].isMining == false) {\n      return(block.timestamp > metadata[_tokenId].leaseExpiry);\n    }\n    else {\n      return(block.timestamp > metadata[_tokenId].tradeExpiry);\n    }\n  }\n\n  function endLease(address _leasee, uint256 _tokenId) public {\n    require(msg.sender == leaseExchange);\n    require(_exists(_tokenId));\n    require(ownerOf(_tokenId) == _leasee);\n    require(block.timestamp > metadata[_tokenId].leaseExpiry);\n    removeTokenFromLeasor(metadata[_tokenId].leasor, _tokenId);\n    _burn(_tokenId);\n  }\n\n  function splitLEMB(uint256 _tokenId, uint256 amount) public {\n    require(_exists(_tokenId));\n    require(ownerOf(_tokenId) == msg.sender);\n    require(metadata[_tokenId].isMining == false);\n    require(block.timestamp < metadata[_tokenId].tradeExpiry);\n    require(amount < getAmount(_tokenId));\n\n    uint256 _newTokenId = getNewId();\n\n    Metadata storage m = metadata[_tokenId];\n    m.amount = m.amount - amount;\n\n    _mint(msg.sender, _newTokenId);\n    addTokenToLeasor(m.leasor, _newTokenId);\n    setMetadata(_newTokenId, amount, m.leasor, m.duration,m.tradeExpiry, 0);\n    highestId = highestId + 1;\n  }\n\n  function mintUniqueTokenTo(address _to, uint256 amount, address leasor, uint256 duration) public {\n    require(msg.sender == leaseExchange);\n    uint256 _tokenId = getNewId();\n    _mint(_to, _tokenId);\n    addTokenToLeasor(leasor, _tokenId);\n    uint256 tradeExpiry = block.timestamp + sixMonths;\n    setMetadata(_tokenId, amount, leasor, duration,tradeExpiry, 0);\n    highestId = highestId + 1;\n  }\n\n  function _burn(uint256 _tokenId) override internal {\n    super._burn(_tokenId);\n    delete metadata[_tokenId];\n  }\n\n  modifier canTransfer(uint256 _tokenId) {\n    require(_isApprovedOrOwner(msg.sender, _tokenId));\n    require(metadata[_tokenId].isMining == false);\n    _;\n  }\n\n}\n",
  "sourcePath": "/Users/arjunjain/Emblem_Ethereum_Anchor/contracts/LeasedEmblem.sol",
  "compiler": {
    "name": "solc",
    "version": "0.7.6+commit.7338295f.Emscripten.clang"
  },
  "schemaVersion": "3.3.3",
  "updatedAt": "2021-02-15T01:08:05.462Z",
  "networkType": "ethereum",
  "devdoc": {
    "kind": "dev",
    "methods": {
      "approve(address,uint256)": {
        "details": "See {IERC721-approve}."
      },
      "balanceOf(address)": {
        "details": "See {IERC721-balanceOf}."
      },
      "baseURI()": {
        "details": "Returns the base URI set via {_setBaseURI}. This will be automatically added as a prefix in {tokenURI} to each token's URI, or to the token ID if no specific URI is set for that token ID."
      },
      "getApproved(uint256)": {
        "details": "See {IERC721-getApproved}."
      },
      "isApprovedForAll(address,address)": {
        "details": "See {IERC721-isApprovedForAll}."
      },
      "name()": {
        "details": "See {IERC721Metadata-name}."
      },
      "owner()": {
        "details": "Returns the address of the current owner."
      },
      "ownerOf(uint256)": {
        "details": "See {IERC721-ownerOf}."
      },
      "renounceOwnership()": {
        "details": "Leaves the contract without owner. It will not be possible to call `onlyOwner` functions anymore. Can only be called by the current owner. NOTE: Renouncing ownership will leave the contract without an owner, thereby removing any functionality that is only available to the owner."
      },
      "safeTransferFrom(address,address,uint256)": {
        "details": "See {IERC721-safeTransferFrom}."
      },
      "safeTransferFrom(address,address,uint256,bytes)": {
        "details": "See {IERC721-safeTransferFrom}."
      },
      "setApprovalForAll(address,bool)": {
        "details": "See {IERC721-setApprovalForAll}."
      },
      "supportsInterface(bytes4)": {
        "details": "See {IERC165-supportsInterface}. Time complexity O(1), guaranteed to always use less than 30 000 gas."
      },
      "symbol()": {
        "details": "See {IERC721Metadata-symbol}."
      },
      "tokenByIndex(uint256)": {
        "details": "See {IERC721Enumerable-tokenByIndex}."
      },
      "tokenOfOwnerByIndex(address,uint256)": {
        "details": "See {IERC721Enumerable-tokenOfOwnerByIndex}."
      },
      "tokenURI(uint256)": {
        "details": "See {IERC721Metadata-tokenURI}."
      },
      "totalSupply()": {
        "details": "See {IERC721Enumerable-totalSupply}."
      },
      "transferFrom(address,address,uint256)": {
        "details": "See {IERC721-transferFrom}."
      },
      "transferOwnership(address)": {
        "details": "Transfers ownership of the contract to a new account (`newOwner`). Can only be called by the current owner."
      }
    },
    "version": 1
  },
  "userdoc": {
    "kind": "user",
    "methods": {},
    "version": 1
  }
}