{
  "contractName": "LeasedEmblem",
  "abi": [
    {
      "constant": true,
      "inputs": [
        {
          "name": "_interfaceId",
          "type": "bytes4"
        }
      ],
      "name": "supportsInterface",
      "outputs": [
        {
          "name": "",
          "type": "bool"
        }
      ],
      "payable": false,
      "stateMutability": "view",
      "type": "function"
    },
    {
      "constant": true,
      "inputs": [],
      "name": "name",
      "outputs": [
        {
          "name": "",
          "type": "string"
        }
      ],
      "payable": false,
      "stateMutability": "view",
      "type": "function"
    },
    {
      "constant": true,
      "inputs": [
        {
          "name": "_tokenId",
          "type": "uint256"
        }
      ],
      "name": "getApproved",
      "outputs": [
        {
          "name": "",
          "type": "address"
        }
      ],
      "payable": false,
      "stateMutability": "view",
      "type": "function"
    },
    {
      "constant": false,
      "inputs": [
        {
          "name": "_to",
          "type": "address"
        },
        {
          "name": "_tokenId",
          "type": "uint256"
        }
      ],
      "name": "approve",
      "outputs": [],
      "payable": false,
      "stateMutability": "nonpayable",
      "type": "function"
    },
    {
      "constant": true,
      "inputs": [],
      "name": "totalSupply",
      "outputs": [
        {
          "name": "",
          "type": "uint256"
        }
      ],
      "payable": false,
      "stateMutability": "view",
      "type": "function"
    },
    {
      "constant": true,
      "inputs": [],
      "name": "InterfaceId_ERC165",
      "outputs": [
        {
          "name": "",
          "type": "bytes4"
        }
      ],
      "payable": false,
      "stateMutability": "view",
      "type": "function"
    },
    {
      "constant": false,
      "inputs": [
        {
          "name": "_from",
          "type": "address"
        },
        {
          "name": "_to",
          "type": "address"
        },
        {
          "name": "_tokenId",
          "type": "uint256"
        }
      ],
      "name": "transferFrom",
      "outputs": [],
      "payable": false,
      "stateMutability": "nonpayable",
      "type": "function"
    },
    {
      "constant": true,
      "inputs": [
        {
          "name": "_owner",
          "type": "address"
        },
        {
          "name": "_index",
          "type": "uint256"
        }
      ],
      "name": "tokenOfOwnerByIndex",
      "outputs": [
        {
          "name": "",
          "type": "uint256"
        }
      ],
      "payable": false,
      "stateMutability": "view",
      "type": "function"
    },
    {
      "constant": false,
      "inputs": [
        {
          "name": "_from",
          "type": "address"
        },
        {
          "name": "_to",
          "type": "address"
        },
        {
          "name": "_tokenId",
          "type": "uint256"
        }
      ],
      "name": "safeTransferFrom",
      "outputs": [],
      "payable": false,
      "stateMutability": "nonpayable",
      "type": "function"
    },
    {
      "constant": true,
      "inputs": [
        {
          "name": "_tokenId",
          "type": "uint256"
        }
      ],
      "name": "exists",
      "outputs": [
        {
          "name": "",
          "type": "bool"
        }
      ],
      "payable": false,
      "stateMutability": "view",
      "type": "function"
    },
    {
      "constant": true,
      "inputs": [
        {
          "name": "_index",
          "type": "uint256"
        }
      ],
      "name": "tokenByIndex",
      "outputs": [
        {
          "name": "",
          "type": "uint256"
        }
      ],
      "payable": false,
      "stateMutability": "view",
      "type": "function"
    },
    {
      "constant": true,
      "inputs": [
        {
          "name": "_tokenId",
          "type": "uint256"
        }
      ],
      "name": "ownerOf",
      "outputs": [
        {
          "name": "",
          "type": "address"
        }
      ],
      "payable": false,
      "stateMutability": "view",
      "type": "function"
    },
    {
      "constant": true,
      "inputs": [
        {
          "name": "_owner",
          "type": "address"
        }
      ],
      "name": "balanceOf",
      "outputs": [
        {
          "name": "",
          "type": "uint256"
        }
      ],
      "payable": false,
      "stateMutability": "view",
      "type": "function"
    },
    {
      "constant": false,
      "inputs": [],
      "name": "renounceOwnership",
      "outputs": [],
      "payable": false,
      "stateMutability": "nonpayable",
      "type": "function"
    },
    {
      "constant": true,
      "inputs": [],
      "name": "owner",
      "outputs": [
        {
          "name": "",
          "type": "address"
        }
      ],
      "payable": false,
      "stateMutability": "view",
      "type": "function"
    },
    {
      "constant": true,
      "inputs": [],
      "name": "symbol",
      "outputs": [
        {
          "name": "",
          "type": "string"
        }
      ],
      "payable": false,
      "stateMutability": "view",
      "type": "function"
    },
    {
      "constant": false,
      "inputs": [
        {
          "name": "_to",
          "type": "address"
        },
        {
          "name": "_approved",
          "type": "bool"
        }
      ],
      "name": "setApprovalForAll",
      "outputs": [],
      "payable": false,
      "stateMutability": "nonpayable",
      "type": "function"
    },
    {
      "constant": false,
      "inputs": [
        {
          "name": "_from",
          "type": "address"
        },
        {
          "name": "_to",
          "type": "address"
        },
        {
          "name": "_tokenId",
          "type": "uint256"
        },
        {
          "name": "_data",
          "type": "bytes"
        }
      ],
      "name": "safeTransferFrom",
      "outputs": [],
      "payable": false,
      "stateMutability": "nonpayable",
      "type": "function"
    },
    {
      "constant": true,
      "inputs": [
        {
          "name": "_tokenId",
          "type": "uint256"
        }
      ],
      "name": "tokenURI",
      "outputs": [
        {
          "name": "",
          "type": "string"
        }
      ],
      "payable": false,
      "stateMutability": "view",
      "type": "function"
    },
    {
      "constant": true,
      "inputs": [
        {
          "name": "",
          "type": "uint256"
        }
      ],
      "name": "metadata",
      "outputs": [
        {
          "name": "amount",
          "type": "uint256"
        },
        {
          "name": "leasor",
          "type": "address"
        },
        {
          "name": "duration",
          "type": "uint256"
        },
        {
          "name": "tradeExpiry",
          "type": "uint256"
        },
        {
          "name": "leaseExpiry",
          "type": "uint256"
        },
        {
          "name": "isMining",
          "type": "bool"
        }
      ],
      "payable": false,
      "stateMutability": "view",
      "type": "function"
    },
    {
      "constant": true,
      "inputs": [
        {
          "name": "_owner",
          "type": "address"
        },
        {
          "name": "_operator",
          "type": "address"
        }
      ],
      "name": "isApprovedForAll",
      "outputs": [
        {
          "name": "",
          "type": "bool"
        }
      ],
      "payable": false,
      "stateMutability": "view",
      "type": "function"
    },
    {
      "constant": false,
      "inputs": [
        {
          "name": "_newOwner",
          "type": "address"
        }
      ],
      "name": "transferOwnership",
      "outputs": [],
      "payable": false,
      "stateMutability": "nonpayable",
      "type": "function"
    },
    {
      "inputs": [
        {
          "name": "_name",
          "type": "string"
        },
        {
          "name": "_symbol",
          "type": "string"
        }
      ],
      "payable": false,
      "stateMutability": "nonpayable",
      "type": "constructor"
    },
    {
      "anonymous": false,
      "inputs": [
        {
          "indexed": true,
          "name": "previousOwner",
          "type": "address"
        }
      ],
      "name": "OwnershipRenounced",
      "type": "event"
    },
    {
      "anonymous": false,
      "inputs": [
        {
          "indexed": true,
          "name": "previousOwner",
          "type": "address"
        },
        {
          "indexed": true,
          "name": "newOwner",
          "type": "address"
        }
      ],
      "name": "OwnershipTransferred",
      "type": "event"
    },
    {
      "anonymous": false,
      "inputs": [
        {
          "indexed": true,
          "name": "_from",
          "type": "address"
        },
        {
          "indexed": true,
          "name": "_to",
          "type": "address"
        },
        {
          "indexed": true,
          "name": "_tokenId",
          "type": "uint256"
        }
      ],
      "name": "Transfer",
      "type": "event"
    },
    {
      "anonymous": false,
      "inputs": [
        {
          "indexed": true,
          "name": "_owner",
          "type": "address"
        },
        {
          "indexed": true,
          "name": "_approved",
          "type": "address"
        },
        {
          "indexed": true,
          "name": "_tokenId",
          "type": "uint256"
        }
      ],
      "name": "Approval",
      "type": "event"
    },
    {
      "anonymous": false,
      "inputs": [
        {
          "indexed": true,
          "name": "_owner",
          "type": "address"
        },
        {
          "indexed": true,
          "name": "_operator",
          "type": "address"
        },
        {
          "indexed": false,
          "name": "_approved",
          "type": "bool"
        }
      ],
      "name": "ApprovalForAll",
      "type": "event"
    },
    {
      "constant": true,
      "inputs": [],
      "name": "getNewId",
      "outputs": [
        {
          "name": "",
          "type": "uint256"
        }
      ],
      "payable": false,
      "stateMutability": "view",
      "type": "function"
    },
    {
      "constant": true,
      "inputs": [
        {
          "name": "_tokenId",
          "type": "uint256"
        }
      ],
      "name": "leasorOf",
      "outputs": [
        {
          "name": "",
          "type": "address"
        }
      ],
      "payable": false,
      "stateMutability": "view",
      "type": "function"
    },
    {
      "constant": true,
      "inputs": [
        {
          "name": "_leasor",
          "type": "address"
        }
      ],
      "name": "balanceOfLeasor",
      "outputs": [
        {
          "name": "",
          "type": "uint256"
        }
      ],
      "payable": false,
      "stateMutability": "view",
      "type": "function"
    },
    {
      "constant": true,
      "inputs": [
        {
          "name": "_leasor",
          "type": "address"
        },
        {
          "name": "_index",
          "type": "uint256"
        }
      ],
      "name": "tokenOfLeasorByIndex",
      "outputs": [
        {
          "name": "",
          "type": "uint256"
        }
      ],
      "payable": false,
      "stateMutability": "view",
      "type": "function"
    },
    {
      "constant": false,
      "inputs": [
        {
          "name": "_leaseExchange",
          "type": "address"
        }
      ],
      "name": "setLeaseExchange",
      "outputs": [],
      "payable": false,
      "stateMutability": "nonpayable",
      "type": "function"
    },
    {
      "constant": true,
      "inputs": [],
      "name": "totalAmount",
      "outputs": [
        {
          "name": "",
          "type": "uint256"
        }
      ],
      "payable": false,
      "stateMutability": "view",
      "type": "function"
    },
    {
      "constant": true,
      "inputs": [
        {
          "name": "_tokenId",
          "type": "uint256"
        }
      ],
      "name": "getMetadata",
      "outputs": [
        {
          "name": "",
          "type": "uint256"
        },
        {
          "name": "",
          "type": "address"
        },
        {
          "name": "",
          "type": "uint256"
        },
        {
          "name": "",
          "type": "uint256"
        },
        {
          "name": "",
          "type": "uint256"
        },
        {
          "name": "",
          "type": "bool"
        }
      ],
      "payable": false,
      "stateMutability": "view",
      "type": "function"
    },
    {
      "constant": true,
      "inputs": [
        {
          "name": "owner",
          "type": "address"
        }
      ],
      "name": "getAmountForUser",
      "outputs": [
        {
          "name": "",
          "type": "uint256"
        }
      ],
      "payable": false,
      "stateMutability": "view",
      "type": "function"
    },
    {
      "constant": true,
      "inputs": [
        {
          "name": "owner",
          "type": "address"
        }
      ],
      "name": "getAmountForUserMining",
      "outputs": [
        {
          "name": "",
          "type": "uint256"
        }
      ],
      "payable": false,
      "stateMutability": "view",
      "type": "function"
    },
    {
      "constant": true,
      "inputs": [
        {
          "name": "_tokenId",
          "type": "uint256"
        }
      ],
      "name": "getAmount",
      "outputs": [
        {
          "name": "",
          "type": "uint256"
        }
      ],
      "payable": false,
      "stateMutability": "view",
      "type": "function"
    },
    {
      "constant": true,
      "inputs": [
        {
          "name": "_tokenId",
          "type": "uint256"
        }
      ],
      "name": "getTradeExpiry",
      "outputs": [
        {
          "name": "",
          "type": "uint256"
        }
      ],
      "payable": false,
      "stateMutability": "view",
      "type": "function"
    },
    {
      "constant": true,
      "inputs": [
        {
          "name": "_tokenId",
          "type": "uint256"
        }
      ],
      "name": "getDuration",
      "outputs": [
        {
          "name": "",
          "type": "uint256"
        }
      ],
      "payable": false,
      "stateMutability": "view",
      "type": "function"
    },
    {
      "constant": true,
      "inputs": [
        {
          "name": "_tokenId",
          "type": "uint256"
        }
      ],
      "name": "getIsMining",
      "outputs": [
        {
          "name": "",
          "type": "bool"
        }
      ],
      "payable": false,
      "stateMutability": "view",
      "type": "function"
    },
    {
      "constant": false,
      "inputs": [
        {
          "name": "_owner",
          "type": "address"
        },
        {
          "name": "_tokenId",
          "type": "uint256"
        }
      ],
      "name": "startMining",
      "outputs": [
        {
          "name": "",
          "type": "bool"
        }
      ],
      "payable": false,
      "stateMutability": "nonpayable",
      "type": "function"
    },
    {
      "constant": true,
      "inputs": [
        {
          "name": "_leasor",
          "type": "address"
        },
        {
          "name": "_tokenId",
          "type": "uint256"
        }
      ],
      "name": "canRetrieveEMB",
      "outputs": [
        {
          "name": "",
          "type": "bool"
        }
      ],
      "payable": false,
      "stateMutability": "view",
      "type": "function"
    },
    {
      "constant": false,
      "inputs": [
        {
          "name": "_leasee",
          "type": "address"
        },
        {
          "name": "_tokenId",
          "type": "uint256"
        }
      ],
      "name": "endLease",
      "outputs": [],
      "payable": false,
      "stateMutability": "nonpayable",
      "type": "function"
    },
    {
      "constant": false,
      "inputs": [
        {
          "name": "_tokenId",
          "type": "uint256"
        },
        {
          "name": "amount",
          "type": "uint256"
        }
      ],
      "name": "splitLEMB",
      "outputs": [],
      "payable": false,
      "stateMutability": "nonpayable",
      "type": "function"
    },
    {
      "constant": false,
      "inputs": [
        {
          "name": "_to",
          "type": "address"
        },
        {
          "name": "amount",
          "type": "uint256"
        },
        {
          "name": "leasor",
          "type": "address"
        },
        {
          "name": "duration",
          "type": "uint256"
        }
      ],
      "name": "mintUniqueTokenTo",
      "outputs": [],
      "payable": false,
      "stateMutability": "nonpayable",
      "type": "function"
    }
  ],
  "bytecode": "0x6080604052600160135562f099c06014553480156200001d57600080fd5b5060405162003fd238038062003fd2833981018060405281019080805182019291906020018051820192919050505081816200008b6301ffc9a77c010000000000000000000000000000000000000000000000000000000002620001fc640100000000026401000000009004565b620000c86380ac58cd7c010000000000000000000000000000000000000000000000000000000002620001fc640100000000026401000000009004565b62000105634f558e797c010000000000000000000000000000000000000000000000000000000002620001fc640100000000026401000000009004565b81600590805190602001906200011d929190620002ba565b50806006908051906020019062000136929190620002ba565b506200017463780e9d637c010000000000000000000000000000000000000000000000000000000002620001fc640100000000026401000000009004565b620001b1635b5e139f7c010000000000000000000000000000000000000000000000000000000002620001fc640100000000026401000000009004565b505033600c60006101000a81548173ffffffffffffffffffffffffffffffffffffffff021916908373ffffffffffffffffffffffffffffffffffffffff160217905550505062000369565b63ffffffff7c010000000000000000000000000000000000000000000000000000000002817bffffffffffffffffffffffffffffffffffffffffffffffffffffffff1916141515156200024e57600080fd5b6001600080837bffffffffffffffffffffffffffffffffffffffffffffffffffffffff19167bffffffffffffffffffffffffffffffffffffffffffffffffffffffff1916815260200190815260200160002060006101000a81548160ff02191690831515021790555050565b828054600181600116156101000203166002900490600052602060002090601f016020900481019282601f10620002fd57805160ff19168380011785556200032e565b828001600101855582156200032e579182015b828111156200032d57825182559160200191906001019062000310565b5b5090506200033d919062000341565b5090565b6200036691905b808211156200036257600081600090555060010162000348565b5090565b90565b613c5980620003796000396000f3006080604052600436106101ee576000357c0100000000000000000000000000000000000000000000000000000000900463ffffffff16806301ffc9a7146101f357806304426db41461025757806306fdde03146102ae578063081812fc1461033e578063095ea7b3146103ab57806318160ddd146103f8578063183675181461042357806318a064a51461047a57806319fa8f50146104df5780631a39d8ef1461054857806323b872dd14610573578063266487c4146105e05780632a03fd7e146106375780632c83e86f146106785780632ca8625f146106bb5780632f745c591461073257806342842e0e14610793578063466cd5e5146108005780634f558e791461086d5780634f6ccce7146108b25780636352211e146108f35780637017d4f11461096057806370a082311461098b578063715018a6146109e25780638bb126a7146109f95780638da5cb5b14610a3a57806395d89b4114610a91578063985f422b14610b215780639980ec8614610b82578063a22cb46514610bc3578063a574cea414610c12578063b1eb511b14610ca6578063b88d4fde14610cdd578063c87b56dd14610d90578063cf948c5c14610e36578063d64d22ae14610e83578063e2a3373214610ee8578063e3684e3914610f2d578063e985e9c514610fc1578063f2fde38b1461103c575b600080fd5b3480156101ff57600080fd5b5061023d60048036038101908080357bffffffffffffffffffffffffffffffffffffffffffffffffffffffff1916906020019092919050505061107f565b604051808215151515815260200191505060405180910390f35b34801561026357600080fd5b50610298600480360381019080803573ffffffffffffffffffffffffffffffffffffffff1690602001909291905050506110e6565b6040518082815260200191505060405180910390f35b3480156102ba57600080fd5b506102c3611177565b6040518080602001828103825283818151815260200191508051906020019080838360005b838110156103035780820151818401526020810190506102e8565b50505050905090810190601f1680156103305780820380516001836020036101000a031916815260200191505b509250505060405180910390f35b34801561034a57600080fd5b5061036960048036038101908080359060200190929190505050611219565b604051808273ffffffffffffffffffffffffffffffffffffffff1673ffffffffffffffffffffffffffffffffffffffff16815260200191505060405180910390f35b3480156103b757600080fd5b506103f6600480360381019080803573ffffffffffffffffffffffffffffffffffffffff16906020019092919080359060200190929190505050611256565b005b34801561040457600080fd5b5061040d61139b565b6040518082815260200191505060405180910390f35b34801561042f57600080fd5b50610464600480360381019080803573ffffffffffffffffffffffffffffffffffffffff1690602001909291905050506113a8565b6040518082815260200191505060405180910390f35b34801561048657600080fd5b506104c5600480360381019080803573ffffffffffffffffffffffffffffffffffffffff1690602001909291908035906020019092919050505061142c565b604051808215151515815260200191505060405180910390f35b3480156104eb57600080fd5b506104f4611587565b60405180827bffffffffffffffffffffffffffffffffffffffffffffffffffffffff19167bffffffffffffffffffffffffffffffffffffffffffffffffffffffff1916815260200191505060405180910390f35b34801561055457600080fd5b5061055d6115ae565b6040518082815260200191505060405180910390f35b34801561057f57600080fd5b506105de600480360381019080803573ffffffffffffffffffffffffffffffffffffffff169060200190929190803573ffffffffffffffffffffffffffffffffffffffff16906020019092919080359060200190929190505050611611565b005b3480156105ec57600080fd5b50610621600480360381019080803573ffffffffffffffffffffffffffffffffffffffff169060200190929190505050611754565b6040518082815260200191505060405180910390f35b34801561064357600080fd5b50610662600480360381019080803590602001909291905050506117b2565b6040518082815260200191505060405180910390f35b34801561068457600080fd5b506106b9600480360381019080803573ffffffffffffffffffffffffffffffffffffffff1690602001909291905050506117e6565b005b3480156106c757600080fd5b50610730600480360381019080803573ffffffffffffffffffffffffffffffffffffffff16906020019092919080359060200190929190803573ffffffffffffffffffffffffffffffffffffffff16906020019092919080359060200190929190505050611886565b005b34801561073e57600080fd5b5061077d600480360381019080803573ffffffffffffffffffffffffffffffffffffffff1690602001909291908035906020019092919050505061192d565b6040518082815260200191505060405180910390f35b34801561079f57600080fd5b506107fe600480360381019080803573ffffffffffffffffffffffffffffffffffffffff169060200190929190803573ffffffffffffffffffffffffffffffffffffffff169060200190929190803590602001909291905050506119a4565b005b34801561080c57600080fd5b5061082b60048036038101908080359060200190929190505050611a12565b604051808273ffffffffffffffffffffffffffffffffffffffff1673ffffffffffffffffffffffffffffffffffffffff16815260200191505060405180910390f35b34801561087957600080fd5b5061089860048036038101908080359060200190929190505050611a90565b604051808215151515815260200191505060405180910390f35b3480156108be57600080fd5b506108dd60048036038101908080359060200190929190505050611b02565b6040518082815260200191505060405180910390f35b3480156108ff57600080fd5b5061091e60048036038101908080359060200190929190505050611b3a565b604051808273ffffffffffffffffffffffffffffffffffffffff1673ffffffffffffffffffffffffffffffffffffffff16815260200191505060405180910390f35b34801561096c57600080fd5b50610975611bb8565b6040518082815260200191505060405180910390f35b34801561099757600080fd5b506109cc600480360381019080803573ffffffffffffffffffffffffffffffffffffffff169060200190929190505050611bc2565b6040518082815260200191505060405180910390f35b3480156109ee57600080fd5b506109f7611c46565b005b348015610a0557600080fd5b50610a2460048036038101908080359060200190929190505050611d4b565b6040518082815260200191505060405180910390f35b348015610a4657600080fd5b50610a4f611d7f565b604051808273ffffffffffffffffffffffffffffffffffffffff1673ffffffffffffffffffffffffffffffffffffffff16815260200191505060405180910390f35b348015610a9d57600080fd5b50610aa6611da5565b6040518080602001828103825283818151815260200191508051906020019080838360005b83811015610ae6578082015181840152602081019050610acb565b50505050905090810190601f168015610b135780820380516001836020036101000a031916815260200191505b509250505060405180910390f35b348015610b2d57600080fd5b50610b6c600480360381019080803573ffffffffffffffffffffffffffffffffffffffff16906020019092919080359060200190929190505050611e47565b6040518082815260200191505060405180910390f35b348015610b8e57600080fd5b50610bad60048036038101908080359060200190929190505050611ebe565b6040518082815260200191505060405180910390f35b348015610bcf57600080fd5b50610c10600480360381019080803573ffffffffffffffffffffffffffffffffffffffff169060200190929190803515159060200190929190505050611ef2565b005b348015610c1e57600080fd5b50610c3d6004803603810190808035906020019092919050505061202e565b604051808781526020018673ffffffffffffffffffffffffffffffffffffffff1673ffffffffffffffffffffffffffffffffffffffff16815260200185815260200184815260200183815260200182151515158152602001965050505050505060405180910390f35b348015610cb257600080fd5b50610cdb6004803603810190808035906020019092919080359060200190929190505050612117565b005b348015610ce957600080fd5b50610d8e600480360381019080803573ffffffffffffffffffffffffffffffffffffffff169060200190929190803573ffffffffffffffffffffffffffffffffffffffff16906020019092919080359060200190929190803590602001908201803590602001908080601f0160208091040260200160405190810160405280939291908181526020018383808284378201915050505050509192919290505050612293565b005b348015610d9c57600080fd5b50610dbb60048036038101908080359060200190929190505050612308565b6040518080602001828103825283818151815260200191508051906020019080838360005b83811015610dfb578082015181840152602081019050610de0565b50505050905090810190601f168015610e285780820380516001836020036101000a031916815260200191505b509250505060405180910390f35b348015610e4257600080fd5b50610e81600480360381019080803573ffffffffffffffffffffffffffffffffffffffff169060200190929190803590602001909291905050506123d1565b005b348015610e8f57600080fd5b50610ece600480360381019080803573ffffffffffffffffffffffffffffffffffffffff169060200190929190803590602001909291905050506124f5565b604051808215151515815260200191505060405180910390f35b348015610ef457600080fd5b50610f13600480360381019080803590602001909291905050506125ed565b604051808215151515815260200191505060405180910390f35b348015610f3957600080fd5b50610f586004803603810190808035906020019092919050505061262e565b604051808781526020018673ffffffffffffffffffffffffffffffffffffffff1673ffffffffffffffffffffffffffffffffffffffff16815260200185815260200184815260200183815260200182151515158152602001965050505050505060405180910390f35b348015610fcd57600080fd5b50611022600480360381019080803573ffffffffffffffffffffffffffffffffffffffff169060200190929190803573ffffffffffffffffffffffffffffffffffffffff169060200190929190505050612697565b604051808215151515815260200191505060405180910390f35b34801561104857600080fd5b5061107d600480360381019080803573ffffffffffffffffffffffffffffffffffffffff16906020019092919050505061272b565b005b6000806000837bffffffffffffffffffffffffffffffffffffffffffffffffffffffff19167bffffffffffffffffffffffffffffffffffffffffffffffffffffffff1916815260200190815260200160002060009054906101000a900460ff169050919050565b600080600080600092506110f985611bc2565b9150600090505b8181101561116c57600e6000611116878461192d565b815260200190815260200160002060050160009054906101000a900460ff161561115f57600e6000611148878461192d565b815260200190815260200160002060000154830192505b8080600101915050611100565b829350505050919050565b606060058054600181600116156101000203166002900480601f01602080910402602001604051908101604052809291908181526020018280546001816001161561010002031660029004801561120f5780601f106111e45761010080835404028352916020019161120f565b820191906000526020600020905b8154815290600101906020018083116111f257829003601f168201915b5050505050905090565b60006002600083815260200190815260200160002060009054906101000a900473ffffffffffffffffffffffffffffffffffffffff169050919050565b600061126182611b3a565b90508073ffffffffffffffffffffffffffffffffffffffff168373ffffffffffffffffffffffffffffffffffffffff161415151561129e57600080fd5b8073ffffffffffffffffffffffffffffffffffffffff163373ffffffffffffffffffffffffffffffffffffffff1614806112de57506112dd8133612697565b5b15156112e957600080fd5b826002600084815260200190815260200160002060006101000a81548173ffffffffffffffffffffffffffffffffffffffff021916908373ffffffffffffffffffffffffffffffffffffffff160217905550818373ffffffffffffffffffffffffffffffffffffffff168273ffffffffffffffffffffffffffffffffffffffff167f8c5be1e5ebec7d5bd14f71427d1e84f3dd0314c0f7b2291e5b200ac8c7c3b92560405160405180910390a4505050565b6000600980549050905090565b60008073ffffffffffffffffffffffffffffffffffffffff168273ffffffffffffffffffffffffffffffffffffffff16141515156113e557600080fd5b601260008373ffffffffffffffffffffffffffffffffffffffff1673ffffffffffffffffffffffffffffffffffffffff168152602001908152602001600020549050919050565b600080600d60009054906101000a900473ffffffffffffffffffffffffffffffffffffffff1673ffffffffffffffffffffffffffffffffffffffff163373ffffffffffffffffffffffffffffffffffffffff1614151561148b57600080fd5b61149483611a90565b151561149f57600080fd5b8373ffffffffffffffffffffffffffffffffffffffff166114bf84611b3a565b73ffffffffffffffffffffffffffffffffffffffff161415156114e157600080fd5b600e6000848152602001908152602001600020600301544210151561150557600080fd5b60001515600e600085815260200190815260200160002060050160009054906101000a900460ff16151514151561153b57600080fd5b600e6000848152602001908152602001600020905060018160050160006101000a81548160ff021916908315150217905550806002015442018160040181905550600191505092915050565b6301ffc9a77c01000000000000000000000000000000000000000000000000000000000281565b6000806000809150600090505b60098054905081101561160957600e60006009838154811015156115db57fe5b90600052602060002001548152602001908152602001600020600001548201915080806001019150506115bb565b819250505090565b8061161c3382612793565b151561162757600080fd5b60001515600e600083815260200190815260200160002060050160009054906101000a900460ff16151514151561165d57600080fd5b600073ffffffffffffffffffffffffffffffffffffffff168473ffffffffffffffffffffffffffffffffffffffff161415151561169957600080fd5b600073ffffffffffffffffffffffffffffffffffffffff168373ffffffffffffffffffffffffffffffffffffffff16141515156116d557600080fd5b6116df8483612828565b6116e9848361292b565b6116f38383612b43565b818373ffffffffffffffffffffffffffffffffffffffff168573ffffffffffffffffffffffffffffffffffffffff167fddf252ad1be2c89b69c2b068fc378daa952ba7f163c4a11628f55a4df523b3ef60405160405180910390a450505050565b6000806000806000925061176785611bc2565b9150600090505b818110156117a757600e6000611784878461192d565b81526020019081526020016000206000015483019250808060010191505061176e565b829350505050919050565b60006117bd82611a90565b15156117c857600080fd5b600e6000838152602001908152602001600020600301549050919050565b600c60009054906101000a900473ffffffffffffffffffffffffffffffffffffffff1673ffffffffffffffffffffffffffffffffffffffff163373ffffffffffffffffffffffffffffffffffffffff1614151561184257600080fd5b80600d60006101000a81548173ffffffffffffffffffffffffffffffffffffffff021916908373ffffffffffffffffffffffffffffffffffffffff16021790555050565b600080600d60009054906101000a900473ffffffffffffffffffffffffffffffffffffffff1673ffffffffffffffffffffffffffffffffffffffff163373ffffffffffffffffffffffffffffffffffffffff161415156118e557600080fd5b6118ed611bb8565b91506118f98683612c1a565b6119038483612c71565b6014544201905061191982868686856000612e93565b600160135401601381905550505050505050565b600061193883611bc2565b8210151561194557600080fd5b600760008473ffffffffffffffffffffffffffffffffffffffff1673ffffffffffffffffffffffffffffffffffffffff1681526020019081526020016000208281548110151561199157fe5b9060005260206000200154905092915050565b806119af3382612793565b15156119ba57600080fd5b60001515600e600083815260200190815260200160002060050160009054906101000a900460ff1615151415156119f057600080fd5b611a0c8484846020604051908101604052806000815250612293565b50505050565b6000806011600084815260200190815260200160002060009054906101000a900473ffffffffffffffffffffffffffffffffffffffff169050600073ffffffffffffffffffffffffffffffffffffffff168173ffffffffffffffffffffffffffffffffffffffff1614151515611a8757600080fd5b80915050919050565b6000806001600084815260200190815260200160002060009054906101000a900473ffffffffffffffffffffffffffffffffffffffff169050600073ffffffffffffffffffffffffffffffffffffffff168173ffffffffffffffffffffffffffffffffffffffff161415915050919050565b6000611b0c61139b565b82101515611b1957600080fd5b600982815481101515611b2857fe5b90600052602060002001549050919050565b6000806001600084815260200190815260200160002060009054906101000a900473ffffffffffffffffffffffffffffffffffffffff169050600073ffffffffffffffffffffffffffffffffffffffff168173ffffffffffffffffffffffffffffffffffffffff1614151515611baf57600080fd5b80915050919050565b6000601354905090565b60008073ffffffffffffffffffffffffffffffffffffffff168273ffffffffffffffffffffffffffffffffffffffff1614151515611bff57600080fd5b600360008373ffffffffffffffffffffffffffffffffffffffff1673ffffffffffffffffffffffffffffffffffffffff168152602001908152602001600020549050919050565b600c60009054906101000a900473ffffffffffffffffffffffffffffffffffffffff1673ffffffffffffffffffffffffffffffffffffffff163373ffffffffffffffffffffffffffffffffffffffff16141515611ca257600080fd5b600c60009054906101000a900473ffffffffffffffffffffffffffffffffffffffff1673ffffffffffffffffffffffffffffffffffffffff167ff8df31144d9c2f0f6b59d69b8b98abd5459d07f2742c4df920b25aae33c6482060405160405180910390a26000600c60006101000a81548173ffffffffffffffffffffffffffffffffffffffff021916908373ffffffffffffffffffffffffffffffffffffffff160217905550565b6000611d5682611a90565b1515611d6157600080fd5b600e6000838152602001908152602001600020600201549050919050565b600c60009054906101000a900473ffffffffffffffffffffffffffffffffffffffff1681565b606060068054600181600116156101000203166002900480601f016020809104026020016040519081016040528092919081815260200182805460018160011615610100020316600290048015611e3d5780601f10611e1257610100808354040283529160200191611e3d565b820191906000526020600020905b815481529060010190602001808311611e2057829003601f168201915b5050505050905090565b6000611e52836113a8565b82101515611e5f57600080fd5b600f60008473ffffffffffffffffffffffffffffffffffffffff1673ffffffffffffffffffffffffffffffffffffffff16815260200190815260200160002082815481101515611eab57fe5b9060005260206000200154905092915050565b6000611ec982611a90565b1515611ed457600080fd5b600e6000838152602001908152602001600020600001549050919050565b3373ffffffffffffffffffffffffffffffffffffffff168273ffffffffffffffffffffffffffffffffffffffff1614151515611f2d57600080fd5b80600460003373ffffffffffffffffffffffffffffffffffffffff1673ffffffffffffffffffffffffffffffffffffffff16815260200190815260200160002060008473ffffffffffffffffffffffffffffffffffffffff1673ffffffffffffffffffffffffffffffffffffffff16815260200190815260200160002060006101000a81548160ff0219169083151502179055508173ffffffffffffffffffffffffffffffffffffffff163373ffffffffffffffffffffffffffffffffffffffff167f17307eab39ab6107e8899845ad3d59bd9653f200f220920489ca2b5937696c3183604051808215151515815260200191505060405180910390a35050565b60008060008060008061204087611a90565b151561204b57600080fd5b600e600088815260200190815260200160002060000154600e600089815260200190815260200160002060010160009054906101000a900473ffffffffffffffffffffffffffffffffffffffff16600e60008a815260200190815260200160002060020154600e60008b815260200190815260200160002060030154600e60008c815260200190815260200160002060040154600e60008d815260200190815260200160002060050160009054906101000a900460ff1695509550955095509550955091939550919395565b60008061212384611a90565b151561212e57600080fd5b3373ffffffffffffffffffffffffffffffffffffffff1661214e85611b3a565b73ffffffffffffffffffffffffffffffffffffffff1614151561217057600080fd5b60001515600e600086815260200190815260200160002060050160009054906101000a900460ff1615151415156121a657600080fd5b600e600085815260200190815260200160002060030154421015156121ca57600080fd5b6121d384611ebe565b831015156121e057600080fd5b6121e8611bb8565b9150600e600085815260200190815260200160002090508281600001540381600001819055506122183383612c1a565b6122468160010160009054906101000a900473ffffffffffffffffffffffffffffffffffffffff1683612c71565b61228182848360010160009054906101000a900473ffffffffffffffffffffffffffffffffffffffff16846002015485600301546000612e93565b60016013540160138190555050505050565b8161229e3382612793565b15156122a957600080fd5b60001515600e600083815260200190815260200160002060050160009054906101000a900460ff1615151415156122df57600080fd5b6122ea858585611611565b6122f685858585612f9b565b151561230157600080fd5b5050505050565b606061231382611a90565b151561231e57600080fd5b600b60008381526020019081526020016000208054600181600116156101000203166002900480601f0160208091040260200160405190810160405280929190818152602001828054600181600116156101000203166002900480156123c55780601f1061239a576101008083540402835291602001916123c5565b820191906000526020600020905b8154815290600101906020018083116123a857829003601f168201915b50505050509050919050565b600d60009054906101000a900473ffffffffffffffffffffffffffffffffffffffff1673ffffffffffffffffffffffffffffffffffffffff163373ffffffffffffffffffffffffffffffffffffffff1614151561242d57600080fd5b61243681611a90565b151561244157600080fd5b8173ffffffffffffffffffffffffffffffffffffffff1661246182611b3a565b73ffffffffffffffffffffffffffffffffffffffff1614151561248357600080fd5b600e600082815260200190815260200160002060040154421115156124a757600080fd5b6124e7600e600083815260200190815260200160002060010160009054906101000a900473ffffffffffffffffffffffffffffffffffffffff16826131bd565b6124f182826134f6565b5050565b600061250082611a90565b151561250b57600080fd5b8273ffffffffffffffffffffffffffffffffffffffff16600e600084815260200190815260200160002060010160009054906101000a900473ffffffffffffffffffffffffffffffffffffffff1673ffffffffffffffffffffffffffffffffffffffff1614151561257b57600080fd5b60001515600e600084815260200190815260200160002060050160009054906101000a900460ff16151514156125cb57600e600083815260200190815260200160002060040154421190506125e7565b600e600083815260200190815260200160002060030154421190505b92915050565b60006125f882611a90565b151561260357600080fd5b600e600083815260200190815260200160002060050160009054906101000a900460ff169050919050565b600e6020528060005260406000206000915090508060000154908060010160009054906101000a900473ffffffffffffffffffffffffffffffffffffffff16908060020154908060030154908060040154908060050160009054906101000a900460ff16905086565b6000600460008473ffffffffffffffffffffffffffffffffffffffff1673ffffffffffffffffffffffffffffffffffffffff16815260200190815260200160002060008373ffffffffffffffffffffffffffffffffffffffff1673ffffffffffffffffffffffffffffffffffffffff16815260200190815260200160002060009054906101000a900460ff16905092915050565b600c60009054906101000a900473ffffffffffffffffffffffffffffffffffffffff1673ffffffffffffffffffffffffffffffffffffffff163373ffffffffffffffffffffffffffffffffffffffff1614151561278757600080fd5b61279081613575565b50565b60008061279f83611b3a565b90508073ffffffffffffffffffffffffffffffffffffffff168473ffffffffffffffffffffffffffffffffffffffff16148061280e57508373ffffffffffffffffffffffffffffffffffffffff166127f684611219565b73ffffffffffffffffffffffffffffffffffffffff16145b8061281f575061281e8185612697565b5b91505092915050565b8173ffffffffffffffffffffffffffffffffffffffff1661284882611b3a565b73ffffffffffffffffffffffffffffffffffffffff1614151561286a57600080fd5b600073ffffffffffffffffffffffffffffffffffffffff166002600083815260200190815260200160002060009054906101000a900473ffffffffffffffffffffffffffffffffffffffff1673ffffffffffffffffffffffffffffffffffffffff161415156129275760006002600083815260200190815260200160002060006101000a81548173ffffffffffffffffffffffffffffffffffffffff021916908373ffffffffffffffffffffffffffffffffffffffff1602179055505b5050565b600080600061293a8585613671565b600860008581526020019081526020016000205492506129a66001600760008873ffffffffffffffffffffffffffffffffffffffff1673ffffffffffffffffffffffffffffffffffffffff168152602001908152602001600020805490506137a090919063ffffffff16565b9150600760008673ffffffffffffffffffffffffffffffffffffffff1673ffffffffffffffffffffffffffffffffffffffff168152602001908152602001600020828154811015156129f457fe5b9060005260206000200154905080600760008773ffffffffffffffffffffffffffffffffffffffff1673ffffffffffffffffffffffffffffffffffffffff16815260200190815260200160002084815481101515612a4e57fe5b90600052602060002001819055506000600760008773ffffffffffffffffffffffffffffffffffffffff1673ffffffffffffffffffffffffffffffffffffffff16815260200190815260200160002083815481101515612aaa57fe5b9060005260206000200181905550600760008673ffffffffffffffffffffffffffffffffffffffff1673ffffffffffffffffffffffffffffffffffffffff168152602001908152602001600020805480919060019003612b0a9190613b94565b50600060086000868152602001908152602001600020819055508260086000838152602001908152602001600020819055505050505050565b6000612b4f83836137b9565b600760008473ffffffffffffffffffffffffffffffffffffffff1673ffffffffffffffffffffffffffffffffffffffff168152602001908152602001600020805490509050600760008473ffffffffffffffffffffffffffffffffffffffff1673ffffffffffffffffffffffffffffffffffffffff168152602001908152602001600020829080600181540180825580915050906001820390600052602060002001600090919290919091505550806008600084815260200190815260200160002081905550505050565b612c248282613913565b600980549050600a60008381526020019081526020016000208190555060098190806001815401808255809150509060018203906000526020600020016000909192909190915055505050565b60008073ffffffffffffffffffffffffffffffffffffffff166011600084815260200190815260200160002060009054906101000a900473ffffffffffffffffffffffffffffffffffffffff1673ffffffffffffffffffffffffffffffffffffffff16141515612ce057600080fd5b826011600084815260200190815260200160002060006101000a81548173ffffffffffffffffffffffffffffffffffffffff021916908373ffffffffffffffffffffffffffffffffffffffff160217905550612d856001601260008673ffffffffffffffffffffffffffffffffffffffff1673ffffffffffffffffffffffffffffffffffffffff168152602001908152602001600020546139b990919063ffffffff16565b601260008573ffffffffffffffffffffffffffffffffffffffff1673ffffffffffffffffffffffffffffffffffffffff16815260200190815260200160002081905550600f60008473ffffffffffffffffffffffffffffffffffffffff1673ffffffffffffffffffffffffffffffffffffffff168152602001908152602001600020805490509050600f60008473ffffffffffffffffffffffffffffffffffffffff1673ffffffffffffffffffffffffffffffffffffffff168152602001908152602001600020829080600181540180825580915050906001820390600052602060002001600090919290919091505550806010600084815260200190815260200160002081905550505050565b612e9c86611a90565b1515612ea757600080fd5b60c0604051908101604052808681526020018573ffffffffffffffffffffffffffffffffffffffff16815260200184815260200183815260200182815260200160001515815250600e60008881526020019081526020016000206000820151816000015560208201518160010160006101000a81548173ffffffffffffffffffffffffffffffffffffffff021916908373ffffffffffffffffffffffffffffffffffffffff16021790555060408201518160020155606082015181600301556080820151816004015560a08201518160050160006101000a81548160ff021916908315150217905550905050505050505050565b600080612fbd8573ffffffffffffffffffffffffffffffffffffffff166139d5565b1515612fcc57600191506131b4565b8473ffffffffffffffffffffffffffffffffffffffff1663150b7a02338887876040518563ffffffff167c0100000000000000000000000000000000000000000000000000000000028152600401808573ffffffffffffffffffffffffffffffffffffffff1673ffffffffffffffffffffffffffffffffffffffff1681526020018473ffffffffffffffffffffffffffffffffffffffff1673ffffffffffffffffffffffffffffffffffffffff16815260200183815260200180602001828103825283818151815260200191508051906020019080838360005b838110156130c15780820151818401526020810190506130a6565b50505050905090810190601f1680156130ee5780820380516001836020036101000a031916815260200191505b5095505050505050602060405180830381600087803b15801561311057600080fd5b505af1158015613124573d6000803e3d6000fd5b505050506040513d602081101561313a57600080fd5b8101908080519060200190929190505050905063150b7a027c0100000000000000000000000000000000000000000000000000000000027bffffffffffffffffffffffffffffffffffffffffffffffffffffffff1916817bffffffffffffffffffffffffffffffffffffffffffffffffffffffff19161491505b50949350505050565b60008060008473ffffffffffffffffffffffffffffffffffffffff166131e285611a12565b73ffffffffffffffffffffffffffffffffffffffff1614151561320457600080fd5b6132576001601260008873ffffffffffffffffffffffffffffffffffffffff1673ffffffffffffffffffffffffffffffffffffffff168152602001908152602001600020546137a090919063ffffffff16565b601260008773ffffffffffffffffffffffffffffffffffffffff1673ffffffffffffffffffffffffffffffffffffffff1681526020019081526020016000208190555060006011600086815260200190815260200160002060006101000a81548173ffffffffffffffffffffffffffffffffffffffff021916908373ffffffffffffffffffffffffffffffffffffffff160217905550601060008581526020019081526020016000205492506133596001600f60008873ffffffffffffffffffffffffffffffffffffffff1673ffffffffffffffffffffffffffffffffffffffff168152602001908152602001600020805490506137a090919063ffffffff16565b9150600f60008673ffffffffffffffffffffffffffffffffffffffff1673ffffffffffffffffffffffffffffffffffffffff168152602001908152602001600020828154811015156133a757fe5b9060005260206000200154905080600f60008773ffffffffffffffffffffffffffffffffffffffff1673ffffffffffffffffffffffffffffffffffffffff1681526020019081526020016000208481548110151561340157fe5b90600052602060002001819055506000600f60008773ffffffffffffffffffffffffffffffffffffffff1673ffffffffffffffffffffffffffffffffffffffff1681526020019081526020016000208381548110151561345d57fe5b9060005260206000200181905550600f60008673ffffffffffffffffffffffffffffffffffffffff1673ffffffffffffffffffffffffffffffffffffffff1681526020019081526020016000208054809190600190036134bd9190613b94565b50600060106000868152602001908152602001600020819055508260106000838152602001908152602001600020819055505050505050565b61350082826139e8565b600e60008281526020019081526020016000206000808201600090556001820160006101000a81549073ffffffffffffffffffffffffffffffffffffffff02191690556002820160009055600382016000905560048201600090556005820160006101000a81549060ff021916905550505050565b600073ffffffffffffffffffffffffffffffffffffffff168173ffffffffffffffffffffffffffffffffffffffff16141515156135b157600080fd5b8073ffffffffffffffffffffffffffffffffffffffff16600c60009054906101000a900473ffffffffffffffffffffffffffffffffffffffff1673ffffffffffffffffffffffffffffffffffffffff167f8be0079c531659141344cd1fd0a4f28419497f9722a3daafe3b4186f6b6457e060405160405180910390a380600c60006101000a81548173ffffffffffffffffffffffffffffffffffffffff021916908373ffffffffffffffffffffffffffffffffffffffff16021790555050565b8173ffffffffffffffffffffffffffffffffffffffff1661369182611b3a565b73ffffffffffffffffffffffffffffffffffffffff161415156136b357600080fd5b6137066001600360008573ffffffffffffffffffffffffffffffffffffffff1673ffffffffffffffffffffffffffffffffffffffff168152602001908152602001600020546137a090919063ffffffff16565b600360008473ffffffffffffffffffffffffffffffffffffffff1673ffffffffffffffffffffffffffffffffffffffff1681526020019081526020016000208190555060006001600083815260200190815260200160002060006101000a81548173ffffffffffffffffffffffffffffffffffffffff021916908373ffffffffffffffffffffffffffffffffffffffff1602179055505050565b60008282111515156137ae57fe5b818303905092915050565b600073ffffffffffffffffffffffffffffffffffffffff166001600083815260200190815260200160002060009054906101000a900473ffffffffffffffffffffffffffffffffffffffff1673ffffffffffffffffffffffffffffffffffffffff1614151561382757600080fd5b816001600083815260200190815260200160002060006101000a81548173ffffffffffffffffffffffffffffffffffffffff021916908373ffffffffffffffffffffffffffffffffffffffff1602179055506138cc6001600360008573ffffffffffffffffffffffffffffffffffffffff1673ffffffffffffffffffffffffffffffffffffffff168152602001908152602001600020546139b990919063ffffffff16565b600360008473ffffffffffffffffffffffffffffffffffffffff1673ffffffffffffffffffffffffffffffffffffffff168152602001908152602001600020819055505050565b600073ffffffffffffffffffffffffffffffffffffffff168273ffffffffffffffffffffffffffffffffffffffff161415151561394f57600080fd5b6139598282612b43565b808273ffffffffffffffffffffffffffffffffffffffff16600073ffffffffffffffffffffffffffffffffffffffff167fddf252ad1be2c89b69c2b068fc378daa952ba7f163c4a11628f55a4df523b3ef60405160405180910390a45050565b600081830190508281101515156139cc57fe5b80905092915050565b600080823b905060008111915050919050565b60008060006139f78585613b20565b6000600b6000868152602001908152602001600020805460018160011615610100020316600290049050141515613a4857600b60008581526020019081526020016000206000613a479190613bc0565b5b600a6000858152602001908152602001600020549250613a7760016009805490506137a090919063ffffffff16565b9150600982815481101515613a8857fe5b9060005260206000200154905080600984815481101515613aa557fe5b90600052602060002001819055506000600983815481101515613ac457fe5b90600052602060002001819055506009805480919060019003613ae79190613b94565b506000600a60008681526020019081526020016000208190555082600a6000838152602001908152602001600020819055505050505050565b613b2a8282612828565b613b34828261292b565b80600073ffffffffffffffffffffffffffffffffffffffff168373ffffffffffffffffffffffffffffffffffffffff167fddf252ad1be2c89b69c2b068fc378daa952ba7f163c4a11628f55a4df523b3ef60405160405180910390a45050565b815481835581811115613bbb57818360005260206000209182019101613bba9190613c08565b5b505050565b50805460018160011615610100020316600290046000825580601f10613be65750613c05565b601f016020900490600052602060002090810190613c049190613c08565b5b50565b613c2a91905b80821115613c26576000816000905550600101613c0e565b5090565b905600a165627a7a72305820841c1ec79babfb6a36eea80f20668640c7d9eedb4cd43ad720bb18c7d22d116a0029",
  "source": "pragma solidity ^0.4.24;\n\nimport \"openzeppelin-solidity/contracts/token/ERC721/ERC721Token.sol\";\nimport \"openzeppelin-solidity/contracts/ownership/Ownable.sol\";\n\ncontract LeasedEmblem is  ERC721Token, Ownable {\n\n\n  address internal leaseExchange;\n\n\n  struct Metadata {\n    uint256 amount;\n    address leasor;\n    uint256 duration;\n    uint256 tradeExpiry;\n    uint256 leaseExpiry;\n    bool isMining;\n  }\n\n\n  mapping(uint256 => Metadata) public metadata;\n\n\n  mapping(address => uint256[]) internal leasedTokens;\n\n\n  mapping(uint256 => uint256) internal leasedTokensIndex;\n\n\n  mapping (uint256 => address) internal tokenLeasor;\n\n\n  mapping (address => uint256) internal leasedTokensCount;\n\n  uint256 highestId = 1;\n\n  uint256 sixMonths       = 15768000;\n\n  constructor (string _name, string _symbol) public ERC721Token(_name, _symbol) {\n  }\n\n\n\n  function getNewId() public view returns(uint256) {\n    return highestId;\n  }\n\n  function leasorOf(uint256 _tokenId) public view returns (address) {\n    address owner = tokenLeasor[_tokenId];\n    require(owner != address(0));\n    return owner;\n  }\n\n  function balanceOfLeasor(address _leasor) public view returns (uint256) {\n    require(_leasor != address(0));\n    return leasedTokensCount[_leasor];\n  }\n\n  function tokenOfLeasorByIndex(address _leasor,uint256 _index) public view returns (uint256){\n    require(_index < balanceOfLeasor(_leasor));\n    return leasedTokens[_leasor][_index];\n  }\n\n  function addTokenToLeasor(address _to, uint256 _tokenId) internal {\n    require(tokenLeasor[_tokenId] == address(0));\n    tokenLeasor[_tokenId] = _to;\n    leasedTokensCount[_to] = leasedTokensCount[_to].add(1);\n    uint256 length = leasedTokens[_to].length;\n    leasedTokens[_to].push(_tokenId);\n    leasedTokensIndex[_tokenId] = length;\n  }\n\n  function removeTokenFromLeasor(address _from, uint256 _tokenId) internal {\n    require(leasorOf(_tokenId) == _from);\n    leasedTokensCount[_from] = leasedTokensCount[_from].sub(1);\n    tokenLeasor[_tokenId] = address(0);\n\n    uint256 tokenIndex = leasedTokensIndex[_tokenId];\n    uint256 lastTokenIndex = leasedTokens[_from].length.sub(1);\n    uint256 lastToken = leasedTokens[_from][lastTokenIndex];\n\n    leasedTokens[_from][tokenIndex] = lastToken;\n    leasedTokens[_from][lastTokenIndex] = 0;\n    leasedTokens[_from].length--;\n    leasedTokensIndex[_tokenId] = 0;\n    leasedTokensIndex[lastToken] = tokenIndex;\n  }\n\n  function setLeaseExchange(address _leaseExchange) public onlyOwner {\n    leaseExchange = _leaseExchange;\n  }\n\n  function totalAmount() external view returns (uint256) {\n    uint256 amount = 0;\n    for(uint256 i = 0; i < allTokens.length; i++){\n      amount += metadata[allTokens[i]].amount;\n    }\n    return amount;\n  }\n\n  function setMetadata(uint256 _tokenId, uint256 amount, address leasor, uint256 duration,uint256 tradeExpiry, uint256 leaseExpiry) internal {\n    require(exists(_tokenId));\n    metadata[_tokenId]= Metadata(amount,leasor,duration,tradeExpiry,leaseExpiry,false);\n  }\n\n  function getMetadata(uint256 _tokenId) public view returns (uint256, address, uint256, uint256,uint256, bool) {\n    require(exists(_tokenId));\n    return (\n      metadata[_tokenId].amount,\n      metadata[_tokenId].leasor,\n      metadata[_tokenId].duration,\n      metadata[_tokenId].tradeExpiry,\n      metadata[_tokenId].leaseExpiry,\n      metadata[_tokenId].isMining\n    );\n  }\n\n  function getAmountForUser(address owner) external view returns (uint256) {\n    uint256 amount = 0;\n    uint256 numTokens = balanceOf(owner);\n\n    for(uint256 i = 0; i < numTokens; i++){\n      amount += metadata[tokenOfOwnerByIndex(owner,i)].amount;\n    }\n    return amount;\n  }\n\n  function getAmountForUserMining(address owner) external view returns (uint256) {\n    uint256 amount = 0;\n    uint256 numTokens = balanceOf(owner);\n\n    for(uint256 i = 0; i < numTokens; i++){\n      if(metadata[tokenOfOwnerByIndex(owner,i)].isMining) {\n        amount += metadata[tokenOfOwnerByIndex(owner,i)].amount;\n      }\n    }\n    return amount;\n  }\n\n  function getAmount(uint256 _tokenId) public view returns (uint256) {\n    require(exists(_tokenId));\n    return metadata[_tokenId].amount;\n  }\n\n  function getTradeExpiry(uint256 _tokenId) public view returns (uint256) {\n    require(exists(_tokenId));\n    return metadata[_tokenId].tradeExpiry;\n  }\n\n  function getDuration(uint256 _tokenId) public view returns (uint256) {\n    require(exists(_tokenId));\n    return metadata[_tokenId].duration;\n  }\n\n  function getIsMining(uint256 _tokenId) public view returns (bool) {\n    require(exists(_tokenId));\n    return metadata[_tokenId].isMining;\n  }\n\n  function startMining(address _owner, uint256 _tokenId) public returns (bool) {\n    require(msg.sender == leaseExchange);\n    require(exists(_tokenId));\n    require(ownerOf(_tokenId) == _owner);\n    require(now < metadata[_tokenId].tradeExpiry);\n    require(metadata[_tokenId].isMining == false);\n    Metadata storage m = metadata[_tokenId];\n    m.isMining = true;\n    m.leaseExpiry = now + m.duration;\n    return true;\n  }\n\n  function canRetrieveEMB(address _leasor, uint256 _tokenId) public view returns (bool) {\n    require(exists(_tokenId));\n    require(metadata[_tokenId].leasor == _leasor);\n    if(metadata[_tokenId].isMining == false) {\n      return(now > metadata[_tokenId].leaseExpiry);\n    }\n    else {\n      return(now > metadata[_tokenId].tradeExpiry);\n    }\n  }\n\n  function endLease(address _leasee, uint256 _tokenId) public {\n    require(msg.sender == leaseExchange);\n    require(exists(_tokenId));\n    require(ownerOf(_tokenId) == _leasee);\n    require(now > metadata[_tokenId].leaseExpiry);\n    removeTokenFromLeasor(metadata[_tokenId].leasor, _tokenId);\n    _burn(_leasee, _tokenId);\n  }\n\n  function splitLEMB(uint256 _tokenId, uint256 amount) public {\n    require(exists(_tokenId));\n    require(ownerOf(_tokenId) == msg.sender);\n    require(metadata[_tokenId].isMining == false);\n    require(now < metadata[_tokenId].tradeExpiry);\n    require(amount < getAmount(_tokenId));\n\n    uint256 _newTokenId = getNewId();\n\n    Metadata storage m = metadata[_tokenId];\n    m.amount = m.amount - amount;\n\n    _mint(msg.sender, _newTokenId);\n    addTokenToLeasor(m.leasor, _newTokenId);\n    setMetadata(_newTokenId, amount, m.leasor, m.duration,m.tradeExpiry, 0);\n    highestId = highestId + 1;\n  }\n\n  function mintUniqueTokenTo(address _to, uint256 amount, address leasor, uint256 duration) public {\n    require(msg.sender == leaseExchange);\n    uint256 _tokenId = getNewId();\n    _mint(_to, _tokenId);\n    addTokenToLeasor(leasor, _tokenId);\n    uint256 tradeExpiry = now + sixMonths;\n    setMetadata(_tokenId, amount, leasor, duration,tradeExpiry, 0);\n    highestId = highestId + 1;\n  }\n\n  function _burn(address _owner, uint256 _tokenId) internal {\n    super._burn(_owner, _tokenId);\n    delete metadata[_tokenId];\n  }\n\n  modifier canTransfer(uint256 _tokenId) {\n    require(isApprovedOrOwner(msg.sender, _tokenId));\n    require(metadata[_tokenId].isMining == false);\n    _;\n  }\n\n}\n",
  "sourcePath": "/Users/arjunjain/Emblem_Ethereum_Anchor/contracts/LeasedEmblem.sol",
  "compiler": {
    "name": "solc",
    "version": "0.4.24+commit.e67f0147.Emscripten.clang"
  },
  "schemaVersion": "2.0.1",
  "updatedAt": "2021-01-05T02:48:56.115Z"
}