{
  "contractName": "NewLeaseExchange",
  "abi": [
    {
      "inputs": [
        {
          "internalType": "address",
          "name": "_emb",
          "type": "address"
        },
        {
          "internalType": "address",
          "name": "_lemb",
          "type": "address"
        },
        {
          "internalType": "address payable",
          "name": "_feeReciever",
          "type": "address"
        }
      ],
      "stateMutability": "nonpayable",
      "type": "constructor"
    },
    {
      "anonymous": false,
      "inputs": [
        {
          "indexed": false,
          "internalType": "uint256",
          "name": "id",
          "type": "uint256"
        }
      ],
      "name": "LeaseRetrieved",
      "type": "event"
    },
    {
      "anonymous": false,
      "inputs": [
        {
          "indexed": false,
          "internalType": "uint256",
          "name": "id",
          "type": "uint256"
        }
      ],
      "name": "MiningStarted",
      "type": "event"
    },
    {
      "anonymous": false,
      "inputs": [
        {
          "indexed": false,
          "internalType": "uint256",
          "name": "id",
          "type": "uint256"
        },
        {
          "indexed": false,
          "internalType": "address",
          "name": "maker",
          "type": "address"
        },
        {
          "indexed": false,
          "internalType": "uint256",
          "name": "amount",
          "type": "uint256"
        },
        {
          "indexed": false,
          "internalType": "uint256",
          "name": "price",
          "type": "uint256"
        },
        {
          "indexed": false,
          "internalType": "bool",
          "name": "demand",
          "type": "bool"
        },
        {
          "indexed": false,
          "internalType": "uint256",
          "name": "duration",
          "type": "uint256"
        },
        {
          "indexed": false,
          "internalType": "uint256",
          "name": "createdAt",
          "type": "uint256"
        }
      ],
      "name": "OrderCancelled",
      "type": "event"
    },
    {
      "anonymous": false,
      "inputs": [
        {
          "indexed": false,
          "internalType": "uint256",
          "name": "id",
          "type": "uint256"
        },
        {
          "indexed": false,
          "internalType": "address",
          "name": "maker",
          "type": "address"
        },
        {
          "indexed": false,
          "internalType": "address",
          "name": "taker",
          "type": "address"
        },
        {
          "indexed": false,
          "internalType": "uint256",
          "name": "originalAmount",
          "type": "uint256"
        },
        {
          "indexed": false,
          "internalType": "uint256",
          "name": "amountFilled",
          "type": "uint256"
        },
        {
          "indexed": false,
          "internalType": "uint256",
          "name": "price",
          "type": "uint256"
        },
        {
          "indexed": false,
          "internalType": "uint256",
          "name": "duration",
          "type": "uint256"
        },
        {
          "indexed": false,
          "internalType": "bool",
          "name": "demand",
          "type": "bool"
        },
        {
          "indexed": false,
          "internalType": "uint256",
          "name": "lembId",
          "type": "uint256"
        },
        {
          "indexed": false,
          "internalType": "uint256",
          "name": "fulfilledAt",
          "type": "uint256"
        }
      ],
      "name": "OrderFilled",
      "type": "event"
    },
    {
      "anonymous": false,
      "inputs": [
        {
          "indexed": false,
          "internalType": "uint256",
          "name": "id",
          "type": "uint256"
        },
        {
          "indexed": false,
          "internalType": "address",
          "name": "maker",
          "type": "address"
        },
        {
          "indexed": false,
          "internalType": "uint256",
          "name": "amount",
          "type": "uint256"
        },
        {
          "indexed": false,
          "internalType": "uint256",
          "name": "price",
          "type": "uint256"
        },
        {
          "indexed": false,
          "internalType": "bool",
          "name": "demand",
          "type": "bool"
        },
        {
          "indexed": false,
          "internalType": "uint256",
          "name": "duration",
          "type": "uint256"
        },
        {
          "indexed": false,
          "internalType": "uint256",
          "name": "createdAt",
          "type": "uint256"
        }
      ],
      "name": "OrderPlaced",
      "type": "event"
    },
    {
      "anonymous": false,
      "inputs": [
        {
          "indexed": true,
          "internalType": "address",
          "name": "previousOwner",
          "type": "address"
        },
        {
          "indexed": true,
          "internalType": "address",
          "name": "newOwner",
          "type": "address"
        }
      ],
      "name": "OwnershipTransferred",
      "type": "event"
    },
    {
      "inputs": [
        {
          "internalType": "uint256",
          "name": "",
          "type": "uint256"
        }
      ],
      "name": "orders",
      "outputs": [
        {
          "internalType": "uint256",
          "name": "id",
          "type": "uint256"
        },
        {
          "internalType": "address payable",
          "name": "maker",
          "type": "address"
        },
        {
          "internalType": "bytes12",
          "name": "makerVanity",
          "type": "bytes12"
        },
        {
          "internalType": "uint256",
          "name": "amount",
          "type": "uint256"
        },
        {
          "internalType": "uint256",
          "name": "price",
          "type": "uint256"
        },
        {
          "internalType": "bool",
          "name": "demand",
          "type": "bool"
        },
        {
          "internalType": "uint256",
          "name": "duration",
          "type": "uint256"
        },
        {
          "internalType": "uint256",
          "name": "createdAt",
          "type": "uint256"
        }
      ],
      "stateMutability": "view",
      "type": "function"
    },
    {
      "inputs": [],
      "name": "owner",
      "outputs": [
        {
          "internalType": "address",
          "name": "",
          "type": "address"
        }
      ],
      "stateMutability": "view",
      "type": "function"
    },
    {
      "inputs": [],
      "name": "renounceOwnership",
      "outputs": [],
      "stateMutability": "nonpayable",
      "type": "function"
    },
    {
      "inputs": [
        {
          "internalType": "address",
          "name": "newOwner",
          "type": "address"
        }
      ],
      "name": "transferOwnership",
      "outputs": [],
      "stateMutability": "nonpayable",
      "type": "function"
    },
    {
      "inputs": [
        {
          "internalType": "uint256",
          "name": "_makerFee",
          "type": "uint256"
        },
        {
          "internalType": "uint256",
          "name": "_takerFee",
          "type": "uint256"
        },
        {
          "internalType": "uint256",
          "name": "_denomination",
          "type": "uint256"
        }
      ],
      "name": "setFees",
      "outputs": [],
      "stateMutability": "nonpayable",
      "type": "function"
    },
    {
      "inputs": [
        {
          "internalType": "address",
          "name": "owner",
          "type": "address"
        },
        {
          "internalType": "bytes12",
          "name": "vanity",
          "type": "bytes12"
        },
        {
          "internalType": "bool",
          "name": "isMaker",
          "type": "bool"
        }
      ],
      "name": "getFee",
      "outputs": [
        {
          "internalType": "uint256",
          "name": "",
          "type": "uint256"
        }
      ],
      "stateMutability": "view",
      "type": "function"
    },
    {
      "inputs": [
        {
          "internalType": "uint256",
          "name": "id",
          "type": "uint256"
        }
      ],
      "name": "exists",
      "outputs": [
        {
          "internalType": "bool",
          "name": "",
          "type": "bool"
        }
      ],
      "stateMutability": "view",
      "type": "function"
    },
    {
      "inputs": [],
      "name": "getNewId",
      "outputs": [
        {
          "internalType": "uint256",
          "name": "",
          "type": "uint256"
        }
      ],
      "stateMutability": "view",
      "type": "function"
    },
    {
      "inputs": [],
      "name": "retrieveMyOrders",
      "outputs": [
        {
          "internalType": "uint256[]",
          "name": "",
          "type": "uint256[]"
        }
      ],
      "stateMutability": "view",
      "type": "function"
    },
    {
      "inputs": [],
      "name": "retrieveOrders",
      "outputs": [
        {
          "internalType": "uint256[]",
          "name": "",
          "type": "uint256[]"
        }
      ],
      "stateMutability": "view",
      "type": "function"
    },
    {
      "inputs": [
        {
          "internalType": "uint256",
          "name": "id",
          "type": "uint256"
        }
      ],
      "name": "getOrderData",
      "outputs": [
        {
          "internalType": "uint256",
          "name": "",
          "type": "uint256"
        },
        {
          "internalType": "uint256",
          "name": "",
          "type": "uint256"
        },
        {
          "internalType": "uint256",
          "name": "",
          "type": "uint256"
        },
        {
          "internalType": "uint256",
          "name": "",
          "type": "uint256"
        },
        {
          "internalType": "address",
          "name": "",
          "type": "address"
        },
        {
          "internalType": "bool",
          "name": "",
          "type": "bool"
        }
      ],
      "stateMutability": "view",
      "type": "function"
    },
    {
      "inputs": [
        {
          "internalType": "uint256",
          "name": "price",
          "type": "uint256"
        },
        {
          "internalType": "uint256",
          "name": "amount",
          "type": "uint256"
        },
        {
          "internalType": "bool",
          "name": "demand",
          "type": "bool"
        },
        {
          "internalType": "uint256",
          "name": "duration",
          "type": "uint256"
        },
        {
          "internalType": "bytes12",
          "name": "vanity",
          "type": "bytes12"
        }
      ],
      "name": "placeOrder",
      "outputs": [
        {
          "internalType": "bool",
          "name": "",
          "type": "bool"
        }
      ],
      "stateMutability": "payable",
      "type": "function"
    },
    {
      "inputs": [
        {
          "internalType": "uint256",
          "name": "id",
          "type": "uint256"
        },
        {
          "internalType": "uint256",
          "name": "amount",
          "type": "uint256"
        },
        {
          "internalType": "bytes12",
          "name": "vanity",
          "type": "bytes12"
        }
      ],
      "name": "takeOrder",
      "outputs": [
        {
          "internalType": "bool",
          "name": "",
          "type": "bool"
        }
      ],
      "stateMutability": "payable",
      "type": "function"
    },
    {
      "inputs": [
        {
          "internalType": "uint256[]",
          "name": "ids",
          "type": "uint256[]"
        },
        {
          "internalType": "uint256[]",
          "name": "amounts",
          "type": "uint256[]"
        },
        {
          "internalType": "uint256",
          "name": "price",
          "type": "uint256"
        },
        {
          "internalType": "uint256",
          "name": "amount",
          "type": "uint256"
        },
        {
          "internalType": "bool",
          "name": "demand",
          "type": "bool"
        },
        {
          "internalType": "uint256",
          "name": "duration",
          "type": "uint256"
        },
        {
          "internalType": "bytes12",
          "name": "vanity",
          "type": "bytes12"
        }
      ],
      "name": "takeOrders",
      "outputs": [
        {
          "internalType": "bool",
          "name": "",
          "type": "bool"
        }
      ],
      "stateMutability": "payable",
      "type": "function"
    },
    {
      "inputs": [
        {
          "internalType": "uint256",
          "name": "id",
          "type": "uint256"
        }
      ],
      "name": "cancelOrder",
      "outputs": [
        {
          "internalType": "bool",
          "name": "",
          "type": "bool"
        }
      ],
      "stateMutability": "nonpayable",
      "type": "function"
    },
    {
      "inputs": [
        {
          "internalType": "uint256",
          "name": "id",
          "type": "uint256"
        }
      ],
      "name": "startMining",
      "outputs": [
        {
          "internalType": "bool",
          "name": "",
          "type": "bool"
        }
      ],
      "stateMutability": "nonpayable",
      "type": "function"
    },
    {
      "inputs": [
        {
          "internalType": "uint256",
          "name": "id",
          "type": "uint256"
        }
      ],
      "name": "retrieveEMB",
      "outputs": [
        {
          "internalType": "bool",
          "name": "",
          "type": "bool"
        }
      ],
      "stateMutability": "nonpayable",
      "type": "function"
    }
  ],
  "bytecode": "0x60806040526000600755600160085562f099c06009556301e13380600a556303c26700600b556305f5e100600c556001600d556001600e556103e8600f553480156200004a57600080fd5b506040516200473e3803806200473e833981810160405260608110156200007057600080fd5b8101908080519060200190929190805190602001909291908051906020019092919050505060016000819055506000620000af6200021a60201b60201c565b905080600160006101000a81548173ffffffffffffffffffffffffffffffffffffffff021916908373ffffffffffffffffffffffffffffffffffffffff1602179055508073ffffffffffffffffffffffffffffffffffffffff16600073ffffffffffffffffffffffffffffffffffffffff167f8be0079c531659141344cd1fd0a4f28419497f9722a3daafe3b4186f6b6457e060405160405180910390a35082601160006101000a81548173ffffffffffffffffffffffffffffffffffffffff021916908373ffffffffffffffffffffffffffffffffffffffff16021790555081601060006101000a81548173ffffffffffffffffffffffffffffffffffffffff021916908373ffffffffffffffffffffffffffffffffffffffff16021790555080601260006101000a81548173ffffffffffffffffffffffffffffffffffffffff021916908373ffffffffffffffffffffffffffffffffffffffff16021790555050505062000222565b600033905090565b61450c80620002326000396000f3fe6080604052600436106100fe5760003560e01c80639ebec7ab11610095578063cec10c1111610064578063cec10c111461057e578063cef88df4146105cd578063d1dfb3d11461065f578063db14c6ed1461078e578063f2fde38b146107df576100fe565b80639ebec7ab14610372578063a85c38ef146103de578063bd3983391461048d578063c686aa91146104f9576100fe565b80637017d4f1116100d15780637017d4f114610265578063715018a6146102905780638da5cb5b146102a757806395178c68146102e8576100fe565b80631ffcfebd1461010357806347b272c0146101725780634f558e79146101c3578063514fcac714610214575b600080fd5b61015a6004803603606081101561011957600080fd5b810190808035906020019092919080359060200190929190803573ffffffffffffffffffffffffffffffffffffffff19169060200190929190505050610830565b60405180821515815260200191505060405180910390f35b34801561017e57600080fd5b506101ab6004803603602081101561019557600080fd5b810190808035906020019092919050505061093a565b60405180821515815260200191505060405180910390f35b3480156101cf57600080fd5b506101fc600480360360208110156101e657600080fd5b8101908080359060200190929190505050610fca565b60405180821515815260200191505060405180910390f35b34801561022057600080fd5b5061024d6004803603602081101561023757600080fd5b8101908080359060200190929190505050610fec565b60405180821515815260200191505060405180910390f35b34801561027157600080fd5b5061027a611247565b6040518082815260200191505060405180910390f35b34801561029c57600080fd5b506102a5611251565b005b3480156102b357600080fd5b506102bc6113c1565b604051808273ffffffffffffffffffffffffffffffffffffffff16815260200191505060405180910390f35b3480156102f457600080fd5b506103216004803603602081101561030b57600080fd5b81019080803590602001909291905050506113eb565b604051808781526020018681526020018581526020018481526020018373ffffffffffffffffffffffffffffffffffffffff1681526020018215158152602001965050505050505060405180910390f35b34801561037e57600080fd5b506103876114e2565b6040518080602001828103825283818151815260200191508051906020019060200280838360005b838110156103ca5780820151818401526020810190506103af565b505050509050019250505060405180910390f35b3480156103ea57600080fd5b506104176004803603602081101561040157600080fd5b810190808035906020019092919050505061153a565b604051808981526020018873ffffffffffffffffffffffffffffffffffffffff1681526020018773ffffffffffffffffffffffffffffffffffffffff1916815260200186815260200185815260200184151581526020018381526020018281526020019850505050505050505060405180910390f35b34801561049957600080fd5b506104a26115bc565b6040518080602001828103825283818151815260200191508051906020019060200280838360005b838110156104e55780820151818401526020810190506104ca565b505050509050019250505060405180910390f35b610566600480360360a081101561050f57600080fd5b81019080803590602001909291908035906020019092919080351515906020019092919080359060200190929190803573ffffffffffffffffffffffffffffffffffffffff19169060200190929190505050611651565b60405180821515815260200191505060405180910390f35b34801561058a57600080fd5b506105cb600480360360608110156105a157600080fd5b8101908080359060200190929190803590602001909291908035906020019092919050505061175f565b005b3480156105d957600080fd5b50610649600480360360608110156105f057600080fd5b81019080803573ffffffffffffffffffffffffffffffffffffffff169060200190929190803573ffffffffffffffffffffffffffffffffffffffff1916906020019092919080351515906020019092919050505061183f565b6040518082815260200191505060405180910390f35b610776600480360360e081101561067557600080fd5b810190808035906020019064010000000081111561069257600080fd5b8201836020820111156106a457600080fd5b803590602001918460208302840111640100000000831117156106c657600080fd5b9091929391929390803590602001906401000000008111156106e757600080fd5b8201836020820111156106f957600080fd5b8035906020019184602083028401116401000000008311171561071b57600080fd5b9091929391929390803590602001909291908035906020019092919080351515906020019092919080359060200190929190803573ffffffffffffffffffffffffffffffffffffffff19169060200190929190505050611acd565b60405180821515815260200191505060405180910390f35b34801561079a57600080fd5b506107c7600480360360208110156107b157600080fd5b8101908080359060200190929190505050611cbc565b60405180821515815260200191505060405180910390f35b3480156107eb57600080fd5b5061082e6004803603602081101561080257600080fd5b81019080803573ffffffffffffffffffffffffffffffffffffffff169060200190929190505050612369565b005b600034600781905550600260005414156108b2576040517f08c379a000000000000000000000000000000000000000000000000000000000815260040180806020018281038252601f8152602001807f5265656e7472616e637947756172643a207265656e7472616e742063616c6c0081525060200191505060405180910390fd5b600260008190555060006108c83386868661255e565b90506000600754111561091f573373ffffffffffffffffffffffffffffffffffffffff166108fc6007549081150290604051600060405180830381858888f1935050505015801561091d573d6000803e3d6000fd5b505b80915050600160008190555060006007819055509392505050565b60003373ffffffffffffffffffffffffffffffffffffffff16601060009054906101000a900473ffffffffffffffffffffffffffffffffffffffff1673ffffffffffffffffffffffffffffffffffffffff16636352211e846040518263ffffffff1660e01b81526004018082815260200191505060206040518083038186803b1580156109c657600080fd5b505afa1580156109da573d6000803e3d6000fd5b505050506040513d60208110156109f057600080fd5b810190808051906020019092919050505073ffffffffffffffffffffffffffffffffffffffff1614610a2157600080fd5b60001515601060009054906101000a900473ffffffffffffffffffffffffffffffffffffffff1673ffffffffffffffffffffffffffffffffffffffff1663e2a33732846040518263ffffffff1660e01b81526004018082815260200191505060206040518083038186803b158015610a9857600080fd5b505afa158015610aac573d6000803e3d6000fd5b505050506040513d6020811015610ac257600080fd5b8101908080519060200190929190505050151514610adf57600080fd5b601060009054906101000a900473ffffffffffffffffffffffffffffffffffffffff1673ffffffffffffffffffffffffffffffffffffffff16639980ec86836040518263ffffffff1660e01b81526004018082815260200191505060206040518083038186803b158015610b5257600080fd5b505afa158015610b66573d6000803e3d6000fd5b505050506040513d6020811015610b7c57600080fd5b8101908080519060200190929190505050601060009054906101000a900473ffffffffffffffffffffffffffffffffffffffff1673ffffffffffffffffffffffffffffffffffffffff166304426db4336040518263ffffffff1660e01b8152600401808273ffffffffffffffffffffffffffffffffffffffff16815260200191505060206040518083038186803b158015610c1657600080fd5b505afa158015610c2a573d6000803e3d6000fd5b505050506040513d6020811015610c4057600080fd5b8101908080519060200190929190505050601160009054906101000a900473ffffffffffffffffffffffffffffffffffffffff1673ffffffffffffffffffffffffffffffffffffffff1663dd62ed3e33306040518363ffffffff1660e01b8152600401808373ffffffffffffffffffffffffffffffffffffffff1681526020018273ffffffffffffffffffffffffffffffffffffffff1681526020019250505060206040518083038186803b158015610cf857600080fd5b505afa158015610d0c573d6000803e3d6000fd5b505050506040513d6020811015610d2257600080fd5b8101908080519060200190929190505050011015610d3f57600080fd5b601060009054906101000a900473ffffffffffffffffffffffffffffffffffffffff1673ffffffffffffffffffffffffffffffffffffffff166318a064a533846040518363ffffffff1660e01b8152600401808373ffffffffffffffffffffffffffffffffffffffff16815260200182815260200192505050602060405180830381600087803b158015610dd257600080fd5b505af1158015610de6573d6000803e3d6000fd5b505050506040513d6020811015610dfc57600080fd5b810190808051906020019092919050505050601160009054906101000a900473ffffffffffffffffffffffffffffffffffffffff1673ffffffffffffffffffffffffffffffffffffffff1663a9059cbb33601060009054906101000a900473ffffffffffffffffffffffffffffffffffffffff1673ffffffffffffffffffffffffffffffffffffffff16639980ec86866040518263ffffffff1660e01b81526004018082815260200191505060206040518083038186803b158015610ec057600080fd5b505afa158015610ed4573d6000803e3d6000fd5b505050506040513d6020811015610eea57600080fd5b81019080805190602001909291905050506040518363ffffffff1660e01b8152600401808373ffffffffffffffffffffffffffffffffffffffff16815260200182815260200192505050602060405180830381600087803b158015610f4e57600080fd5b505af1158015610f62573d6000803e3d6000fd5b505050506040513d6020811015610f7857600080fd5b8101908080519060200190929190505050507fdaae9aa758637a0d349f036f099afd70aa88d8ac63fce096321de512ffebc16c826040518082815260200191505060405180910390a160019050919050565b6000816002600084815260200190815260200160002060000154149050919050565b600060026000541415611067576040517f08c379a000000000000000000000000000000000000000000000000000000000815260040180806020018281038252601f8152602001807f5265656e7472616e637947756172643a207265656e7472616e742063616c6c0081525060200191505060405180910390fd5b60026000819055506000821180156110945750816002600084815260200190815260200160002060000154145b801561110157503373ffffffffffffffffffffffffffffffffffffffff166002600084815260200190815260200160002060010160009054906101000a900473ffffffffffffffffffffffffffffffffffffffff1673ffffffffffffffffffffffffffffffffffffffff16145b61110a57600080fd5b60006002600084815260200190815260200160002060020154905060006002600085815260200190815260200160002060030154905060006002600086815260200190815260200160002060040160009054906101000a900460ff16905060006002600087815260200190815260200160002060050154905060006002600088815260200190815260200160002060060154905060006111a9886133de565b90508015611231577ff42459ddef5edd15de35c5fc8b33253ce0181c882e28da60d19d69a212def92988338888888888604051808881526020018773ffffffffffffffffffffffffffffffffffffffff168152602001868152602001858152602001841515815260200183815260200182815260200197505050505050505060405180910390a15b8096505050505050506001600081905550919050565b6000600854905090565b6112596137f4565b73ffffffffffffffffffffffffffffffffffffffff166112776113c1565b73ffffffffffffffffffffffffffffffffffffffff1614611300576040517f08c379a00000000000000000000000000000000000000000000000000000000081526004018080602001828103825260208152602001807f4f776e61626c653a2063616c6c6572206973206e6f7420746865206f776e657281525060200191505060405180910390fd5b600073ffffffffffffffffffffffffffffffffffffffff16600160009054906101000a900473ffffffffffffffffffffffffffffffffffffffff1673ffffffffffffffffffffffffffffffffffffffff167f8be0079c531659141344cd1fd0a4f28419497f9722a3daafe3b4186f6b6457e060405160405180910390a36000600160006101000a81548173ffffffffffffffffffffffffffffffffffffffff021916908373ffffffffffffffffffffffffffffffffffffffff160217905550565b6000600160009054906101000a900473ffffffffffffffffffffffffffffffffffffffff16905090565b6000806000806000808660026000898152602001908152602001600020600001541461141657600080fd5b60026000888152602001908152602001600020600001546002600089815260200190815260200160002060020154600260008a815260200190815260200160002060030154600260008b815260200190815260200160002060050154600260008c815260200190815260200160002060010160009054906101000a900473ffffffffffffffffffffffffffffffffffffffff16600260008d815260200190815260200160002060040160009054906101000a900460ff1695509550955095509550955091939550919395565b6060600380548060200260200160405190810160405280929190818152602001828054801561153057602002820191906000526020600020905b81548152602001906001019080831161151c575b5050505050905090565b60026020528060005260406000206000915090508060000154908060010160009054906101000a900473ffffffffffffffffffffffffffffffffffffffff16908060010160149054906101000a900460a01b908060020154908060030154908060040160009054906101000a900460ff16908060050154908060060154905088565b6060600560003373ffffffffffffffffffffffffffffffffffffffff1673ffffffffffffffffffffffffffffffffffffffff16815260200190815260200160002080548060200260200160405190810160405280929190818152602001828054801561164757602002820191906000526020600020905b815481526020019060010190808311611633575b5050505050905090565b600034600781905550600260005414156116d3576040517f08c379a000000000000000000000000000000000000000000000000000000000815260040180806020018281038252601f8152602001807f5265656e7472616e637947756172643a207265656e7472616e742063616c6c0081525060200191505060405180910390fd5b600260008190555060006116eb3388888888886137fc565b905060006007541115611742573373ffffffffffffffffffffffffffffffffffffffff166108fc6007549081150290604051600060405180830381858888f19350505050158015611740573d6000803e3d6000fd5b505b809150506001600081905550600060078190555095945050505050565b6117676137f4565b73ffffffffffffffffffffffffffffffffffffffff166117856113c1565b73ffffffffffffffffffffffffffffffffffffffff161461180e576040517f08c379a00000000000000000000000000000000000000000000000000000000081526004018080602001828103825260208152602001807f4f776e61626c653a2063616c6c6572206973206e6f7420746865206f776e657281525060200191505060405180910390fd5b808310801561181c57508082105b61182557600080fd5b82600d8190555081600e8190555080600f81905550505050565b60008373ffffffffffffffffffffffffffffffffffffffff16601160009054906101000a900473ffffffffffffffffffffffffffffffffffffffff1673ffffffffffffffffffffffffffffffffffffffff16630c5cc0a2856040518263ffffffff1660e01b8152600401808273ffffffffffffffffffffffffffffffffffffffff1916815260200191505060206040518083038186803b1580156118e257600080fd5b505afa1580156118f6573d6000803e3d6000fd5b505050506040513d602081101561190c57600080fd5b810190808051906020019092919050505073ffffffffffffffffffffffffffffffffffffffff161480156119df5750601160009054906101000a900473ffffffffffffffffffffffffffffffffffffffff1673ffffffffffffffffffffffffffffffffffffffff1663315ff7826040518163ffffffff1660e01b815260040160206040518083038186803b1580156119a357600080fd5b505afa1580156119b7573d6000803e3d6000fd5b505050506040513d60208110156119cd57600080fd5b81019080805190602001909291905050505b15611ab057601160009054906101000a900473ffffffffffffffffffffffffffffffffffffffff1673ffffffffffffffffffffffffffffffffffffffff166316166f89846040518263ffffffff1660e01b8152600401808273ffffffffffffffffffffffffffffffffffffffff1916815260200191505060206040518083038186803b158015611a6e57600080fd5b505afa158015611a82573d6000803e3d6000fd5b505050506040513d6020811015611a9857600080fd5b81019080805190602001909291905050509050611ac6565b8115611ac057600d549050611ac6565b600e5490505b9392505050565b60003460078190555060026000541415611b4f576040517f08c379a000000000000000000000000000000000000000000000000000000000815260040180806020018281038252601f8152602001807f5265656e7472616e637947756172643a207265656e7472616e742063616c6c0081525060200191505060405180910390fd5b6002600081905550878790508a8a905014611b6957600080fd5b6000600190506000805b8c8c9050811015611c17578c8c82818110611b8a57fe5b90506020020135600260008f8f85818110611ba157fe5b9050602002013581526020019081526020016000206000015414611bc457600080fd5b611bf4338e8e84818110611bd457fe5b905060200201358d8d85818110611be757fe5b905060200201358861255e565b9150828015611c01575081155b15611c0a578192505b8080600101915050611b73565b5060008714611c4557611c2e3389898989896137fc565b9050818015611c3b575080155b15611c44578091505b5b60006007541115611c9a573373ffffffffffffffffffffffffffffffffffffffff166108fc6007549081150290604051600060405180830381858888f19350505050158015611c98573d6000803e3d6000fd5b505b8192505050600160008190555060006007819055509998505050505050505050565b6000601060009054906101000a900473ffffffffffffffffffffffffffffffffffffffff1673ffffffffffffffffffffffffffffffffffffffff1663d64d22ae33846040518363ffffffff1660e01b8152600401808373ffffffffffffffffffffffffffffffffffffffff1681526020018281526020019250505060206040518083038186803b158015611d4f57600080fd5b505afa158015611d63573d6000803e3d6000fd5b505050506040513d6020811015611d7957600080fd5b8101908080519060200190929190505050611dfc576040517f08c379a000000000000000000000000000000000000000000000000000000000815260040180806020018281038252601b8152602001807f454d422063616e6e6f742062652072657472696576656420796574000000000081525060200191505060405180910390fd5b6000601060009054906101000a900473ffffffffffffffffffffffffffffffffffffffff1673ffffffffffffffffffffffffffffffffffffffff16639980ec86846040518263ffffffff1660e01b81526004018082815260200191505060206040518083038186803b158015611e7157600080fd5b505afa158015611e85573d6000803e3d6000fd5b505050506040513d6020811015611e9b57600080fd5b81019080805190602001909291905050509050601060009054906101000a900473ffffffffffffffffffffffffffffffffffffffff1673ffffffffffffffffffffffffffffffffffffffff1663e2a33732846040518263ffffffff1660e01b81526004018082815260200191505060206040518083038186803b158015611f2157600080fd5b505afa158015611f35573d6000803e3d6000fd5b505050506040513d6020811015611f4b57600080fd5b81019080805190602001909291905050501561210057601160009054906101000a900473ffffffffffffffffffffffffffffffffffffffff1673ffffffffffffffffffffffffffffffffffffffff1663f66d8aa3601060009054906101000a900473ffffffffffffffffffffffffffffffffffffffff1673ffffffffffffffffffffffffffffffffffffffff16636352211e866040518263ffffffff1660e01b81526004018082815260200191505060206040518083038186803b15801561201257600080fd5b505afa158015612026573d6000803e3d6000fd5b505050506040513d602081101561203c57600080fd5b810190808051906020019092919050505033846040518463ffffffff1660e01b8152600401808473ffffffffffffffffffffffffffffffffffffffff1681526020018373ffffffffffffffffffffffffffffffffffffffff1681526020018281526020019350505050602060405180830381600087803b1580156120bf57600080fd5b505af11580156120d3573d6000803e3d6000fd5b505050506040513d60208110156120e957600080fd5b8101908080519060200190929190505050506121d0565b601160009054906101000a900473ffffffffffffffffffffffffffffffffffffffff1673ffffffffffffffffffffffffffffffffffffffff1663a9059cbb33836040518363ffffffff1660e01b8152600401808373ffffffffffffffffffffffffffffffffffffffff16815260200182815260200192505050602060405180830381600087803b15801561219357600080fd5b505af11580156121a7573d6000803e3d6000fd5b505050506040513d60208110156121bd57600080fd5b8101908080519060200190929190505050505b601060009054906101000a900473ffffffffffffffffffffffffffffffffffffffff1673ffffffffffffffffffffffffffffffffffffffff1663cf948c5c601060009054906101000a900473ffffffffffffffffffffffffffffffffffffffff1673ffffffffffffffffffffffffffffffffffffffff16636352211e866040518263ffffffff1660e01b81526004018082815260200191505060206040518083038186803b15801561228157600080fd5b505afa158015612295573d6000803e3d6000fd5b505050506040513d60208110156122ab57600080fd5b8101908080519060200190929190505050856040518363ffffffff1660e01b8152600401808373ffffffffffffffffffffffffffffffffffffffff16815260200182815260200192505050600060405180830381600087803b15801561231057600080fd5b505af1158015612324573d6000803e3d6000fd5b505050507f83991a8540f2c8c9c4b4c8a01728a4b60d4aeac0f9fb27ac3427e5f13d734e3b836040518082815260200191505060405180910390a16001915050919050565b6123716137f4565b73ffffffffffffffffffffffffffffffffffffffff1661238f6113c1565b73ffffffffffffffffffffffffffffffffffffffff1614612418576040517f08c379a00000000000000000000000000000000000000000000000000000000081526004018080602001828103825260208152602001807f4f776e61626c653a2063616c6c6572206973206e6f7420746865206f776e657281525060200191505060405180910390fd5b600073ffffffffffffffffffffffffffffffffffffffff168173ffffffffffffffffffffffffffffffffffffffff16141561249e576040517f08c379a00000000000000000000000000000000000000000000000000000000081526004018080602001828103825260268152602001806144906026913960400191505060405180910390fd5b8073ffffffffffffffffffffffffffffffffffffffff16600160009054906101000a900473ffffffffffffffffffffffffffffffffffffffff1673ffffffffffffffffffffffffffffffffffffffff167f8be0079c531659141344cd1fd0a4f28419497f9722a3daafe3b4186f6b6457e060405160405180910390a380600160006101000a81548173ffffffffffffffffffffffffffffffffffffffff021916908373ffffffffffffffffffffffffffffffffffffffff16021790555050565b600080841161257057600090506133d6565b600060026000868152602001908152602001600020905084816000015414158061259b575060008411155b156125aa5760009150506133d6565b80600201548411156125be57806002015493505b6000601060009054906101000a900473ffffffffffffffffffffffffffffffffffffffff1673ffffffffffffffffffffffffffffffffffffffff16637017d4f16040518163ffffffff1660e01b815260040160206040518083038186803b15801561262857600080fd5b505afa15801561263c573d6000803e3d6000fd5b505050506040513d602081101561265257600080fd5b810190808051906020019092919050505090508160040160009054906101000a900460ff1615612e6e5784601060009054906101000a900473ffffffffffffffffffffffffffffffffffffffff1673ffffffffffffffffffffffffffffffffffffffff166304426db4896040518263ffffffff1660e01b8152600401808273ffffffffffffffffffffffffffffffffffffffff16815260200191505060206040518083038186803b15801561270657600080fd5b505afa15801561271a573d6000803e3d6000fd5b505050506040513d602081101561273057600080fd5b8101908080519060200190929190505050601160009054906101000a900473ffffffffffffffffffffffffffffffffffffffff1673ffffffffffffffffffffffffffffffffffffffff166370a082318a6040518263ffffffff1660e01b8152600401808273ffffffffffffffffffffffffffffffffffffffff16815260200191505060206040518083038186803b1580156127ca57600080fd5b505afa1580156127de573d6000803e3d6000fd5b505050506040513d60208110156127f457600080fd5b81019080805190602001909291905050500310806129b7575084601060009054906101000a900473ffffffffffffffffffffffffffffffffffffffff1673ffffffffffffffffffffffffffffffffffffffff166304426db4896040518263ffffffff1660e01b8152600401808273ffffffffffffffffffffffffffffffffffffffff16815260200191505060206040518083038186803b15801561289757600080fd5b505afa1580156128ab573d6000803e3d6000fd5b505050506040513d60208110156128c157600080fd5b8101908080519060200190929190505050601160009054906101000a900473ffffffffffffffffffffffffffffffffffffffff1673ffffffffffffffffffffffffffffffffffffffff1663dd62ed3e8a306040518363ffffffff1660e01b8152600401808373ffffffffffffffffffffffffffffffffffffffff1681526020018273ffffffffffffffffffffffffffffffffffffffff1681526020019250505060206040518083038186803b15801561297957600080fd5b505afa15801561298d573d6000803e3d6000fd5b505050506040513d60208110156129a357600080fd5b810190808051906020019092919050505003105b156129c7576000925050506133d6565b6000612a30600f54612a22612a138660010160009054906101000a900473ffffffffffffffffffffffffffffffffffffffff168760010160149054906101000a900460a01b600161183f565b89613f8790919063ffffffff16565b61400d90919063ffffffff16565b9050601160009054906101000a900473ffffffffffffffffffffffffffffffffffffffff1673ffffffffffffffffffffffffffffffffffffffff166323b872dd89601260009054906101000a900473ffffffffffffffffffffffffffffffffffffffff16846040518463ffffffff1660e01b8152600401808473ffffffffffffffffffffffffffffffffffffffff1681526020018373ffffffffffffffffffffffffffffffffffffffff1681526020018281526020019350505050602060405180830381600087803b158015612b0557600080fd5b505af1158015612b19573d6000803e3d6000fd5b505050506040513d6020811015612b2f57600080fd5b810190808051906020019092919050505050601160009054906101000a900473ffffffffffffffffffffffffffffffffffffffff1673ffffffffffffffffffffffffffffffffffffffff166323b872dd8930848a036040518463ffffffff1660e01b8152600401808473ffffffffffffffffffffffffffffffffffffffff1681526020018373ffffffffffffffffffffffffffffffffffffffff1681526020018281526020019350505050602060405180830381600087803b158015612bf457600080fd5b505af1158015612c08573d6000803e3d6000fd5b505050506040513d6020811015612c1e57600080fd5b8101908080519060200190929190505050506000612c8e600f54612c80612c478c8a600061183f565b612c72600c54612c648a600301548e613f8790919063ffffffff16565b61400d90919063ffffffff16565b613f8790919063ffffffff16565b61400d90919063ffffffff16565b9050601260009054906101000a900473ffffffffffffffffffffffffffffffffffffffff1673ffffffffffffffffffffffffffffffffffffffff166108fc829081150290604051600060405180830381858888f19350505050158015612cf8573d6000803e3d6000fd5b508873ffffffffffffffffffffffffffffffffffffffff166108fc82612d3f600c54612d3189600301548d613f8790919063ffffffff16565b61400d90919063ffffffff16565b039081150290604051600060405180830381858888f19350505050158015612d6b573d6000803e3d6000fd5b50601060009054906101000a900473ffffffffffffffffffffffffffffffffffffffff1673ffffffffffffffffffffffffffffffffffffffff16632ca8625f8560010160009054906101000a900473ffffffffffffffffffffffffffffffffffffffff16848a038c88600501546040518563ffffffff1660e01b8152600401808573ffffffffffffffffffffffffffffffffffffffff1681526020018481526020018373ffffffffffffffffffffffffffffffffffffffff168152602001828152602001945050505050600060405180830381600087803b158015612e4f57600080fd5b505af1158015612e63573d6000803e3d6000fd5b5050505050506132ba565b6000600754111580612eab5750612ea6600c54612e98846003015488613f8790919063ffffffff16565b61400d90919063ffffffff16565b600754105b15612ebb576000925050506133d6565b612efa612ee9600c54612edb856003015489613f8790919063ffffffff16565b61400d90919063ffffffff16565b60075461409690919063ffffffff16565b6007819055506000612f93600f54612f85612f4c8660010160009054906101000a900473ffffffffffffffffffffffffffffffffffffffff168760010160149054906101000a900460a01b600161183f565b612f77600c54612f6989600301548d613f8790919063ffffffff16565b61400d90919063ffffffff16565b613f8790919063ffffffff16565b61400d90919063ffffffff16565b9050601260009054906101000a900473ffffffffffffffffffffffffffffffffffffffff1673ffffffffffffffffffffffffffffffffffffffff166108fc829081150290604051600060405180830381858888f19350505050158015612ffd573d6000803e3d6000fd5b508260010160009054906101000a900473ffffffffffffffffffffffffffffffffffffffff1673ffffffffffffffffffffffffffffffffffffffff166108fc82613068600c5461305a88600301548c613f8790919063ffffffff16565b61400d90919063ffffffff16565b039081150290604051600060405180830381858888f19350505050158015613094573d6000803e3d6000fd5b5060006130c9600f546130bb6130ac8c8a600061183f565b8a613f8790919063ffffffff16565b61400d90919063ffffffff16565b9050601160009054906101000a900473ffffffffffffffffffffffffffffffffffffffff1673ffffffffffffffffffffffffffffffffffffffff1663a9059cbb601260009054906101000a900473ffffffffffffffffffffffffffffffffffffffff16836040518363ffffffff1660e01b8152600401808373ffffffffffffffffffffffffffffffffffffffff16815260200182815260200192505050602060405180830381600087803b15801561318057600080fd5b505af1158015613194573d6000803e3d6000fd5b505050506040513d60208110156131aa57600080fd5b810190808051906020019092919050505050601060009054906101000a900473ffffffffffffffffffffffffffffffffffffffff1673ffffffffffffffffffffffffffffffffffffffff16632ca8625f8a838a038760010160009054906101000a900473ffffffffffffffffffffffffffffffffffffffff1688600501546040518563ffffffff1660e01b8152600401808573ffffffffffffffffffffffffffffffffffffffff1681526020018481526020018373ffffffffffffffffffffffffffffffffffffffff168152602001828152602001945050505050600060405180830381600087803b15801561329f57600080fd5b505af11580156132b3573d6000803e3d6000fd5b5050505050505b7fe8e6256aeef7ed5b740599ebfb2a6a5b3012c59640af6b2b9c26756f16719d03868360010160009054906101000a900473ffffffffffffffffffffffffffffffffffffffff1689856002015489876003015488600501548960040160009054906101000a900460ff168942604051808b81526020018a73ffffffffffffffffffffffffffffffffffffffff1681526020018973ffffffffffffffffffffffffffffffffffffffff16815260200188815260200187815260200186815260200185815260200184151581526020018381526020018281526020019a505050505050505050505060405180910390a18482600201540382600201819055506000826002015414156133cf576133cd866133de565b505b6001925050505b949350505050565b60008082111580613405575081600260008481526020019081526020016000206000015414155b1561341357600090506137ef565b6000600460008481526020019081526020016000205490506000613446600160038054905061409690919063ffffffff16565b905060006003828154811061345757fe5b90600052602060002001549050806003848154811061347257fe5b9060005260206000200181905550600460008681526020019081526020016000206000905582600460008381526020019081526020016000208190555060038054806134ba57fe5b60019003818190600052602060002001600090559055600060026000878152602001908152602001600020600201541461370f57600015156002600087815260200190815260200160002060040160009054906101000a900460ff161515141561363e57601160009054906101000a900473ffffffffffffffffffffffffffffffffffffffff1673ffffffffffffffffffffffffffffffffffffffff1663a9059cbb6002600088815260200190815260200160002060010160009054906101000a900473ffffffffffffffffffffffffffffffffffffffff1660026000898152602001908152602001600020600201546040518363ffffffff1660e01b8152600401808373ffffffffffffffffffffffffffffffffffffffff16815260200182815260200192505050602060405180830381600087803b1580156135fd57600080fd5b505af1158015613611573d6000803e3d6000fd5b505050506040513d602081101561362757600080fd5b81019080805190602001909291905050505061370e565b6002600086815260200190815260200160002060010160009054906101000a900473ffffffffffffffffffffffffffffffffffffffff1673ffffffffffffffffffffffffffffffffffffffff166108fc6136e1600c546136d3600260008b815260200190815260200160002060030154600260008c815260200190815260200160002060020154613f8790919063ffffffff16565b61400d90919063ffffffff16565b9081150290604051600060405180830381858888f1935050505015801561370c573d6000803e3d6000fd5b505b5b61374f6002600087815260200190815260200160002060010160009054906101000a900473ffffffffffffffffffffffffffffffffffffffff1686614119565b600260008681526020019081526020016000206000808201600090556001820160006101000a81549073ffffffffffffffffffffffffffffffffffffffff02191690556001820160146101000a8154906bffffffffffffffffffffffff0219169055600282016000905560038201600090556004820160006101000a81549060ff0219169055600582016000905560068201600090555050600193505050505b919050565b600033905090565b6000808511158061380e575060008611155b8061382c5750600c5461382a8787613f8790919063ffffffff16565b105b80613855575060095483141580156138465750600a548314155b80156138545750600b548314155b5b156138635760009050613f7d565b83156138b55760006007541115806138a2575061389d600c5461388f8888613f8790919063ffffffff16565b61400d90919063ffffffff16565b600754105b156138b05760009050613f7d565b613bff565b84601060009054906101000a900473ffffffffffffffffffffffffffffffffffffffff1673ffffffffffffffffffffffffffffffffffffffff166304426db4896040518263ffffffff1660e01b8152600401808273ffffffffffffffffffffffffffffffffffffffff16815260200191505060206040518083038186803b15801561393f57600080fd5b505afa158015613953573d6000803e3d6000fd5b505050506040513d602081101561396957600080fd5b8101908080519060200190929190505050601160009054906101000a900473ffffffffffffffffffffffffffffffffffffffff1673ffffffffffffffffffffffffffffffffffffffff166370a082318a6040518263ffffffff1660e01b8152600401808273ffffffffffffffffffffffffffffffffffffffff16815260200191505060206040518083038186803b158015613a0357600080fd5b505afa158015613a17573d6000803e3d6000fd5b505050506040513d6020811015613a2d57600080fd5b8101908080519060200190929190505050031080613bf0575084601060009054906101000a900473ffffffffffffffffffffffffffffffffffffffff1673ffffffffffffffffffffffffffffffffffffffff166304426db4896040518263ffffffff1660e01b8152600401808273ffffffffffffffffffffffffffffffffffffffff16815260200191505060206040518083038186803b158015613ad057600080fd5b505afa158015613ae4573d6000803e3d6000fd5b505050506040513d6020811015613afa57600080fd5b8101908080519060200190929190505050601160009054906101000a900473ffffffffffffffffffffffffffffffffffffffff1673ffffffffffffffffffffffffffffffffffffffff1663dd62ed3e8a306040518363ffffffff1660e01b8152600401808373ffffffffffffffffffffffffffffffffffffffff1681526020018273ffffffffffffffffffffffffffffffffffffffff1681526020019250505060206040518083038186803b158015613bb257600080fd5b505afa158015613bc6573d6000803e3d6000fd5b505050506040513d6020811015613bdc57600080fd5b810190808051906020019092919050505003105b15613bfe5760009050613f7d565b5b6000613c09611247565b90506040518061010001604052808281526020018973ffffffffffffffffffffffffffffffffffffffff1681526020018473ffffffffffffffffffffffffffffffffffffffff19168152602001878152602001888152602001861515815260200185815260200142815250600260008381526020019081526020016000206000820151816000015560208201518160010160006101000a81548173ffffffffffffffffffffffffffffffffffffffff021916908373ffffffffffffffffffffffffffffffffffffffff16021790555060408201518160010160146101000a8154816bffffffffffffffffffffffff021916908360a01c0217905550606082015181600201556080820151816003015560a08201518160040160006101000a81548160ff02191690831515021790555060c0820151816005015560e082015181600601559050506003819080600181540180825580915050600190039060005260206000200160009091909190915055613d91600160038054905061409690919063ffffffff16565b60046000838152602001908152602001600020819055508415613df457613de9613dd8600c54613dca8a8a613f8790919063ffffffff16565b61400d90919063ffffffff16565b60075461409690919063ffffffff16565b600781905550613ee2565b601160009054906101000a900473ffffffffffffffffffffffffffffffffffffffff1673ffffffffffffffffffffffffffffffffffffffff166323b872dd8930896040518463ffffffff1660e01b8152600401808473ffffffffffffffffffffffffffffffffffffffff1681526020018373ffffffffffffffffffffffffffffffffffffffff1681526020018281526020019350505050602060405180830381600087803b158015613ea557600080fd5b505af1158015613eb9573d6000803e3d6000fd5b505050506040513d6020811015613ecf57600080fd5b8101908080519060200190929190505050505b613eec8882614388565b7feb7c639cd2af85d78211550c962f1cdad78d7060241ee2c525f476b2f5664e3a8189888a898942604051808881526020018773ffffffffffffffffffffffffffffffffffffffff168152602001868152602001858152602001841515815260200183815260200182815260200197505050505050505060405180910390a160016008540160088190555060019150505b9695505050505050565b600080831415613f9a5760009050614007565b6000828402905082848281613fab57fe5b0414614002576040517f08c379a00000000000000000000000000000000000000000000000000000000081526004018080602001828103825260218152602001806144b66021913960400191505060405180910390fd5b809150505b92915050565b6000808211614084576040517f08c379a000000000000000000000000000000000000000000000000000000000815260040180806020018281038252601a8152602001807f536166654d6174683a206469766973696f6e206279207a65726f00000000000081525060200191505060405180910390fd5b81838161408d57fe5b04905092915050565b60008282111561410e576040517f08c379a000000000000000000000000000000000000000000000000000000000815260040180806020018281038252601e8152602001807f536166654d6174683a207375627472616374696f6e206f766572666c6f77000081525060200191505060405180910390fd5b818303905092915050565b6000600660008473ffffffffffffffffffffffffffffffffffffffff1673ffffffffffffffffffffffffffffffffffffffff168152602001908152602001600020600083815260200190815260200160002054905060006141c66001600560008773ffffffffffffffffffffffffffffffffffffffff1673ffffffffffffffffffffffffffffffffffffffff1681526020019081526020016000208054905061409690919063ffffffff16565b90506000600560008673ffffffffffffffffffffffffffffffffffffffff1673ffffffffffffffffffffffffffffffffffffffff168152602001908152602001600020828154811061421457fe5b9060005260206000200154905080600560008773ffffffffffffffffffffffffffffffffffffffff1673ffffffffffffffffffffffffffffffffffffffff168152602001908152602001600020848154811061426c57fe5b9060005260206000200181905550600560008673ffffffffffffffffffffffffffffffffffffffff1673ffffffffffffffffffffffffffffffffffffffff1681526020019081526020016000208054806142c257fe5b60019003818190600052602060002001600090559055600660008673ffffffffffffffffffffffffffffffffffffffff1673ffffffffffffffffffffffffffffffffffffffff16815260200190815260200160002060008581526020019081526020016000206000905582600660008773ffffffffffffffffffffffffffffffffffffffff1673ffffffffffffffffffffffffffffffffffffffff1681526020019081526020016000206000838152602001908152602001600020819055505050505050565b6000600560008473ffffffffffffffffffffffffffffffffffffffff1673ffffffffffffffffffffffffffffffffffffffff168152602001908152602001600020805490509050600560008473ffffffffffffffffffffffffffffffffffffffff1673ffffffffffffffffffffffffffffffffffffffff16815260200190815260200160002082908060018154018082558091505060019003906000526020600020016000909190919091505580600660008573ffffffffffffffffffffffffffffffffffffffff1673ffffffffffffffffffffffffffffffffffffffff16815260200190815260200160002060008481526020019081526020016000208190555050505056fe4f776e61626c653a206e6577206f776e657220697320746865207a65726f2061646472657373536166654d6174683a206d756c7469706c69636174696f6e206f766572666c6f77a26469706673582212208d091165f2c829fc2773d71be6f7785f957c550becb75386ea5d929a3d368f9a64736f6c63430007060033",
  "immutableReferences": {},
  "source": "// SPDX-License-Identifier: MIT\n\npragma solidity 0.7.6;\n\nimport \"@openzeppelin/contracts/math/SafeMath.sol\";\nimport \"@openzeppelin/contracts/utils/ReentrancyGuard.sol\";\nimport \"@openzeppelin/contracts/access/Ownable.sol\";\nimport \"./LeasedEmblem.sol\";\nimport \"./Emblem.sol\";\n\ncontract NewLeaseExchange is ReentrancyGuard, Ownable {\n  using SafeMath for uint256;\n\n  struct Order {\n    uint256 id;\n    address payable maker;\n    bytes12 makerVanity;\n    uint256 amount;\n    uint256 price;\n    bool demand;\n    uint256 duration;\n    uint256 createdAt;\n  }\n\n  // order id -> order\n  mapping(uint256 => Order) public orders;\n\n  // Array with all order ids, used for enumeration\n  uint256[]  allOrders;\n\n  // Mapping from order id to position in the allOrders array\n  mapping(uint256 => uint256)  allOrdersIndex;\n\n  // Mapping from owner to list of owned order IDs\n  mapping(address => uint256[])  ownedOrders;\n\n  // Mapping from owner to map of order ID to index of the owner orders list\n  mapping(address => mapping (uint256 => uint256))  ownedOrdersIndex;\n\n  // weiSend of current tx\n  uint256 private weiSend = 0;\n\n  uint256 private highestId = 1;\n\n  uint256 sixMonths       = 15768000;\n  uint256 twelveMonths    = 31536000;\n  uint256 twentyFourMonths = 63072000;\n\n  uint256 EMBPrecision = (10 ** 8);\n\n  uint256 makerFee = 1;\n  uint256 takerFee = 1;\n  uint256 feeDenomination = 1000;\n\n  LeasedEmblem LEMB;\n  Emblem EMB;\n  address payable feeReciever;\n\n  // makes sure weiSend of current tx is reset\n  modifier weiSendGuard() {\n    weiSend = msg.value;\n    _;\n    weiSend = 0;\n  }\n\n  // logs\n  event OrderPlaced(uint256 id, address maker, uint256 amount, uint256 price, bool demand, uint256 duration, uint256 createdAt);\n\n  event OrderFilled(uint256 id, address maker, address taker, uint256 originalAmount, uint256 amountFilled, uint256 price, uint256 duration, bool demand, uint256 lembId, uint256 fulfilledAt);\n\n  event OrderCancelled(uint256 id, address maker, uint256 amount, uint256 price, bool demand, uint256 duration, uint256 createdAt);\n\n  event MiningStarted(uint256 id);\n\n  event LeaseRetrieved(uint256 id);\n\n  constructor(address _emb, address _lemb, address payable _feeReciever) public {\n    EMB = Emblem(_emb);\n    LEMB = LeasedEmblem(_lemb);\n    feeReciever = _feeReciever;\n  }\n\n  function setFees(uint256 _makerFee, uint256 _takerFee, uint256 _denomination) public onlyOwner {\n    require(_makerFee < _denomination && _takerFee < _denomination);\n    makerFee = _makerFee;\n    takerFee = _takerFee;\n    feeDenomination = _denomination;\n  }\n\n  function getFee(address owner, bytes12 vanity, bool isMaker) public view returns (uint256){\n    if(EMB.getVanityOwner(vanity) == owner && EMB.enabledVanityFee()) return EMB.getFee(vanity);\n    else {\n      if(isMaker) return makerFee;\n      else return takerFee;\n    }\n  }\n\n  function exists(uint256 id) public view returns (bool) {\n    return (orders[id].id == id);\n  }\n\n  function getNewId() public view returns(uint256) {\n    return highestId;\n  }\n\n  function _placeOrder(address payable maker, uint256 price, uint256 amount, bool demand, uint256 duration, bytes12 vanity) internal returns (bool){\n\n    if (\n      amount <= 0 ||\n      price <= 0 ||\n      amount.mul(price) < (EMBPrecision) ||\n      (duration != sixMonths && duration != twelveMonths && duration != twentyFourMonths)\n    ) return (false);\n\n    if(demand) {\n      if(weiSend <= 0 || weiSend < amount.mul(price).div(EMBPrecision)) return (false);\n    }\n    else {\n      if (\n        EMB.balanceOf(maker) - LEMB.getAmountForUserMining(maker) < amount ||\n        (EMB.allowance(maker, address(this)) - LEMB.getAmountForUserMining(maker) < amount)\n      ) return (false);\n    }\n\n    uint256 id = getNewId();\n\n    orders[id] = Order(id, maker,vanity, amount, price, demand, duration,block.timestamp);\n    allOrders.push(id);\n    allOrdersIndex[id] = allOrders.length.sub(1);\n\n\n    if(demand) weiSend = weiSend.sub(amount.mul(price).div(EMBPrecision));\n    else EMB.transferFrom(maker, address(this), amount);\n\n    _addOrderToUser(maker, id);\n\n    emit OrderPlaced(id, maker, amount, price,demand, duration,block.timestamp);\n\n    highestId = highestId + 1;\n\n    return (true);\n  }\n\n  function _takeOrder(address payable taker, uint256 id, uint256 amount,bytes12 vanity) internal returns (bool) {\n    // validate inputs\n    if (id <= 0) return (false);\n\n    // get order\n    Order storage order = orders[id];\n\n    // validate order\n    if (\n      order.id != id ||\n      amount <= 0\n    ) return (false);\n\n\n    //if above, set amount to that of the order's amount\n    if(amount > order.amount) amount = order.amount;\n\n    uint256 lembId = LEMB.getNewId();\n\n    if(order.demand){\n\n      //ensure that you cannot game the allowance of EMB\n      if ( EMB.balanceOf(taker) - LEMB.getAmountForUserMining(taker) < amount || (EMB.allowance(taker, address(this)) - LEMB.getAmountForUserMining(taker) < amount)) return (false);\n\n      uint256 fee_maker = amount.mul(getFee(order.maker, order.makerVanity, true)).div(feeDenomination);\n\n\n      //transfer EMB to feeReciever from maker\n      EMB.transferFrom(taker, feeReciever, fee_maker);\n\n      //transfer EMB from taker to Lease Address\n      EMB.transferFrom(taker, address(this), amount - fee_maker);\n\n      uint256 fee_taker = amount.mul(order.price).div(EMBPrecision).mul(getFee(taker, vanity, false)).div(feeDenomination);\n\n      //transfer ETH to feeReciever from taker\n      feeReciever.transfer(fee_taker);\n\n      //pay taker\n      taker.transfer(amount.mul(order.price).div(EMBPrecision) - fee_taker);\n\n      //create LEMB for the maker\n      LEMB.mintUniqueTokenTo(order.maker, amount - fee_maker, taker, order.duration);\n    }\n\n    else {\n\n      //ensure that you have sent the right amount of eth\n      if (weiSend <= 0 || weiSend < amount.mul(order.price).div(EMBPrecision)) return (false);\n\n      //pay maker\n      weiSend = weiSend.sub(amount.mul(order.price).div(EMBPrecision));\n\n      uint256 fee_maker = amount.mul(order.price).div(EMBPrecision).mul(getFee(order.maker, order.makerVanity, true)).div(feeDenomination);\n\n      //transfer ETH to feeReciever from maker\n      feeReciever.transfer(fee_maker);\n\n      order.maker.transfer(amount.mul(order.price).div(EMBPrecision) - fee_maker);\n\n      uint256 fee_taker = amount.mul(getFee(taker, vanity, false)).div(feeDenomination);\n\n      //transfer EMB to feeReciever from taker\n      EMB.transfer(feeReciever, fee_taker);\n\n      LEMB.mintUniqueTokenTo(taker, amount - fee_taker, order.maker, order.duration);\n    }\n\n    emit OrderFilled(id, order.maker, taker, order.amount, amount, order.price, order.duration, order.demand, lembId, block.timestamp);\n\n    order.amount = order.amount - amount;\n\n    if(order.amount == 0){\n      _deleteOrder(id);\n    }\n\n    return (true);\n  }\n\n  function _deleteOrder(uint256 id) internal returns (bool) {\n\n    if (\n      id <= 0 ||\n      orders[id].id != id\n    ) return (false);\n\n    // // Reorg all orders\n    uint256 orderIndex = allOrdersIndex[id];\n    uint256 lastOrderIndex = allOrders.length.sub(1);\n    uint256 lastOrder = allOrders[lastOrderIndex];\n    allOrders[orderIndex] = lastOrder;\n    delete allOrdersIndex[id];\n    allOrdersIndex[lastOrder] = orderIndex;\n    allOrders.pop();\n\n    //pay back on cancellation\n    if(orders[id].amount !=0) {\n      if(orders[id].demand == false){\n        EMB.transfer(orders[id].maker,orders[id].amount);\n      }\n      else {\n        orders[id].maker.transfer(orders[id].amount.mul(orders[id].price).div(EMBPrecision));\n      }\n    }\n\n    //remove order from user\n    _removeOrderFromUser(orders[id].maker, id);\n\n    delete orders[id];\n\n    return (true);\n  }\n\n  function retrieveMyOrders() public view returns(uint256[] memory) {\n    return ownedOrders[msg.sender];\n  }\n\n  function retrieveOrders() public view returns(uint256[] memory) {\n    return allOrders;\n  }\n\n  function getOrderData(uint256 id) public view returns (\n    uint256,\n    uint256,\n    uint256,\n    uint256,\n    address,\n    bool\n  ) {\n    require(orders[id].id == id);\n    return (orders[id].id,\n      orders[id].amount,\n      orders[id].price,\n      orders[id].duration,\n      orders[id].maker,\n      orders[id].demand\n    );\n  }\n\n  function _addOrderToUser(address _to, uint256 _orderId) internal {\n    uint256 length = ownedOrders[_to].length;\n    ownedOrders[_to].push(_orderId);\n    ownedOrdersIndex[_to][_orderId] = length;\n  }\n\n  function _removeOrderFromUser(address _from, uint256 _orderId) internal {\n    uint256 orderIndex = ownedOrdersIndex[_from][_orderId];\n    uint256 lastOrderIndex = ownedOrders[_from].length.sub(1);\n    uint256 lastOrderId = ownedOrders[_from][lastOrderIndex];\n\n    ownedOrders[_from][orderIndex] = lastOrderId;\n    ownedOrders[_from].pop();\n    delete ownedOrdersIndex[_from][_orderId];\n    ownedOrdersIndex[_from][lastOrderId] = orderIndex;\n  }\n\n  function placeOrder(uint256 price, uint256 amount, bool demand, uint256 duration, bytes12 vanity)  external payable weiSendGuard nonReentrant returns (bool)  {\n    bool success = _placeOrder(msg.sender, price, amount, demand, duration,vanity);\n\n    //send back excess ETH\n    if (weiSend > 0) msg.sender.transfer(weiSend);\n\n    return success;\n  }\n\n\n  function takeOrder(uint256 id, uint256 amount,bytes12 vanity)  external payable weiSendGuard nonReentrant returns (bool) {\n    bool success = _takeOrder(msg.sender, id, amount,vanity);\n\n    //send back excess ETH\n    if (weiSend > 0) msg.sender.transfer(weiSend);\n\n    return success;\n  }\n\n  //take a few orders and place Order if order to place\n  function takeOrders(uint256[] calldata ids, uint256[] calldata amounts, uint256 price, uint256 amount, bool demand, uint256 duration, bytes12 vanity) external payable weiSendGuard nonReentrant returns (bool) {\n    require(ids.length == amounts.length);\n\n    bool allSuccess = true;\n    bool success = false;\n\n    for (uint256 i = 0; i < ids.length; i++){\n      require(orders[ids[i]].id == ids[i]);\n      success = _takeOrder(msg.sender, ids[i], amounts[i],vanity);\n      if (allSuccess && !success) allSuccess = success;\n    }\n\n    if(amount != 0){\n      success = _placeOrder(msg.sender, price, amount, demand, duration,vanity);\n      if (allSuccess && !success) allSuccess = success;\n    }\n\n    if (weiSend > 0) msg.sender.transfer(weiSend);\n\n    return allSuccess;\n  }\n\n  function cancelOrder(uint256 id) external nonReentrant returns (bool) {\n    require(\n      id > 0 &&\n      orders[id].id == id &&\n      orders[id].maker == msg.sender\n    );\n\n    uint256 amount = orders[id].amount;\n    uint256 price = orders[id].price;\n    bool demand = orders[id].demand;\n    uint256 duration = orders[id].duration;\n    uint256 createdAt = orders[id].createdAt;\n\n    bool success = _deleteOrder(id);\n    if(success) emit OrderCancelled(id, msg.sender, amount, price, demand, duration, createdAt);\n\n    return success;\n  }\n\n  //start mining with LEMB\n  function startMining(uint256 id) public returns (bool) {\n    require(LEMB.ownerOf(id) == msg.sender);\n    require(LEMB.getIsMining(id) == false);\n\n    //ensure that we can retrieve EMB when lease ends\n    require((EMB.allowance(msg.sender, address(this)) + LEMB.getAmountForUserMining(msg.sender) >= LEMB.getAmount(id)));\n\n    //set the LEMB mining field to true\n    LEMB.startMining(msg.sender,id);\n\n    //transfer EMB to owner of LEMB\n    EMB.transfer(msg.sender,LEMB.getAmount(id));\n\n    emit MiningStarted(id);\n\n    return true;\n  }\n\n  //Retrieve EMB once mining is finished\n  function retrieveEMB(uint256 id) public returns (bool) {\n    require(LEMB.canRetrieveEMB(msg.sender,id),'EMB cannot be retrieved yet');\n\n    uint256 amount = LEMB.getAmount(id);\n\n    // LEMB has been mining, then transfer EMB from the owner\n    if(LEMB.getIsMining(id)){\n      EMB.releaseEMB(LEMB.ownerOf(id), msg.sender, amount);\n    }\n    //else transfer from the contract itself\n    else {\n      EMB.transfer(msg.sender, amount);\n    }\n\n    //burn LEMB\n    LEMB.endLease(LEMB.ownerOf(id),id);\n\n    emit LeaseRetrieved(id);\n\n    return true;\n  }\n\n}\n",
  "sourcePath": "/Users/arjunjain/Emblem_Ethereum_Anchor/contracts/NewLeaseExchange.sol",
  "compiler": {
    "name": "solc",
    "version": "0.7.6+commit.7338295f.Emscripten.clang"
  },
  "schemaVersion": "3.3.3",
  "updatedAt": "2021-02-13T05:36:30.849Z",
  "devdoc": {
    "kind": "dev",
    "methods": {
      "owner()": {
        "details": "Returns the address of the current owner."
      },
      "renounceOwnership()": {
        "details": "Leaves the contract without owner. It will not be possible to call `onlyOwner` functions anymore. Can only be called by the current owner. NOTE: Renouncing ownership will leave the contract without an owner, thereby removing any functionality that is only available to the owner."
      },
      "transferOwnership(address)": {
        "details": "Transfers ownership of the contract to a new account (`newOwner`). Can only be called by the current owner."
      }
    },
    "version": 1
  },
  "userdoc": {
    "kind": "user",
    "methods": {},
    "version": 1
  }
}