{
  "contractName": "VanityExchange",
  "abi": [
    {
      "inputs": [
        {
          "internalType": "address",
          "name": "_emb",
          "type": "address"
        },
        {
          "internalType": "address payable",
          "name": "_feeReciever",
          "type": "address"
        }
      ],
      "stateMutability": "nonpayable",
      "type": "constructor"
    },
    {
      "anonymous": false,
      "inputs": [
        {
          "indexed": false,
          "internalType": "uint256",
          "name": "id",
          "type": "uint256"
        },
        {
          "indexed": false,
          "internalType": "address",
          "name": "maker",
          "type": "address"
        },
        {
          "indexed": false,
          "internalType": "uint256",
          "name": "price",
          "type": "uint256"
        },
        {
          "indexed": false,
          "internalType": "bytes12",
          "name": "vanity",
          "type": "bytes12"
        },
        {
          "indexed": false,
          "internalType": "bool",
          "name": "demand",
          "type": "bool"
        }
      ],
      "name": "OrderCancelled",
      "type": "event"
    },
    {
      "anonymous": false,
      "inputs": [
        {
          "indexed": false,
          "internalType": "uint256",
          "name": "id",
          "type": "uint256"
        },
        {
          "indexed": false,
          "internalType": "address",
          "name": "maker",
          "type": "address"
        },
        {
          "indexed": false,
          "internalType": "address",
          "name": "taker",
          "type": "address"
        },
        {
          "indexed": false,
          "internalType": "uint256",
          "name": "price",
          "type": "uint256"
        },
        {
          "indexed": false,
          "internalType": "bytes12",
          "name": "vanity",
          "type": "bytes12"
        },
        {
          "indexed": false,
          "internalType": "bool",
          "name": "demand",
          "type": "bool"
        },
        {
          "indexed": false,
          "internalType": "uint256",
          "name": "fulfilledAt",
          "type": "uint256"
        }
      ],
      "name": "OrderFilled",
      "type": "event"
    },
    {
      "anonymous": false,
      "inputs": [
        {
          "indexed": false,
          "internalType": "uint256",
          "name": "id",
          "type": "uint256"
        },
        {
          "indexed": false,
          "internalType": "address",
          "name": "maker",
          "type": "address"
        },
        {
          "indexed": false,
          "internalType": "uint256",
          "name": "price",
          "type": "uint256"
        },
        {
          "indexed": false,
          "internalType": "bytes12",
          "name": "vanity",
          "type": "bytes12"
        },
        {
          "indexed": false,
          "internalType": "bool",
          "name": "demand",
          "type": "bool"
        },
        {
          "indexed": false,
          "internalType": "uint256",
          "name": "createdAt",
          "type": "uint256"
        }
      ],
      "name": "OrderPlaced",
      "type": "event"
    },
    {
      "anonymous": false,
      "inputs": [
        {
          "indexed": true,
          "internalType": "address",
          "name": "previousOwner",
          "type": "address"
        },
        {
          "indexed": true,
          "internalType": "address",
          "name": "newOwner",
          "type": "address"
        }
      ],
      "name": "OwnershipTransferred",
      "type": "event"
    },
    {
      "inputs": [
        {
          "internalType": "uint256",
          "name": "",
          "type": "uint256"
        }
      ],
      "name": "orders",
      "outputs": [
        {
          "internalType": "uint256",
          "name": "id",
          "type": "uint256"
        },
        {
          "internalType": "address payable",
          "name": "maker",
          "type": "address"
        },
        {
          "internalType": "bytes12",
          "name": "makerVanity",
          "type": "bytes12"
        },
        {
          "internalType": "uint256",
          "name": "price",
          "type": "uint256"
        },
        {
          "internalType": "bytes12",
          "name": "vanity",
          "type": "bytes12"
        },
        {
          "internalType": "bool",
          "name": "demand",
          "type": "bool"
        },
        {
          "internalType": "uint256",
          "name": "createdAt",
          "type": "uint256"
        }
      ],
      "stateMutability": "view",
      "type": "function"
    },
    {
      "inputs": [],
      "name": "owner",
      "outputs": [
        {
          "internalType": "address",
          "name": "",
          "type": "address"
        }
      ],
      "stateMutability": "view",
      "type": "function"
    },
    {
      "inputs": [],
      "name": "renounceOwnership",
      "outputs": [],
      "stateMutability": "nonpayable",
      "type": "function"
    },
    {
      "inputs": [
        {
          "internalType": "address",
          "name": "newOwner",
          "type": "address"
        }
      ],
      "name": "transferOwnership",
      "outputs": [],
      "stateMutability": "nonpayable",
      "type": "function"
    },
    {
      "inputs": [
        {
          "internalType": "uint256",
          "name": "id",
          "type": "uint256"
        }
      ],
      "name": "exists",
      "outputs": [
        {
          "internalType": "bool",
          "name": "",
          "type": "bool"
        }
      ],
      "stateMutability": "view",
      "type": "function"
    },
    {
      "inputs": [
        {
          "internalType": "uint256",
          "name": "_makerFee",
          "type": "uint256"
        },
        {
          "internalType": "uint256",
          "name": "_takerFee",
          "type": "uint256"
        },
        {
          "internalType": "uint256",
          "name": "_denomination",
          "type": "uint256"
        }
      ],
      "name": "setFees",
      "outputs": [],
      "stateMutability": "nonpayable",
      "type": "function"
    },
    {
      "inputs": [
        {
          "internalType": "address",
          "name": "owner",
          "type": "address"
        },
        {
          "internalType": "bytes12",
          "name": "vanity",
          "type": "bytes12"
        },
        {
          "internalType": "bool",
          "name": "isMaker",
          "type": "bool"
        }
      ],
      "name": "getFee",
      "outputs": [
        {
          "internalType": "uint256",
          "name": "",
          "type": "uint256"
        }
      ],
      "stateMutability": "view",
      "type": "function"
    },
    {
      "inputs": [],
      "name": "getNewId",
      "outputs": [
        {
          "internalType": "uint256",
          "name": "",
          "type": "uint256"
        }
      ],
      "stateMutability": "view",
      "type": "function"
    },
    {
      "inputs": [],
      "name": "retrieveMyOrders",
      "outputs": [
        {
          "internalType": "uint256[]",
          "name": "",
          "type": "uint256[]"
        }
      ],
      "stateMutability": "view",
      "type": "function"
    },
    {
      "inputs": [],
      "name": "retrieveOrders",
      "outputs": [
        {
          "internalType": "uint256[]",
          "name": "",
          "type": "uint256[]"
        }
      ],
      "stateMutability": "view",
      "type": "function"
    },
    {
      "inputs": [
        {
          "internalType": "uint256",
          "name": "id",
          "type": "uint256"
        }
      ],
      "name": "getOrderData",
      "outputs": [
        {
          "internalType": "uint256",
          "name": "",
          "type": "uint256"
        },
        {
          "internalType": "address",
          "name": "",
          "type": "address"
        },
        {
          "internalType": "uint256",
          "name": "",
          "type": "uint256"
        },
        {
          "internalType": "bytes12",
          "name": "",
          "type": "bytes12"
        },
        {
          "internalType": "bool",
          "name": "",
          "type": "bool"
        },
        {
          "internalType": "uint256",
          "name": "",
          "type": "uint256"
        }
      ],
      "stateMutability": "view",
      "type": "function"
    },
    {
      "inputs": [
        {
          "internalType": "uint256",
          "name": "price",
          "type": "uint256"
        },
        {
          "internalType": "bytes12",
          "name": "vanity",
          "type": "bytes12"
        },
        {
          "internalType": "bool",
          "name": "demand",
          "type": "bool"
        },
        {
          "internalType": "bytes12",
          "name": "makerVanity",
          "type": "bytes12"
        }
      ],
      "name": "placeOrder",
      "outputs": [
        {
          "internalType": "bool",
          "name": "",
          "type": "bool"
        }
      ],
      "stateMutability": "payable",
      "type": "function"
    },
    {
      "inputs": [
        {
          "internalType": "uint256",
          "name": "id",
          "type": "uint256"
        },
        {
          "internalType": "bytes12",
          "name": "vanity",
          "type": "bytes12"
        }
      ],
      "name": "takeOrder",
      "outputs": [
        {
          "internalType": "bool",
          "name": "",
          "type": "bool"
        }
      ],
      "stateMutability": "payable",
      "type": "function"
    },
    {
      "inputs": [
        {
          "internalType": "uint256",
          "name": "id",
          "type": "uint256"
        }
      ],
      "name": "cancelOrder",
      "outputs": [
        {
          "internalType": "bool",
          "name": "",
          "type": "bool"
        }
      ],
      "stateMutability": "nonpayable",
      "type": "function"
    }
  ],
  "bytecode": "0x6080604052600060075560016008556001600a556001600b556103e8600c5534801561002a57600080fd5b5060405162002cd538038062002cd58339818101604052604081101561004f57600080fd5b810190808051906020019092919080519060200190929190505050600160008190555060006100826101aa60201b60201c565b905080600160006101000a81548173ffffffffffffffffffffffffffffffffffffffff021916908373ffffffffffffffffffffffffffffffffffffffff1602179055508073ffffffffffffffffffffffffffffffffffffffff16600073ffffffffffffffffffffffffffffffffffffffff167f8be0079c531659141344cd1fd0a4f28419497f9722a3daafe3b4186f6b6457e060405160405180910390a35081600960006101000a81548173ffffffffffffffffffffffffffffffffffffffff021916908373ffffffffffffffffffffffffffffffffffffffff16021790555080600d60006101000a81548173ffffffffffffffffffffffffffffffffffffffff021916908373ffffffffffffffffffffffffffffffffffffffff16021790555050506101b2565b600033905090565b612b1380620001c26000396000f3fe6080604052600436106100dd5760003560e01c806395178c681161007f578063bd39833911610059578063bd398339146104ca578063cec10c1114610536578063cef88df414610585578063f2fde38b14610617576100dd565b806395178c68146102fe5780639ebec7ab1461039f578063a85c38ef1461040b576100dd565b80637017d4f1116100bb5780637017d4f1146101e9578063715018a614610214578063829899cc1461022b5780638da5cb5b146102bd576100dd565b806342912a94146100e25780634f558e7914610147578063514fcac714610198575b600080fd5b61012f600480360360408110156100f857600080fd5b8101908080359060200190929190803573ffffffffffffffffffffffffffffffffffffffff19169060200190929190505050610668565b60405180821515815260200191505060405180910390f35b34801561015357600080fd5b506101806004803603602081101561016a57600080fd5b8101908080359060200190929190505050610792565b60405180821515815260200191505060405180910390f35b3480156101a457600080fd5b506101d1600480360360208110156101bb57600080fd5b81019080803590602001909291905050506107b4565b60405180821515815260200191505060405180910390f35b3480156101f557600080fd5b506101fe6109eb565b6040518082815260200191505060405180910390f35b34801561022057600080fd5b506102296109f5565b005b6102a56004803603608081101561024157600080fd5b8101908080359060200190929190803573ffffffffffffffffffffffffffffffffffffffff19169060200190929190803515159060200190929190803573ffffffffffffffffffffffffffffffffffffffff19169060200190929190505050610b65565b60405180821515815260200191505060405180910390f35b3480156102c957600080fd5b506102d2610c71565b604051808273ffffffffffffffffffffffffffffffffffffffff16815260200191505060405180910390f35b34801561030a57600080fd5b506103376004803603602081101561032157600080fd5b8101908080359060200190929190505050610c9b565b604051808781526020018673ffffffffffffffffffffffffffffffffffffffff1681526020018581526020018473ffffffffffffffffffffffffffffffffffffffff191681526020018315158152602001828152602001965050505050505060405180910390f35b3480156103ab57600080fd5b506103b4610d9f565b6040518080602001828103825283818151815260200191508051906020019060200280838360005b838110156103f75780820151818401526020810190506103dc565b505050509050019250505060405180910390f35b34801561041757600080fd5b506104446004803603602081101561042e57600080fd5b8101908080359060200190929190505050610df7565b604051808881526020018773ffffffffffffffffffffffffffffffffffffffff1681526020018673ffffffffffffffffffffffffffffffffffffffff191681526020018581526020018473ffffffffffffffffffffffffffffffffffffffff19168152602001831515815260200182815260200197505050505050505060405180910390f35b3480156104d657600080fd5b506104df610e80565b6040518080602001828103825283818151815260200191508051906020019060200280838360005b83811015610522578082015181840152602081019050610507565b505050509050019250505060405180910390f35b34801561054257600080fd5b506105836004803603606081101561055957600080fd5b81019080803590602001909291908035906020019092919080359060200190929190505050610f15565b005b34801561059157600080fd5b50610601600480360360608110156105a857600080fd5b81019080803573ffffffffffffffffffffffffffffffffffffffff169060200190929190803573ffffffffffffffffffffffffffffffffffffffff19169060200190929190803515159060200190929190505050610ff5565b6040518082815260200191505060405180910390f35b34801561062357600080fd5b506106666004803603602081101561063a57600080fd5b81019080803573ffffffffffffffffffffffffffffffffffffffff169060200190929190505050611283565b005b600034600781905550600260005414156106ea576040517f08c379a000000000000000000000000000000000000000000000000000000000815260040180806020018281038252601f8152602001807f5265656e7472616e637947756172643a207265656e7472616e742063616c6c0081525060200191505060405180910390fd5b60026000819055508260026000858152602001908152602001600020600001541461071457600080fd5b6000610721338585611478565b905060006007541115610778573373ffffffffffffffffffffffffffffffffffffffff166108fc6007549081150290604051600060405180830381858888f19350505050158015610776573d6000803e3d6000fd5b505b809150506001600081905550600060078190555092915050565b6000816002600084815260200190815260200160002060000154149050919050565b60006002600054141561082f576040517f08c379a000000000000000000000000000000000000000000000000000000000815260040180806020018281038252601f8152602001807f5265656e7472616e637947756172643a207265656e7472616e742063616c6c0081525060200191505060405180910390fd5b600260008190555060008211801561085c5750816002600084815260200190815260200160002060000154145b80156108c957503373ffffffffffffffffffffffffffffffffffffffff166002600084815260200190815260200160002060010160009054906101000a900473ffffffffffffffffffffffffffffffffffffffff1673ffffffffffffffffffffffffffffffffffffffff16145b6108d257600080fd5b60006002600084815260200190815260200160002060020154905060006002600085815260200190815260200160002060030160009054906101000a900460a01b9050600060026000868152602001908152602001600020600301600c9054906101000a900460ff169050600061094886611d25565b905080156109d7577f300b395dee3372a4ceea05912aac84c57f9d59f593a605ce0c583cb9f502cd008633868686604051808681526020018573ffffffffffffffffffffffffffffffffffffffff1681526020018481526020018373ffffffffffffffffffffffffffffffffffffffff1916815260200182151581526020019550505050505060405180910390a15b809450505050506001600081905550919050565b6000600854905090565b6109fd612113565b73ffffffffffffffffffffffffffffffffffffffff16610a1b610c71565b73ffffffffffffffffffffffffffffffffffffffff1614610aa4576040517f08c379a00000000000000000000000000000000000000000000000000000000081526004018080602001828103825260208152602001807f4f776e61626c653a2063616c6c6572206973206e6f7420746865206f776e657281525060200191505060405180910390fd5b600073ffffffffffffffffffffffffffffffffffffffff16600160009054906101000a900473ffffffffffffffffffffffffffffffffffffffff1673ffffffffffffffffffffffffffffffffffffffff167f8be0079c531659141344cd1fd0a4f28419497f9722a3daafe3b4186f6b6457e060405160405180910390a36000600160006101000a81548173ffffffffffffffffffffffffffffffffffffffff021916908373ffffffffffffffffffffffffffffffffffffffff160217905550565b60003460078190555060026000541415610be7576040517f08c379a000000000000000000000000000000000000000000000000000000000815260040180806020018281038252601f8152602001807f5265656e7472616e637947756172643a207265656e7472616e742063616c6c0081525060200191505060405180910390fd5b60026000819055506000610bfe338787878761211b565b905060006007541115610c55573373ffffffffffffffffffffffffffffffffffffffff166108fc6007549081150290604051600060405180830381858888f19350505050158015610c53573d6000803e3d6000fd5b505b8091505060016000819055506000600781905550949350505050565b6000600160009054906101000a900473ffffffffffffffffffffffffffffffffffffffff16905090565b60008060008060008086600260008981526020019081526020016000206000015414610cc657600080fd5b60026000888152602001908152602001600020600001546002600089815260200190815260200160002060010160009054906101000a900473ffffffffffffffffffffffffffffffffffffffff16600260008a815260200190815260200160002060020154600260008b815260200190815260200160002060030160009054906101000a900460a01b600260008c8152602001908152602001600020600301600c9054906101000a900460ff16600260008d81526020019081526020016000206004015495509550955095509550955091939550919395565b60606003805480602002602001604051908101604052809291908181526020018280548015610ded57602002820191906000526020600020905b815481526020019060010190808311610dd9575b5050505050905090565b60026020528060005260406000206000915090508060000154908060010160009054906101000a900473ffffffffffffffffffffffffffffffffffffffff16908060010160149054906101000a900460a01b908060020154908060030160009054906101000a900460a01b9080600301600c9054906101000a900460ff16908060040154905087565b6060600560003373ffffffffffffffffffffffffffffffffffffffff1673ffffffffffffffffffffffffffffffffffffffff168152602001908152602001600020805480602002602001604051908101604052809291908181526020018280548015610f0b57602002820191906000526020600020905b815481526020019060010190808311610ef7575b5050505050905090565b610f1d612113565b73ffffffffffffffffffffffffffffffffffffffff16610f3b610c71565b73ffffffffffffffffffffffffffffffffffffffff1614610fc4576040517f08c379a00000000000000000000000000000000000000000000000000000000081526004018080602001828103825260208152602001807f4f776e61626c653a2063616c6c6572206973206e6f7420746865206f776e657281525060200191505060405180910390fd5b8083108015610fd257508082105b610fdb57600080fd5b82600a8190555081600b8190555080600c81905550505050565b60008373ffffffffffffffffffffffffffffffffffffffff16600960009054906101000a900473ffffffffffffffffffffffffffffffffffffffff1673ffffffffffffffffffffffffffffffffffffffff16630c5cc0a2856040518263ffffffff1660e01b8152600401808273ffffffffffffffffffffffffffffffffffffffff1916815260200191505060206040518083038186803b15801561109857600080fd5b505afa1580156110ac573d6000803e3d6000fd5b505050506040513d60208110156110c257600080fd5b810190808051906020019092919050505073ffffffffffffffffffffffffffffffffffffffff161480156111955750600960009054906101000a900473ffffffffffffffffffffffffffffffffffffffff1673ffffffffffffffffffffffffffffffffffffffff1663315ff7826040518163ffffffff1660e01b815260040160206040518083038186803b15801561115957600080fd5b505afa15801561116d573d6000803e3d6000fd5b505050506040513d602081101561118357600080fd5b81019080805190602001909291905050505b1561126657600960009054906101000a900473ffffffffffffffffffffffffffffffffffffffff1673ffffffffffffffffffffffffffffffffffffffff166316166f89846040518263ffffffff1660e01b8152600401808273ffffffffffffffffffffffffffffffffffffffff1916815260200191505060206040518083038186803b15801561122457600080fd5b505afa158015611238573d6000803e3d6000fd5b505050506040513d602081101561124e57600080fd5b8101908080519060200190929190505050905061127c565b811561127657600a54905061127c565b600b5490505b9392505050565b61128b612113565b73ffffffffffffffffffffffffffffffffffffffff166112a9610c71565b73ffffffffffffffffffffffffffffffffffffffff1614611332576040517f08c379a00000000000000000000000000000000000000000000000000000000081526004018080602001828103825260208152602001807f4f776e61626c653a2063616c6c6572206973206e6f7420746865206f776e657281525060200191505060405180910390fd5b600073ffffffffffffffffffffffffffffffffffffffff168173ffffffffffffffffffffffffffffffffffffffff1614156113b8576040517f08c379a0000000000000000000000000000000000000000000000000000000008152600401808060200182810382526026815260200180612a976026913960400191505060405180910390fd5b8073ffffffffffffffffffffffffffffffffffffffff16600160009054906101000a900473ffffffffffffffffffffffffffffffffffffffff1673ffffffffffffffffffffffffffffffffffffffff167f8be0079c531659141344cd1fd0a4f28419497f9722a3daafe3b4186f6b6457e060405160405180910390a380600160006101000a81548173ffffffffffffffffffffffffffffffffffffffff021916908373ffffffffffffffffffffffffffffffffffffffff16021790555050565b600080831161148a5760009050611d1e565b6000600260008581526020019081526020016000209050838160000154146114b6576000915050611d1e565b80600301600c9054906101000a900460ff161561180857600960009054906101000a900473ffffffffffffffffffffffffffffffffffffffff1673ffffffffffffffffffffffffffffffffffffffff16633bd86d2d868360030160009054906101000a900460a01b306040518463ffffffff1660e01b8152600401808473ffffffffffffffffffffffffffffffffffffffff1681526020018373ffffffffffffffffffffffffffffffffffffffff191681526020018273ffffffffffffffffffffffffffffffffffffffff168152602001935050505060206040518083038186803b1580156115a457600080fd5b505afa1580156115b8573d6000803e3d6000fd5b505050506040513d60208110156115ce57600080fd5b81019080805190602001909291905050506115ed576000915050611d1e565b600960009054906101000a900473ffffffffffffffffffffffffffffffffffffffff1673ffffffffffffffffffffffffffffffffffffffff1663ce086ec1868360010160009054906101000a900473ffffffffffffffffffffffffffffffffffffffff168460030160009054906101000a900460a01b6040518463ffffffff1660e01b8152600401808473ffffffffffffffffffffffffffffffffffffffff1681526020018373ffffffffffffffffffffffffffffffffffffffff1681526020018273ffffffffffffffffffffffffffffffffffffffff191681526020019350505050602060405180830381600087803b1580156116ea57600080fd5b505af11580156116fe573d6000803e3d6000fd5b505050506040513d602081101561171457600080fd5b810190808051906020019092919050505050600061174a61173787866000610ff5565b836002015461261790919063ffffffff16565b9050600d60009054906101000a900473ffffffffffffffffffffffffffffffffffffffff1673ffffffffffffffffffffffffffffffffffffffff166108fc829081150290604051600060405180830381858888f193505050501580156117b4573d6000803e3d6000fd5b508573ffffffffffffffffffffffffffffffffffffffff166108fc828460020154039081150290604051600060405180830381858888f19350505050158015611801573d6000803e3d6000fd5b5050611a7b565b600060075411158061181f57508060020154600754105b1561182e576000915050611d1e565b611847816002015460075461269d90919063ffffffff16565b600781905550600960009054906101000a900473ffffffffffffffffffffffffffffffffffffffff1673ffffffffffffffffffffffffffffffffffffffff16638eacf7138260030160009054906101000a900460a01b876040518363ffffffff1660e01b8152600401808373ffffffffffffffffffffffffffffffffffffffff191681526020018273ffffffffffffffffffffffffffffffffffffffff16815260200192505050602060405180830381600087803b15801561190857600080fd5b505af115801561191c573d6000803e3d6000fd5b505050506040513d602081101561193257600080fd5b810190808051906020019092919050505050600061199d61198a8360010160009054906101000a900473ffffffffffffffffffffffffffffffffffffffff168460010160149054906101000a900460a01b6001610ff5565b836002015461261790919063ffffffff16565b9050600d60009054906101000a900473ffffffffffffffffffffffffffffffffffffffff1673ffffffffffffffffffffffffffffffffffffffff166108fc829081150290604051600060405180830381858888f19350505050158015611a07573d6000803e3d6000fd5b508160010160009054906101000a900473ffffffffffffffffffffffffffffffffffffffff1673ffffffffffffffffffffffffffffffffffffffff166108fc828460020154039081150290604051600060405180830381858888f19350505050158015611a78573d6000803e3d6000fd5b50505b7f6a902e794692b02e8c33b28eb00dc7c40bb2db5845acc350a74b55c2823c15ea848260010160009054906101000a900473ffffffffffffffffffffffffffffffffffffffff168784600201548560030160009054906101000a900460a01b86600301600c9054906101000a900460ff1642604051808881526020018773ffffffffffffffffffffffffffffffffffffffff1681526020018673ffffffffffffffffffffffffffffffffffffffff1681526020018581526020018473ffffffffffffffffffffffffffffffffffffffff19168152602001831515815260200182815260200197505050505050505060405180910390a16000600460008681526020019081526020016000205490506000611ba4600160038054905061269d90919063ffffffff16565b9050600060038281548110611bb557fe5b906000526020600020015490508060038481548110611bd057fe5b906000526020600020018190555060046000888152602001908152602001600020600090558260046000838152602001908152602001600020819055506003805480611c1857fe5b60019003818190600052602060002001600090559055611c6e6002600089815260200190815260200160002060010160009054906101000a900473ffffffffffffffffffffffffffffffffffffffff1688612720565b600260008881526020019081526020016000206000808201600090556001820160006101000a81549073ffffffffffffffffffffffffffffffffffffffff02191690556001820160146101000a8154906bffffffffffffffffffffffff021916905560028201600090556003820160006101000a8154906bffffffffffffffffffffffff021916905560038201600c6101000a81549060ff02191690556004820160009055505060019450505050505b9392505050565b60008082111580611d4c575081600260008481526020019081526020016000206000015414155b15611d5a576000905061210e565b6000600460008481526020019081526020016000205490506000611d8d600160038054905061269d90919063ffffffff16565b9050600060038281548110611d9e57fe5b906000526020600020015490508060038481548110611db957fe5b906000526020600020018190555060046000868152602001908152602001600020600090558260046000838152602001908152602001600020819055506003805480611e0157fe5b600190038181906000526020600020016000905590556000151560026000878152602001908152602001600020600301600c9054906101000a900460ff1615151415611f8b57600960009054906101000a900473ffffffffffffffffffffffffffffffffffffffff1673ffffffffffffffffffffffffffffffffffffffff16638eacf7136002600088815260200190815260200160002060030160009054906101000a900460a01b6002600089815260200190815260200160002060010160009054906101000a900473ffffffffffffffffffffffffffffffffffffffff166040518363ffffffff1660e01b8152600401808373ffffffffffffffffffffffffffffffffffffffff191681526020018273ffffffffffffffffffffffffffffffffffffffff16815260200192505050602060405180830381600087803b158015611f4a57600080fd5b505af1158015611f5e573d6000803e3d6000fd5b505050506040513d6020811015611f7457600080fd5b81019080805190602001909291905050505061201f565b6002600086815260200190815260200160002060010160009054906101000a900473ffffffffffffffffffffffffffffffffffffffff1673ffffffffffffffffffffffffffffffffffffffff166108fc60026000888152602001908152602001600020600201549081150290604051600060405180830381858888f1935050505015801561201d573d6000803e3d6000fd5b505b61205f6002600087815260200190815260200160002060010160009054906101000a900473ffffffffffffffffffffffffffffffffffffffff1686612720565b600260008681526020019081526020016000206000808201600090556001820160006101000a81549073ffffffffffffffffffffffffffffffffffffffff02191690556001820160146101000a8154906bffffffffffffffffffffffff021916905560028201600090556003820160006101000a8154906bffffffffffffffffffffffff021916905560038201600c6101000a81549060ff021916905560048201600090555050600193505050505b919050565b600033905090565b600080851161212d576000905061260e565b8215612159576000600754111580612146575084600754105b15612154576000905061260e565b612268565b600960009054906101000a900473ffffffffffffffffffffffffffffffffffffffff1673ffffffffffffffffffffffffffffffffffffffff16633bd86d2d8786306040518463ffffffff1660e01b8152600401808473ffffffffffffffffffffffffffffffffffffffff1681526020018373ffffffffffffffffffffffffffffffffffffffff191681526020018273ffffffffffffffffffffffffffffffffffffffff168152602001935050505060206040518083038186803b15801561221f57600080fd5b505afa158015612233573d6000803e3d6000fd5b505050506040513d602081101561224957600080fd5b8101908080519060200190929190505050612267576000905061260e565b5b60006122726109eb565b90506040518060e001604052808281526020018873ffffffffffffffffffffffffffffffffffffffff1681526020018473ffffffffffffffffffffffffffffffffffffffff191681526020018781526020018673ffffffffffffffffffffffffffffffffffffffff19168152602001851515815260200142815250600260008381526020019081526020016000206000820151816000015560208201518160010160006101000a81548173ffffffffffffffffffffffffffffffffffffffff021916908373ffffffffffffffffffffffffffffffffffffffff16021790555060408201518160010160146101000a8154816bffffffffffffffffffffffff021916908360a01c02179055506060820151816002015560808201518160030160006101000a8154816bffffffffffffffffffffffff021916908360a01c021790555060a082015181600301600c6101000a81548160ff02191690831515021790555060c082015181600401559050506003819080600181540180825580915050600190039060005260206000200160009091909190915055612422600160038054905061269d90919063ffffffff16565b6004600083815260200190815260200160002081905550831561245f576124548660075461269d90919063ffffffff16565b600781905550612564565b600960009054906101000a900473ffffffffffffffffffffffffffffffffffffffff1673ffffffffffffffffffffffffffffffffffffffff1663ce086ec18830886040518463ffffffff1660e01b8152600401808473ffffffffffffffffffffffffffffffffffffffff1681526020018373ffffffffffffffffffffffffffffffffffffffff1681526020018273ffffffffffffffffffffffffffffffffffffffff191681526020019350505050602060405180830381600087803b15801561252757600080fd5b505af115801561253b573d6000803e3d6000fd5b505050506040513d602081101561255157600080fd5b8101908080519060200190929190505050505b61256e878261298f565b7ffd0d9b63e23a5395ef991de262a12c384db6496ac271c99452eca43da1f8f425818888888842604051808781526020018673ffffffffffffffffffffffffffffffffffffffff1681526020018581526020018473ffffffffffffffffffffffffffffffffffffffff191681526020018315158152602001828152602001965050505050505060405180910390a160016008540160088190555060019150505b95945050505050565b60008083141561262a5760009050612697565b600082840290508284828161263b57fe5b0414612692576040517f08c379a0000000000000000000000000000000000000000000000000000000008152600401808060200182810382526021815260200180612abd6021913960400191505060405180910390fd5b809150505b92915050565b600082821115612715576040517f08c379a000000000000000000000000000000000000000000000000000000000815260040180806020018281038252601e8152602001807f536166654d6174683a207375627472616374696f6e206f766572666c6f77000081525060200191505060405180910390fd5b818303905092915050565b6000600660008473ffffffffffffffffffffffffffffffffffffffff1673ffffffffffffffffffffffffffffffffffffffff168152602001908152602001600020600083815260200190815260200160002054905060006127cd6001600560008773ffffffffffffffffffffffffffffffffffffffff1673ffffffffffffffffffffffffffffffffffffffff1681526020019081526020016000208054905061269d90919063ffffffff16565b90506000600560008673ffffffffffffffffffffffffffffffffffffffff1673ffffffffffffffffffffffffffffffffffffffff168152602001908152602001600020828154811061281b57fe5b9060005260206000200154905080600560008773ffffffffffffffffffffffffffffffffffffffff1673ffffffffffffffffffffffffffffffffffffffff168152602001908152602001600020848154811061287357fe5b9060005260206000200181905550600560008673ffffffffffffffffffffffffffffffffffffffff1673ffffffffffffffffffffffffffffffffffffffff1681526020019081526020016000208054806128c957fe5b60019003818190600052602060002001600090559055600660008673ffffffffffffffffffffffffffffffffffffffff1673ffffffffffffffffffffffffffffffffffffffff16815260200190815260200160002060008581526020019081526020016000206000905582600660008773ffffffffffffffffffffffffffffffffffffffff1673ffffffffffffffffffffffffffffffffffffffff1681526020019081526020016000206000838152602001908152602001600020819055505050505050565b6000600560008473ffffffffffffffffffffffffffffffffffffffff1673ffffffffffffffffffffffffffffffffffffffff168152602001908152602001600020805490509050600560008473ffffffffffffffffffffffffffffffffffffffff1673ffffffffffffffffffffffffffffffffffffffff16815260200190815260200160002082908060018154018082558091505060019003906000526020600020016000909190919091505580600660008573ffffffffffffffffffffffffffffffffffffffff1673ffffffffffffffffffffffffffffffffffffffff16815260200190815260200160002060008481526020019081526020016000208190555050505056fe4f776e61626c653a206e6577206f776e657220697320746865207a65726f2061646472657373536166654d6174683a206d756c7469706c69636174696f6e206f766572666c6f77a26469706673582212203afabaa258aabe84331bfad55cd5b80d2f7c9471f6ffbccb8621250aba049b5364736f6c63430007060033",
  "immutableReferences": {},
  "source": "// SPDX-License-Identifier: MIT\n\npragma solidity 0.7.6;\n\nimport \"@openzeppelin/contracts/math/SafeMath.sol\";\nimport \"@openzeppelin/contracts/utils/ReentrancyGuard.sol\";\nimport \"@openzeppelin/contracts/access/Ownable.sol\";\nimport \"./Emblem.sol\";\n\ncontract VanityExchange is ReentrancyGuard, Ownable {\n  using SafeMath for uint256;\n\n  struct Order {\n    uint256 id;\n    address payable maker;\n    bytes12 makerVanity;\n    uint256 price;\n    bytes12 vanity;\n    bool demand;\n    uint256 createdAt;\n  }\n\n  // order id -> order\n  mapping(uint256 => Order) public orders;\n\n  // Array with all order ids, used for enumeration\n  uint256[] internal allOrders;\n\n  // Mapping from order id to position in the allOrders array\n  mapping(uint256 => uint256) internal allOrdersIndex;\n\n  // Mapping from owner to list of owned order IDs\n  mapping(address => uint256[]) internal ownedOrders;\n\n  // Mapping from owner to map of order ID to index of the owner orders list\n  mapping(address => mapping (uint256 => uint256)) internal ownedOrdersIndex;\n\n  // weiSend of current tx\n  uint256 private weiSend = 0;\n\n  uint256 private highestId = 1;\n\n  Emblem EMB;\n\n  uint256 makerFee = 1;\n  uint256 takerFee = 1;\n  uint256 feeDenomination = 1000;\n  address payable feeReciever;\n\n\n  // makes sure weiSend of current tx is reset\n  modifier weiSendGuard() {\n    weiSend = msg.value;\n    _;\n    weiSend = 0;\n  }\n\n  // logs\n  event OrderPlaced(uint256 id, address maker, uint256 price, bytes12 vanity, bool demand, uint256 createdAt);\n\n  event OrderFilled(uint256 id, address maker, address taker, uint256 price, bytes12 vanity, bool demand, uint256 fulfilledAt);\n\n  event OrderCancelled(uint256 id, address maker, uint256 price, bytes12 vanity, bool demand);\n\n  constructor(address _emb,address payable _feeReciever) public {\n    EMB = Emblem(_emb);\n    feeReciever = _feeReciever;\n  }\n\n  function exists(uint256 id) public view returns (bool) {\n    return (orders[id].id == id);\n  }\n\n  function setFees(uint256 _makerFee, uint256 _takerFee, uint256 _denomination) public onlyOwner {\n    require(_makerFee < _denomination && _takerFee < _denomination);\n    makerFee = _makerFee;\n    takerFee = _takerFee;\n    feeDenomination = _denomination;\n  }\n\n  function getFee(address owner, bytes12 vanity, bool isMaker) public view returns (uint256){\n    if(EMB.getVanityOwner(vanity) == owner && EMB.enabledVanityFee()) return EMB.getFee(vanity);\n    else {\n      if(isMaker) return makerFee;\n      else return takerFee;\n    }\n  }\n\n  function getNewId() public view returns(uint256) {\n    return highestId;\n  }\n\n  function _placeOrder(address payable maker, uint256 price, bytes12 vanity, bool demand, bytes12 makerVanity) internal returns (bool){\n\n    // validate input\n    if (price <= 0) return (false);\n\n    if(demand) {\n      if(weiSend <= 0 || weiSend < price) return (false);\n    }\n    else {\n      if (!EMB.vanityAllowance(maker, vanity,address(this))) return (false);\n    }\n\n    uint256 id = getNewId();\n\n    orders[id] = Order(id, maker,makerVanity, price,vanity, demand, block.timestamp);\n    allOrders.push(id);\n    allOrdersIndex[id] = allOrders.length.sub(1);\n\n    if(demand) weiSend = weiSend.sub(price);\n    else EMB.transferVanityFrom(maker, address(this), vanity);\n\n    _addOrderToUser(maker, id);\n\n    emit OrderPlaced(id, maker, price, vanity, demand, block.timestamp);\n\n    highestId = highestId + 1;\n\n    return (true);\n  }\n\n  function _takeOrder(address payable taker, uint256 id, bytes12 vanity) internal returns (bool) {\n\n    if (id <= 0) return (false);\n    Order storage order = orders[id];\n    if (order.id != id) return (false);\n\n    if(order.demand){\n\n      if (!EMB.vanityAllowance(taker, order.vanity,address(this))) return (false);\n\n\n      EMB.transferVanityFrom(taker,order.maker,order.vanity);\n\n      uint256 fee_taker = order.price.mul(getFee(taker, vanity, false));\n\n      feeReciever.transfer(fee_taker);\n\n      taker.transfer(order.price - fee_taker);\n    }\n    //\n    else {\n      if (weiSend <= 0 || weiSend < order.price) return (false);\n\n      weiSend = weiSend.sub(order.price);\n\n      EMB.transferVanity(order.vanity,taker);\n\n      uint256 fee_maker = order.price.mul(getFee(order.maker, order.makerVanity, true));\n\n      feeReciever.transfer(fee_maker);\n\n      order.maker.transfer(order.price - fee_maker);\n    }\n    //\n    emit OrderFilled(id, order.maker, taker, order.price,order.vanity, order.demand, block.timestamp);\n\n    // _deleteOrder(id);\n    uint256 orderIndex = allOrdersIndex[id];\n    uint256 lastOrderIndex = allOrders.length.sub(1);\n    uint256 lastOrder = allOrders[lastOrderIndex];\n\n    allOrders[orderIndex] = lastOrder;\n    delete allOrdersIndex[id];\n    allOrdersIndex[lastOrder] = orderIndex;\n    allOrders.pop();\n\n    _removeOrderFromUser(orders[id].maker, id);\n\n    delete orders[id];\n\n    return (true);\n  }\n\n  function _deleteOrder(uint256 id) internal returns (bool) {\n\n    if (\n      id <= 0 ||\n      orders[id].id != id\n    ) return (false);\n\n    // // Reorg all orders\n    uint256 orderIndex = allOrdersIndex[id];\n    uint256 lastOrderIndex = allOrders.length.sub(1);\n    uint256 lastOrder = allOrders[lastOrderIndex];\n    allOrders[orderIndex] = lastOrder;\n    delete allOrdersIndex[id];\n    allOrdersIndex[lastOrder] = orderIndex;\n    allOrders.pop();\n\n    //pay back on cancellation\n    if(orders[id].demand == false){\n      EMB.transferVanity(orders[id].vanity,orders[id].maker);\n    }\n    else {\n      orders[id].maker.transfer(orders[id].price);\n    }\n    //remove order from user\n    _removeOrderFromUser(orders[id].maker, id);\n\n    delete orders[id];\n\n    return (true);\n  }\n\n  function retrieveMyOrders() public view returns(uint256[] memory) {\n    return ownedOrders[msg.sender];\n  }\n\n  function retrieveOrders() public view returns(uint256[] memory) {\n    return allOrders;\n  }\n\n  function getOrderData(uint256 id) public view returns (uint256, address, uint256, bytes12, bool, uint256) {\n    require(orders[id].id == id);\n    return (orders[id].id, orders[id].maker, orders[id].price, orders[id].vanity, orders[id].demand, orders[id].createdAt);\n  }\n\n  function _addOrderToUser(address _to, uint256 _orderId) internal {\n    uint256 length = ownedOrders[_to].length;\n    ownedOrders[_to].push(_orderId);\n    ownedOrdersIndex[_to][_orderId] = length;\n  }\n\n  function _removeOrderFromUser(address _from, uint256 _orderId) internal {\n    uint256 orderIndex = ownedOrdersIndex[_from][_orderId];\n    uint256 lastOrderIndex = ownedOrders[_from].length.sub(1);\n    uint256 lastOrderId = ownedOrders[_from][lastOrderIndex];\n\n    ownedOrders[_from][orderIndex] = lastOrderId;\n    ownedOrders[_from].pop();\n    delete ownedOrdersIndex[_from][_orderId];\n    ownedOrdersIndex[_from][lastOrderId] = orderIndex;\n  }\n\n  function placeOrder(uint256 price, bytes12 vanity, bool demand, bytes12 makerVanity)  external payable weiSendGuard nonReentrant returns (bool)  {\n    bool success = _placeOrder(msg.sender, price, vanity, demand,makerVanity);\n\n    //send back excess ETH\n    if (weiSend > 0) msg.sender.transfer(weiSend);\n\n    return success;\n  }\n\n  function takeOrder(uint256 id,bytes12 vanity)  external payable weiSendGuard nonReentrant returns (bool) {\n    require(orders[id].id == id);\n\n    bool success = _takeOrder(msg.sender, id, vanity);\n\n    //send back excess ETH\n    if (weiSend > 0) msg.sender.transfer(weiSend);\n\n    return success;\n  }\n\n  function cancelOrder(uint256 id) external nonReentrant returns (bool) {\n    require(\n      id > 0 &&\n      orders[id].id == id &&\n      orders[id].maker == msg.sender\n    );\n\n    uint256 price = orders[id].price;\n    bytes12 vanity = orders[id].vanity;\n    bool demand = orders[id].demand;\n\n    bool success = _deleteOrder(id);\n    if(success) emit OrderCancelled(id, msg.sender,price, vanity,demand);\n\n    return success;\n  }\n}\n",
  "sourcePath": "/Users/arjunjain/Emblem_Ethereum_Anchor/contracts/VanityExchange.sol",
  "compiler": {
    "name": "solc",
    "version": "0.7.6+commit.7338295f.Emscripten.clang"
  },
  "schemaVersion": "3.3.3",
  "updatedAt": "2021-02-13T19:41:21.362Z",
  "devdoc": {
    "kind": "dev",
    "methods": {
      "owner()": {
        "details": "Returns the address of the current owner."
      },
      "renounceOwnership()": {
        "details": "Leaves the contract without owner. It will not be possible to call `onlyOwner` functions anymore. Can only be called by the current owner. NOTE: Renouncing ownership will leave the contract without an owner, thereby removing any functionality that is only available to the owner."
      },
      "transferOwnership(address)": {
        "details": "Transfers ownership of the contract to a new account (`newOwner`). Can only be called by the current owner."
      }
    },
    "version": 1
  },
  "userdoc": {
    "kind": "user",
    "methods": {},
    "version": 1
  }
}